:4000000000800020110000009D1000009D100000064A08B5136843F020031360044B1A6803F53F5302331A6001F056F8E8460040FA46004010B5054C237833B9044B13B17D
:400040000448AFF300800123237010BD6881FF1F00000000E8380000084B10B51BB108490848AFF300800848036803B910BD074B002BFBD0BDE81040184700BF0000000021
:400080006C81FF1FE8380000C880FF1F000000000A4A0B4B116801310B40002BBEBF03F1FF3363F03F030133136011685368994202BF024B01221A72704700BF8881FF1F9C
:4000C0003F0000800A4A0B4B516801310B40002BBEBF03F1FF3363F03F030133536051681368994202BF024B01221A72704700BF8881FF1F3F000080114BDA68196919B9FD
:4001000001221A75597514E09969521A19698A4294BF587D00201875187D094908B1002204E0086982428CBF002201224A75DA689A611B7D13B1002002F056B9704700BF60
:400140008881FF1F10B5C4B2204601F087F90128FAD110BD08B572B60F4B0F49DA680132DA60DA690132C82A08BF0022DA611A6AD8690132A72A08BF00220A621B6A002BE5
:400180000CBF02230023002814BF184643F0010002F092FE62B608BD8881FF1F38B50446C5B2284602F0C2F8062002F0DFFA44F00200C0B202F0BAF8062002F0D7FA2846BD
:4001C00002F0B4F8BDE83840062002F0B9BA10B5642402F0A5F828B9FFF7E0FF013CF8D1204610BD012010BD70B5C4B2054620460E4601F033F9012805D0204601F04CFAA8
:400200002846FFF79FFF204601F030F9314605460246204601F0ECF9204601F01FF90028FAD1284670BD000038B5044D0024285D013402F04BFA402CF9D138BDAC81FF1F30
:4002400008B502F065FC002002F06EFC02F080FC02F08AFC80B208BD10B50446012002F07DF8642002F06CFAFFF7EAFF2080002002F074F8642002F063FAFFF7E1FF60801C
:4002800010BD08B502F070FD002002F079FD02F08BFD02F095FD80B208BD10B50446FFF796FF322002F04CFAFFF7EBFF20800120FFF774FF322002F043FAFFF7E2FF608072
:4002C00010BD0FB400B593B014AB53F8042B402102A8019302F0F0FE02A802F08CF802F096F813B05DF804EB04B0704710B5044601780648FFF7E5FF0420FFF723FF6278E6
:400300002146BDE81040042001F000B9043A000007B50023ADF804308DF80600032301A88DF80530FFF7E2FF03B05DF804FB000010B5074C94F8643043B1002001F0EAFF85
:40034000002002F07DFD002384F8643010BD00BF8881FF1F38B5124D837895F8672004469A4204D0FFF7E4FF002385F86A302368C5F8653022790B4B1A71A378002B14BF31
:400380000220012002F05CFDE078B0FA80F0400902F050FD2079BDE8384002F087BD00BF8881FF1FED81FF1F38B50D4C94F8645065B904F16500FFF7CDFF012001F0AAFFDC
:4003C0004FF47A7002F0BCF984F86A50E368E366012384F86430BDE8384002F0EFB900BF8881FF1FF8B5214C0546FFF7DDFF94F86A3003B15DB91E48FFF763FFFFF7E7FECE
:400400000120002384F86A00236702F0AFF92A46216F1848FFF755FF144E0027236F9D4216D001F07DFF00B13767236F9D4205DD0120FFF7B3FE336F013305E005DA002053
:40044000FFF7ACFE336F013B336702F0B7F9E5E7322002F075F92A2DCCBF0020012002F031FDBDE8F8400448FFF72BBF8881FF1F113A0000183A0000353A00002DE9F04F70
:4004800099B062B602F004FA9E49042002F028FA9D4801F051FF9D4802F0F4FC9C4801F085FF02F0D5FB02F0A7FA002002F0C8FC01F0A0FF0221002000F086FF954C012011
:4004C00001F0FEF8002384F86730FFF76DFFFFF77EFE84F87400FFF72BFF012384F86730FFF762FFFFF773FE84F87500FFF720FF894B94F87400894994F875202546002AA4
:4005000014BF0A461A46002808BF19468448FFF7D8FE0321084602F031F9264602F04EF994F8643043B1EA6EEB689B1A41F28832934201D9FFF7FCFE00F07EFF18B9794820
:40054000FFF7BFFE04E000F07DFF0028F7D10BE000F072FF10B902F031F9F9E77248FFF7B0FE032001F098F8032000F077FF0128D4D16E48FFF7EEFE6D490320FFF734FE85
:4005800094F876106B48FFF79CFE94F87630023B142B00F2D683DFE813F01500D4031E00D4032400D4035000D4037600D403D900D403C101D4030803D4032C03D40333036C
:4005C000D4034D0303238DF820308DF8213010238DF822302AE394F87800FFF703FF564B21E340F2DC57FFF7DFFE00232375E068227D02F0FF012AB9EB681B1ABB42F7DD43
:400600000B4611E083B10022174696F87810F068277594F814E0BEF1000F02D1EB681B1AF7E701329142F3DA07228DF8202004228DF82120ADF82230F8E20220FFF782FD2F
:400640004FF000080DF1200A02F0B8F84FF480790027C9EB0803DA1907F80A200137402FF9D10220FFF76EFD3A465146022000F04DFFB9F10109EBD108F10108B8F1400F58
:40068000E2D12E4B38E04FF0010A4FF000080DF1200B02F093F84FF0000959460120FFF7A3FD08EB090300270493049B1BF807203B44DBB29A4209D08DE80C0041463B4641
:4006C0004A461F48FFF7FDFD4FF0000A0137402FEBD109F10109B9F5807FDED108F10108B8F1400FD5D151461648FFF7EAFDBAF1000F00F01B81144B1B8807A8ADF81C30AD
:4007000095E200BF55010000F900000091000000C50000008881FF1F473A0000433A00004A3A0000623A0000753A0000ED81FF1FFE81FF1F7F3A0000EC380000EE380000BE
:400740008E3A0000AA3A0000F0380000206FFFF749FE94F8780001F001FE94F8780001F0E5FD02F015FCB94BDFF8FC821A78002702F0FB021A701A7842F001021A701A789D
:4007800002F0FE021A701A7802F0FE021A7002F003FC0220FFF7D6FC012141F6FF734FF48042084602F052FB84F8B60001F074FF08F807000137402FF8D1DFF8B0A200271A
:4007C0000AF195091FFA89F80137402F14BF3A4600221AF8010F2244062392F82420402101F08EFF424646F24B419AF8000001F099FF08F14008402F1FFA88F8E4D196F859
:40080000793053B196F87C30336100233375237D002BFCD000233375336100234FF0FF32236062602372236894F8B600234493F8241001F0E9FE94F8B60001F0A7FE01214A
:4008400094F8B60001F07AFE2368002BFCD0002398467360D6F80CA0012701F0AFFFE368B4F87A20CAEB030393420DD367B1042195F8B60001F0D4FE94F8B60001F0E0FEE1
:400880000028F9D107463072237AFBB96A682B689A4202D1002FE0D118E00220FFF752FC6968402209EB8111022000F02FFE6A68674B01321340002BBEBF03F1FF3363F091
:4008C0003F03013308F101086360C6E70220277AFFF738FC00221146022000F017FE0220FFF730FCFFB2FFF79FFC002001F01EFD37B15848FFF7E5FC0220FFF709FD06E06E
:40090000554B08A81B88ADF82030FFF7EFFC227D4146237A5148FFF7D4FC15E25048FFF7D0FCD4F87A7017F03F0701D0032009E2286FFFF757FD95F8780001F00FFD95F829
:40094000780001F0F3FC012001F00EFD02F020FB444BDFF814811A7842F004021A701A7842F001021A701A7802F0FE021A701A7802F0FE021A7002F00FFB01214FF4804315
:4009800041F6FF72084601F0F5FC85F8B60001F083FE08F807000137402FF8D1DFF8CC90002709F195031FFA83F804930137402F14BF3A46002219F8010F2244052392F8D7
:4009C0002420402101F09CFE414646F2495299F8000001F0A7FE08F14008402F1FFA88F8E4D100274FF0FF33376098467360BB463B46D6F87A9037725FEA99190CBF4FF060
:400A0000010A4FF0000A2168114A01310A40002ABCBF02F1FF3262F03F026068B8BF013282426FD02BB1227A002A7AD12A7D002A77D12068049A059302EB8010BAF1000F36
:400A400016D040223F2102F003FB1CE09B6400403F000080B43A0000F2380000CE3A0000E13A000099650040AC81FF1FAB81FF1F014601370120FFF7B7FBC7EB0903D3F10C
:400A8000000A4AEB030A2168B34A01310A40002ABEBF02F1FF3262F03F02013222606268059B01322ED12A683F2A2BD14FF00008C5F8048001F08CFC85F808806B6895F8DC
:400AC000B6002B4493F8241001F09EFD95F8B60001F05CFD012195F8B60001F02FFD95F87E302B6185F81480237D002BFCD04FF00008012086F8148001F076FC404601F0B4
:400B000033FC00E023B1237A5BB92B7D4BB90123626842453FF477AF0BF1010BD5F8048071E701F05BFC012001F01EFC002001F05BFC042194F8B60001F072FD94F8B60011
:400B400001F07EFD80460028F8D196F8B60001F00BFD337D327A0293012303920193CDF800A05B463A4649467C48FFF7AAFBC6F81080BAF1000F0BD0FFF756FB002001F028
:400B8000D5FB237A63B17648FFF79BFB0220D9E0B945F1D073490120FFF726FB0137F7E77148FFF78EFB714B3DE094F8780001F0D5FB206FFFF716FC6D48FFF782FB94F8A5
:400BC0007930236100232375237D002BFCD0012001F00AFC00233375237D002BFCD0002001F002FC002363483361FFF76AFB624B19E0002084F86A00FFF7F4FB5F4B12E003
:400C000094F8743023B195F875200AB985F8782094F875201AB113B9012385F878305848FFF798FB574B1B88ADF8203008A8FFF75DFB89E0FFF77CFB02F088F8002002F0FA
:400C40002BF82A2701F056FF002001F0F9FE3A46002108A802F0FCF917238DF820308DF8217001F0ABFD002001F054FB002002F0E7F8C82001F064FD0DF12200FFF7ECFA35
:400C80000DF13600FFF709FB01F098FD012002F0D7F8322001F054FD0DF12600FFF7DCFA0DF13A00FFF7F9FA012001F033FB4FF4967001F045FD01F081FD0DF12E00FFF7AC
:400CC000CBFA0DF14200FFF7E8FA002001F022FB4FF4967001F034FD01F070FD022002F0AFF8322001F02CFD0DEB0700FFF7B4FA0DF13E00FFF7D1FA012001F00BFB4FF4FE
:400D0000967001F01DFD01F059FD0DF13200FFF7A3FA0DF14600FFF7C0FA002001F0FAFA4FF4967001F00CFD01F048FD002002F087F8002384F86A3001F08AFF01F05CFE97
:400D400074E70120FFF7E4FA032000F0A5FC0E48FFF7B7FAFFF7E2BB3F000080EB3A00001B3B00004092FF1F253B0000F43800002D3B00003B3B0000F6380000F8380000ED
:400D8000FE81FF1FFA380000483B00000F4B1A78120616D55878C0B2012814D11B79DBB2042B02D0052B05D07047094A094B5A60282203E0084A074B5A60E0221A8000F04C
:400DC00045BE002070470120704700BF00600040FC380000C492FF1F243900002DE9F04172B68A4B61221A70A3F5F06301221A801924874A9C7092E803008033062283F8F7
:400E0000002283E80300522203F580731A70814B814A1B78814EDBB2137040F61802804B00251A8041F2512223F8022C33784FF4F07003F0010343EA450502F0A1F8013CE3
:400E400005F003052ED0032DF0D1764B4FF480721A8007221A70744A002548211570917002221D705D7103F8032C0422DA716F4A6F4C13786F4E43F00103137012F8013C9A
:400E8000062743F0030302F8013C2378012243F0800323705D4B1A70674A137843F02003137000E0FEE707FB056300219A881868013502F0CDF8072DF5D16048604E0025F3
:400EC00050F8041F05F1105303F14A0221F0FF074B33C9B20B4452005B0002329A4206D012F802EC12F801CC0EF807C0F5E7B0420D44E5D1534A00231360936013619361FD
:400F0000514B524F1A68524BDFF88C811A60514B1A6803F1784303F5D6431A604E4A137843F002031370137C43F0020313742378A2F5863243F040032370413A137843F047
:400F400010031370454A464B07CA03C31A80454A2833106843F8250C127903F8212C424A07CA03C31A80414AE83B07CA03C31A803F4A083307CA03C31A803E4A3E4BA2F5B0
:400F8000616203CBC2F8100EC2F8141E1378042043F008031370394B02F5AA521B783D78DBB298F80060EDB203F007010C321B091170F6B2537045F003033B7046F0030326
:400FC00088F800302E4B48221A702E4A402313702D49937013729372082382F81F3220220A7048710A72294A0A20137001F0BEFB274B88F8006044223D70264D1A7094E8E4
:401000000F0007C52B80BDE8F08100BF004800401C0B00480F010049A146004025420040224200400440004006400040A2430040A04300404D3B0000E8460040FCFFFF470A
:401040009000004800760040240B0048F846004020760040280B004803500140DC0A0048C0510040E80A0048F00A0048FC0A0048080B004832510040140B0048CF01004921
:401080001D51004001590040235B0040585B004076580040B0430040F946004008B501F0ABFF03680C2B00D1FEE7FEE7084908B50B68084A1844821A802A01DC086005E043
:4010C00001F09AFF0C2303604FF0FF33184608BDCC80FF1F9093FF1F80B51148114B0025C0B1A3F1100192C922460439161BB74204D051F8046F42F8046BF7E7114653F88D
:40110000046C8C1AA64202D041F8045BF9E701381033E5E701F076FFFFF7B0F9FEE700BF01000000E03C0000124A134B10B51A60124A134C1368134843F40073136000238F
:40114000032B98BF54F823204FEA830188BF0E4A0133302B4250F3D10C4B1A780C4B1A700C4B084A1A60FFF739FEBDE8104001F0CFB900BF0004FA050CED00E014ED00E016
:40118000000000000080FF1F9D100000BC760040C080FF1F08ED00E0F8B501F0F9FE4B4A01271378022643F001031370137C484C43F001031374474B02F5E3521F700B3215
:4011C00003F8946C1378054603F07F031370002001F0CCFA2378404A03F0F90323701378384603F0DF03137023783B43237001F0BDFA282001F0BAFA384B30461A7802F089
:401200007F021A701A7802F0BF021A7023783343237001F0ABFA2378314A43F0040323700023137053702F4AFF2199540133092BFBD1284601F0B0FE0721172001F0DEFA5F
:401240002949172001F0CCFA0721182001F0D6FA2649182001F0C4FA0721152001F0CEFA2349152001F0BCFA0721052001F0C6FA2049052001F0B4FA0721062001F0BEFA17
:401280001D49062001F0ACFA0721084601F0B6FA1A49072001F0A4FA0721082001F0AEFA1749082001F09CFA0021162001F0A6FA1449162001F094FA07210C2001F09EFA0C
:4012C000BDE8F84010490C2001F08ABAA5430040944300409D60004012600040F851004084600040B592FF1F671B0000A1190000651B0000991A0000C51A0000F51A0000BA
:401300002D1B00006D1B0000E11B0000214B224A10B5187000231370204A40201370204A0F2413701F4A13701F4A13701F4A13701F4A13701F4B4FF400021A604FF080729F
:401340001A604FF400121A6020221A601860802018604FF480701860174804704FF480001860164B1A70933B19B91A7802F0FE0202E01A7842F001021A70114B03221A70D2
:40138000802203F8202C012001F0FAFD0D4B04221A7010BDD092FF1FD692FF1FD492FF1FD592FF1FD192FF1FC092FF1FD392FF1F4893FF1F00E100E09E6000409C600040AF
:4013C000286000401260004070B5074C054623780E461BB9FFF7E0FE0123237031462846BDE87040FFF792BF8092FF1F0A4A002313700A4A13700A4A13700A4A13700A4ADE
:4014000013700A4A13700A4A13700A4B03221A70802203F8202C7047D692FF1FD492FF1FD592FF1FD192FF1FC092FF1FD392FF1F4893FF1F28600040014B1878704700BFC1
:40144000D592FF1F044B1A7802F0FF001AB118780022C0B21A707047D492FF1F024A0C2303FB002040787047DC92FF1F431E072B0CD8074A064B00010344805C5B7800F0CD
:401480000F0043EA0020023880B2704700207047FC5F00401A4A38B50C2303FB00231B79090C13F0800F00F1FF35044619BF8AB24FF480438BB24FF48042032D18D8DFE8AD
:4014C00005F002070C110021084600F0FDFF0DE00021084600F0DCFF08E00021084600F0BBFF03E00021084600F09AFF054B1855EDB2072D03D801F0CFF8034B185538BDA0
:40150000DC92FF1FAC92FF1FB592FF1F431E072B2DE9F0470446894615465CD82F4F0C2202FB0072D388DFF8B8A09BB2C3F500739D424FF00C0303FB007388BFD588DB7824
:4015400084BFC5F50075ADB2254A43EA15230601B354B244EBB28AF80130224B1A5C9846FF2A01D1FFF796FF0C2303FB047200215170B9F1000F28D03DB31B4F385D00F016
:40158000F3FF11232946FE2218F8040001F0B8F806F5C04278321FFA89F118F8040001F0C1F8124D18F80410385D01F02DF80121385D00F0C3FF735D43F002037355735D92
:4015C00003F0FD037355BDE8F08703FB04746379DBB28AF80230BDE8F08700BFDC92FF1FFC5F0040B592FF1FAC92FF1F706000402DE9F047044615468846002940D0431E54
:40160000072B3FD8FFF732FFA84203D22046FFF72DFF05461D4E335DFF2B03D141462046FFF738FFDFF868A027011AF8040000F09BFF1223FE222946305D01F061F807F557
:40164000C0411FFA88F27831305D01F06BF8DFF84490315D1AF8040000F0D6FF01211AF8040000F06BFF17F8093043F0020307F8093017F8093003F0FD0307F8093002E099
:401680000D4600E000252846BDE8F087B592FF1FAC92FF1F70600040431E072B0AD8064A0C2303FB002300225A705A79034BD2B200011A54704700BFDC92FF1FFE5F0040C3
:4016C000431E072B9FBF024B000108221A547047FE5F004030B51A4A1A491B4D0878138803449BB21380194A00231488D8B2A4B27CB1082B0CD050680078C0B2E854506895
:401700000133013050601088013880B21080ECE718460B780E4C082B0E4A00D040B10E4D2B7883F080032B700F232370022301E0022323701370094B1870087030BD00BF12
:401740004C93FF1F4893FF1F00600040C492FF1FC192FF1FD692FF1FD292FF1F4993FF1F074B02221A70074B80221A70064B0F221A70064A00231370054A012013707047C2
:40178000D692FF1FD292FF1FC192FF1F4893FF1F4993FF1F30B5164B16491B780A8803F00F03023BDBB21A4492B20A80124C134A0020118889B279B173B15568215C013B85
:4017C000C9B229705168DBB20131516011880130013989B21180ECE7094A1370094A137883F080031370084B0B221A7030BD00BF296000404C93FF1F00600040C492FF1F4C
:401800004993FF1FD292FF1FC192FF1F064A06231370064A01201370054B80221A70054B00221A70704700BFD692FF1FC192FF1FD292FF1F4993FF1F054B9A683AB19A682B
:40184000044910709A680988518000229A607047C492FF1F4C93FF1F08B5124B1A78D2B21A701B78DBB21A0602D50F4A137008BD0220FFF7E1FF0D4B1B7803F06003202BFD
:4018800005D0402B06D043B900F012FC04E001F087FB01E0FFF77AFA10B9034B03221A7008BD00BF28600040C192FF1F0060004008B5084A084B0120197813880B449BB208
:4018C0001380064B00221A70FFF7B6FF044B03221A7008BD4C93FF1F4893FF1FD692FF1FC192FF1F08B50C4B1B78DBB2042B07D0062B09D0022B0DD1BDE80840FFF7D8BF34
:40190000BDE80840FFF746BF0320FFF795FF034B03221A7008BD00BFD692FF1FC192FF1F08B5054B002201201A70FFF785FF034B03221A7008BD00BFD692FF1FC192FF1FCE
:4019400008B50A4B1A7832B11A78094942F080020A7000221A70074B002201201A70FFF76BFF054B03221A7008BD00BFC092FF1F08600040D692FF1FC192FF1F074B1B782C
:40198000DBB2042B05D0062B05D0022B05D1FFF7A1BEFFF7C5BFFFF7D3BF7047D692FF1F38B51D4C2378DBB2DD0634D518060AD503F00F03012B2ED1FFF74EFF174B1B782A
:4019C000190609D538BD5A0602D5FFF7D7FF03E09D0620D5FFF786FF23781B061BD4104B1A78104B1B7813430F4A13701278934211D10A4A0849154613782078DBB200064D
:401A000005D41378DBB20B700B7803F00F0328788342F1D138BD38BD28600040C192FF1FD292FF1F4993FF1F29600040054A00231380054A916819B191680B7092685380CB
:401A4000704700BF4C93FF1FC492FF1F0E4808B503889BB213B9FFF783FE13E00B4B02221A700B4B00221A70FFF7E0FF094AD1799379028843EA012392B2934238BF03806C
:401A8000FFF728FE012008BDC492FF1FD692FF1FD292FF1F00600040084B01221A700F3B9B7C074B1A7B02F00302012A1EBFDA7B82F08002DA7301225A7370470B600040D9
:401AC000DC92FF1F094B02221A700F3B93F82230074B1A7E02F00302012A1EBFDA7E82F08002DA7601225A76704700BF0B600040DC92FF1F0B4B04221A700F3B93F83230CF
:401B0000094B93F8242002F00302012A1EBF93F8272082F0800283F82720012283F82520704700BF0B600040DC92FF1F0B4B08221A700F3B93F84230094B93F8302002F0F9
:401B40000302012A1EBF93F8332082F0800283F83320012283F83120704700BF0B600040DC92FF1F7047FFF741BC0000F0B5184B184E19780C27C9B201234FF0000C31B372
:401B8000CA0720D5144A4FEA031E7244947850782040C5070DD507FB03652C79240608D5147804F0FE0414706D790C4CEDB204F80E50840706D507FB036425792D0658BF05
:401BC00084F801C090700133DBB24908D7E7F0BD9F600040DC92FF1F70600040FE5F004000F08EBC70B50446184B88B003AA03F11006154618685968083303C5B3422A46B4
:401C0000F7D11B782B70FCB12223237001AD03232846637000F06CFE002220461146AB5C08AC04EB131414F8144C03F00F03847008AC234413F8143C0132082AC170037125
:401C4000417100F10400EAD108B070BD773B00002DE9F0431C4D01222E460C201F274FF0800E4FF0080C194B00FB02581401234418705F70164998F805902144B9F1000F62
:401C800007D098F8044024064CBF887081F802C001E081F802E000FB0261CC880132E4B29C71CC88092AC4F30724DC71CC88E4B21C71C988C1F307215971D4D1054BFF2213
:401CC0001A70BDE8F08300BFDC92FF1F70600040FC5F00400A600040064B074A1B7802EBC30253681A7C824286BF03EBC003586900207047D092FF1F9C3B00002DE9F84F64
:401D0000424B1A78002A7ED01878414D0138C0B2FFF7E2FFA8463F4AC3681478007ADFF800C1E4B203EBC0000C2600274FF0010E834268D01A78A24263D11CF80420597891
:401D400091425ED19A7893F8039002F07F0206FB02FA05EB0A01CF7093F802B009F0030981F804B093F803B005F80AB0B3F804A0A1F808A093F902A0BAF1000F0BDAB9F11C
:401D8000010F0CBF4FF007094FF00D0981F8059081F801E009E0B9F1010F0CBF4FF005094FF0090981F805904F704FEA02191A4906FB0282494481F802E0B2F808A0CAF330
:401DC000072A81F800A0B2F808A05FFA8AFA81F801A0B2F806A011495FFA8AFA494481F806A0B2F80690C9F3072981F80790B2F806905FFA89F981F80490D288C2F3072281
:401E00004A71083394E7BDE8F88F00BFD592FF1FDC92FF1FD192FF1FFC5F004070600040C292FF1F08B5064B18780138C0B2FFF753FF20B143681B7900EBC300406908BDDA
:401E4000D592FF1F00212DE9F84F0B464E4E0C2707FB01F401313219092933554FF000059370494CD3701381937253705371EFD118B1464B1D70464B1D70464B1A78002AC0
:401E80007FD0187801250138C0B2FFF725FFA8464368DFF8F8E0DB790C2713F0400F3E4B4FF0000C1A7814BF42F0010202F0FE021A70027AD20007FB0541C36803EB020993
:401EC0004B4531D093F802A00AF07F06AE4229D10E89B3F804B0B6B25E4538BFA1F808B01E7893F801B01EF80660B3451AD181F804A0DE780E7093F902A0DE78BAF1000F12
:401F000006F0030607DA012E0CBF07260D264E7181F8018006E0012E0CBF052609264E7181F801C00833CBE70135092DC3D1C1680A328B1C0A440C200833934209D013F814
:401F4000081C13F80A5C01F07F0100FB01418D72F2E7FFF767FF114B0121186000230C2000FB0142D3801289013113449BB203F00102134409299BB2F2D1BDE8F84FFFF732
:401F800067BEBDE8F88F00BFDC92FF1FC292FF1F4A93FF1FD592FF1FD392FF1FD892FF1F114B1B7903F07F035A1E072A19D80F490C2202FB031291781B0141F00101917098
:401FC0000021D170517841F002015170127912F0800F074A1A4414BF8D2389239370FFF715BC0020704700BF00600040DC92FF1FFC5F004030B4194B1A7902F07F02531EE1
:40200000072B27D8164B0C2404FB02339978154D01F0FE0199700021D97029461201505D114400F07F0050555A7802F0FD025A701A795B78120605D5012B01D18C7006E077
:402040000D2303E0012B0CBF082309238B7030BCFFF7DCBB002030BC704700BF00600040DC92FF1FFC5F004010B50D4B0D4C21791878C9B20138C0B2FFF72EFE43681B791B
:402080008B4201D2012909D8074A0848535CDBB24354A3780120DBB2535410BD002010BDD592FF1F00600040C292FF1F4A93FF1F38B5874A874C13780021DBB221801806BC
:4020C000517840F188800A2900F20081DFE811F05800FE00FE00FE00FE00FE000B00FE007900FE007D00D3787949012B09D17A4B1A787A4B03EBC2035B685B6863601223C5
:4021000010E0CB78022B12D18878FFF7E5FD002800F0DC80436863606368DA7863689B7843EA02232380BDE83840FFF78FBCCB78032B21D16A4B00228878D5B2854203D3F6
:40214000634A92783AB910E0187801320028F7D018780344F0E75E4A62499278097C914203D16148FFF73EFD5F4B1A78002A00F0AD801A78228018E0BDE8384000F010BF77
:4021800013F0030313D0022B40F0A0802380504B0C211B7903F07F02544B01FB02339A78534BD2B21A7000225A706360BBE702222280504A11784E4AC9B211705370626062
:4021C000B1E7012323804C4BEFE70123238013794A4A1344E9E701390A2977D8DFE801F037764F76067676760A7620009378444ADBB25AE0937803F0FF0153B93E4B1A7892
:4022000091425FD019703F4B01201870FFF71AFE58E0481EC0B2FFF75FFD0028EED155E0FFF722FF002851D0294A374913791279DBB2D2B20A70354A3049D25CCB5C9A4236
:4022400040D0304B01221A70FFF758FD3AE003F00303012B2BD009D3022B37D11C4B9B78002B33D1BDE83840FFF7C4BE184B9B78012B2BD11F4A137803F0FD0315E003F0E5
:402280000303012B13D008D3022B1FD1104B9B78E3B9BDE83840FFF783BE0D4B9B78012B14D1144A137843F0020313700AE0084B1A795AB998781B791549DBB2CA5C22EAEF
:4022C0000002CA54BDE83840FFF7A0BA002038BD00600040C492FF1FD092FF1F9C3B0000003C0000733C00006893FF1FDC92FF1F8192FF1FD392FF1FD592FF1FC292FF1F96
:40230000C092FF1FD492FF1FD192FF1F4A93FF1FD792FF1F014B1870704700BF78650040014B1878704700BF6C640040014B1870704700BF78640040064A0123136002F698
:4023400088321268E0211064034A1170A2F540721360704780E100E000E400E0014B1870704700BF7A650040014B1870704700BF7F64004073B515461E460B4C0523002210
:40238000019200920A4601461846237000F064F932462946207800F01FF90221207800F009F9207802B070BDD080FF1F064A0423136002F688321268E0219064034A117031
:4023C000A2F202321360704780E100E002E400E0014B04221A60704700E100E0014B04221A60704780E100E0014B1870704700BF7E640040704738B505460078012428B1CB
:4024000000F066FD285D0134E4B2F8E738BD08B50D2000F05DFDBDE808400A2000F058BDF7B516461F460B4C00230325019300930A4601462846257000F00EF93A46314617
:40244000207800F0C9F80221207800F0B3F8207803B0F0BDE080FF1FF7B516461F460B4C00230225019300930A4601462846257000F0F2F83A463146207800F0ADF829460B
:40248000207800F097F8207803B0F0BDE180FF1FF7B516461F460B4C00230125019300930A4601462846257000F0D6F83A463146207800F091F80221207800F07BF8207844
:4024C00003B0F0BDE280FF1F73B515461E460B4C0023019300930A4601461846237000F0BBF832462946207800F076F80221207800F060F8207802B070BD00BFE380FF1FB2
:40250000024B1878C0F38010704700BF8F450040074A7F23802113705170064A013BDBB202F80839002BF9D1034A1370704700BFE480FF1FF87B00400078004017280FD877
:40254000084B0001C25C11B142F0200201E002F0DF02C254C25C42F00102C25400207047012070471070004017280BD8064B0001C25C02F0FE02C254C25C02F0DF02C25490
:4025800000207047012070471070004017280DD8074900010B4603441A7942F004021A71435C43F00103435400207047012070471070004017280BD8064A0001835C4900D2
:4025C00003F0F10301F00E011943815400207047012070471070004041F6FF73994208BF4FF400519A4208BF4FF4005217289FBFC00000F1804000F5EC4081809ABFC28072
:40260000002001207047000017289FBF034B00011954002088BF0120704700BF1970004017289FBF054B00011A5C01F007019DBF1143195400200120704700BF147000408D
:4026400017289FBF034B0001185C00F0070088BFFF20704714700040172810B51AD8C00001F07F0100F1804441EAC21204F5EC44D2B222709DF8082003F00F0343EA021304
:40268000DBB263709DF80C30002003F00F03A370E07010BD012010BD10B500F079FC0A4A5378182B0AD91478013B5370E30003F1804303F5F0431B78137000E0FF2400F0DE
:4026C0006BFC204610BD00BFE480FF1F030610B5044611D400F05CFC084AE300117803F1804303F5F04319705378147001335370BDE8104000F050BC10BD00BFE480FF1F4C
:4027000030B504060CD411F4704509D1C40004F1804404F5F0442180A270E370284630BD012030BD03065FBFC00000F1804000F5F04081805ABFC28000200120704700000C
:4027400038B50446084DB4F5004F05D9286800F017FCA4F50044F6E7034B58686043BDE8384000F00DBC00BFEC80FF1F024B1B7A584300F005BC00BFEC80FF1F0E4B00F01A
:4027800003001A78490102F0FC02104318701A7801F0600142F080021A701A7802F07F021A701A7802F09F020A431A701A7842F010021A70704700BF83430040014B012277
:4027C0001A70704784430040044B00F00F021B6853F8220043F82210704700BF08ED00E0054A00F01F00126800F1100352F8230042F82310704700BF08ED00E000F01F0089
:4028000000F16040490100F56440C9B2017070470F4B10B50F4900240F205C609C60DC601C615C61FFF7D0FF0B4A136843F0040313600A4B4FF47A72DB68B3FBF2F3084A9B
:402840001360084B4FF400421C60C3F8E82010BD8492FF1FBD28000010E000E0EC80FF1F14E000E018E000E0024A136843F002031360704710E000E008B5FFF7F5FF034AF5
:40288000136843F00103136008BD00BF10E000E010B5054CA3691BB9FFF7BAFF0123A361BDE81040FFF7E8BF8492FF1F024B1868C0F30040704700BF10E000E038B5FFF723
:4028C000F5FF012808D1054D002455F8243003B198470134052CF8D138BD00BF8892FF1F024B03EB80035868596070478492FF1F134B144A1B78DBB20360127843EA0223E0
:40290000114A0360127843EA0243104A0360127843EA026303600E4B0E4A1B78DBB24360127843EA02230C4A4360127843EA02430A4A4360127843EA02634360704700BF30
:402940000301004904010049EC460040020100490101004900010049050100490601004910B500F015FB204A044613780A2043F002031370137C43F00203137412F80A3C43
:4029800043F0010302F80A3C937943F00103937102F5AB52137843F003031370134B18221A7013F8012C42F0400203F8012C13F8012C02F0FC0203F8012CCE2203F8062CBB
:4029C000A3F597530222183B1A70094A137843F008031370FFF7CAFE064B10222046BDE810401A6000F0D8BAAB4300400E5900402F5B004080E200E008B500F0C9FA0F4A73
:402A0000137803F0FE031370A2F5AA521D3A137803F0FD031370137C03F0FD03137412F80A3C03F0FE0302F80A3C937903F0FE039371BDE8084000F0AFBA00BF0859004072
:402A4000044A137803F03F0343EA8010C0B21070704700BF08590040082804D00A280CBF8223C22300E0422308380E4AC0B20428137098BF0C4B4FF0000298BF33F9101067
:402A80000A4B88BF11461A8042F210734B4341F2883103F6C41393FBF1F305490B60054B1A8070470A590040883B00005293FF1F5493FF1F5893FF1F08B5102000F0A6F9C9
:402AC00007210420FFF79AFE07490420FFF788FE064A0C20137843F006031370FFF7BCFF034B00221A8008BDB12B0000095900405093FF1F10B5054C23781BB9FFF7DCFFF1
:402B000001232370BDE81040FFF72ABFA092FF1F044B1A7802F0FB021A701A7842F001021A7070470859004010B5084B1C7814F0010403D10028F9D0002404E02046FFF7D9
:402B400015FE024B1B78204610BD00BF09590040034A044B1B881088181A00B2704700BF5893FF1FA25B00400E4A13881BB223B111880A2309B2594301E00B4B19680B4B98
:402B80001B88C01A42F2107300B203FB00F2022391FBF3F30028D8BF5B42134493FBF1F000B270475293FF1F5493FF1F5093FF1F7047000010B500F0EBF9214A0446137884
:402BC0000A2043F001031370137C43F00103137412F80A3C43F0020302F80A3C937943F00203937102F5AA521832137843F003031370144B18221A7013F8012C42F0400241
:402C000003F8012C13F8012C02F0FC0203F8012CCE2203F8062CA3F597530222123B1A70094A137843F008031370FFF79FFD074B08222046BDE810401A6000F0ADB900BFEB
:402C4000AB43004006590040275B004080E200E008B500F09DF90F4A137803F0FE031370A2F5AA52153A137803F0FE031370137C03F0FE03137412F80A3C03F0FD0302F8BA
:402C80000A3C937903F0FD039371BDE8084000F083B900BF00590040044A137803F03F0343EA8010C0B21070704700BF00590040082804D00A280CBF8223C22300E04223BE
:402CC00008380E4AC0B20428137098BF0C4B4FF0000298BF33F910100A4B88BF11461A8042F210734B4341F2883103F6C41393FBF1F305490B60054B1A8070470259004094
:402D0000923B00005E93FF1F6493FF1F5C93FF1F08B5102000F084F807210320FFF76EFD07490320FFF75CFD064A0C20137843F006031370FFF7BCFF034B00221A8008BD88
:402D4000092E0000015900406093FF1F10B5054C23781BB9FFF7DCFF01232370BDE81040FFF728BFA192FF1F044B1A7802F0FB021A701A7842F001021A7070470059004046
:402D800010B5084B1C7814F0010403D10028F9D0002404E02046FFF7E9FC024B1B78204610BD00BF01590040034A044B1B881088181A00B2704700BF5C93FF1FA05B00406B
:402DC0000E4A13881BB223B111880A2309B2594301E00B4B19680B4B1B88C01A42F2107300B203FB00F2022391FBF3F30028D8BF5B42134493FBF1F000B270475E93FF1F0D
:402E00006493FF1F6093FF1F70470000034A00F0F800137803431370704700BF02410040034A00F0F800137803431370704700BF06410040014B1870704700BF7C64004043
:402E4000014B1870704700BF7B64004073B515461E460B4C04230022019200920A46014618462370FFF7F8FB324629462078FFF7B3FB02212078FFF79DFB207802B070BDE9
:402E8000FC80FF1F074A0223136002F688321268E0215064044A11706FF440710A441360704700BF80E100E001E400E0014B1870704700BF74640040014B1870704700BFE2
:402EC00075640040014B1870704700BF7D640040FEB5494652465B460EB40746244909688A46244A12682448022100F071F8030020480068C018204900F06AF814388346CB
:402F00000121C9430C460125002600F041F8814651460B7823400B705846013000F030F83800F04028400B78234003430B70584600F026F80136072EF2D900200130013812
:402F4000013001200B78234003430B705846043000F016F8484600F01FF800BF00BF00BF0EBC894692469B46FEBD00BFAFF30080D480FF1FF880FF1F00C2010000000000FD
:402F80000230800803D000BF01380046FCD17047EFF3108072B6704780F31088704700BF094A137803F00303012B0AD0022B09D113790C2103F07F02044B01FB02339B7A4A
:402FC00000E013790020704700600040DC92FF1F002902D0B0FBF1F0704708B14FF0FF3000F008B80029F8D00246B0FBF1F000FB11217047704700BF014B1868704700BFEC
:403000006081FF1F0E4B70B51E460E4C0025E41AA410A54204D056F8253098470135F8E700F044FE084B094C1E46E41AA4100025A54204D056F8253098470135F8E770BD98
:40304000B83C0000B83C0000B83C0000C03C000003460244934202D003F8011BFAE7704730B5141E05469BB0184604DA8B232B604FF0FF301DE04FF40273ADF80C300CBFA2
:40308000234604F1FF33029305934FF6FF7300910491ADF80E3002461E9B6946284600F073F8431CBCBF8B232B6014B1009B00221A701BB030BD000007B5009313460A464B
:4030C000014603480068FFF7CBFF03B05DF804FB6081FF1F2DE9F0478E6882469E420C46914698463ED88A8912F4906F3AD02568096902236F1A656905EB450595FBF3F5B9
:403100007B1C43449D4238BF1D4653050FD5294600F04AFB064698B13A46216900F0D2FAA38923F4906343F08003A38113E02A4600F098FB064670B92169504600F0E8FAA0
:403140000C23CAF80030A3894FF0FF3043F04003A381BDE8F08726613E44266046466561ED1BA560464528BF464649463246206800F0B3FAA36800209B1BA36023681E44F5
:403180002660BDE8F08700002DE9F04F9DB003938B8980461C060D4616460DD50B695BB9402100F001FB2860286118B90C23C8F80030CDE040236B610023099320238DF86F
:4031C0002930DFF89CB130238DF82A3037463C4614F8013B1BB9B7EB060910D003E0252BF9D02746F3E74B46324629464046FFF771FF013000F0A780099B4B4409933B7803
:40320000002B00F0A08000234FF0FF3204930793059206938DF853301A930126052221784E4800F041FA671C049B38B14B4A3C46801A06FA00F018430490EFE7D90644BFAF
:4032400020228DF853201A0744BF2B228DF8532022782A2A03D0079A00210A200BE0039A111D12680391002A10DA524243F00200079204900BE027463B780134303B092B51
:4032800003D800FB02320121F5E701B107923B782E2B1ED17B782A2B0AD1039B02371A1D1B680392002BB8BF4FF0FF33059310E0002319460593781C0A2407463A780130D0
:4032C000303A092A03D804FB01210123F5E703B1059103223978224800F0E6F940B14023CBEB000003FA00F0049B013718430490397806221B487E1C8DF8281000F0D4F9CF
:4033000088B1194B33B9039B073323F007030833039314E003AB00932A46144B04A94046AFF3008007E003AB00932A460F4B04A9404600F093F8B0F1FF3F824603D0099B27
:403340005344099342E7AB895B0601D4099801E04FF0FF301DB0BDE8F08F00BF873C00008D3C0000913C000000000000D53000002DE9F04791461F460A698B680646934279
:40338000B8BF1346C9F8003091F843200C46DDF8208012B10133C9F800302368990642BFD9F800300233C9F80030256815F0060510D104F1190A07E0012352463946304631
:4033C000C04701301AD00135E368D9F800209B1A9D42F1DB94F843302268003318BF012392060FD5E118302081F843005A1C94F845102244023382F8431003E04FF0FF3091
:40340000BDE8F08704F1430239463046C0470130F4D02268D9F80050E36802F00602042A08BF5D1B2269A3680CBF25EAE57500259342C4BF9B1AED184FF000091A344D45BF
:4034400009D00123224639463046C0470130D5D009F10109F3E70020BDE8F0872DE9F04317460A7E85B06E2A984606460C460C9B01F1430E00F0AE8011D8632A22D009D833
:40348000002A00F0BB80582A40F0CA8081F84520834955E0642A1ED0692A1CD0C0E0732A00F0B08009D86F2A2ED0702A40F0B8800A6842F020020A603EE0752A24D0782A87
:4034C0003AD0ADE01A6801F14205111D1960136884F84230A8E021681A6811F0800F02D0111D196008E011F0400F02F10401196002D0B2F9003000E01368002B3CDA2D228D
:403500005B4284F8432037E021681A6811F0800F02D0111D196007E011F0400F02F10401196001D0138800E01368227E5C496F2A14BF0A2208221BE078225A4984F8452055
:403540002268186812F0800F00F104051D6003D1550601D5038800E00368D00744BF42F0200222601BB9226822F0200222601022002084F8430001E049490A226568002DF0
:40358000A56008DB206820F0040020602BB9002D7DD175460CE0002B79D07546B3FBF2F002FB1033CB5C05F8013D03460028F5D1082A0BD12368DA0708D5236962689A42E0
:4035C000DEBF302305F8013C05F1FF35C5EB0E0323612EE008681A6810F0800F496903D0101D1860136808E010F0400F02F104001860136801D0198000E019600023236173
:40360000754616E01A68111D1960156800216268284600F049F808B1401B6060636804E004F1420584F8422001232361002384F84330CDF800803B4603AA21463046FFF70C
:4036400097FE013002D14FF0FF3026E023692A4639463046C0470130F5D023689B0710D5002504F1190907E001234A4639463046C0470130E7D00135E368039A9B1A9D42D0
:40368000F2DBE068039B9842B8BF184605E00B7804F1420584F842308AE705B0BDE8F083773B0000983C000010B5C9B202449042034605D01C7801308C42F8D1184610BD55
:4036C000002010BD10B5431E0A44914204D011F8014B03F8014FF8E710BD884210B501EB020301D8421E0BE09842FBD28118D21AD34204D013F8014D01F8014DF8E710BD71
:40370000994204D011F8014B02F8014FF8E710BD38B50546002944D051F8043C0C1F002BB8BFE41800F0D4F81E4A1368114613B96360146030E0A3420DD92268A0188342ED
:4037400001BF18685B681218226063600C6023E0A24203D813465A68002AF9D118681918A1420BD12168014458188242196013D110685268014419605A600DE002D90C232A
:403780002B6009E021686018824201BF106852680918216062605C602846BDE8384000F098B838BDA892FF1F70B5CD1C25F0030508350C2D38BF0C25002D064601DBA9429D
:4037C00002D90C23336046E000F082F8234B1C681A462146A1B10B685B1B0ED40B2B03D90B60CC18CD501EE08C420BBF63684B681360636018BF0C4615E00C464968E9E70D
:40380000174C23681BB9304600F052F820602946304600F04DF8431C18D0C41C24F00304A0420DD12560304600F053F804F10B00231D20F00700C31A0ED05A42E25070BD37
:40384000211A304600F034F80130EBD10C233360304600F03EF8002070BD00BFA892FF1FA492FF1FF8B5074615460E4621B91146BDE8F840FFF798BF1AB9FFF749FF2846F5
:40388000F8BD00F027F885420ED929463846FFF78BFF044650B131462A46FFF713FF31463846FFF735FF01E03046F8BD2046F8BD38B5064C0023054608462360FDF7F6FB46
:4038C000431C02D1236803B12B6038BD8C93FF1F7047704751F8040C0028BEBF091851F8043CC0180438704700000000050209020B020D020F021102130215022800000013
:40390000000104000100000000000000000157494E55534200003030303031000000000000000000E0000000000105000100D6000000070000002A00440065007600690041
:403940006300650049006E0074006500720066006100630065004700550049004400730000009E0000007B00330064003200370035006300660065002D003500340033000D
:4039800035002D0034006400640035002D0061006300630061002D003900660062003900390035006500320066003600330038007D0000007B00330064003200370035001F
:4039C0006300660065002D0035003400330035002D0034006400640035002D0061006300630061002D003900660062003900390035006500320066003600330038007D0098
:403A0000000000007265706C792030782530327800686F6D696E6700626567696E6E696E67207365656B2066726F6D20256420746F2025640066696E69736865642073652D
:403A4000656B00796573006E6F00647269766520303A20257320647269766520313A2025730057616974696E6720666F72205553422E2E2E0055534220726561647900631F
:403A80006F6D6D616E6420307825303278006661696C2025642B25642B2564203D3D2025642C206E6F74202564007061737365643D256400756E64657272756E2061667479
:403AC0006572202564207061636B65747300636F756E743D256420693D256420643D256400636D645F777269746500703D25642063723D25642063773D256420663D2564F8
:403B000020773D256420696E6465783D256420756E64657272756E3D256400756E64657272756E2100737563636573730073746172742065726173696E670073746F702027
:403B400065726173696E670069646C650000510040100040510040300000000140001000140140000800400140000A004C01400002005001402000303132333435363738CF
:403B80003941424344454600000100000004000000100001000000040000001001000000A43B000001000000733C0000000000000000000001000000BC3B00000100000084
:403BC000453C000004000000DE3B0000000000000000000000000000DC3B0000FF00000001024000FF00000082024000FF00000003034000FF00000084034000FF000203FC
:403C000004030904160346006C007500780045006E00670069006E0065002A0343006F0077006C00610072006B00200054006500630068006E006F006C006F006700690036
:403C4000650073000009022E0001010080320904000004FF00000107050102400000070582024000000705030340000A0705840340000A12010002FF0001080912006E016F
:403C800000020180014300232D302B2000686C4C00656667454647003031323334353637383961626364656600000000F8B500BFF8BC08BC9E4670475900000029110000DA
:403CC000F8B500BFF8BC08BC9E46704735000000E03C0000C880FF1FA000000028120000000000009093FF1FFF000000675000400C00000007000000FFFFFFFF7F8000006F
:403D00003F0000000000007D00FA0000400000000090D003FF0000000000000000000000000000000000000000000000000000000000000000000000853C0000000000006A
:403D400000000000000000000000000000000000000000000000000000000000000000000000000000000000000000000000000000000000000000000081FF1F00000000A4
:403D80000000000000000000000000000000000000000000000000000000000000000000000000000000000000000000000000000000000000000000000000000000000003
:403DC00000000000000000000000000000000000000000000000000000000000000000000000000000000000000000000000000000000000000000000000000000000000C3
:403E00000000000000000000000000000000000000000000000000000000000000000000000000000000000000000000000000000000000000000000000000000000000082
:403E40000000000000000000000000000000000000000000000000000000000000000000000000000000000000000000000000000000000000000000000000000000000042
:020000040003F7
:0200000480007A
:400000000145004008520040015B004001640040020101400B0301403E04014041050140130701405508014056090140510A0140540B01405B0C0140540D0140470E01400D
:40004000380F01400A1501400B1701404B18014059190140521A01404E1B01400B40014012410140144201400C430140044401400D4501400946014011470140084801406A
:4000800011490140154C0140034D014006500140045101407E0208020941118218021901600C61067C4027212D0A8C40E62082608580908091029840AD01B040E008E224DC
:4000C000E680EE020008021003020405052006020B080F041110120117041A021B011C041F0420062107220123082610270428102A082B042F04300731203208330F361052
:40010000371038883A303B083E453F4156085808590A5B045C995D905F0189018B028D039601A002A102A301AC01B202B303B601BE04D608D804D904DB04DC99DD90DF0157
:40014000000A09900A400F10100811081302164119801AA01B221C101F802142231026082A252B012F80300231443220388039023B143F90584059105F80618063046640B5
:4001800068046B026D206E407A107B028110822088088A108E018F4090809102968098409A209D80A502B502C00CC22BC49ECA8FCC0FCE3FD61CD81CDE0AE204E60DEA04B2
:4001C000EE0181108D449010918092609D449E049F80A110A402A701A904AC01B208B720E202E60AEA05EE080004020804010602080409010AF90B140D010E020F2810030B
:4002000012FC134114041580164017011A041B4E1C801E042202234124042620274128042A102B412CFF2DF12F02310F32FF330F35F03B0A3E045804590B5B045C905F0188
:40024000800481078378840485088730880489808C038DFF8E0490019101920294029502970498029C029DA09F48A002A102A304A404A53FA802A908AB10AC05AF80B13F30
:40028000B207B33FB7C0BB80BE04D804D904DC90DF01008801020308048405020708084009220A110C040D090F0911011202132814801568170119041C202104224A230182
:4002C00025052714288629042C022F6430083102324035013714394A3B203F60422043045C405D206D106E407C028D01914293689420952D96909785980A99039A089B0820
:400300009C709D109E069FD5A042A108A280A31CA494A502A65DA702AB02AD10B220B380B610C0FFC2FFC4FFCAFFCCEBCE3FD630DE80E212E410E60AE840EA01EC80000C29
:4003400002F1040C06100A040E021080120C140C164018011A021C031EFC22022608280C2A202CFF34FF3E10560858045B045D905F0180088121830284C085218601870427
:4003800088088B108D2F8E04900291019204941A96209740980899209B019C109E209F2FA046A121A238A30EA408A808A921AB08AD0FAE80B23FB360B480B51FB640B71FD4
:4003C000B908BE44C203C60EC804C9FFCAFFCBFFCF83D804D904DA04DB04DC99DD09DF01000801020309050A070909080A820B040D0A0F091141120813081402152A192051
:400400001D041F9024022508268027082A082B102C402D402E10351437813CA03D0540804240462057405A015B415EA6600263026540661668026A406D90835089408B01C6
:400440008E409142920693489422953D96B197809808994B9A109CF29D309F14A040A31CA480A54AA604A702A814AC08B780C0FFC2FFC4FFCAB0CCF0CEF0D040D6F8D8F8B5
:40048000E280E66CE802EC1000200250061008400A3010621208146216041A031C801D01207C2201261C2A102E10306031013280341F3E043F01580B59045B045C095F01FF
:4004C000802381C8820C85C8860189C88A108C2F8D228FCC9130922F9302942395C8960899029A409C239F48A020A1C8A202A423A604A780A880A9D4AC0FAD80AF01B01FA9
:40050000B161B260B380B480B51FB808B902BE10BF14C062C702C810C9FFCAFFCBFFCD20CEF0D110D804D904DA04DB04DC99DD09DF01E108E240E340E480E640E7400040C6
:40054000012102200505070409220A110C800E040F6010481144148016221710180419021B0C1C201D011E0420C0212122092501281029022B052E202F04311A32603504B8
:4005800036443842392840044A0850085F80660267806B026E807C02810188108B028D018F40900891409348951096209780980899489A109CA29D019E029F14A351A54004
:4005C000A604A702AB80AF40B548C07FC2FFC4FFCA0FCC1FCE0FD004D204D610DE80E008E220E680EA81012002010340070308100A080B100F10100413101408161217100D
:400600001B1C1C1B1D401F20217C2301250227042B102D022F083001316032023418351F36043E40580B590B5B045C995F01804082308610888089018A308B028D028F0133
:4006400090E2920894E296049A109E03A0FCA201A420A6D0AE1CAF01B2E0B301B502B61FB928BBC0BF14D608D80BD918DB04DC99DD90DF0100110501071408800A600C019B
:400680000D100E0A0F60121013041480162218101A801B501D401E121F0C23442409250828812A202B182F02310132403314380139203B843D905C205F80640867026A40A1
:4006C0006D40780279407B017C027F0189088E10C07AC2FDC4B0CA1FCC0FCE3FD630D830DE91E63080028E409240A402AD40B301E204E640EC01EE0A878092409D409F8071
:40070000A402A701A810B614E202EA40EC010040021105C20724082009200A110BC00D020F4810F11202139014F11604179C18101AE11B901E0E1F0320F1220823902480D4
:40074000261127902B902DFC2F0134F035E0360F371F3A803B20580B590B5B045C995F018001821A8411850186068C059C01A703AC05AD03B101B20CB302B410B501B603BE
:40078000BE10BF11C006C6ECC80CC9FFCAFFCBFFD004D601D804D904DA04DB04DC99DD09DF01E2C00080010803800410050109800C420E080F201140166019681B801C02B3
:4007C0001E081F6020042106220223842510264029482C422F6435013640371439083A403B403D203E083F4045104604492050105180680869056A106B236F027040713001
:40080000728173087C127F04842091529280934894A4952596119784980299039A289B149C309D109E069FE1A042A10CA288A314A40CA522A655A722A920B4C8B640B7042C
:40084000C05DC2F1C431CAFACCF0CE72D204DE80E202E608EE10000101120324040706080760088009800A100C0F0D700EF00F01104011421280131014801620187019069A
:400880001A801C011D0420082104220424012708280829042A022E0F2F10318032FF3370350F39203E043F01580459045B045C905F018210838487848A108B848D168E10FE
:4008C0008F41901C920193E49402960497849A1C9B189E03A002A101A208A306A510A610A722AA10AB84ADE7AF08B5F8B61FB707BB80D80BD90BDC99DF01008001050208F7
:400900000410058109080A810B040C020E0A0F2010081202130A166819081E02200821142211232425802610290A2A802B042C022E222F20329235013614395A3C123D0820
:400940003E083F40458046024801498058105B206A407B307C028240860190109157928193409520980299039AE09B0A9C109E02A04BA10CA28EA314A404A611AB40AF2038
:40098000B001C0DFC2FFC47FCAFFCCEDCEFFDE80E402EA80EE021B011F0232203302350836803B408908C630CCF0CE1030013180344037043A013F80822088028B1097407A
:4009C0009D08A108A620AE80AF01CCF0CE60E6805108560883408508932097409A089C419D089F04A002A108A580A740AA09D460E220E610EA20EE808108844185809320A9
:400A000097409C41A002A580AB04E2C0E650EA8014407002C404DC015840601084028C108D20A40AA808B040D401D802E008E402EA011B01811087019A109C40A120A4082A
:400A4000AE10C6080A040B200E200F01861487108E0297019A109D10A120A408AB01B040C20FE408E8012620932097409902A002A108B502C82052015310550870027502C3
:400A80008E0193209902A002A108AA20AF40D4E0DC80DE20EC80EE40051008080C080F041F105120561059206202840887049A109D10A120A202A408C001C20DC601D407CD
:400AC000D80285209D20AF1001010B010D010F0111011D0100FF01AB02021105BF0000A09F001F000000000000000000100000004000000000000000C0000000FF0000B8F6
:400B00004700470000010000800000028200820000000000000707000700000027001801270018010004000000050000000000000000000000000000000000000000000002
:400B40000000000000000000000000000000000000000000000000000000000000000000000000000000000000000000000000000000000000000000000000000000000075
:400B80000000000000000000000000000000000000000000000000000000000000000000000000000000000000000000000000000000000000000000000000000000000035
:400BC00000000000000000000000000000000000000000000000000000000000000000000000000000000000000000000000000000000000000000000000000000000000F5
:400C000000000000000000000000000000000000000000000000000000000000000000000000000000000000000000000000000000000000000000000000000000000000B4
:0200000490006A
:0400000000000007F5
:0200000490105A
:04000000BC90ACAF55
:0200000490303A
:0200000090D09E
:0200000490402A
:4000000000000000000000000000000000000000000000000000000000000000000000000000000000000000000000000000000000000000000000000000000000000000C0
:400040000000000000000000000000000000000000000000000000000000000000000000000000000000000000000000000000000000000000000000000000000000000080
:400080000000000000000000000000000000000000000000000000000000000000000000000000000000000000000000000000000000000000000000000000000000000040
:4000C0000000000000000000000000000000000000000000000000000000000000000000000000000000000000000000000000000000000000000000000000000000000000
:0200000490501A
:0C00000000012E16106900002E30A139FE
:00000001FF