:400000000080002011000000910D0000910D0000064A08B5136843F020031360044B1A6803F53F5302331A6000F0D0FEE8460040FA46004010B5054C237833B9044B13B11C
:400040000448AFF300800123237010BD6081FF1F0000000020310000084B10B51BB108490848AFF300800848036803B910BD074B002BFBD0BDE81040184700BF00000000F8
:400080006481FF1F20310000C880FF1F0000000072B6034A13680133136062B6704700BF8081FF1F0A4A0B4B516801310B40002BBEBF03F1FF3363F00F030133536051688F
:4000C0009368994202BF024B01221A73704700BF8081FF1F0F0000800A4A0B4B916801310B40002BBEBF03F1FF3363F00F030133936091685368994202BF024B01221A7381
:40010000704700BF8081FF1F0F000080024B012200205A7302F030B88081FF1F10B5C4B2204601F015F80128FAD110BD70B5C4B220460E4601F014F8314605460246204623
:4001400001F0D0F8204601F003F80128FAD0284670BD000038B5094CA57B3DB9012001F071FF4FF47A7002F0BFF9E573236823610123A373BDE8384002F0F4B98081FF1FB9
:4001800038B50446C5B2284601F068FF012002F0C1F944F00200C0B201F060FF012002F0B9F9284601F05AFFBDE83840062002F09BB9000038B5044D0024285D013402F0F2
:4001C00059F9102CF9D138BD9481FF1F0FB400B593B014AB53F8042B402102A8019302F087FB02A801F0DBFF01F0E5FF13B05DF804EB04B07047000010B5044601780648E6
:40020000FFF7E4FF0420FFF789FF62782146BDE81040042000F0F4BF3231000007B50023ADF804308DF80600032301A88DF80530FFF7E2FF03B05DF804FB0000F8B5234C1D
:400240000646FFF787FFE37B93B92148FFF7BEFF01F0FEFE18B90120FFF792FFF8E70120FFF78EFF01200023E073636202F052F93246616A1748FFF7A9FF144D0027636AD9
:400280009E421BD001F0E4FE28B16B6A13B11248FFF79CFF6762636A9E4205DD0020FFF76FFF6B6A013305E005DA0120FFF768FF6B6A013B6B6202F055F9E0E7322002F0F3
:4002C00013F9BDE8F8400548FFF780BF8081FF1F3F3100004631000063310000813100002DE9F04F9BB062B602F0A6F9BB49042002F0CAF9BA4801F0B7FEBA4801F0EAFE9E
:40030000B94801F01BFF002001F03CFF01F046FF0221002000F0D2FEB44D0321084602F001F92E462C4602F01DF9AB7B5BB12A692B689B1A41F28832934204D9002001F022
:4003400081FE0023AB7300F0F1FE18B9A848FFF73DFF04E000F0F0FE0028F7D109E000F0E5FE0028FBD0A348FFF730FF032001F00DF8032000F0ECFE0128D4D19E4903208C
:40038000FFF7D4FE94F828109C48FFF71FFF94F82830023B102B00F25F83DFE813F011005D031A005D0320005D0338005D035C005D0399015D0324035D0343035D034F0387
:4003C00003238DF828308DF8293008238DF82A3030E394F82A00FFF731FF894B27E3FFF7B9FE00236373637B002BFCD0002373733268637B002BFCD0336807218DF82810D2
:400400009B1A04218DF82910ADF82A3012E30220FFF784FE4FF000090DF1280A4FF480780027C8EB0903DA1907F80A200137402FF9D10220FFF772FE3A465146022000F0BF
:40044000DFFEB8F10108EBD109F10109B9F1400FE4D16C4BC2E294F82A0001F019FE606AFFF7ECFE012001F093FE02F0ADF9664BDFF89C811A78002742F004021A701A78CF
:4004800042F001021A701A7802F0FE021A701A7802F0FE021A7002F09BF90220FFF73EFE41F6FF734FF480420121022001F0F6FD84F8680001F0C4FF08F807000137102F9B
:4004C000F8D1DFF850A100270AF15D081FFA88F90137102F14BF3A4600221AF8010F22440623127D402101F0DFFF4A4646F24B419AF8000001F0EAFF09F14009102F1FFA93
:4005000089F9E5D100237373637B002BFCD00027142239460AA87773DFF8F09002F0B4F940230D9338464FF0FF337760CDF83090B360377301F02CFE736896F868003344C9
:40054000197D01F035FF96F8680001F0F3FE012196F8680001F0C6FE636813B96B7B002BFAD0002794F82BA0A76094F80CB0BBF1000F6AD101F0F6FF6B7B43B1BAF1010A70
:4005800085F80DB003D160E02B7B002B5DD1A26863689A42F8D04FF0000BA3680AA808EB83135B440A93CBF140030B9300F072FA0B9B0137C3F140039B440D9B5FFA8BFB75
:4005C0009BBB022000F0C4FD012825D0637B002B3BD12B7B002BF4D037E000BF910000000D010000A5000000D90000008081FF1F8F310000A2310000A881FF1FAC31000041
:4006000024310000263100009B640040F085FF1F9481FF1F9381FF1F4022B949022000F0EFFD4023CDF830900D93BBF13F0FB4D9A268B44B01321340002BBEBF03F1FF3309
:4006400063F00F030133A3608FE7042194F8680001F0BAFE94F8680001F0C6FE0028F9D10AA800F04BFA0220FFF758FDDDF83480B8F1400F06D0C8F1400292B2A049022016
:4006800000F0BEFD0D9A32F0400203D11146022000F0B6FD0220FFF741FDFFF78BFD237B33B19948FFF792FD0220FFF7B7FD06E0964B09A81B88ADF82430FFF79DFD627B8B
:4006C0003946237B9248CDF80080FFF77FFDC6E19048FFF77BFDE76A17F03F0701D00320BBE1012001F008FD95F82A0001F0D0FC02F06AF8884BDFF824821A7802F0FB0281
:400700001A701A7842F001021A701A7802F0FE021A701A7802F0FE021A7002F059F8686AFFF78CFD01214FF4804341F6FF72084601F0E8FC85F8680001F082FE08F80700DE
:400740000137102FF8D1DFF8D891002709F15D031FFA83F807930137102F14BF3A46002219F8010F22440523127D402101F09CFE414646F2484299F8000001F0A7FE08F1CB
:400780004008102F1FFA88F8E5D10027BB46B946BA46F36A4FF0FF389B09142239460AA877600593C6F80880377302F06DF8402301200D9300F0EAFDCDF818806268514BEA
:4007C00001321340002BBCBF03F1FF3363F00F03A168B8BF01338B4200F0A480BAF1000F07D0237B002B40F0B0806B7B002B40F0AC800B9B002B34D1B9F1000F0BD07F227B
:400800003F495A540133402BFAD10A910B9328E0BAF1000F06D1012000F09AFC01288046F6D107E0237B002B40F08F806B7B002BF1D08AE03249FFF779FC8146304B0B90FB
:4008400040460A9300F0A2FDB9F13F0F07F1010706DD059BDB1BD3F1000949EB030900E0C1460B9BDBB16368079A0AA802EB83120D9BC3F1400313440C9300F04EF90D9B1B
:400880006BB96A681F4B01321340002BBEBF03F1FF3363F00F030133636040230D93A36801333FD16B680F2B3CD14FF00008C5F8088001F055FC85F80C80AB6895F86800DD
:4008C0002B44197D01F074FD95F8680001F032FD012195F8680001F005FD85F80D80637B002BFCD04FF00008012086F80D8001F043FC404601F000FCCDF8188015E000BF6C
:40090000F085FF1F0F000080BB31000028310000D5310000EE310000986400409481FF1F9381FF1FBAF1000F05D0237B6BB96B7B5BB94FF0010AA368069A93423FF43EAF55
:40094000AB680BF1010B069338E701F00FFC012001F0D2FB002001F00FFC042194F8680001F032FD94F8680001F03EFD0028F9D196F8680001F0CCFC737B327B029301235F
:4009800003920193CDF800905B463A4605993748FFF71CFCB9F1000F16D1059BBB420ADD012000F0D5FB01288046F6D13049FFF7BDFB3F2803DC012000F0FCFC04E04046D2
:4009C00000F0E4FC0137E8E7FFF7F4FB2948FFF7FDFB237B0BB102203FE0274B1B8809A8ADF8243027E094F82A0001F051FB606AFFF724FC2148FFF7E9FB00236373637B8E
:400A0000002BFCD0012001F0B7FB00237373637B002BFCD0002001F0AFFB1948FFF7D6FB184B04E00020E073FFF708FC164B1B88ADF828300AA8FFF7DFFB10E094F82A005D
:400A400094F8B034834205D085F8B00401F09AFB0023EB730D4BEAE70120FFF7DFFB032000F094FC0A48FFF7B1FB5CE4F8310000F085FF1F283200002A3100003732000069
:400A8000453200002C3100002E310000303100005232000010B54268002A2ED0C368002B2BD00368048A591C01601B78013A13F0800F817C42601DBF03F0010242EA8403E3
:400AC0000231083114BF43F0020343EA0423817414BF03820382837C072BDCD9028A083B42FA03F38268511C81601370C368013BC360837C083B8374CDE710BD07B5827CB9
:400B000042B102AA002102F8011D026001224260FFF7C0FF03B05DF804FB30B543686BB3C2685AB3827C072A0CD8046890F91050611C01602178013B41EA052108320182EC
:400B400043608274827C018AA2F108042141CBB2090608D5C3F3801363F07F03023A03F08103827402E08474002BD7D08268511C81601370C368013BC360CFE730BD00008E
:400B8000F8B572B6644B61221A70A3F5F06301221A80192406229C7083F88022522203F5C0731A705D4B5E4A1B785E4EDBB2137040F618025C4B00251A8041F2512223F82F
:400BC000022C33784FF4F07003F0010343EA450501F0F2FD013C05F0030521D0032DF0D1524B4FF480721A8007221A70504A002448211470917002221C705C7103F8032C9D
:400C00004C4A4D4D1378062643F001031370424B01221A70494A137843F02003137000E0FEE706FB045300219A881868013401F02BFE072CF5D14248424D002450F8041F12
:400C400004F1105303F14A0221F0FF064B33C9B20B4452005B0002329A4206D012F8027C12F801EC07F806E0F5E7A8420C44E5D1354A00231360936013619361334B344950
:400C80001A68344B344C1A60344B1A68344B1A60344A137843F002031370137C43F002031374314B1A7842F040021A700A7842F010020A702D4A07CA03C42D49228008684A
:400CC0002C4A28341060097911712B4A07CA03C422802A4AE83C07CA03C42280284A083407CA03C4274922800A78A4F6785442F008020A70244A01F5AA5112780C31D2B28D
:400D000002F00700120908704A70204A442111700FCB07C42380F8BD004800400F010049A146004025420040224200400440004006400040A243004057320000E8460040A7
:400D4000FCFFFF4790000048007600403C0C0048C243004020760040C0510040400C00482876004003500140A0430040040C0048100C0048CB510040180C0048240C004883
:400D8000300C004822430040CF0100497658004008B501F04DFD03680C2B00D1FEE7FEE7084908B50B68084A1844821A802A01DC086005E001F03CFD0C2303604FF0FF33E2
:400DC000184608BDCC80FF1F2087FF1F80B51148114B0025C0B1A3F1100192C922460439161BB74204D051F8046F42F8046BF7E7114653F8046C8C1AA64202D041F8045B31
:400E0000F9E701381033E5E701F018FDFFF768FAFEE700BF0100000014340000124A134B10B51A60124A134C1368134843F4007313600023032B98BF54F823204FEA8301A4
:400E400088BF0E4A0133302B4250F3D10C4B1A780C4B1A700C4B084A1A60FFF791FEBDE8104001F029BA00BF0004FA050CED00E014ED00E0000000000080FF1F910D0000FB
:400E8000BC760040C080FF1F08ED00E0F8B501F09BFC4B4A01271378022643F001031370137C484C43F001031374474B02F5E3521F700B3203F8946C1378054603F07F037D
:400EC0001370002001F026FB2378404A03F0F90323701378384603F0DF03137023783B43237001F017FB282001F014FB384B30461A7802F07F021A701A7802F0BF021A70E7
:400F000023783343237001F005FB2378314A43F0040323700023137053702F4AFF2199540133092BFBD1284601F052FC0721172001F038FB2949172001F026FB07211820CB
:400F400001F030FB2649182001F01EFB0721152001F028FB2349152001F016FB0721032001F020FB2049032001F00EFB0721042001F018FB1D49042001F006FB072105209A
:400F800001F010FB1A49052001F0FEFA0721062001F008FB1749062001F0F6FA0021162001F000FB1449162001F0EEFA07210C2001F0F8FABDE8F84010490C2001F0E4BA44
:400FC000A5430040944300409D60004012600040F8510040846000406186FF1F5B18000095160000591800008D170000B9170000E91700002118000061180000D51800006F
:40100000214B224A10B5187000231370204A40201370204A0F2413701F4A13701F4A13701F4A13701F4A13701F4B4FF400021A604FF080721A604FF400121A6008221A6081
:4010400010221A6020221A601860184804704FF480001860164B1A70933B19B91A7802F0FE0202E01A7842F001021A70114B03221A70802203F8202C012001F09DFB0E4B48
:4010800004221A7010BD00BF7C86FF1F8286FF1F8086FF1F8186FF1F7D86FF1F6C86FF1F7F86FF1FF486FF1F00E100E09E6000409C600040286000401260004070B5074C4C
:4010C000054623780E461BB9FFF7E0FE0123237031462846BDE87040FFF792BF3186FF1F0A4A002313700A4A13700A4A13700A4A13700A4A13700A4A13700A4A13700A4BA8
:4011000003221A70802203F8202C70478286FF1F8086FF1F8186FF1F7D86FF1F6C86FF1F7F86FF1FF486FF1F28600040014B1878704700BF8186FF1F044B1A7802F0FF00F4
:401140001AB118780022C0B21A7070478086FF1F024A0C2303FB0020407870478886FF1F431E072B0CD8074A064B00010344805C5B7800F00F0043EA0020023880B2704768
:4011800000207047FC5F00401A4A38B50C2303FB00231B79090C13F0800F00F1FF35044619BF8AB24FF480438BB24FF48042032D18D8DFE805F002070C110021084601F0B4
:4011C00057F80DE00021084601F036F808E00021084601F015F803E00021084600F0F4FF054B1855EDB2072D03D801F029F9034B185538BD8886FF1F5886FF1F6186FF1F40
:40120000431E072B2DE9F0470446894615465CD82F4F0C2202FB0072D388DFF8B8A09BB2C3F500739D424FF00C0303FB007388BFD588DB7884BFC5F50075ADB2254A43EA07
:4012400015230601B354B244EBB28AF80130224B1A5C9846FF2A01D1FFF796FF0C2303FB047200215170B9F1000F28D03DB31B4F385D01F04DF811232946FE2218F8040069
:4012800001F012F906F5C04278321FFA89F118F8040001F01BF9124D18F80410385D01F087F80121385D01F01DF8735D43F002037355735D03F0FD037355BDE8F08703FB25
:4012C00004746379DBB28AF80230BDE8F08700BF8886FF1FFC5F00406186FF1F5886FF1F706000402DE9F047044615468846002940D0431E072B3FD8FFF732FFA84203D21D
:401300002046FFF72DFF05461D4E335DFF2B03D141462046FFF738FFDFF868A027011AF8040000F0F5FF1223FE222946305D01F0BBF807F5C0411FFA88F27831305D01F01A
:40134000C5F8DFF84490315D1AF8040001F030F801211AF8040000F0C5FF17F8093043F0020307F8093017F8093003F0FD0307F8093002E00D4600E000252846BDE8F0876D
:401380006186FF1F5886FF1F70600040431E072B0AD8064A0C2303FB002300225A705A79034BD2B200011A54704700BF8886FF1FFE5F0040431E072B9FBF024B000108225F
:4013C0001A547047FE5F004030B51A4A1A491B4D0878138803449BB21380194A00231488D8B2A4B27CB1082B0CD050680078C0B2E85450680133013050601088013880B2E9
:401400001080ECE718460B780E4C082B0E4A00D040B10E4D2B7883F080032B700F232370022301E0022323701370094B1870087030BD00BFF886FF1FF486FF1F0060004059
:401440007086FF1F6D86FF1F8286FF1F7E86FF1FF586FF1F074B02221A70074B80221A70064B0F221A70064A00231370054A0120137070478286FF1F7E86FF1F6D86FF1FE3
:40148000F486FF1FF586FF1F30B5164B16491B780A8803F00F03023BDBB21A4492B20A80124C134A0020118889B279B173B15568215C013BC9B229705168DBB20131516086
:4014C00011880130013989B21180ECE7094A1370094A137883F080031370084B0B221A7030BD00BF29600040F886FF1F006000407086FF1FF586FF1F7E86FF1F6D86FF1F81
:40150000064A06231370064A01201370054B80221A70054B00221A70704700BF8286FF1F6D86FF1F7E86FF1FF586FF1F054B9A683AB19A68044910709A6809885180002249
:401540009A6070477086FF1FF886FF1F08B5124B1A78D2B21A701B78DBB21A0602D50F4A137008BD0220FFF7E1FF0D4B1B7803F06003202B05D0402B06D043B900F012FC04
:4015800004E001F029F901E000F046FD10B9034B03221A7008BD00BF286000406D86FF1F0060004008B5084A084B0120197813880B449BB21380064B00221A70FFF7B6FFD7
:4015C000044B03221A7008BDF886FF1FF486FF1F8286FF1F6D86FF1F08B50C4B1B78DBB2042B07D0062B09D0022B0DD1BDE80840FFF7D8BFBDE80840FFF746BF0320FFF7F3
:4016000095FF034B03221A7008BD00BF8286FF1F6D86FF1F08B5054B002201201A70FFF785FF034B03221A7008BD00BF8286FF1F6D86FF1F08B50A4B1A7832B11A780949E7
:4016400042F080020A7000221A70074B002201201A70FFF76BFF054B03221A7008BD00BF6C86FF1F086000408286FF1F6D86FF1F074B1B78DBB2042B05D0062B05D0022BF6
:4016800005D1FFF7A1BEFFF7C5BFFFF7D3BF70478286FF1F38B51D4C2378DBB2DD0634D518060AD503F00F03012B2ED1FFF74EFF174B1B78190609D538BD5A0602D5FFF732
:4016C000D7FF03E09D0620D5FFF786FF23781B061BD4104B1A78104B1B7813430F4A13701278934211D10A4A0849154613782078DBB2000605D41378DBB20B700B7803F08D
:401700000F0328788342F1D138BD38BD286000406D86FF1F7E86FF1FF586FF1F29600040054A00231380054A916819B191680B7092685380704700BFF886FF1F7086FF1FAB
:401740000E4808B503889BB213B9FFF783FE13E00B4B02221A700B4B00221A70FFF7E0FF094AD1799379028843EA012392B2934238BF0380FFF728FE012008BD7086FF1F40
:401780008286FF1F7E86FF1F00600040084B01221A700F3B9B7C074B1A7B02F00302012A1EBFDA7B82F08002DA7301225A7370470B6000408886FF1F094B02221A700F3B9A
:4017C00093F82230074B1A7E02F00302012A1EBFDA7E82F08002DA7601225A76704700BF0B6000408886FF1F0B4B04221A700F3B93F83230094B93F8242002F00302012AC5
:401800001EBF93F8272082F0800283F82720012283F82520704700BF0B6000408886FF1F0B4B08221A700F3B93F84230094B93F8302002F00302012A1EBF93F8332082F044
:40184000800283F83320012283F83120704700BF0B6000408886FF1F7047FFF741BC0000F0B5184B184E19780C27C9B201234FF0000C31B3CA0720D5144A4FEA031E7244FE
:40188000947850782040C5070DD507FB03652C79240608D5147804F0FE0414706D790C4CEDB204F80E50840706D507FB036425792D0658BF84F801C090700133DBB24908ED
:4018C000D7E7F0BD9F6000408886FF1F70600040FE5F004000F0E8BC70B50446184B88B003AA03F11006154618685968083303C5B3422A46F7D11B782B70FCB12223237091
:4019000001AD03232846637000F0C6FE002220461146AB5C08AC04EB131414F8144C03F00F03847008AC234413F8143C0132082AC1700371417100F10400EAD108B070BD02
:40194000813200002DE9F0431C4D01222E460C201F274FF0800E4FF0080C194B00FB02581401234418705F70164998F805902144B9F1000F07D098F8044024064CBF8870D3
:4019800081F802C001E081F802E000FB0261CC880132E4B29C71CC88092AC4F30724DC71CC88E4B21C71C988C1F307215971D4D1054BFF221A70BDE8F08300BF8886FF1F61
:4019C00070600040FC5F00400A600040064B074A1B7802EBC30253681A7C824286BF03EBC0035869002070477C86FF1FD03200002DE9F84F424B1A78002A7ED01878414DD4
:401A00000138C0B2FFF7E2FFA8463F4AC3681478007ADFF800C1E4B203EBC0000C2600274FF0010E834268D01A78A24263D11CF80420597891425ED19A7893F8039002F025
:401A40007F0206FB02FA05EB0A01CF7093F802B009F0030981F804B093F803B005F80AB0B3F804A0A1F808A093F902A0BAF1000F0BDAB9F1010F0CBF4FF007094FF00D09C4
:401A800081F8059081F801E009E0B9F1010F0CBF4FF005094FF0090981F805904F704FEA02191A4906FB0282494481F802E0B2F808A0CAF3072A81F800A0B2F808A05FFABD
:401AC0008AFA81F801A0B2F806A011495FFA8AFA494481F806A0B2F80690C9F3072981F80790B2F806905FFA89F981F80490D288C2F307224A71083394E7BDE8F88F00BF1D
:401B00008186FF1F8886FF1F7D86FF1FFC5F0040706000406E86FF1F08B5064B18780138C0B2FFF753FF20B143681B7900EBC300406908BD8186FF1F00212DE9F84F0B46C5
:401B40004E4E0C2707FB01F401313219092933554FF000059370494CD3701381937253705371EFD118B1464B1D70464B1D70464B1A78002A7FD0187801250138C0B2FFF771
:401B800025FFA8464368DFF8F8E0DB790C2713F0400F3E4B4FF0000C1A7814BF42F0010202F0FE021A70027AD20007FB0541C36803EB02094B4531D093F802A00AF07F06FF
:401BC000AE4229D10E89B3F804B0B6B25E4538BFA1F808B01E7893F801B01EF80660B3451AD181F804A0DE780E7093F902A0DE78BAF1000F06F0030607DA012E0CBF07264B
:401C00000D264E7181F8018006E0012E0CBF052609264E7181F801C00833CBE70135092DC3D1C1680A328B1C0A440C200833934209D013F8081C13F80A5C01F07F0100FB1D
:401C400001418D72F2E7FFF767FF114B0121186000230C2000FB0142D3801289013113449BB203F00102134409299BB2F2D1BDE8F84FFFF767BEBDE8F88F00BF8886FF1FFA
:401C80006E86FF1FF686FF1F8186FF1F7F86FF1F8486FF1F114B1B7903F07F035A1E072A19D80F490C2202FB031291781B0141F0010191700021D170517841F002015170F8
:401CC000127912F0800F074A1A4414BF8D2389239370FFF715BC0020704700BF006000408886FF1FFC5F004030B4194B1A7902F07F02531E072B27D8164B0C2404FB02336E
:401D00009978154D01F0FE0199700021D97029461201505D114400F07F0050555A7802F0FD025A701A795B78120605D5012B01D18C7006E00D2303E0012B0CBF082309230F
:401D40008B7030BCFFF7DCBB002030BC704700BF006000408886FF1FFC5F004010B50D4B0D4C21791878C9B20138C0B2FFF72EFE43681B798B4201D2012909D8074A084893
:401D8000535CDBB24354A3780120DBB2535410BD002010BD8186FF1F006000406E86FF1FF686FF1F38B58A4A8A4C13780021DBB221801806517840F18D800A2900F2058174
:401DC000DFE811F05D00030103010301030103010B0003017E0003018200D3787C49012B09D17D4B1A787D4B03EBC2035B685B686360122310E0CB78022B12D18878FFF7F5
:401E0000E5FD002800F0E180436863606368DA7863689B7843EA02232380BDE83840FFF78FBCCB78032B26D16D4B00228878D5B2854209D3664A91786A4AEE2908BF13467B
:401E4000634A917881B106E0187801320028F1D018780344EAE764499278097C914203D16248FFF739FD614B1A78002A00F0AD801A78228018E0BDE8384000F0ADBC13F05D
:401E8000030313D0022B40F0A0802380504B0C211B7903F07F02564B01FB02339A78554BD2B21A7000225A706360B6E702222280514A11784F4AC9B2117053706260ACE7D4
:401EC000012323804D4BEFE70123238013794C4A1344E9E701390A2977D8DFE801F037764F76067676760A7620009378454ADBB25AE0937803F0FF0153B9404B1A78914254
:401F00005FD01970404B01201870FFF715FE58E0481EC0B2FFF75AFD0028EED155E0FFF71DFF002851D02A4A384913791279DBB2D2B20A70364A3249D25CCB5C9A4240D005
:401F4000314B01221A70FFF753FD3AE003F00303012B2BD009D3022B37D11D4B9B78002B33D1BDE83840FFF7BFBE194B9B78012B2BD1214A137803F0FD0315E003F00303F7
:401F8000012B13D008D3022B1FD1114B9B78E3B9BDE83840FFF77EBE0D4B9B78012B14D1154A137843F0020313700AE0084B1A795AB998781B791749DBB2CA5C22EA0002F7
:401FC000CA54BDE83840FFF79BBA002038BD00BF006000407086FF1F7C86FF1FD032000034330000BC320000A7330000FA86FF1F8886FF1F3286FF1F7F86FF1F8186FF1F9A
:402000006E86FF1F6C86FF1F8086FF1F7D86FF1FF686FF1F8386FF1F074B1A78120609D55B78012B06D1054B054A5A6012781A80FFF786BB00207047006000407086FF1F89
:4020400094320000014B1870704700BF77650040014B1878704700BF69650040014B1870704700BF7D640040074A0223136002F688321268E0215064044A11706FF44071BC
:402080000A441360704700BF80E100E001E400E0014B1870704700BF7764004073B515461E460B4C04230022019200920A4601461846237000F0A4F932462946207800F04E
:4020C0005FF90221207800F049F9207802B070BDD080FF1F064A0123136002F688321268E0211064034A1170A2F540721360704780E100E000E400E0014B1870704700BF9E
:402100007B64004073B515461E460B4C05230022019200920A4601461846237000F070F932462946207800F02BF90221207800F015F9207802B070BDD180FF1F064A042349
:40214000136002F688321268E0219064034A1170A2F202321360704780E100E002E400E0014B04221A60704700E100E0014B04221A60704780E100E0014B1870704700BF72
:402180007E640040014B1870704700BF76640040014B1870704700BF7C640040704738B505460078012428B100F0AEFA285D0134E4B2F8E738BD08B50D2000F0A5FABDE8F0
:4021C00008400A2000F0A0BAF7B516461F460B4C00230325019300930A4601462846257000F00EF93A463146207800F0C9F80221207800F0B3F8207803B0F0BDE080FF1F50
:40220000F7B516461F460B4C00230225019300930A4601462846257000F0F2F83A463146207800F0ADF82946207800F097F8207803B0F0BDE180FF1FF7B516461F460B4C10
:4022400000230125019300930A4601462846257000F0D6F83A463146207800F091F80221207800F07BF8207803B0F0BDE280FF1F73B515461E460B4C0023019300930A4620
:4022800001461846237000F0BBF832462946207800F076F80221207800F060F8207802B070BD00BFE380FF1F024B1878C0F38010704700BF8F450040074A7F2380211370EB
:4022C0005170064A013BDBB202F80839002BF9D1034A1370704700BFE480FF1FF87B00400078004017280FD8084B0001C25C11B142F0200201E002F0DF02C254C25C42F0D9
:402300000102C25400207047012070471070004017280BD8064B0001C25C02F0FE02C254C25C02F0DF02C25400207047012070471070004017280DD8074900010B460344F8
:402340001A7942F004021A71435C43F00103435400207047012070471070004017280BD8064A0001835C490003F0F10301F00E011943815400207047012070471070004009
:4023800041F6FF73994208BF4FF400519A4208BF4FF4005217289FBFC00000F1804000F5EC4081809ABFC280002001207047000017289FBF034B00011954002088BF012062
:4023C000704700BF1970004017289FBF054B00011A5C01F007019DBF1143195400200120704700BF1470004017289FBF034B0001185C00F0070088BFFF2070471470004071
:40240000172810B51AD8C00001F07F0100F1804441EAC21204F5EC44D2B222709DF8082003F00F0343EA0213DBB263709DF80C30002003F00F03A370E07010BD012010BD0A
:4024400010B500F0C1F90A4A5378182B0AD91478013B5370E30003F1804303F5F0431B78137000E0FF2400F0B3F9204610BD00BFE480FF1F030610B5044611D400F0A4F9A5
:40248000084AE300117803F1804303F5F04319705378147001335370BDE8104000F098B910BD00BFE480FF1F30B504060CD411F4704509D1C40004F1804404F5F0442180BB
:4024C000A270E370284630BD012030BD03065FBFC00000F1804000F5F04081805ABFC280002001207047000038B50446084DB4F5004F05D9286800F05FF9A4F50044F6E709
:40250000034B58686043BDE8384000F055B900BFEC80FF1F024B1B7A584300F04DB900BFEC80FF1F0E4B00F003001A78490102F0FC02104318701A7801F0600142F080023F
:402540001A701A7802F07F021A701A7802F09F020A431A701A7842F010021A70704700BF83430040014B01221A70704784430040044B00F00F021B6853F8220043F8221006
:40258000704700BF08ED00E0054A00F01F00126800F1100352F8230042F82310704700BF08ED00E000F01F0000F16040490100F56440C9B2017070470F4B10B50F4900240E
:4025C0000F205C609C60DC601C615C61FFF7D0FF0B4A136843F0040313600A4B4FF47A72DB68B3FBF2F3084A1360084B4FF400421C60C3F8E82010BD3486FF1F65260000D6
:4026000010E000E0EC80FF1F14E000E018E000E0024A136843F002031360704710E000E008B5FFF7F5FF034A136843F00103136008BD00BF10E000E010B5054CA3691BB938
:40264000FFF7BAFF0123A361BDE81040FFF7E8BF3486FF1F024B1868C0F30040704700BF10E000E038B5FFF7F5FF012808D1054D002455F8243003B198470134052CF8D161
:4026800038BD00BF3886FF1F024B03EB80035868596070473486FF1F134B144A1B78DBB20360127843EA0223114A0360127843EA0243104A0360127843EA026303600E4B5A
:4026C0000E4A1B78DBB24360127843EA02230C4A4360127843EA02430A4A4360127843EA02634360704700BF0301004904010049EC460040020100490101004900010049D4
:402700000501004906010049FEB5494652465B460EB40746244909688A46244A12682448022100F071F8030020480068C018204900F06AF8143883460121C9430C460125D1
:40274000002600F041F8814651460B7823400B705846013000F030F83800F04028400B78234003430B70584600F026F80136072EF2D9002001300138013001200B78234048
:4027800003430B705846043000F016F8484600F01FF800BF00BF00BF0EBC894692469B46FEBD00BFAFF30080D480FF1FF880FF1F00C20100000000000230800803D000BFB1
:4027C00001380046FCD17047EFF3108072B6704780F31088704700BF094A137803F00303012B0AD0022B09D113790C2103F07F02044B01FB02339B7A00E01379002070471B
:40280000006000408886FF1F002902D0B0FBF1F0704708B14FF0FF3000F008B80029F8D00246B0FBF1F000FB11217047704700BF014B1868704700BF5C81FF1F0E4B70B5DD
:402840001E460E4C0025E41AA410A54204D056F8253098470135F8E700F0C2FD084B094C1E46E41AA4100025A54204D056F8253098470135F8E770BDEC330000EC33000022
:40288000EC330000F433000003460244934202D003F8011BFAE7704730B5141E05469BB0184604DA8B232B604FF0FF301DE04FF40273ADF80C300CBF234604F1FF330293D7
:4028C00005934FF6FF7300910491ADF80E3002461E9B6946284600F073F8431CBCBF8B232B6014B1009B00221A701BB030BD000007B5009313460A46014603480068FFF748
:40290000CBFF03B05DF804FB5C81FF1F2DE9F0478E6882469E420C46914698463ED88A8912F4906F3AD02568096902236F1A656905EB450595FBF3F57B1C43449D4238BF80
:402940001D4653050FD5294600F04AFB064698B13A46216900F0D2FAA38923F4906343F08003A38113E02A4600F098FB064670B92169504600F0E8FA0C23CAF80030A3890F
:402980004FF0FF3043F04003A381BDE8F08726613E44266046466561ED1BA560464528BF464649463246206800F0B3FAA36800209B1BA36023681E442660BDE8F087000068
:4029C0002DE9F04F9DB003938B8980461C060D4616460DD50B695BB9402100F001FB2860286118B90C23C8F80030CDE040236B610023099320238DF82930DFF89CB1302309
:402A00008DF82A3037463C4614F8013B1BB9B7EB060910D003E0252BF9D02746F3E74B46324629464046FFF771FF013000F0A780099B4B4409933B78002B00F0A08000233C
:402A40004FF0FF3204930793059206938DF853301A930126052221784E4800F041FA671C049B38B14B4A3C46801A06FA00F018430490EFE7D90644BF20228DF853201A077A
:402A800044BF2B228DF8532022782A2A03D0079A00210A200BE0039A111D12680391002A10DA524243F00200079204900BE027463B780134303B092B03D800FB0232012148
:402AC000F5E701B107923B782E2B1ED17B782A2B0AD1039B02371A1D1B680392002BB8BF4FF0FF33059310E0002319460593781C0A2407463A780130303A092A03D804FB4D
:402B000001210123F5E703B1059103223978224800F0E6F940B14023CBEB000003FA00F0049B013718430490397806221B487E1C8DF8281000F0D4F988B1194B33B9039BE6
:402B4000073323F007030833039314E003AB00932A46144B04A94046AFF3008007E003AB00932A460F4B04A9404600F093F8B0F1FF3F824603D0099B5344099342E7AB8986
:402B80005B0601D4099801E04FF0FF301DB0BDE8F08F00BFBB330000C1330000C5330000000000000D2900002DE9F04791461F460A698B6806469342B8BF1346C9F800305E
:402BC00091F843200C46DDF8208012B10133C9F800302368990642BFD9F800300233C9F80030256815F0060510D104F1190A07E00123524639463046C04701301AD0013562
:402C0000E368D9F800209B1A9D42F1DB94F843302268003318BF012392060FD5E118302081F843005A1C94F845102244023382F8431003E04FF0FF30BDE8F08704F143025A
:402C400039463046C0470130F4D02268D9F80050E36802F00602042A08BF5D1B2269A3680CBF25EAE57500259342C4BF9B1AED184FF000091A344D4509D0012322463946F9
:402C80003046C0470130D5D009F10109F3E70020BDE8F0872DE9F04317460A7E85B06E2A984606460C460C9B01F1430E00F0AE8011D8632A22D009D8002A00F0BB80582A08
:402CC00040F0CA8081F84520834955E0642A1ED0692A1CD0C0E0732A00F0B08009D86F2A2ED0702A40F0B8800A6842F020020A603EE0752A24D0782A3AD0ADE01A6801F11B
:402D00004205111D1960136884F84230A8E021681A6811F0800F02D0111D196008E011F0400F02F10401196002D0B2F9003000E01368002B3CDA2D225B4284F8432037E0CC
:402D400021681A6811F0800F02D0111D196007E011F0400F02F10401196001D0138800E01368227E5C496F2A14BF0A2208221BE078225A4984F845202268186812F0800F15
:402D800000F104051D6003D1550601D5038800E00368D00744BF42F0200222601BB9226822F0200222601022002084F8430001E049490A226568002DA56008DB206820F0D3
:402DC000040020602BB9002D7DD175460CE0002B79D07546B3FBF2F002FB1033CB5C05F8013D03460028F5D1082A0BD12368DA0708D5236962689A42DEBF302305F8013CFE
:402E000005F1FF35C5EB0E0323612EE008681A6810F0800F496903D0101D1860136808E010F0400F02F104001860136801D0198000E0196000232361754616E01A68111D03
:402E40001960156800216268284600F049F808B1401B6060636804E004F1420584F8422001232361002384F84330CDF800803B4603AA21463046FFF797FE013002D14FF05D
:402E8000FF3026E023692A4639463046C0470130F5D023689B0710D5002504F1190907E001234A4639463046C0470130E7D00135E368039A9B1A9D42F2DBE068039B9842E3
:402EC000B8BF184605E00B7804F1420584F842308AE705B0BDE8F08381320000CC33000010B5C9B202449042034605D01C7801308C42F8D1184610BD002010BD10B5431E6B
:402F00000A44914204D011F8014B03F8014FF8E710BD884210B501EB020301D8421E0BE09842FBD28118D21AD34204D013F8014D01F8014DF8E710BD994204D011F8014B47
:402F400002F8014FF8E710BD38B50546002944D051F8043C0C1F002BB8BFE41800F0D4F81E4A1368114613B96360146030E0A3420DD92268A018834201BF18685B6812188C
:402F8000226063600C6023E0A24203D813465A68002AF9D118681918A1420BD12168014458188242196013D110685268014419605A600DE002D90C232B6009E021686018AA
:402FC000824201BF106852680918216062605C602846BDE8384000F098B838BD5486FF1F70B5CD1C25F0030508350C2D38BF0C25002D064601DBA94202D90C23336046E077
:4030000000F082F8234B1C681A462146A1B10B685B1B0ED40B2B03D90B60CC18CD501EE08C420BBF63684B681360636018BF0C4615E00C464968E9E7174C23681BB930465F
:4030400000F052F820602946304600F04DF8431C18D0C41C24F00304A0420DD12560304600F053F804F10B00231D20F00700C31A0ED05A42E25070BD211A304600F034F86A
:403080000130EBD10C233360304600F03EF8002070BD00BF5486FF1F5086FF1FF8B5074615460E4621B91146BDE8F840FFF798BF1AB9FFF749FF2846F8BD00F027F88542BF
:4030C0000ED929463846FFF78BFF044650B131462A46FFF713FF31463846FFF735FF01E03046F8BD2046F8BD38B5064C0023054608462360FDF754FE431C02D1236803B1C7
:403100002B6038BD1C87FF1F7047704751F8040C0028BEBF091851F8043CC0180438704700000000050209020B020D020F02110213027265706C79203078253032780068AB
:403140006F6D696E6700626567696E6E696E67207365656B2066726F6D20256420746F20256400756E65787065637465646C7920646574656374656420747261636B203092
:403180000066696E6973686564207365656B0057616974696E6720666F72205553422E2E2E0055534220726561647900636F6D6D616E642030782530327800756E6465724C
:4031C00072756E206166746572202564207061636B65747300636F756E743D256420693D256420643D2564207A7A3D256400636D645F777269746500703D25642063723D0C
:4032000025642063773D256420663D256420773D256420696E6465783D256420756E64657272756E3D25640077726974652066696E6973686564007374617274206572612A
:4032400073696E670073746F702065726173696E670069646C650000510040100030510040400000000140001000140140000800400140000A004C01400002005001402015
:40328000003031323334353637383941424344454600000028000000000104000100000000000000000157494E5553420000303030303100000000000000000012034D0012
:4032C0005300460054003100300030000100000001000000D832000001000000A7330000000000000000000001000000F03200000100000079330000040000001233000050
:4033000000000000000000000000000010330000FF00000001024000FF00000082024000FF00000003034000FF00000084034000FF00020304030904160346006C007500E2
:40334000780045006E00670069006E0065002A0343006F0077006C00610072006B00200054006500630068006E006F006C006F0067006900650073000009022E0001010040
:4033800080320904000004FF00000107050102400000070582024000000705030340000A0705840340000A12010002FF0001080912006E0100020180014300232D302B20B9
:4033C00000686C4C00656667454647003031323334353637383961626364656600000000F8B500BFF8BC08BC9E467047590000001D0E0000F8B500BFF8BC08BC9E467047C5
:403400003500000018340000C880FF1F98000000C005000000000000000000002087FF1FFFFF0000675000400C00000007000000FFFFFFFF7F8000003F0000000000007DC4
:4034400000FA0000400000000090D0030000000000000000000000000000000000000000000000000000000000000000B933000000000000000000000000000000000000C3
:403480000000000000000000000000000000000000000000000000000000000000000000000000000000000000000000FC80FF1F0000000000000000000000000000000072
:4034C00000000000000000000000000000000000000000000000000000000000000000000000000000000000000000000000000000000000000000000000000000000000CC
:40350000000000000000000000000000000000000000000000000000000000000000000000000000000000000000000000000000000000000000000000000000000000008B
:40354000000000000000000000000000000000000000000000000000000000000000000000000000000000000000000000000000000000000000000000000000000000004B
:40358000000000000000000000000000000000000000000000000000000000000000000000000000000000000000000000000000000000000000000000000000000000000B
:020000040003F7
:0200000480007A
:40000000014500400752004003640040030101400A0301400D050140480601404907014054080140660901405D0A0140530B01404F0C0140530D0140560E0140380F0140F6
:400040000D1501404E160140521701404E18014059190140461A01404E1B01400A4001400D4101400D420140074301400444014009450140064601400F4701400648014029
:4000800008490140154C0140064D014007500140035101407E020841090210801180601461117C402B802E0A3B7E80208940E201861087018E019D40A021AC01E203E40803
:4000C000E6C0EE0888028D808E2098409B019D40A021A201A610AC40E241E402EE080021024E030405030602080F09100A100E010F03100E12701308140E1503182E19037F
:400100001A411D031E0822042301247F27022A0E2B032D032E01307F310F35103E013F10580459045B045C905F01800F8220830F840F85088610890F8C018D088E32910891
:400140009702980199089A069D08A308A404A504A609A903AB0CAD01AE0FB038B407B70FBA20BF40D804D904DB04DC09DF010004024003020490050806880A040D090E0A99
:400180001020120114401510162017401A041B021D01200124402612278028882A042B012D902E022F203080310832113501360437A0398A3A203C013D203E884040410141
:4001C00068026DA08201834886808A418B108C088D448E048F409440984099889A209B019D40A021A201A402A612A908B440B602C0FDC2F2C4F5CAFFCCFFCEFFE207EE0C7B
:40020000000F0210060F09C30B3C0C020E340F02134814801701180219501A051BAD212F23D0240F26202B842C012ECA30383240331F3407368037E039083A203E403F4047
:40024000400545E0470C481249FF4AFF4BFF50045601580459045A045B045C995D095F0162C081018210842085018A048B048D018E02900193019409980999019E089F01D2
:40028000A009A101A501A809A901AC60AF02B018B107B207B440B507B620B922BA02BE40D804D904DC99DF01009604400502071008800A580D080E0810041242140615200F
:4002C0001708180519491AB31B051C401D081E0A1FD0211123C0271129042A012B0A2D022F04300231103340340136043710388039063B103C203D804E825608642067206F
:400300006C476D0D6E206F087484759476977740788079407B018310878088148A848B088C448E1090109248931494A1955796A6978898529A409CA09D429E3F9FD1A010DB
:40034000A170A20AA302A426A503A6A1A73DA901AA04AC08B001B210B310B680B780C0BFC26FC4ABCAAFCCEDCE3FD210E271E690E844EC100004011C030304020502080260
:4003800009020C020F02100311021502160319021A021C011D031F042002210224022502280229082B012C022D103203331F340436043E443F04580459045C095F018301E2
:4003C000854087308B028D488F109149940295019B049C019D49A301A548A720AB49AD01B002B140B307B401B538BB08BE11C032C106C204C604C7E0C824C9FFCAFFCBFF96
:40040000CD20CEF0CF01D020D110D608D804D904DA04DB04DC90DD99DF01E108E440E520E680E708E840E920EB08EE40EFA801040241030808040A660C800E10100211016D
:40044000121418101A091D011F1023102444260E29402BA42C042E0A2F0230103102324834813628380839023A203B803C453F20450847114D10540157405EA0640A6C01E7
:400480006E406F02864088808EC090089210930494A3954596E3978898519A409CA69D429EA59FD0A010A178A424A501A605A76DAB10AC01B404B640C00FC2AFC40FCAFF09
:4004C000CCFFCEFFD0E0D220D630D830E241E480E640EC010003020C030204800708088009030D031010130314031503167418101A401B041C801D032201230324022701EA
:40050000281929032A622C102D032E28327F33033480350F368038083AF03F0452015610580459045B045C995D905F018001810F850886028A208B028D088E08907F91047F
:400540009508967F9A3F9B0F9E3F9F08A03FA108A508A610A903AA04AB0CAC3FAE40AF01B23FB440B50FBE14BF10D804D904DB04DF010008010802010348041005020720DA
:400580000AA60C200D880F801001110512041380142016021711181019201C221D181E042220240825302610272829082A812B042C042E802F603120320133483481362037
:4005C000370838823A243D0A3E605850599069806A106D806F01814085408A038B048C04930494A595449640978099809A409C039D709EA0A184A310A510A615A705AB50DA
:40060000AE04C07FC2FFC4FFCAFFCCFFCEFFE210E408E6C0EA04EE01010104020A010B501010151019D01C01210D240827052804290A2DA030083103320333C034103530DB
:400640003604370C3E5140644502480149FF4AFF4BFF4D204EF0511056085804590B5A045B045C995D995F01610862406340648066406740810782018308840385568608C8
:400680008721880189068A0C8B788D7F8E019001911192069326940697029A029B049E069F01A006A140A306A406A701A806A906AA01AC07AD06B37FB60FBE40BF04D8048C
:4006C000D904DF01001002100485051008400A820C010E2A10201110154016A8185019841B101D80221523052504284029042A502D042EA02F40321434013550360438209C
:400700003B013D203E483F0A4040482049205B5062506A807802830189108C20C0F6C2F9C4F6CAFFCCF6CEF5D001D204D60CD80CDE01E080830486028C088F209C089E02BB
:40074000A304A720AD20B102B440E404E6080080048009060A030B010C300D040F01103D110412C014A915011702180C19081A401C8020802108245628802C8033083507CF
:4007800036FF3B083E40580459045C905F018004810882098302840F85058610880189108A328C018D058E06910592C0952C970299059C409D059E80A00FA220A305A5059E
:4007C000A60FA913AB20AD0FAF10B007B238B440B53FB680B8A0BA02BE50BF10D608D804D904DB04DC09DD90DF010006030A04900508078009400A400C010D080E0A124090
:4008000013081448162219A21B0A1F8022202404250826102734288129042A202F803080310832113620370539993F9059105B40614063086A4081108350840189808A10EE
:400840008B2090D0919992229310940498C0990C9A609B899D409E029F20A081A140A205A340A508A720A890AD11AF01B104B204B4C0B614C0FFC2F9C4FCCA8FCCEFCE3F53
:40088000D60CD80CE004E202E685EA0EEE090201037F0401070208010B3F0C010D3F0E021001113F12021401173F1A011B041C011D3F20012308240127102A012B202C0123
:4008C0002D012F403340353F36033E403F14580459045F018132821D841D85028710880189328A308C0C8D1F8E228F40901D91339304941D953299329A079C1D9D029F603C
:40090000A001A208A332A41DA532A81DA933AB0CAD01AE1DAF38B10FB43CB570B603BE50BF11D804D904DB04DF01014802080382040205100610070209400AA40E620F08D3
:4009400010111122138015051601172018011B101C02208023082620272028112B842D052E802F09312132083340359136083702380839403A223C083E113F404A014B4035
:4009800058408220851089529082912592D19344942095109708985099D99AD19B809D029E20A004A130A218A38EA441A503A620A730A904AA40AC02AF80B0A1B401B5108D
:4009C000B740C0FFC2FFC4FFCAFFCCFFCEFFD608E080E4A0E605EA52EC20EE900101020204010710093F0A040C010F081001113F1608172018081B021D3F1E012010230488
:400A00002601273F2A012B3F2C012F3F3218333F34073A203F045608580459045B045C095D905F01803F830186028701883F8D018E089101923F962097029A3F9B019D0833
:400A40009E3FA001A304A501A610A83FAD01AE04B107B308B63FB707BB82BE40BF04D804D904DB04DC90DF01002103220480051106100A910B040D020E210F08100512503A
:400A80001524168118281A141B201F802020240225032762280429402A012B242C012E082F80300131103240330835103680370A388039043A103B023E413F0858805C40D5
:400AC0005F2062808040872088808C018E489081912492C1930694289604980199519AD19B089F40A210A30EA503A720B304B612C0FFC2FFC4FFCADFCCFFCEDFD638D808A8
:400B0000E240E8C01A801F0832403308358037083880C630CCF0CE10302037203B023D10810889808F0894809D809F08CC30CE60E2805108804086408F01948095109702C2
:400B40009F20A108A420D420E280E44080209F20A420A640AD10E280EE1014808F20C404E408670887048E409B20A740A880AB40D801E602821096409B20A220A740AA20DE
:400B80000A400B010E100F048301910496509A209B20A220A740AA20B104C20FE80426408B02A640AF20C820EA4073407F029340A302AF40DC80DE20EE40041008080C1038
:400BC0000F80522056205B205D048018880291049A209B20A220A740AF04C001C20DD407D601E401740288109810A002DE04E20401010B010D010F0111011B011D0100BF9C
:400C0000012A1105BF0000A09F001F000000000000000000100000004000000000000000C0000000FF0000B84700470000010000800000008000800000000000000400007C
:400C4000000500000000000000000000000000000000000000000000000000000000000000000000000000000000000000000000000000000000000000000000000000006F
:400C80000000000000000000000000000000000000000000000000000000000000000000000000000000000000000000000000000000000000000000000000000000000034
:400CC00000000000000000000000000000000000000000000000000000000000000000000000000000000000000000000000000000000000000000000000000000000000F4
:400D000000000000000000000000000000000000000000000000000000000000000000000000000000000000000000000000000000000000000000000000000000000000B3
:400D40000000000000000000000000000000000000000000000000000000000000000000000000000000000000000000000000000000000000000000000000000000000073
:0200000490006A
:0400000000000007F5
:0200000490105A
:04000000BC90ACAF55
:0200000490303A
:0200000037A225
:0200000490402A
:4000000000000000000000000000000000000000000000000000000000000000000000000000000000000000000000000000000000000000000000000000000000000000C0
:400040000000000000000000000000000000000000000000000000000000000000000000000000000000000000000000000000000000000000000000000000000000000080
:400080000000000000000000000000000000000000000000000000000000000000000000000000000000000000000000000000000000000000000000000000000000000040
:4000C0000000000000000000000000000000000000000000000000000000000000000000000000000000000000000000000000000000000000000000000000000000000000
:0200000490501A
:0C00000000012E16106900002E2D480B88
:00000001FF