:4000000000800020110000000511000005110000064A08B5136843F020031360044B1A6803F53F5302331A6001F08AF8E8460040FA46004010B5054C237833B9044B13B177
:400040000448AFF300800123237010BD6881FF1F0000000080390000084B10B51BB108490848AFF300800848036803B910BD074B002BFBD0BDE81040184700BF0000000088
:400080006C81FF1F80390000C880FF1F000000000A4A0B4B116801310B40002BBEBF03F1FF3363F03F030133136011685368994202BF024B01221A72704700BF8881FF1F03
:4000C0003F0000800A4A0B4B516801310B40002BBEBF03F1FF3363F03F030133536051681368994202BF024B01221A72704700BF8881FF1F3F000080024B012200205A7293
:4001000002F0C4B98881FF1F10B5C4B2204601F0D9F90128FAD110BD08B572B60F4B0F49DA680132DA601A690132C82A08BF00221A615A6918690132A72A08BF00224A61D6
:400140005B69002B0CBF02230023002814BF184643F0010002F002FF62B608BD8881FF1F10B504460D4B8278997E91421CBF00225A7702689A610279094B1A718378002BFB
:4001800014BF0220012002F0ADFEE07802F0A4FE2079BDE8104002F0DBBE00BF8881FF1FA081FF1F70B5C4B220460E4601F092F9314605460246204601F04EFA204601F091
:4001C00081F90128FAD0284670BD000038B50B4CA57F5DB904F11800FFF7C2FF012002F0EBF84FF47A7002F0FDFA6577E36823620123A377BDE8384002F032BB8881FF1F9C
:4002000038B50446C5B2284602F0E2F8062002F0FFFA44F00200C0B202F0DAF8062002F0F7FA284602F0D4F8BDE83840062002F0D9BA10B5642402F0C5F820B10120BDE8C9
:400240001040FFF7DDBF0120FFF7DAFF013CF2D1F4E7000038B5044D0024285D013402F087FA402CF9D138BDAC81FF1F08B502F0A1FC002002F0AAFC02F0BCFC02F0C6FC6A
:4002800080B208BD10B50446012002F0B9F8642002F0A8FAFFF7EAFF2080002002F0B0F8642002F09FFAFFF7E1FF608010BD08B502F0ACFD002002F0B5FD02F0C7FD02F0CD
:4002C000D1FD80B208BD10B50446FFF7B2FF322002F088FAFFF7EBFF20800020FFF790FF322002F07FFAFFF7E2FF608010BD0FB400B593B014AB53F8042B402102A80193C4
:4003000002F026FF02A802F0C8F802F0D2F813B05DF804EB04B0704710B5044601780648FFF7E5FF0420FFF7EFFE62782146BDE81040042001F01EB99239000007B5002399
:40034000ADF804308DF80600032301A88DF80530FFF7E2FF03B05DF804FB0000F8B51D4C0646FFF733FF637F03B156B91A48FFF7BEFFFFF75EFF012000236077636602F045
:4003800047FA3246616E1548FFF7B1FF114D0027636E9E4216D002F015F800B16F66636E9E4205DD0020FFF72BFF6B6E013305E005DA0120FFF724FF6B6E013B6B6602F05B
:4003C0004FFAE5E7322002F00DFABDE8F8400448FFF78DBF8881FF1F9F390000A6390000C33900002DE9F04F9BB062B602F0A2FABE49042002F0C6FABD4801F0EFFFBD484C
:4004000002F092FDBC4802F023F802F073FC02F045FB002002F066FD02F03EF80221002001F006F8B54D0321084602F0F9F92F462C46DFF8F08202F013FAAB7F73B12A6A5F
:40044000EB689B1A41F28832934207D9002001F0B3FF002002F046FD0023AB7701F020F818B9A748FFF743FF04E001F01FF80028F7D109E001F014F80028FBD0A148FFF7E0
:4004800036FF032001F03CF9032001F01BF80128D1D19D48FFF764FE9C490320FFF782FE94F868109A48FFF722FF94F86830023B122B00F22B84DFE813F0130029041C00AF
:4004C0002904220029044400290468002904B80129046B0329048A032904900329049B0303238DF828308DF829300C238DF82A307AE394F86A00FFF731FF864B71E3FFF75E
:4005000065FE00236372E068627A02F0FF0132B9EB681B1AB3F57A7FF6DD0B4608E03BB100227A72F968627A12B9EB685B1AFAE707228DF8282004228DF82920ADF82A3096
:4005400052E30220FFF7E0FD4FF0000A0DF1280B4FF480790026C9EB0A039A1906F80B200136402EF9D10220FFF7CEFD32465946022000F0FFFFB9F10109EBD10AF1010AE9
:40058000BAF1400FE4D1644BFDE294F86A0001F037FF606EFFF7E2FE02F046FD5F4BDFF888911A78002602F0FB021A701A7842F001021A701A7802F0FE021A701A7802F05A
:4005C000FE021A7002F034FD0220FFF79DFD41F6FF734FF480420121022002F089FC84F8A80002F0ABF809F806000136402EF8D1DFF838A100260AF18D031FFA83F9059377
:400600000136402E14BF324600221AF8010F2244062392F82420402102F0C4F84A4646F243419AF8000002F0CFF809F14009402E1FFA89F9E4D197F86B3033B100237B7264
:40064000637A002BFCD000237B72142200210AA802F04AFD324B4FF0FF320C9340230D930023236062602372236894F8A800234493F8241002F01AF894F8A80001F0D8FFE3
:40068000012194F8A80001F0ABFF2368002BFCD000239B467B60FA684FF00109049202F0DFF8049AE3689B1AB4F86C2093420FD3B9F1000F0CD0042195F8A80002F002F876
:4006C00094F8A80002F00EF80028F9D181463872237A03F0FF0A002B6DD16A682B689A4226D1B9F1000FDAD165E000BF19010000F900000091000000C50000008881FF1F39
:40070000D1390000E4390000A081FF1FF081FF1FEE3900008439000086390000936400403892FF1F97650040AC81FF1FAB81FF1F6368059A0AA802EB831353440A93CAF1A3
:4007400040030B9300F00AFB0B9B0BF1010BC3F140039A440D9B5FFA8AFAE3B9A64E0220FFF7D2FCA6F1400EBEE80F000FC6BEE80F000FC6BEE80F000FC69EE80F0086E89F
:400780000F00A6F130014022022000F0F3FE703E40230C960D93BAF13F0FC9D96268974B01321340002BBEBF03F1FF3363F03F030133636073E70AA8267A00F003FB0220C7
:4007C000FFF7A2FC0D9BF6B2402B07D002204022894900F0CFFE0220FFF796FC0D9B022033F040021DBFC3F1400292B28249114600F0C0FE0220FFF787FCFFF72BFD36B161
:400800007F48FFF774FD0220FFF798FD06E07D4B09A81B88ADF82430FFF77EFD627A5946237A7948FFF763FD73E27848FFF75FFDE66E16F03F0601D0032068E2012001F0EC
:40084000E5FD95F86A0001F0DBFD02F0EDFB98F80030DFF8C09143F0040388F8003098F8003043F0010388F8003098F8003003F0FE0388F8003098F8003003F0FE0388F8EB
:40088000003002F0D5FB686EFFF768FD01214FF4804341F6FF72084601F0BEFD85F8A80001F04CFF09F806000136402EF8D1DFF868A100260AF18D031FFA83F9079301367E
:4008C000402E14BF324600221AF8010F2244052392F82420402101F065FF494646F247529AF8000001F070FF09F14009402E1FFA89F9E4D1FB6E4FF000099B094FF0FF3AC9
:40090000142249460AA8C7F800900493C7F804A0D34687F80890CA4602F0E6FB0D964E46012000F0EDFECDF81890CDF8149001F097FFBAF1000F0AD14EB9012000F0C2FDE8
:40094000012804D140222C4900F086FE064622682A4B01321340002BBCBF03F1FF3363F03F036168B8BF01338B4200F0AB80059B3BB1237A002B40F0B7806B7A002B40F0A5
:40098000B3800B9B002B4BD1BAF1000F09D0204A7F2199540133402BFBD11D4A0B930A923EE0002E3CD0012000F08CFDC0BBDFF860E03F2E0EF1400CBCE80F00AEE80F00ED
:4009C000BCE80F00AEE80F00BCE80F00AEE80F009CE80F008EE80F00AEF130030A9309F101090B961ADD049B4B4517D0012000F087FE564614E000BF7892FF1F3F00008042
:400A0000FD39000088390000173A00002A3A00003892FF1FAC81FF1FAB81FF1F4FF0010A0B9BDBB12368079A0AA802EB83120D9BC3F1400313440C9300F0D3F90D9B6BB994
:400A40002A68B84B01321340002BBEBF03F1FF3363F03F030133236040230D936368013330D12B683F2B2DD14FF0000BC5F804B001F000FD85F808B06B6895F8A8002B44EE
:400A800093F8241001F012FE95F8A80001F0D0FD012195F8A80001F0A3FD85F809B0637A002BFCD04FF0000B87F809B079689E483A68FFF71CFC012001F0E8FC584601F013
:400AC000A5FC01E0059B2BB1237A6BB96B7A5BB90123059363685B453FF429AF069BD5F804B00133069322E7616890482268FFF7FEFB01F0C5FC012001F088FC002001F0A1
:400B0000C5FC042194F8A80001F0DCFD94F8A80001F0E8FD0028F9D197F8A80001F076FD7B7A3A7A0293012303920193CDF800A0069B4A4604997E48FFF7D9FBBAF1000F32
:400B400017D1049B4B450AD0012000F0BBFC01280646F6D17749FFF725FB3F2803DC012000F0E2FD05E0304600F0CAFD09F10109E7E7FFF76FFB7048FFF7B9FB237A0BB175
:400B80000220C4E06D4B1B8809A8ADF824302CE094F86A0001F034FC606EFFF7DFFB6848FFF7A5FB00236372637A002BFCD0012001F06CFC00237B72637A002BFCD0002019
:400BC00001F064FC5F48FFF792FB5F4B09E000206077FFF7C3FB5D4B03E05D48FFF7C0FA5C4B1B88ADF828300AA8FFF795FB90E0A37F3BB1002001F0DFFB002002F072F9F7
:400C00000023AB7702F0F4F8002002F097F82A2601F0C2FF002001F065FF324600210AA802F062FA15238DF828308DF8296001F017FE002001F0C0FB002002F053F9C820A5
:400C400001F0D0FD0DEB0600FFF71CFB0DF13E00FFF739FB01F004FE012002F043F9322001F0C0FD0DF12E00FFF70CFB0DF14200FFF729FB012001F09FFB4FF4967001F09A
:400C8000B1FD01F0EDFD0DF13600FFF7FBFA0DF14A00FFF718FB002001F08EFB4FF4967001F0A0FD01F0DCFD022002F01BF9322001F098FD0DF13200FFF7E4FA0DF14600B8
:400CC000FFF701FB012001F077FB4FF4967001F089FD01F0C5FD0DF13A00FFF7D3FA0DF14E00FFF7F0FA002001F066FB4FF4967001F078FD01F0B4FD002002F0F3F8002301
:400D0000637701F0F7FF01F0C9FE6DE70120FFF715FB032000F0F4FC0F48FFF7E8FAFFF78ABB00BF3F000080343A0000433A00004E3A00007892FF1F7E3A00008A390000BE
:400D40008D3A00009B3A00008C3900008E390000F081FF1F90390000A83A000010B54268002A2ED0C368002B2BD00368048A591C01601B78013A13F0800F817C42601DBF7F
:400D800003F0010242EA84030231083114BF43F0020343EA0423817414BF03820382837C072BDCD9028A083B42FA03F38268511C81601370C368013BC360837C083B837488
:400DC000CDE710BD07B5827C42B102AA002102F8011D026001224260FFF7C0FF03B05DF804FB30B543686BB3C2685AB3827C072A0CD8046890F91050611C01602178013BFD
:400E000041EA05210832018243608274827C018AA2F108042141CBB2090608D5C3F3801363F07F03023A03F08103827402E08474002BD7D08268511C81601370C368013B83
:400E4000C360CFE730BD00002DE9F04172B6884B61221A70A3F5F06301221A801924854A9C7092E803008033062283F8002283E80300522203F580731A707F4B7F4A1B782B
:400E80007F4EDBB2137040F618027E4B00251A8041F2512223F8022C33784FF4F07003F0010343EA450502F0B7F8013C05F003052ED0032DF0D1744B4FF480721A80072251
:400EC0001A70724A002548211570917002221D705D7103F8032C0422DA716D4A6D4C13786D4E43F00103137012F8013C062743F0030302F8013C2378012243F08003237023
:400F00005B4B1A70654A137843F02003137000E0FEE707FB056300219A881868013502F0E3F8072DF5D15E485E4E002550F8041F05F1105303F1520221F0FF075333C9B2E4
:400F40000B4452005B0002329A4206D012F802EC12F801CC0EF807C0F5E7B0420D44E5D1514A002313609360136193614F4B504F1A68504BDFF888811A604F4B1A684F4B2C
:400F80001A604F4A137843F002031370137C43F0020313742378A2F5863243F040032370413A137843F010031370464A464B07CA03C31A80454A2833106843F8250C12791D
:400FC00003F8212C424A07CA03C31A80414AE83B07CA03C31A80404A083307CA03C31A803E4A3F4BA2F5616203CBC2F8100EC2F8141E1378042043F008031370394B02F52E
:40100000AA521B783D78DBB298F80060EDB203F007010C321B091170F6B2537045F003033B7046F0030388F800302F4B48221A702E4A402313702E4993701372937208233A
:4010400082F81F3220220A7048710A72294A0A20137001F0DDFB284B88F8006044223D70264D1A7094E80F0007C52B80BDE8F081004800404C0F00480F010049A1460040A5
:4010800025420040224200400440004006400040A2430040A0430040AD3A0000E8460040FCFFFF47A000004800760040540F0048F846004020760040580F004828760040D3
:4010C000035001400C0F0048C0510040180F0048200F00482C0F0048380F004832510040440F0048CF0100491D51004001590040235B0040585B004076580040B0430040FF
:40110000F946004008B501F0C3FF03680C2B00D1FEE7FEE7084908B50B68084A1844821A802A01DC086005E001F0B2FF0C2303604FF0FF33184608BDCC80FF1FC893FF1F39
:4011400080B51148114B0025C0B1A3F1100192C922460439161BB74204D051F8046F42F8046BF7E7114653F8046C8C1AA64202D041F8045BF9E701381033E5E701F08EFF59
:40118000FFF730F9FEE700BF010000007C3C0000124A134B10B51A60124A134C1368134843F4007313600023032B98BF54F823204FEA830188BF0E4A0133302B4250F3D194
:4011C0000C4B1A780C4B1A700C4B084A1A60FFF73BFEBDE8104001F0EDB900BF0004FA050CED00E014ED00E0000000000080FF1F05110000BC760040C080FF1F08ED00E072
:40120000F8B501F011FF4B4A01271378022643F001031370137C484C43F001031374474B02F5E3521F700B3203F8946C1378054603F07F031370002001F0EAFA2378404A88
:4012400003F0F90323701378384603F0DF03137023783B43237001F0DBFA282001F0D8FA384B30461A7802F07F021A701A7802F0BF021A7023783343237001F0C9FA2378C4
:40128000314A43F0040323700023137053702F4AFF2199540133092BFBD1284601F0C8FE0721172001F0FCFA2949172001F0EAFA0721182001F0F4FA2649182001F0E2FA27
:4012C0000721152001F0ECFA2349152001F0DAFA0721052001F0E4FA2049052001F0D2FA0721062001F0DCFA1D49062001F0CAFA0721084601F0D4FA1A49072001F0C2FA2B
:401300000721082001F0CCFA1749082001F0BAFA0021162001F0C4FA1449162001F0B2FA07210C2001F0BCFABDE8F84010490C2001F0A8BAA5430040944300409D60004017
:4013400012600040F851004084600040ED92FF1FCF1B0000091A0000CD1B0000011B00002D1B00005D1B0000951B0000D51B0000491C0000214B224A10B5187000231370D0
:40138000204A40201370204A0F2413701F4A13701F4A13701F4A13701F4A13701F4B4FF400021A604FF080721A604FF400121A6020221A601860802018604FF48070186076
:4013C000174804704FF480001860164B1A70933B19B91A7802F0FE0202E01A7842F001021A70114B03221A70802203F8202C012001F012FE0D4B04221A7010BD0893FF1FF9
:401400000E93FF1F0C93FF1F0D93FF1F0993FF1FF892FF1F0B93FF1F8093FF1F00E100E09E6000409C600040286000401260004070B5074C054623780E461BB9FFF7E0FE14
:401440000123237031462846BDE87040FFF792BFB892FF1F0A4A002313700A4A13700A4A13700A4A13700A4A13700A4A13700A4A13700A4B03221A70802203F8202C704724
:401480000E93FF1F0C93FF1F0D93FF1F0993FF1FF892FF1F0B93FF1F8093FF1F28600040014B1878704700BF0D93FF1F044B1A7802F0FF001AB118780022C0B21A707047C9
:4014C0000C93FF1F024A0C2303FB0020407870471493FF1F431E072B0CD8074A064B00010344805C5B7800F00F0043EA0020023880B2704700207047FC5F00401A4A38B520
:401500000C2303FB00231B79090C13F0800F00F1FF35044619BF8AB24FF480438BB24FF48042032D18D8DFE805F002070C110021084601F01BF80DE00021084600F0FAFF9B
:4015400008E00021084600F0D9FF03E00021084600F0B8FF054B1855EDB2072D03D801F0EDF8034B185538BD1493FF1FE492FF1FED92FF1F431E072B2DE9F0470446894673
:4015800015465CD82F4F0C2202FB0072D388DFF8B8A09BB2C3F500739D424FF00C0303FB007388BFD588DB7884BFC5F50075ADB2254A43EA15230601B354B244EBB28AF822
:4015C0000130224B1A5C9846FF2A01D1FFF796FF0C2303FB047200215170B9F1000F28D03DB31B4F385D01F011F811232946FE2218F8040001F0D6F806F5C04278321FFAFE
:4016000089F118F8040001F0DFF8124D18F80410385D01F04BF80121385D00F0E1FF735D43F002037355735D03F0FD037355BDE8F08703FB04746379DBB28AF80230BDE8D2
:40164000F08700BF1493FF1FFC5F0040ED92FF1FE492FF1F706000402DE9F047044615468846002940D0431E072B3FD8FFF732FFA84203D22046FFF72DFF05461D4E335D3C
:40168000FF2B03D141462046FFF738FFDFF868A027011AF8040000F0B9FF1223FE222946305D01F07FF807F5C0411FFA88F27831305D01F089F8DFF84490315D1AF804000D
:4016C00000F0F4FF01211AF8040000F089FF17F8093043F0020307F8093017F8093003F0FD0307F8093002E00D4600E000252846BDE8F087ED92FF1FE492FF1F7060004027
:40170000431E072B0AD8064A0C2303FB002300225A705A79034BD2B200011A54704700BF1493FF1FFE5F0040431E072B9FBF024B000108221A547047FE5F004030B51A4A48
:401740001A491B4D0878138803449BB21380194A00231488D8B2A4B27CB1082B0CD050680078C0B2E85450680133013050601088013880B21080ECE718460B780E4C082B9F
:401780000E4A00D040B10E4D2B7883F080032B700F232370022301E0022323701370094B1870087030BD00BF8493FF1F8093FF1F00600040FC92FF1FF992FF1F0E93FF1F61
:4017C0000A93FF1F8193FF1F074B02221A70074B80221A70064B0F221A70064A00231370054A0120137070470E93FF1F0A93FF1FF992FF1F8093FF1F8193FF1F30B5164B06
:4018000016491B780A8803F00F03023BDBB21A4492B20A80124C134A0020118889B279B173B15568215C013BC9B229705168DBB20131516011880130013989B21180ECE7D6
:40184000094A1370094A137883F080031370084B0B221A7030BD00BF296000408493FF1F00600040FC92FF1F8193FF1F0A93FF1FF992FF1F064A06231370064A01201370B5
:40188000054B80221A70054B00221A70704700BF0E93FF1FF992FF1F0A93FF1F8193FF1F054B9A683AB19A68044910709A680988518000229A607047FC92FF1F8493FF1FC1
:4018C00008B5124B1A78D2B21A701B78DBB21A0602D50F4A137008BD0220FFF7E1FF0D4B1B7803F06003202B05D0402B06D043B900F012FC04E001F09FFB01E000F046FD5F
:4019000010B9034B03221A7008BD00BF28600040F992FF1F0060004008B5084A084B0120197813880B449BB21380064B00221A70FFF7B6FF044B03221A7008BD8493FF1FCE
:401940008093FF1F0E93FF1FF992FF1F08B50C4B1B78DBB2042B07D0062B09D0022B0DD1BDE80840FFF7D8BFBDE80840FFF746BF0320FFF795FF034B03221A7008BD00BFEF
:401980000E93FF1FF992FF1F08B5054B002201201A70FFF785FF034B03221A7008BD00BF0E93FF1FF992FF1F08B50A4B1A7832B11A78094942F080020A7000221A70074BEB
:4019C000002201201A70FFF76BFF054B03221A7008BD00BFF892FF1F086000400E93FF1FF992FF1F074B1B78DBB2042B05D0062B05D0022B05D1FFF7A1BEFFF7C5BFFFF73B
:401A0000D3BF70470E93FF1F38B51D4C2378DBB2DD0634D518060AD503F00F03012B2ED1FFF74EFF174B1B78190609D538BD5A0602D5FFF7D7FF03E09D0620D5FFF786FFE4
:401A400023781B061BD4104B1A78104B1B7813430F4A13701278934211D10A4A0849154613782078DBB2000605D41378DBB20B700B7803F00F0328788342F1D138BD38BDB2
:401A800028600040F992FF1F0A93FF1F8193FF1F29600040054A00231380054A916819B191680B7092685380704700BF8493FF1FFC92FF1F0E4808B503889BB213B9FFF7A3
:401AC00083FE13E00B4B02221A700B4B00221A70FFF7E0FF094AD1799379028843EA012392B2934238BF0380FFF728FE012008BDFC92FF1F0E93FF1F0A93FF1F00600040B8
:401B0000084B01221A700F3B9B7C074B1A7B02F00302012A1EBFDA7B82F08002DA7301225A7370470B6000401493FF1F094B02221A700F3B93F82230074B1A7E02F00302A7
:401B4000012A1EBFDA7E82F08002DA7601225A76704700BF0B6000401493FF1F0B4B04221A700F3B93F83230094B93F8242002F00302012A1EBF93F8272082F0800283F848
:401B80002720012283F82520704700BF0B6000401493FF1F0B4B08221A700F3B93F84230094B93F8302002F00302012A1EBF93F8332082F0800283F83320012283F8312007
:401BC000704700BF0B6000401493FF1F7047FFF741BC0000F0B5184B184E19780C27C9B201234FF0000C31B3CA0720D5144A4FEA031E7244947850782040C5070DD507FB3D
:401C000003652C79240608D5147804F0FE0414706D790C4CEDB204F80E50840706D507FB036425792D0658BF84F801C090700133DBB24908D7E7F0BD9F6000401493FF1FDE
:401C400070600040FE5F004000F0ACBC70B50446184B88B003AA03F11006154618685968083303C5B3422A46F7D11B782B70FCB12223237001AD03232846637000F08AFE92
:401C8000002220461146AB5C08AC04EB131414F8144C03F00F03847008AC234413F8143C0132082AC1700371417100F10400EAD108B070BDD73A00002DE9F0431C4D012262
:401CC0002E460C201F274FF0800E4FF0080C194B00FB02581401234418705F70164998F805902144B9F1000F07D098F8044024064CBF887081F802C001E081F802E000FB66
:401D00000261CC880132E4B29C71CC88092AC4F30724DC71CC88E4B21C71C988C1F307215971D4D1054BFF221A70BDE8F08300BF1493FF1F70600040FC5F00400A60004061
:401D4000064B074A1B7802EBC30253681A7C824286BF03EBC0035869002070470893FF1F383B00002DE9F84F424B1A78002A7ED01878414D0138C0B2FFF7E2FFA8463F4AA2
:401D8000C3681478007ADFF800C1E4B203EBC0000C2600274FF0010E834268D01A78A24263D11CF80420597891425ED19A7893F8039002F07F0206FB02FA05EB0A01CF70E3
:401DC00093F802B009F0030981F804B093F803B005F80AB0B3F804A0A1F808A093F902A0BAF1000F0BDAB9F1010F0CBF4FF007094FF00D0981F8059081F801E009E0B9F1FE
:401E0000010F0CBF4FF005094FF0090981F805904F704FEA02191A4906FB0282494481F802E0B2F808A0CAF3072A81F800A0B2F808A05FFA8AFA81F801A0B2F806A01149EC
:401E40005FFA8AFA494481F806A0B2F80690C9F3072981F80790B2F806905FFA89F981F80490D288C2F307224A71083394E7BDE8F88F00BF0D93FF1F1493FF1F0993FF1FA4
:401E8000FC5F004070600040FA92FF1F08B5064B18780138C0B2FFF753FF20B143681B7900EBC300406908BD0D93FF1F00212DE9F84F0B464E4E0C2707FB01F40131321940
:401EC000092933554FF000059370494CD3701381937253705371EFD118B1464B1D70464B1D70464B1A78002A7FD0187801250138C0B2FFF725FFA8464368DFF8F8E0DB7971
:401F00000C2713F0400F3E4B4FF0000C1A7814BF42F0010202F0FE021A70027AD20007FB0541C36803EB02094B4531D093F802A00AF07F06AE4229D10E89B3F804B0B6B2F3
:401F40005E4538BFA1F808B01E7893F801B01EF80660B3451AD181F804A0DE780E7093F902A0DE78BAF1000F06F0030607DA012E0CBF07260D264E7181F8018006E0012E0E
:401F80000CBF052609264E7181F801C00833CBE70135092DC3D1C1680A328B1C0A440C200833934209D013F8081C13F80A5C01F07F0100FB01418D72F2E7FFF767FF114BC9
:401FC0000121186000230C2000FB0142D3801289013113449BB203F00102134409299BB2F2D1BDE8F84FFFF767BEBDE8F88F00BF1493FF1FFA92FF1F8293FF1F0D93FF1F15
:402000000B93FF1F1093FF1F114B1B7903F07F035A1E072A19D80F490C2202FB031291781B0141F0010191700021D170517841F002015170127912F0800F074A1A4414BF75
:402040008D2389239370FFF715BC0020704700BF006000401493FF1FFC5F004030B4194B1A7902F07F02531E072B27D8164B0C2404FB02339978154D01F0FE019970002162
:40208000D97029461201505D114400F07F0050555A7802F0FD025A701A795B78120605D5012B01D18C7006E00D2303E0012B0CBF082309238B7030BCFFF7DCBB002030BC99
:4020C000704700BF006000401493FF1FFC5F004010B50D4B0D4C21791878C9B20138C0B2FFF72EFE43681B798B4201D2012909D8074A0848535CDBB24354A3780120DBB25B
:40210000535410BD002010BD0D93FF1F00600040FA92FF1F8293FF1F38B58A4A8A4C13780021DBB221801806517840F18D800A2900F20581DFE811F05D0003010301030191
:40214000030103010B0003017E0003018200D3787C49012B09D17D4B1A787D4B03EBC2035B685B686360122310E0CB78022B12D18878FFF7E5FD002800F0E18043686360D9
:402180006368DA7863689B7843EA02232380BDE83840FFF78FBCCB78032B26D16D4B00228878D5B2854209D3664A91786A4AEE2908BF1346634A917881B106E01878013230
:4021C0000028F1D018780344EAE764499278097C914203D16248FFF739FD614B1A78002A00F0AD801A78228018E0BDE8384000F023BF13F0030313D0022B40F0A0802380E9
:40220000504B0C211B7903F07F02564B01FB02339A78554BD2B21A7000225A706360B6E702222280514A11784F4AC9B2117053706260ACE7012323804D4BEFE7012323805D
:4022400013794C4A1344E9E701390A2977D8DFE801F037764F76067676760A7620009378454ADBB25AE0937803F0FF0153B9404B1A7891425FD01970404B01201870FFF7EA
:4022800015FE58E0481EC0B2FFF75AFD0028EED155E0FFF71DFF002851D02A4A384913791279DBB2D2B20A70364A3249D25CCB5C9A4240D0314B01221A70FFF753FD3AE0DB
:4022C00003F00303012B2BD009D3022B37D11D4B9B78002B33D1BDE83840FFF7BFBE194B9B78012B2BD1214A137803F0FD0315E003F00303012B13D008D3022B1FD1114B9A
:402300009B78E3B9BDE83840FFF77EBE0D4B9B78012B14D1154A137843F0020313700AE0084B1A795AB998781B791749DBB2CA5C22EA0002CA54BDE83840FFF79BBA002030
:4023400038BD00BF00600040FC92FF1F0893FF1F383B00009C3B0000243B00000F3C0000A093FF1F1493FF1FB992FF1F0B93FF1F0D93FF1FFA92FF1FF892FF1F0C93FF1FA8
:402380000993FF1F8293FF1F0F93FF1F074B1A78120609D55B78012B06D1054B054A5A6012781A80FFF786BB0020704700600040FC92FF1FFC3A0000014B1870704700BF69
:4023C0007F640040014B1878704700BF69640040014B1870704700BF78650040064A0123136002F688321268E0211064034A1170A2F540721360704780E100E000E400E026
:40240000014B1870704700BF72640040014B1870704700BF7665004073B515461E460B4C05230022019200920A4601461846237000F064F932462946207800F01FF90221AB
:40244000207800F009F9207802B070BDD080FF1F064A0423136002F688321268E0219064034A1170A2F202321360704780E100E002E400E0014B04221A60704700E100E0B7
:40248000014B04221A60704780E100E0014B1870704700BF78640040704738B505460078012428B100F060FD285D0134E4B2F8E738BD08B50D2000F057FDBDE808400A20B7
:4024C00000F052BDF7B516461F460B4C00230325019300930A4601462846257000F00EF93A463146207800F0C9F80221207800F0B3F8207803B0F0BDE080FF1FF7B5164602
:402500001F460B4C00230225019300930A4601462846257000F0F2F83A463146207800F0ADF82946207800F097F8207803B0F0BDE180FF1FF7B516461F460B4C00230125CC
:40254000019300930A4601462846257000F0D6F83A463146207800F091F80221207800F07BF8207803B0F0BDE280FF1F73B515461E460B4C0023019300930A4601461846C1
:40258000237000F0BBF832462946207800F076F80221207800F060F8207802B070BD00BFE380FF1F024B1878C0F38010704700BF8F450040074A7F23802113705170064A7C
:4025C000013BDBB202F80839002BF9D1034A1370704700BFE480FF1FF87B00400078004017280FD8084B0001C25C11B142F0200201E002F0DF02C254C25C42F00102C254CE
:4026000000207047012070471070004017280BD8064B0001C25C02F0FE02C254C25C02F0DF02C25400207047012070471070004017280DD8074900010B4603441A7942F049
:4026400004021A71435C43F00103435400207047012070471070004017280BD8064A0001835C490003F0F10301F00E011943815400207047012070471070004041F6FF7322
:40268000994208BF4FF400519A4208BF4FF4005217289FBFC00000F1804000F5EC4081809ABFC280002001207047000017289FBF034B00011954002088BF0120704700BF92
:4026C0001970004017289FBF054B00011A5C01F007019DBF1143195400200120704700BF1470004017289FBF034B0001185C00F0070088BFFF20704714700040172810B5E0
:402700001AD8C00001F07F0100F1804441EAC21204F5EC44D2B222709DF8082003F00F0343EA0213DBB263709DF80C30002003F00F03A370E07010BD012010BD10B500F056
:4027400073FC0A4A5378182B0AD91478013B5370E30003F1804303F5F0431B78137000E0FF2400F065FC204610BD00BFE480FF1F030610B5044611D400F056FC084AE30003
:40278000117803F1804303F5F04319705378147001335370BDE8104000F04ABC10BD00BFE480FF1F30B504060CD411F4704509D1C40004F1804404F5F0442180A270E370D3
:4027C000284630BD012030BD03065FBFC00000F1804000F5F04081805ABFC280002001207047000038B50446084DB4F5004F05D9286800F011FCA4F50044F6E7034B5868A8
:402800006043BDE8384000F007BC00BFEC80FF1F024B1B7A584300F0FFBB00BFEC80FF1F0E4B00F003001A78490102F0FC02104318701A7801F0600142F080021A701A78C5
:4028400002F07F021A701A7802F09F020A431A701A7842F010021A70704700BF83430040014B01221A70704784430040044B00F00F021B6853F8220043F82210704700BFA9
:4028800008ED00E0054A00F01F00126800F1100352F8230042F82310704700BF08ED00E000F01F0000F16040490100F56440C9B2017070470F4B10B50F4900240F205C6096
:4028C0009C60DC601C615C61FFF7D0FF0B4A136843F0040313600A4B4FF47A72DB68B3FBF2F3084A1360084B4FF400421C60C3F8E82010BDBC92FF1F6129000010E000E05B
:40290000EC80FF1F14E000E018E000E0024A136843F002031360704710E000E008B5FFF7F5FF034A136843F00103136008BD00BF10E000E010B5054CA3691BB9FFF7BAFF56
:402940000123A361BDE81040FFF7E8BFBC92FF1F024B1868C0F30040704700BF10E000E038B5FFF7F5FF012808D1054D002455F8243003B198470134052CF8D138BD00BFC5
:40298000C092FF1F024B03EB8003586859607047BC92FF1F134B144A1B78DBB20360127843EA0223114A0360127843EA0243104A0360127843EA026303600E4B0E4A1B78F8
:4029C000DBB24360127843EA02230C4A4360127843EA02430A4A4360127843EA02634360704700BF0301004904010049EC460040020100490101004900010049050100496D
:402A00000601004910B500F00FFB204A044613780A2043F002031370137C43F00203137412F80A3C43F0010302F80A3C937943F00103937102F5AB52137843F003031370CC
:402A4000134B18221A7013F8012C42F0400203F8012C13F8012C02F0FC0203F8012CCE2203F8062CA3F597530222183B1A70094A137843F008031370FFF7CAFE064B102290
:402A80002046BDE810401A6000F0D2BAAB4300400E5900402F5B004080E200E008B500F0C3FA0F4A137803F0FE031370A2F5AA521D3A137803F0FD031370137C03F0FD03B2
:402AC000137412F80A3C03F0FE0302F80A3C937903F0FE039371BDE8084000F0A9BA00BF08590040044A137803F03F0343EA8010C0B21070704700BF08590040082804D04F
:402B00000A280CBF8223C22300E0422308380E4AC0B20428137098BF0C4B4FF0000298BF33F910100A4B88BF11461A8042F210734B4341F2883103F6C41393FBF1F3054930
:402B40000B60054B1A8070470A590040E83A00008A93FF1F8C93FF1F9093FF1F08B5102000F0A6F907210420FFF79AFE07490420FFF788FE064A0C20137843F006031370BF
:402B8000FFF7BCFF034B00221A8008BD552C0000095900408893FF1F10B5054C23781BB9FFF7DCFF01232370BDE81040FFF72ABFD892FF1F044B1A7802F0FB021A701A78E4
:402BC00042F001021A7070470859004010B5084B1C7814F0010403D10028F9D0002404E02046FFF715FE024B1B78204610BD00BF09590040034A044B1B881088181A00B29E
:402C0000704700BF9093FF1FA25B00400E4A13881BB223B111880A2309B2594301E00B4B19680B4B1B88C01A42F2107300B203FB00F2022391FBF3F30028D8BF5B421344C1
:402C400093FBF1F000B270478A93FF1F8C93FF1F8893FF1F7047000010B500F0E5F9214A044613780A2043F001031370137C43F00103137412F80A3C43F0020302F80A3C48
:402C8000937943F00203937102F5AA521832137843F003031370144B18221A7013F8012C42F0400203F8012C13F8012C02F0FC0203F8012CCE2203F8062CA3F5975302223E
:402CC000123B1A70094A137843F008031370FFF79FFD074B08222046BDE810401A6000F0A7B900BFAB43004006590040275B004080E200E008B500F097F90F4A137803F087
:402D0000FE031370A2F5AA52153A137803F0FE031370137C03F0FE03137412F80A3C03F0FD0302F80A3C937903F0FD039371BDE8084000F07DB900BF00590040044A137857
:402D400003F03F0343EA8010C0B21070704700BF00590040082804D00A280CBF8223C22300E0422308380E4AC0B20428137098BF0C4B4FF0000298BF33F910100A4B88BFA9
:402D800011461A8042F210734B4341F2883103F6C41393FBF1F305490B60054B1A80704702590040F23A00009693FF1F9C93FF1F9493FF1F08B5102000F084F80721032011
:402DC000FFF76EFD07490320FFF75CFD064A0C20137843F006031370FFF7BCFF034B00221A8008BDAD2E0000015900409893FF1F10B5054C23781BB9FFF7DCFF012323709F
:402E0000BDE81040FFF728BFD992FF1F044B1A7802F0FB021A701A7842F001021A7070470059004010B5084B1C7814F0010403D10028F9D0002404E02046FFF7E9FC024B2C
:402E40001B78204610BD00BF01590040034A044B1B881088181A00B2704700BF9493FF1FA05B00400E4A13881BB223B111880A2309B2594301E00B4B19680B4B1B88C01A46
:402E800042F2107300B203FB00F2022391FBF3F30028D8BF5B42134493FBF1F000B270479693FF1F9C93FF1F9893FF1F70470000034A00F0F800137803431370704700BF04
:402EC00002410040034A00F0F800137803431370704700BF06410040014B1870704700BF76640040014B1870704700BF7C64004073B515461E460B4C04230022019200924F
:402F00000A46014618462370FFF7F8FB324629462078FFF7B3FB02212078FFF79DFB207802B070BDFC80FF1F074A0223136002F688321268E0215064044A11706FF44071F6
:402F40000A441360704700BF80E100E001E400E0014B1870704700BF74650040014B1870704700BF77640040FEB5494652465B460EB40746244909688A46244A12682448C0
:402F8000022100F071F8030020480068C018204900F06AF8143883460121C9430C460125002600F041F8814651460B7823400B705846013000F030F83800F04028400B782C
:402FC000234003430B70584600F026F80136072EF2D9002001300138013001200B78234003430B705846043000F016F8484600F01FF800BF00BF00BF0EBC894692469B4653
:40300000FEBD00BFAFF30080D480FF1FF880FF1F00C20100000000000230800803D000BF01380046FCD17047EFF3108072B6704780F31088704700BF094A137803F0030331
:40304000012B0AD0022B09D113790C2103F07F02044B01FB02339B7A00E0137900207047006000401493FF1F002902D0B0FBF1F0704708B14FF0FF3000F008B80029F8D0D3
:403080000246B0FBF1F000FB11217047704700BF014B1868704700BF6081FF1F0E4B70B51E460E4C0025E41AA410A54204D056F8253098470135F8E700F0C6FD084B094CE1
:4030C0001E46E41AA4100025A54204D056F8253098470135F8E770BD543C0000543C0000543C00005C3C000003460244934202D003F8011BFAE7704730B5141E05469BB03C
:40310000184604DA8B232B604FF0FF301DE04FF40273ADF80C300CBF234604F1FF33029305934FF6FF7300910491ADF80E3002461E9B6946284600F073F8431CBCBF8B23CD
:403140002B6014B1009B00221A701BB030BD000007B5009313460A46014603480068FFF7CBFF03B05DF804FB6081FF1F2DE9F0478E6882469E420C46914698463ED88A892D
:4031800012F4906F3AD02568096902236F1A656905EB450595FBF3F57B1C43449D4238BF1D4653050FD5294600F04AFB064698B13A46216900F0D2FAA38923F4906343F0D8
:4031C0008003A38113E02A4600F098FB064670B92169504600F0E8FA0C23CAF80030A3894FF0FF3043F04003A381BDE8F08726613E44266046466561ED1BA560464528BF0A
:40320000464649463246206800F0B3FAA36800209B1BA36023681E442660BDE8F08700002DE9F04F9DB003938B8980461C060D4616460DD50B695BB9402100F001FB286041
:40324000286118B90C23C8F80030CDE040236B610023099320238DF82930DFF89CB130238DF82A3037463C4614F8013B1BB9B7EB060910D003E0252BF9D02746F3E74B4643
:40328000324629464046FFF771FF013000F0A780099B4B4409933B78002B00F0A08000234FF0FF3204930793059206938DF853301A930126052221784E4800F041FA671C62
:4032C000049B38B14B4A3C46801A06FA00F018430490EFE7D90644BF20228DF853201A0744BF2B228DF8532022782A2A03D0079A00210A200BE0039A111D12680391002AC0
:4033000010DA524243F00200079204900BE027463B780134303B092B03D800FB02320121F5E701B107923B782E2B1ED17B782A2B0AD1039B02371A1D1B680392002BB8BF95
:403340004FF0FF33059310E0002319460593781C0A2407463A780130303A092A03D804FB01210123F5E703B1059103223978224800F0E6F940B14023CBEB000003FA00F05F
:40338000049B013718430490397806221B487E1C8DF8281000F0D4F988B1194B33B9039B073323F007030833039314E003AB00932A46144B04A94046AFF3008007E003ABBA
:4033C00000932A460F4B04A9404600F093F8B0F1FF3F824603D0099B5344099342E7AB895B0601D4099801E04FF0FF301DB0BDE8F08F00BF233C0000293C00002D3C000011
:40340000000000006D3100002DE9F04791461F460A698B6806469342B8BF1346C9F8003091F843200C46DDF8208012B10133C9F800302368990642BFD9F800300233C9F860
:403440000030256815F0060510D104F1190A07E00123524639463046C04701301AD00135E368D9F800209B1A9D42F1DB94F843302268003318BF012392060FD5E11830207E
:4034800081F843005A1C94F845102244023382F8431003E04FF0FF30BDE8F08704F1430239463046C0470130F4D02268D9F80050E36802F00602042A08BF5D1B2269A36806
:4034C0000CBF25EAE57500259342C4BF9B1AED184FF000091A344D4509D00123224639463046C0470130D5D009F10109F3E70020BDE8F0872DE9F04317460A7E85B06E2AED
:40350000984606460C460C9B01F1430E00F0AE8011D8632A22D009D8002A00F0BB80582A40F0CA8081F84520834955E0642A1ED0692A1CD0C0E0732A00F0B08009D86F2ABC
:403540002ED0702A40F0B8800A6842F020020A603EE0752A24D0782A3AD0ADE01A6801F14205111D1960136884F84230A8E021681A6811F0800F02D0111D196008E011F0E1
:40358000400F02F10401196002D0B2F9003000E01368002B3CDA2D225B4284F8432037E021681A6811F0800F02D0111D196007E011F0400F02F10401196001D0138800E018
:4035C0001368227E5C496F2A14BF0A2208221BE078225A4984F845202268186812F0800F00F104051D6003D1550601D5038800E00368D00744BF42F0200222601BB9226835
:4036000022F0200222601022002084F8430001E049490A226568002DA56008DB206820F0040020602BB9002D7DD175460CE0002B79D07546B3FBF2F002FB1033CB5C05F8FD
:40364000013D03460028F5D1082A0BD12368DA0708D5236962689A42DEBF302305F8013C05F1FF35C5EB0E0323612EE008681A6810F0800F496903D0101D1860136808E097
:4036800010F0400F02F104001860136801D0198000E0196000232361754616E01A68111D1960156800216268284600F049F808B1401B6060636804E004F1420584F84220E9
:4036C00001232361002384F84330CDF800803B4603AA21463046FFF797FE013002D14FF0FF3026E023692A4639463046C0470130F5D023689B0710D5002504F1190907E09A
:4037000001234A4639463046C0470130E7D00135E368039A9B1A9D42F2DBE068039B9842B8BF184605E00B7804F1420584F842308AE705B0BDE8F083D73A0000343C00008C
:4037400010B5C9B202449042034605D01C7801308C42F8D1184610BD002010BD10B5431E0A44914204D011F8014B03F8014FF8E710BD884210B501EB020301D8421E0BE054
:403780009842FBD28118D21AD34204D013F8014D01F8014DF8E710BD994204D011F8014B02F8014FF8E710BD38B50546002944D051F8043C0C1F002BB8BFE41800F0D4F82B
:4037C0001E4A1368114613B96360146030E0A3420DD92268A018834201BF18685B681218226063600C6023E0A24203D813465A68002AF9D118681918A1420BD121680144BD
:4038000058188242196013D110685268014419605A600DE002D90C232B6009E021686018824201BF106852680918216062605C602846BDE8384000F098B838BDE092FF1FBB
:4038400070B5CD1C25F0030508350C2D38BF0C25002D064601DBA94202D90C23336046E000F082F8234B1C681A462146A1B10B685B1B0ED40B2B03D90B60CC18CD501EE0C0
:403880008C420BBF63684B681360636018BF0C4615E00C464968E9E7174C23681BB9304600F052F820602946304600F04DF8431C18D0C41C24F00304A0420DD125603046C2
:4038C00000F053F804F10B00231D20F00700C31A0ED05A42E25070BD211A304600F034F80130EBD10C233360304600F03EF8002070BD00BFE092FF1FDC92FF1FF8B5074646
:4039000015460E4621B91146BDE8F840FFF798BF1AB9FFF749FF2846F8BD00F027F885420ED929463846FFF78BFF044650B131462A46FFF713FF31463846FFF735FF01E0E5
:403940003046F8BD2046F8BD38B5064C0023054608462360FDF7DEFB431C02D1236803B12B6038BDC493FF1F7047704751F8040C0028BEBF091851F8043CC018043870476F
:4039800000000000050209020B020D020F02110213027265706C792030782530327800686F6D696E6700626567696E6E696E67207365656B2066726F6D20256420746F2012
:4039C00025640066696E6973686564207365656B0057616974696E6720666F72205553422E2E2E0055534220726561647900636F6D6D616E642030782530327800756E6452
:403A0000657272756E206166746572202564207061636B65747300636F756E743D256420693D256420643D256400636D645F7772697465007374617274696E6720256420F9
:403A4000256400646F6E6520256420256400703D25642063723D25642063773D256420663D256420773D256420696E6465783D256420756E64657272756E3D25640077722B
:403A80006974652066696E69736865640073746172742065726173696E670073746F702065726173696E670069646C650000510040100040510040300000000140001000C3
:403AC000140140000800400140000A004C014000020050014020003031323334353637383941424344454600000100000004000000100001000000040000001028000000AA
:403B0000000104000100000000000000000157494E5553420000303030303100000000000000000012034D005300460054003100300030000100000001000000403B000058
:403B4000010000000F3C0000000000000000000001000000583B000001000000E13B0000040000007A3B0000000000000000000000000000783B0000FF000000010240009A
:403B8000FF00000082024000FF00000003034000FF00000084034000FF00020304030904160346006C007500780045006E00670069006E0065002A0343006F0077006C004F
:403BC000610072006B00200054006500630068006E006F006C006F0067006900650073000009022E0001010080320904000004FF0000010705010240000007058202400066
:403C0000000705030340000A0705840340000A12010002FF0001080912006E0100020180014300232D302B2000686C4C00656667454647003031323334353637383961621E
:403C40006364656600000000F8B500BFF8BC08BC9E4670475900000091110000F8B500BFF8BC08BC9E46704735000000803C0000C880FF1FA0000000601200000000000050
:403C800000000000C893FF1FFF000000675000400C00000007000000FFFFFFFF7F8000003F0000000000007D00FA0000400000000090D003FF00000000000000000000002F
:403CC000000000000000000000000000000000000000000000000000213C000000000000000000000000000000000000000000000000000000000000000000000000000067
:403D00000000000000000000000000000000000000000000000000000081FF1F000000000000000000000000000000000000000000000000000000000000000000000000E4
:403D40000000000000000000000000000000000000000000000000000000000000000000000000000000000000000000000000000000000000000000000000000000000043
:403D80000000000000000000000000000000000000000000000000000000000000000000000000000000000000000000000000000000000000000000000000000000000003
:403DC00000000000000000000000000000000000000000000000000000000000000000000000000000000000000000000000000000000000000000000000000000000000C3
:403E00000000000000000000000000000000000000000000000000000000000000000000000000000000000000000000000000000000000000000000000000000000000082
:020000040003F7
:0200000480007A
:400000000145004008520040015B004001650040010101404D0201403D0301404C0401404D0501404D060140500701404B0801404B0901404B0A0140500B0140470C0140CB
:40004000500D0140520E0140350F014046140140541501404B160140561701404718014044190140591A0140571B01400A400140104101400E4201400943014004440140BE
:400080000D4501400A4601400F470140094801400F4901401B4C0140084D014008500140045101407E0208440905108011821801600C610A7C4027212A0A8C8000010109B1
:4000C0000202040805090808090F0B100C080D010F02100F1120140416011709180819101B0E1D011E01210422082301240829092A0E2C0D320F331F35203B083E043F1020
:400100005608580459045B045C905D905F01850287018C01900F9401960898249A089E07A008A101A222A302AA08AE10B01FB101B302B420B90ABE10BF05C202C70EC810AC
:40014000C9FFCAFFCBFFCF83D804D904DA04DB04DC09DD09DF01030204A10620074008010A060B200C800D100E400F2010421110150416821720180419011E10202021010F
:40018000262027202A012C042E023508376138083E583F0240045208588859215A025D4060026108621265806F0180068140874088408A088E209880C0F1C2FFC4FBCAA1EC
:4001C000CCF0CEF2D004D61FD81FE20CE6C5EE82010D04020601070109080C010D080E0E100F130E150F161019081C201D082101220F2302240125042604270128012908CA
:400200002A082C012F08301F3220330F3E043F045608580459045B045C095D905F01810182088302840885028A108B018C088D038F049102920194049701982099029A1FB5
:400240009C089D02A202A302A408A501A704A808A902AC1FAD03AE20B107B43FBF01D804D904DB04DC09DF0100400108048006A0070809880A400C810E080F20100511082C
:40028000130115251740185019011B011E081F20210827402AA02B902C052D022F20308031213208350136803728388039243B013D083E4A3F2158405C105D806180851076
:4002C00087029102938094A195349644972099809B209C0C9D089EBAA480A602A713A908AC03B010B520B601C0F5C2FDC4FFCAFFCCFFCEFFD638D808E20AE648E880EA03A0
:40030000EE820003010D050506010801090C0B020C010D0D1001111012021602170D1801190D1C011D0D2201230D2401250D280129092C012D012E022F02310C3510360355
:4003400037033E403F51580459045B045F0180208102820F8404860A882F89028D028EA09204948095039640970C98049A099E10A020A102A20FA480A802AC01AD0AAF0550
:40038000B060B108B21FB306B480B501B61FBE10BF01D804D904DB04DC99DF01000902080302048A0708082209880C800D100F9011501305158016A01710180919041A08AD
:4003C0001BD21D80210923042440254026102B422C042D012E402F20310836843721380239803A103D203E083F825D015F0169506AA06F0178017B807D027F8080048604BE
:4004000089108A028F01938094A19525964497219B209C0D9D0A9EA89F08A321A480A520A68AA790AD01B040B210C0FFC2FFC4FFCAF9CCF2CEFDE242E401EA01000103027E
:4004400004E0050108010A080B020CE00F02100F1280130814481602170218201B021E071F02200422482302261027022A082B042F10311F34E0361F382039023F015804DF
:4004800059045B045C095F0180038109840387318A018B098C038F06900391129309940395099712980399409E02A003A309A603A709A803A909AC03AD49AF24B338B40349
:4004C000B540B707BB88BE10D804D904DB04DC90DF010080012002800320048A052008180A010B400C020D080E0610021325172918081E061F802002215423252480284155
:4005000029202B202C872D202F203108321233013448350137A0380239883B103C803E043F115A806E408340860287048A0690029289935094019704981A99019B889C84CD
:400540009D209F20A0C2A108A280A328A401AB10B204C0FFC2FFC47FCAFFCCF7CEFFD608E080E620EA85EE2002800404050D064808200A400C0111011210144816021A07E2
:400580001B051C401E202608280129102A082C0F2D0A3020310C32C03303341F362037103A083E413F4056085804590B5B045C995D905F01822083018607870F88218A0825
:4005C0008B018C218F019210930E9428964297059AC89B039F01A02FA280A301A444A628A709A90FAA20AD0FB105B21FB4E0B503B709BA20BF51D804D904DC09DF010001EA
:400600000184030805A4078009090A060D080E881006121015141701180219811A051B481D041E081F20210422412501264027082B052C822F2432113408350137A03908B7
:400640003C823D043F144410450858805B10630A64086610780284018601911092289358950896019704980A9B819D249F20A0C2A108A280A401A761A840AF11B040B504F1
:40068000B702C0FFC27FC477CAFCCCF5CEF2D60CD80CDE01E202E640E880EA10EE4002080349077F08010A280B090C2F0F091001117F1408160217091A071B091E401F2962
:4006C000221023722709280429782A282B042F19310732603348341F352837183F55580459045B045C095F01802081048440850186A088418A088C4F8E808F04920794041B
:40070000966898689A029B019C41A208A610AA40AD02B01FB304B503B6E0BA80BF04D608D804D904DB04DC99DD90DF010128024003010521070109040A810B080D080E0633
:400740000F80128013181608170218821A801D081E041F14221423102601271A2B012D042E012F253210341036843721380239083A403C023D1A3E0A3F54584060026240FE
:4007800068026B016F0A831886408B048C018D089342951496019714980899019B809C109D209E0A9F21A0C0A284A402A509A74AB308B504C0DFC2FFC45ECAF8CCF4CEFBE6
:4007C000D608D808E010E280E644EE820002012F020103800402060107070A060B200C020E010FC81002120114071528174218021A011B101C021E012121220523082544DD
:400800002607272829212A012C0731E03207331F3B023E04580459045C905F0182698502861988198E198F119019924493049419962298229A199B089C19A20EA306A61923
:40084000A702A910AA19AB01AD01AE19AF10B070B208B301B407B510B607B70EB928BAA2BB80BE04BF14D804D904DB04DC99DF010082012402400521060207200810094941
:400880000B200C020D090E010F04104213141514164017801A201C821D011E281F012010210423C025442680270829202A082B402C802F1A30803108329034483614378162
:4008C000390A3B503D403F046D408C10C0FFC2FFC4FFCAF7CCA6CE5FE210010E04080508060409080C0D0E020F08110812091504180819081A021D081E04200423012702A7
:4009000029082D08300C320C330F34033A0A3F045608580459045B045C095D905F01801382048402871088028B1F8C088E018F1F901991019202951F96099A089B049C0273
:400940009D1FA001A20CA308A602A720A802AB02AC1BAD1FB210B40FB73FBB80BE14D804D904DC90DF010108021104020540060807200A040B810D110F2211021405161004
:400980001702190A1A041E201F20210425402680270229442A212C802E202F2130803120320433113545371039163A803B033D843F2058806002680D6A508101821084A1C0
:4009C000880289028B048E5090029134922893859508980599459AA99B219C229D0AA080A121A311A40CA690AA88AD80AF10B111B504B648C0F5C2FBC4F8CAFFCCFFCE7FAE
:400A0000D608D808E248E401E602E809EE030001062008010A7E0D010E08107F167F1A041E1020022101247E26012A402C7F3501367F3B303E40580459045B045C905F0179
:400A4000804484118708881189078C078E088F109211941195A5974298119B429C119F21A011A307A433A5C6A644A721A878AA02AC20AD84AE02B3E0B51FB67FB71FB9A0BC
:400A8000BE40C004C5E0C6C0C80AC9FFCAFFCBFFD004D601D804D904DA04DB04DC90DD09DF01E2C001160201030204020540071409A80B400C810D200F2010041141130440
:400AC00015A016A019801F80214023152510270428222B402F8030083250384039083B103D8041014B025210688069756B116C016E406F02705071E972A07348810A8204C4
:400B00008404850487048A108C509040910292A8938094A295A496409733980199049B209C269D0A9EB89F18A141A351A484A530A68CA808B210B540C0FFC2FFC4FFCA8B79
:400B4000CC0ECE1ED001E003E208E402EA40EE060601083109100D0C0E080F021040130116021702180319011A101E0420382304240325082608290A2B042C022E2130400E
:400B8000310F3207351036383A803E013F10580459045B045C995F018001830C8401870188018A028B078C018F019001930194019701980199079E019F01A001A108A302BA
:400BC000A601A701A801AB01AC01AE02AF01B507B603B708BE40BF50D804D904DF0100820201032A05480608081909800B400D080E461002128013241501174818011D4E2B
:400C00001E01218022102408260228082BA22C082E022F103011328436063710380239A83D103F806D5080048280850186058C208D01900291A89248934494019620981A26
:400C40009A029B609C809D20A043A284A328AB80B604C0EFC2FFC4BFCAEFCCEFCE3FE080E451E8C0EE02000801010201050108040B010C010D010E081101130217011901F5
:400C80001A011D01210123022401250129012A022D01300332043303340836083A023E543F0440434502480149FF4AFF4BFF4D204EF05110580459045A045C095D095F017F
:400CC0006108624063406480664067408004840885CC86018722881F8C048D01900493119401961E9722980499F19C019E10A004A344A588A604A824A9AAAA19AB44AC0134
:400D0000AE22B020B30FB50EB61FB7F0BE41BF10D804D90BDC90DF01002001020301058907080B040C200D090E011010120816801764181019221A0A1B801D021E0222083E
:400D400025602711280929022B202C082E022F10301232843606371039A83A013D884010410248107C0283408520881089088B308C088D448F4091EA920193049602972033
:400D8000981B99819A839B0C9D209F10A022A108A286A320A408A601A7C0A904AB04AD01AE01B080B18AB608B708C0FBC2F2C4F6CAEFCCEFCE5FD003DE80E0A0E240E47094
:400DC000E602E890ECC01B011F0231203302368037083B40C630CCF0CE103088364037043A023C2088108F0893809F08A520AE80AF41B340CCF0CE60EE4053405640840897
:400E00008C8093809A409E029F04A488A520A6C0B2C0D460E2408E0292029E02A520A6C0AB04AE01EA80EE4015027B02C404DC015940670882108E4191029720AF10B7020E
:400E4000D401D801E008E602EC021A4085408D049102966097289D40A201C608E60209440F4191029420962097299C409D40A201A544A810AB01B040C20FEA0126809202EF
:400E8000A320A520A680AE40B720C820EE405280572079407E01828085208D409202A320A520D460DC80DE20E210E62004200A200C400F401F1050805B405E025F8083408D
:400EC000894091029420962097209C409D40A201AF40B304C001C20DC601D405D605E001E801850188809102A480B3C0E401EA04EC04010109010B010D010F0111011B01BF
:400F00001D0100FF01AB020211050000BF0000A09F001F000000000000000000100000004000000000000000C0000000FF0000B847004700000100008000000282008200D5
:400F400000000000000303000300000027001801270018010004000000050000000000000000000000000000000000000000000000000000000000000000000000000000DF
:400F80000000000000000000000000000000000000000000000000000000000000000000000000000000000000000000000000000000000000000000000000000000000031
:400FC00000000000000000000000000000000000000000000000000000000000000000000000000000000000000000000000000000000000000000000000000000000000F1
:4010000000000000000000000000000000000000000000000000000000000000000000000000000000000000000000000000000000000000000000000000000000000000B0
:401040000000000000000000000000000000000000000000000000000000000000000000000000000000000000000000000000000000000000000000000000000000000070
:0200000490006A
:0400000000000007F5
:0200000490105A
:04000000BC90ACAF55
:0200000490303A
:020000006EF799
:0200000490402A
:4000000000000000000000000000000000000000000000000000000000000000000000000000000000000000000000000000000000000000000000000000000000000000C0
:400040000000000000000000000000000000000000000000000000000000000000000000000000000000000000000000000000000000000000000000000000000000000080
:400080000000000000000000000000000000000000000000000000000000000000000000000000000000000000000000000000000000000000000000000000000000000040
:4000C0000000000000000000000000000000000000000000000000000000000000000000000000000000000000000000000000000000000000000000000000000000000000
:0200000490501A
:0C00000000012E16106900002E317F60F8
:00000001FF