:4000000000800020110000007910000079100000064A08B5136843F020031360044B1A6803F53F5302331A6001F044F8E8460040FA46004010B5054C237833B9044B13B1D7
:400040000448AFF300800123237010BD6081FF1F0000000028360000084B10B51BB108490848AFF300800848036803B910BD074B002BFBD0BDE81040184700BF00000000EB
:400080006481FF1F28360000C880FF1F000000000A4A0B4B116801310B40002BBEBF03F1FF3363F00F030133136011685368994202BF024B01221A72704700BF8081FF1F9E
:4000C0000F0000800A4A0B4B516801310B40002BBEBF03F1FF3363F00F030133536051681368994202BF024B01221A72704700BF8081FF1F0F000080024B012200205A722B
:4001000002F086B88081FF1F10B5C4B2204601F077F90128FAD110BD08B572B60F4B0F49DA680132DA601A690132C82A08BF00221A615A6918690132A72A08BF00224A617F
:400140005B69002B0CBF02230023002814BF184643F0010002F054FD62B608BD8081FF1F10B504460D4B8278997E91421CBF00225A7702689A610279094B1A718378002BB3
:4001800014BF0220012002F0FFFCE07802F0F6FC2079BDE8104002F02DBD00BF8081FF1F9881FF1F70B5C4B220460E4601F030F9314605460246204601F090F9204601F0D1
:4001C0001FF90128FAD0284670BD000038B50B4CA57F5DB904F11800FFF7C2FF012001F0ADFF4FF47A7002F04FF96577E36823620123A377BDE8384002F084B98081FF1F9D
:4002000038B50446C5B2284601F0A4FF062002F051F944F00200C0B201F09CFF062002F049F9284601F096FFBDE83840062002F02BB910B5642401F087FF20B10120BDE8B6
:400240001040FFF7DDBF0120FFF7DAFF013CF2D1F4E7000038B5044D0024285D013402F0D9F8102CF9D138BDA481FF1F08B502F0F3FA002002F0FCFA02F00EFB02F018FB10
:4002800080B208BD10B50446012001F07BFF642002F0FAF8FFF7EAFF2080002001F072FF642002F0F1F8FFF7E1FF608010BD08B502F0FEFB002002F007FC02F019FC02F0AB
:4002C00023FC80B208BD10B50446FFF7B2FF322002F0DAF8FFF7EBFF20800020FFF790FF322002F0D1F8FFF7E2FF608010BD0FB400B593B014AB53F8042B402102A80193D3
:4003000002F07AFD02A801F08AFF01F094FF13B05DF804EB04B0704710B5044601780648FFF7E5FF0420FFF7EFFE62782146BDE81040042001F080B83A36000007B50023B1
:40034000ADF804308DF80600032301A88DF80530FFF7E2FF03B05DF804FB0000F8B51D4C0646FFF733FF637F03B156B91A48FFF7BEFFFFF75EFF012000236077636302F048
:4003800099F83246616B1548FFF7B1FF114D0027636B9E4216D001F0D7FE00B16F63636B9E4205DD0020FFF72BFF6B6B013305E005DA0120FFF724FF6B6B013B6B6302F059
:4003C000A1F8E5E7322002F05FF8BDE8F8400448FFF78DBF8081FF1F473600004E3600006B3600002DE9F04F9BB062B602F0F4F8B749042002F018F9B64801F0B1FEB64878
:4004000002F0E4FBB54801F0E5FE02F0C5FA02F097F9002002F0B8FB01F000FF0221002000F0A4FFAE4D0321084602F04BF82E462C46DFF8D4B202F065F8AB7F73B12A6A46
:40044000EB689B1A41F28832934207D9002001F075FE002002F098FB0023AB7700F0BEFF18B9A048FFF743FF04E000F0BDFF0028F7D109E000F0B2FF0028FBD09A48FFF7F1
:4004800036FF032001F016F8032000F0B9FF0128D1D19648FFF764FE95490320FFF782FE94F838109348FFF722FF94F83830023B122B00F2F583DFE813F01300F3031C0015
:4004C000F3032200F3034400F3036800F303A001F3033503F3035403F3035A03F303650303238DF828308DF829300B238DF82A3044E394F83A00FFF731FF7F4B3BE3FFF7AA
:4005000065FE00236372E068627A02F0FF0132B9EB681B1AB3F57A7FF6DD0B4608E03BB100227272F168627A12B9EB685B1AFAE707228DF8282004228DF82920ADF82A30A6
:400540001CE30220FFF7E0FD4FF000090DF1280A4FF480780027C8EB0903DA1907F80A200137402FF9D10220FFF7CEFD3A465146022000F061FFB8F10108EBD109F1010983
:40058000B9F1400FE4D15D4BC7E294F83A0001F0F9FD606BFFF7E2FE02F09AFB584BDFF86C811A78002742F004021A701A7842F001021A701A7802F0FE021A701A7802F0A2
:4005C000FE021A7002F088FB0220FFF79DFD41F6FF734FF480420121022002F0DBFA84F8780001F0FDFE08F807000137102FF8D1DFF81CA100270AF15D081FFA88F901377D
:40060000102F14BF3A4600221AF8010F2244062392F82420402101F017FF4A4646F242419AF8000001F022FF09F14009102F1FFA89F9E4D196F83B3033B100237372637A9C
:40064000002BFCD000237372142200210AA802F09FFB40234FF0FF320D9300232360626023722368274F234493F8241094F878000C9701F06DFE94F8780001F02BFE01210C
:4006800094F8780001F0FEFD04972368002BFCD000277760D6F80CA0237A7BB901F032FFA98F04E0EB68CAEB03038B4206D2626823689A422ED12B7A002BF3D094F808801C
:4006C000042194F878005FFA88F801F04DFE54E019010000F900000091000000C50000008081FF1F793600008C3600009881FF1FB881FF1F963600002C3600002E3600006F
:40070000926400400086FF1F99650040A481FF1FA381FF1F4FF0000962680AA808EB82124A440A92C9F140020B9200F0DBFA0B9A0137C2F1400209EB02030D9A5FFA83F902
:400740005AB90220FFF7E0FC4022BD49022000F073FE049B0C9340230D93B9F13F0FDBD96268B84B01321340002BBEBF03F1FF3363F00F03013363608EE794F8780001F0B3
:4007800003FE0028F9D10AA800F0E0FA0220FFF7BBFC0D9B402B07D002204022A84900F04BFE0220FFF7B0FC0D9B022033F040021DBFC3F1400292B2A149114600F03CFEEF
:4007C0000220FFF7A1FCFFF745FDB8F1000F06D09D48FFF78CFD0220FFF7B0FD06E09B4B09A81B88ADF82430FFF796FD627A3946237A9748FFF77BFD55E29648FFF777FDEF
:40080000E76B17F03F0701D003204AE2012001F0BFFC95F83A0001F0B5FC02F059FA9BF80030DFF8348203F0FB038BF800309BF8003043F001038BF800309BF8003003F027
:40084000FE038BF800309BF8003003F0FE038BF8003002F041FA686BFFF780FD01214FF4804341F6FF72084601F098FC85F8780001F0B6FD08F807000137102FF8D1DFF88D
:40088000DC91002709F15D031FFA83F807930137102F14BF3A46002219F8010F2244052392F82420402101F0CFFD414646F2495299F8000001F0DAFD08F14008102F1FFA49
:4008C00088F8E4D10027B946BA46F36B4FF0FF389B09142239460AA837600493C6F80480377202F055FA402301200D9300F0E2FDCDF81880059701F005FE2268514B01322B
:400900001340002BBCBF03F1FF3363F00F036168B8BF01338B4200F0A380BAF1000F07D0237A002B40F0B0806B7A002B40F0AC800B9B002B34D1B9F1000F0BD07F22404926
:400940005A540133402BFAD10A910B9328E0BAF1000F06D1012000F053FD01288046F6D107E0237A002B40F08F806B7A002BF1D08AE03349FFF716FC8146314B0B90404665
:400980000A9300F097FDB9F13F0F07F1010706DD049BDB1BD3F1000949EB030900E0C1460B9BDBB12368079A0AA802EB83120D9BC3F1400313440C9300F0D7F90D9B6BB9FF
:4009C0002A68204B01321340002BBEBF03F1FF3363F00F030133236040230D93636801333ED12B680F2B3BD14FF00008C5F8048001F002FC85F808806B6895F878002B44DD
:400A000093F8241001F0A4FC95F8780001F062FC012195F8780001F035FC85F80980637A002BFCD04FF00008012086F8098001F0EFFB404601F0ACFBCDF8188013E000BF78
:400A40000086FF1F0F000080A536000030360000BF360000D2360000A481FF1FA381FF1FBAF1000F05D0237A73B96B7A63B94FF0010A6368069A93423FF43DAF059B0133AA
:400A800005936B68069336E701F0BCFB012001F07FFB002001F0BCFB042194F8780001F063FC94F8780001F06FFC0028F9D196F8780001F0FDFB737A327A02930123039278
:400AC0000193CDF80090059B3A4604997A48FFF70EFCB9F1000F16D1049BBB420ADD012000F08EFC01288046F6D17449FFF75AFB3F2803DC012000F017FD04E0404600F04D
:400B0000D9FC0137E8E7FFF7A5FB6D48FFF7EFFB237A0BB10220C4E06A4B1B8809A8ADF824302CE094F83A0001F02CFB606BFFF715FC6548FFF7DBFB00236372637A002B58
:400B4000FCD0012001F064FB00237372637A002BFCD0002001F05CFB5C48FFF7C8FB5C4B09E000206077FFF7F9FB5A4B03E05A48FFF7F6FA594B1B88ADF828300AA8FFF72A
:400B8000CBFB90E0A37F3BB1002001F0D7FA002001F0FAFF0023AB7701F07CFF002001F01FFF2A2701F04AFE002001F0EDFD3A4600210AA802F0ECF815238DF828308DF8DD
:400BC000297001F09FFC002001F0B8FA002001F0DBFFC82001F058FC0DEB0700FFF752FB0DF13E00FFF76FFB01F08CFC012001F0CBFF322001F048FC0DF12E00FFF742FBDC
:400C00000DF14200FFF75FFB012001F097FA4FF4967001F039FC01F075FC0DF13600FFF731FB0DF14A00FFF74EFB002001F086FA4FF4967001F028FC01F064FC022001F080
:400C4000A3FF322001F020FC0DF13200FFF71AFB0DF14600FFF737FB012001F06FFA4FF4967001F011FC01F04DFC0DF13A00FFF709FB0DF14E00FFF726FB002001F05EFAD2
:400C80004FF4967001F000FC01F03CFC002001F07BFF0023637701F07FFE01F051FD6DE70120FFF74BFB032000F004FC0C48FFF71EFBFFF7C0BB00BFDC3600000086FF1F93
:400CC0000C370000323600001B370000293700003436000036360000B881FF1F383600003637000010B54268002A2ED0C368002B2BD00368048A591C01601B78013A13F007
:400D0000800F817C42601DBF03F0010242EA84030231083114BF43F0020343EA0423817414BF03820382837C072BDCD9028A083B42FA03F38268511C81601370C368013B5A
:400D4000C360837C083B8374CDE710BD07B5827C42B102AA002102F8011D026001224260FFF7C0FF03B05DF804FB30B543686BB3C2685AB3827C072A0CD8046890F91050D4
:400D8000611C01602178013B41EA05210832018243608274827C018AA2F108042141CBB2090608D5C3F3801363F07F03023A03F08103827402E08474002BD7D08268511C1C
:400DC00081601370C368013BC360CFE730BD00002DE9F04172B6854B61221A70A3F5F06301221A801924824A9C7092E803008033062283F8002283E80300522203F5807397
:400E00001A707C4B7C4A1B787C4EDBB2137040F618027B4B00251A8041F2512223F8022C33784FF4F07003F0010343EA450501F047FF013C05F003052ED0032DF0D1714B92
:400E40004FF480721A8007221A706F4A002548211570917002221D705D7103F8032C0422DA716A4A6A4C13786A4E43F00103137012F8013C062743F0030302F8013C237823
:400E8000012243F080032370584B1A70624A137843F02003137000E0FEE707FB056300219A881868013501F073FF072DF5D15B485B4E002550F8041F05F1105303F1540285
:400EC00021F0FF075533C9B20B4452005B0002329A4206D012F802EC12F801CC0EF807C0F5E7B0420D44E5D14E4B00221A604E4B4E4F1A684E4BDFF87C811A604D4A13788F
:400F000043F002031370137C43F0020313742378A2F5863243F040032370413A137843F010031370444A454B07CA03C31A80444A2833106843F8250C127903F8212C414A6C
:400F400007CA03C31A80404AE83B07CA03C31A803E4A083307CA03C31A803D4A3D4BA2F5616203CBC2F8100EC2F8141E1378042043F008031370384B02F5AA521B783D7845
:400F8000DBB298F80060EDB203F007010C321B091170F6B2537045F003033B7046F0030388F800302D4B48221A702D4A402313702C49937013729372082382F81F322022F7
:400FC0000A7048710A72284A0A20137001F072FA264B88F8006044223D70254D1A7094E80F0007C52B80BDE8F08100BF00480040481100480F010049A1460040254200403F
:40100000224200400440004006400040A2430040A04300403B370000E8460040FCFFFF47A40000480076004050110048F8460040087600400350014008110048C0510040CC
:40104000141100481C11004828110048341100483251004040110048CF0100491D51004001590040235B0040585B004076580040B0430040F946004008B501F05DFE0368DE
:401080000C2B00D1FEE7FEE7084908B50B68084A1844821A802A01DC086005E001F04CFE0C2303604FF0FF33184608BDCC80FF1F4087FF1F80B51148114B0025C0B1A3F1FB
:4010C000100192C922460439161BB74204D051F8046F42F8046BF7E7114653F8046C8C1AA64202D041F8045BF9E701381033E5E701F028FEFFF776F9FEE700BF010000004B
:401100000C390000124A134B10B51A60124A134C1368134843F4007313600023032B98BF54F823204FEA830188BF0E4A0133302B4250F3D10C4B1A780C4B1A700C4B084AD8
:401140001A60FFF745FEBDE8104001F085B800BF0004FA050CED00E014ED00E0000000000080FF1F79100000BC760040C080FF1F08ED00E0F8B501F0ABFD444A01271378CA
:40118000022643F001031370137C414C43F001031374404B02F5E3521F700B3203F8946C1378054603F07F031370002001F082F92378394A03F0F90323701378384603F0FF
:4011C000DF03137023783B43237001F073F9282001F070F9314B30461A7802F07F021A701A7802F0BF021A7023783343237001F061F923782A4A43F004032370002313701E
:401200002846537001F068FD0721172001F09AF92449172001F088F90721182001F092F92149182001F080F90721152001F08AF91E49152001F078F90721052001F082F9BE
:401240001B49052001F070F90721062001F07AF91849062001F068F90721084601F072F91549072001F060F90721082001F06AF91249082001F058F907210C2001F062F956
:40128000BDE8F8400E490C2001F04EB9A5430040944300409D60004012600040F851004084600040CF19000009180000CD190000011900002D1900005D1900009519000088
:4012C000D319000008B51D4B1D4A1870002313701C4A13701C4A13701C4A13701C4A13701C4A13701C4A13701C4B4FF400021A604FF080721A604FF400121A6020221A6076
:4013000040221A6080221A604FF480721A60144B19B91A7802F0FE0202E01A7842F001021A70104B03221A70802203F8202C012001F0C6FC0C4B04221A7008BD7C86FF1F6B
:401340008286FF1F8086FF1F8186FF1F7D86FF1F6C86FF1F7F86FF1FF486FF1F00E100E009600040286000401260004070B5074C054623780E461BB9FFF7FCFE0123237001
:4013800031462846BDE87040FFF79CBF4086FF1F0A4A002313700A4A13700A4A13700A4A13700A4A13700A4A13700A4A13700A4B03221A70802203F8202C70478286FF1FF0
:4013C0008086FF1F8186FF1F7D86FF1F6C86FF1F7F86FF1FF486FF1F28600040014B1878704700BF8186FF1F044B1A7802F0FF001AB118780022C0B21A7070478086FF1F53
:40140000024A0C2303FB0020407870478886FF1F431E072B0CD8074A064B00010344805C5B7800F00F0043EA0020023880B2704700207047FC5F0040431E072BF0B531D846
:40144000194B0C2505FB0035EC88184FA4B2C4F50074A2424FF00C0404FB003488BFEA88E67884BFC2F5007292B2104C46EA12260501EE552C44D6B2667041B90C2202FB17
:401480000030002343704379DBB2A370F0BD0E46074F2F44751AADB2AA42EFD916F8015B3D72F7E7F0BD00BF8886FF1FFC5F004070600040431E072B0AD8064A0C2303FB32
:4014C000002300225A705A79034BD2B200011A54704700BF8886FF1FFE5F004038B505461446D1B1431E072B19D8FFF791FFA04203D22846FFF78CFF04460A4609482B01AF
:401500001844531A9BB29C4203D9037A02F8013BF7E72846FFF7CEFF02E00C4600E00024204638BD70600040431E072B9FBF024B000108221A547047FE5F004030B51A4A02
:401540001A491B4D0878138803449BB21380194A00231488D8B2A4B27CB1082B0CD050680078C0B2E85450680133013050601088013880B21080ECE718460B780E4C082BA1
:401580000E4A00D040B10E4D2B7883F080032B700F232370022301E0022323701370094B1870087030BD00BFF886FF1FF486FF1F006000407086FF1F6D86FF1F8286FF1F5E
:4015C0007E86FF1FF586FF1F074B02221A70074B80221A70064B0F221A70064A00231370054A0120137070478286FF1F7E86FF1F6D86FF1FF486FF1FF586FF1F30B5164B36
:4016000016491B780A8803F00F03023BDBB21A4492B20A80124C134A0020118889B279B173B15568215C013BC9B229705168DBB20131516011880130013989B21180ECE7D8
:40164000094A1370094A137883F080031370084B0B221A7030BD00BF29600040F886FF1F006000407086FF1FF586FF1F7E86FF1F6D86FF1F064A06231370064A01201370B2
:40168000054B80221A70054B00221A70704700BF8286FF1F6D86FF1F7E86FF1FF586FF1F054B9A683AB19A68044910709A680988518000229A6070477086FF1FF886FF1F57
:4016C00008B5124B1A78D2B21A701B78DBB21A0602D50F4A137008BD0220FFF7E1FF0D4B1B7803F06003202B05D0402B06D043B900F0D4FB04E001F0F3FA01E000F008FD8B
:4017000010B9034B03221A7008BD00BF286000406D86FF1F0060004008B5084A084B0120197813880B449BB21380064B00221A70FFF7B6FF044B03221A7008BDF886FF1F01
:40174000F486FF1F8286FF1F6D86FF1F08B50C4B1B78DBB2042B07D0062B09D0022B0DD1BDE80840FFF7D8BFBDE80840FFF746BF0320FFF795FF034B03221A7008BD00BFBB
:401780008286FF1F6D86FF1F08B5054B002201201A70FFF785FF034B03221A7008BD00BF8286FF1F6D86FF1F08B50A4B1A7832B11A78094942F080020A7000221A70074B4F
:4017C000002201201A70FFF76BFF054B03221A7008BD00BF6C86FF1F086000408286FF1F6D86FF1F074B1B78DBB2042B05D0062B05D0022B05D1FFF7A1BEFFF7C5BFFFF706
:40180000D3BF70478286FF1F38B51D4C2378DBB2DD0634D518060AD503F00F03012B2ED1FFF74EFF174B1B78190609D538BD5A0602D5FFF7D7FF03E09D0620D5FFF786FF7F
:4018400023781B061BD4104B1A78104B1B7813430F4A13701278934211D10A4A0849154613782078DBB2000605D41378DBB20B700B7803F00F0328788342F1D138BD38BDB4
:40188000286000406D86FF1F7E86FF1FF586FF1F29600040054A00231380054A916819B191680B7092685380704700BFF886FF1F7086FF1F0E4808B503889BB213B9FFF7A0
:4018C00083FE13E00B4B02221A700B4B00221A70FFF7E0FF094AD1799379028843EA012392B2934238BF0380FFF728FE012008BD7086FF1F8286FF1F7E86FF1F0060004084
:40190000084B01221A700F3B9B7C074B1A7B02F00302012A1EBFDA7B82F08002DA7301225A7370470B6000408886FF1F094B02221A700F3B93F82230074B1A7E02F0030242
:40194000012A1EBFDA7E82F08002DA7601225A76704700BF0B6000408886FF1F0B4B04221A700F3B93F83230094B93F8242002F00302012A1EBF93F8272082F0800283F8E3
:401980002720012283F82520704700BF0B6000408886FF1F0B4B08221A700F3B93F84230094B93F8302002F00302012A1EBF93F8332082F0800283F83320012283F83120A2
:4019C000704700BF0B6000408886FF1F7047FFF7DFBC00F039BC000070B50446184B88B003AA03F11006154618685968083303C5B3422A46F7D11B782B70FCB1222323702D
:401A000001AD03232846637000F016FE002220461146AB5C08AC04EB131414F8144C03F00F03847008AC234413F8143C0132082AC1700371417100F10400EAD108B070BDB1
:401A4000653700002DE9F0411A4D01222E460C2080274FF0080E184B00FB025C14012344187016499CF805802144B8F1000F07D09CF8044024064CBF887081F802E000E0F1
:401A80008F7000FB0261CC880132E4B29C71CC88092AC4F30724DC71CC88E4B21C71C988C1F307215971D6D1054BFF221A70BDE8F08100BF8886FF1F70600040FC5F00402D
:401AC0000A600040064B074A1B7802EBC30253681A7C824286BF03EBC0035869002070477C86FF1FC83700002DE9F84F424B1A78002A7ED01878414D0138C0B2FFF7E2FFFF
:401B0000A8463F4AC3681478007ADFF800C1E4B203EBC0000C2600274FF0010E834268D01A78A24263D11CF80420597891425ED19A7893F8039002F07F0206FB02FA05EB38
:401B40000A01CF7093F802B009F0030981F804B093F803B005F80AB0B3F804A0A1F808A093F902A0BAF1000F0BDAB9F1010F0CBF4FF007094FF00D0981F8059081F801E0C9
:401B800009E0B9F1010F0CBF4FF005094FF0090981F805904F704FEA02191A4906FB0282494481F802E0B2F808A0CAF3072A81F800A0B2F808A05FFA8AFA81F801A0B2F8DC
:401BC00006A011495FFA8AFA494481F806A0B2F80690C9F3072981F80790B2F806905FFA89F981F80490D288C2F307224A71083394E7BDE8F88F00BF8186FF1F8886FF1F13
:401C00007D86FF1FFC5F0040706000406E86FF1F08B5064B18780138C0B2FFF753FF20B143681B7900EBC300406908BD8186FF1F00212DE9F84F0B464E4E0C2707FB01F44F
:401C400001313219092933554FF000059370494CD3701381937253705371EFD118B1464B1D70464B1D70464B1A78002A7FD0187801250138C0B2FFF725FFA8464368DFF8A2
:401C8000F8E0DB790C2713F0400F3E4B4FF0000C1A7814BF42F0010202F0FE021A70027AD20007FB0541C36803EB02094B4531D093F802A00AF07F06AE4229D10E89B3F866
:401CC00004B0B6B25E4538BFA1F808B01E7893F801B01EF80660B3451AD181F804A0DE780E7093F902A0DE78BAF1000F06F0030607DA012E0CBF07260D264E7181F801808A
:401D000006E0012E0CBF052609264E7181F801C00833CBE70135092DC3D1C1680A328B1C0A440C200833934209D013F8081C13F80A5C01F07F0100FB01418D72F2E7FFF7F8
:401D400067FF114B0121186000230C2000FB0142D3801289013113449BB203F00102134409299BB2F2D1BDE8F84FFFF76BBEBDE8F88F00BF8886FF1F6E86FF1FF686FF1F59
:401D80008186FF1F7F86FF1F8486FF1F114B1B7903F07F035A1E072A19D80F490C2202FB031291781B0141F0010191700021D170517841F002015170127912F0800F074A36
:401DC0001A4414BF8D2389239370FFF753BC0020704700BF006000408886FF1FFC5F004030B4194B1A7902F07F02531E072B27D8164B0C2404FB02339978154D01F0FE0139
:401E000099700021D97029461201505D114400F07F0050555A7802F0FD025A701A795B78120605D5012B01D18C7006E00D2303E0012B0CBF082309238B7030BCFFF71ABCBE
:401E4000002030BC704700BF006000408886FF1FFC5F004010B50D4B0D4C21791878C9B20138C0B2FFF72EFE43681B798B4201D2012909D8074A0848535CDBB24354A37818
:401E80000120DBB2535410BD002010BD8186FF1F006000406E86FF1FF686FF1F38B58A4A8A4C13780021DBB221801806517840F18D800A2900F20581DFE811F05D00030138
:401EC00003010301030103010B0003017E0003018200D3787C49012B09D17D4B1A787D4B03EBC2035B685B686360122310E0CB78022B12D18878FFF7E5FD002800F0E180C2
:401F0000436863606368DA7863689B7843EA02232380BDE83840FFF7CDBCCB78032B26D16D4B00228878D5B2854209D3664A91786A4AEE2908BF1346634A917881B106E0C9
:401F4000187801320028F1D018780344EAE764499278097C914203D16248FFF73DFD614B1A78002A00F0AD801A78228018E0BDE8384000F0B5BE13F0030313D0022B40F0D6
:401F8000A0802380504B0C211B7903F07F02564B01FB02339A78554BD2B21A7000225A706360B6E702222280514A11784F4AC9B2117053706260ACE7012323804D4BEFE7E4
:401FC0000123238013794C4A1344E9E701390A2977D8DFE801F037764F76067676760A7620009378454ADBB25AE0937803F0FF0153B9404B1A7891425FD01970404B012024
:402000001870FFF715FE58E0481EC0B2FFF75AFD0028EED155E0FFF71DFF002851D02A4A384913791279DBB2D2B20A70364A3249D25CCB5C9A4240D0314B01221A70FFF749
:4020400053FD3AE003F00303012B2BD009D3022B37D11D4B9B78002B33D1BDE83840FFF7BFBE194B9B78012B2BD1214A137803F0FD0315E003F00303012B13D008D3022BFE
:402080001FD1114B9B78E3B9BDE83840FFF77EBE0D4B9B78012B14D1154A137843F0020313700AE0084B1A795AB998781B791749DBB2CA5C22EA0002CA54BDE83840FFF7DC
:4020C000D9BA002038BD00BF006000407086FF1F7C86FF1FC83700002C380000B43700009F3800001487FF1F8886FF1F4186FF1F7F86FF1F8186FF1F6E86FF1F6C86FF1F4C
:402100008086FF1F7D86FF1FF686FF1F8386FF1F074B1A78120609D55B78012B06D1054B054A5A6012781A80FFF7C4BB00207047006000407086FF1F8C370000014B1870D5
:40214000704700BF71640040014B1878704700BF68640040014B1870704700BF7A640040064A0123136002F688321268E0211064034A1170A2F540721360704780E100E004
:4021800000E400E0014B1870704700BF74650040014B1870704700BF7B65004073B515461E460B4C01230022019200920A4601461846237000F0F4F832462946207800F012
:4021C000AFF80221207800F099F8207802B070BDD080FF1F064A0423136002F688321268E0219064034A1170A2F202321360704780E100E002E400E0014B04221A607047A2
:4022000000E100E0014B04221A60704780E100E0014B1870704700BF7A650040704738B505460078012428B100F0F2FC285D0134E4B2F8E738BD08B50D2000F0E9FCBDE8C5
:4022400008400A2000F0E4BC024B1878C0F38010704700BF8F450040074A7F23802113705170064A013BDBB202F80839002BF9D1034A1370704700BFE080FF1FF87B00401A
:402280000078004017280FD8084B0001C25C11B142F0200201E002F0DF02C254C25C42F00102C25400207047012070471070004017280BD8064B0001C25C02F0FE02C2547C
:4022C000C25C02F0DF02C25400207047012070471070004017280DD8074900010B4603441A7942F004021A71435C43F00103435400207047012070471070004017280BD807
:40230000064A0001835C490003F0F10301F00E011943815400207047012070471070004041F6FF73994208BF4FF400519A4208BF4FF4005217289FBFC00000F1804000F583
:40234000EC4081809ABFC280002001207047000017289FBF034B00011954002088BF0120704700BF1970004017289FBF054B00011A5C01F007019DBF1143195400200120C2
:40238000704700BF1470004017289FBF034B0001185C00F0070088BFFF20704714700040172810B51AD8C00001F07F0100F1804441EAC21204F5EC44D2B222709DF80820D4
:4023C00003F00F0343EA0213DBB263709DF80C30002003F00F03A370E07010BD012010BD10B500F075FC0A4A5378182B0AD91478013B5370E30003F1804303F5F0431B78D4
:40240000137000E0FF2400F067FC204610BD00BFE080FF1F030610B5044611D400F058FC084AE300117803F1804303F5F04319705378147001335370BDE8104000F04CBCB6
:4024400010BD00BFE080FF1F30B504060CD411F4704509D1C40004F1804404F5F0442180A270E370284630BD012030BD03065FBFC00000F1804000F5F04081805ABFC280BD
:40248000002001207047000038B50446084DB4F5004F05D9286800F013FCA4F50044F6E7034B58686043BDE8384000F009BC00BFE880FF1F024B1B7A584300F001BC00BFC8
:4024C000E880FF1F0E4B00F003001A78490102F0FC02104318701A7801F0600142F080021A701A7802F07F021A701A7802F09F020A431A701A7842F010021A70704700BFE0
:4025000083430040014B01221A70704784430040044B00F00F021B6853F8220043F82210704700BF08ED00E0054A00F01F00126800F1100352F8230042F82310704700BFBA
:4025400008ED00E000F01F0000F16040490100F56440C9B2017070470F4B10B50F4900240F205C609C60DC601C615C61FFF7D0FF0B4A136843F0040313600A4B4FF47A72A2
:40258000DB68B3FBF2F3084A1360084B4FF400421C60C3F8E82010BD4486FF1F0526000010E000E0E880FF1F14E000E018E000E0024A136843F002031360704710E000E08E
:4025C00008B5FFF7F5FF034A136843F00103136008BD00BF10E000E010B5054CA3691BB9FFF7BAFF0123A361BDE81040FFF7E8BF4486FF1F024B1868C0F30040704700BFF1
:4026000010E000E038B5FFF7F5FF012808D1054D002455F8243003B198470134052CF8D138BD00BF4886FF1F024B03EB80035868596070474486FF1F134B144A1B78DBB2C6
:402640000360127843EA0223114A0360127843EA0243104A0360127843EA026303600E4B0E4A1B78DBB24360127843EA02230C4A4360127843EA02430A4A4360127843EA32
:4026800002634360704700BF0301004904010049EC460040020100490101004900010049050100490601004910B500F011FB204A044613780A2043F002031370137C43F068
:4026C0000203137412F80A3C43F0010302F80A3C937943F00103937102F5AB52137843F003031370134B18221A7013F8012C42F0400203F8012C13F8012C02F0FC0203F8EC
:40270000012CCE2203F8062CA3F597530222183B1A70094A137843F008031370FFF7CAFE064B10222046BDE810401A6000F0D4BAAB4300400E5900402F5B004080E200E0B8
:4027400008B500F0C5FA0F4A137803F0FE031370A2F5AA521D3A137803F0FD031370137C03F0FD03137412F80A3C03F0FE0302F80A3C937903F0FE039371BDE8084000F039
:40278000ABBA00BF08590040044A137803F03F0343EA8010C0B21070704700BF08590040082804D00A280CBF8223C22300E0422308380E4AC0B20428137098BF0C4B4FF00A
:4027C000000298BF33F910100A4B88BF11461A8042F210734B4341F2883103F6C41393FBF1F305490B60054B1A8070470A59004076370000FE86FF1F0087FF1F0487FF1F9A
:4028000008B5102000F0A6F907210420FFF79AFE07490420FFF788FE064A0C20137843F006031370FFF7BCFF034B00221A8008BDF928000009590040FC86FF1F10B5054C93
:4028400023781BB9FFF7DCFF01232370BDE81040FFF72ABF6086FF1F044B1A7802F0FB021A701A7842F001021A7070470859004010B5084B1C7814F0010403D10028F9D00C
:40288000002404E02046FFF715FE024B1B78204610BD00BF09590040034A044B1B881088181A00B2704700BF0487FF1FA25B00400E4A13881BB223B111880A2309B2594365
:4028C00001E00B4B19680B4B1B88C01A42F2107300B203FB00F2022391FBF3F30028D8BF5B42134493FBF1F000B27047FE86FF1F0087FF1FFC86FF1F7047000010B500F07F
:40290000E7F9214A044613780A2043F001031370137C43F00103137412F80A3C43F0020302F80A3C937943F00203937102F5AA521832137843F003031370144B18221A708F
:4029400013F8012C42F0400203F8012C13F8012C02F0FC0203F8012CCE2203F8062CA3F597530222123B1A70094A137843F008031370FFF79FFD074B08222046BDE8104091
:402980001A6000F0A9B900BFAB43004006590040275B004080E200E008B500F099F90F4A137803F0FE031370A2F5AA52153A137803F0FE031370137C03F0FE03137412F829
:4029C0000A3C03F0FD0302F80A3C937903F0FD039371BDE8084000F07FB900BF00590040044A137803F03F0343EA8010C0B21070704700BF00590040082804D00A280CBF21
:402A00008223C22300E0422308380E4AC0B20428137098BF0C4B4FF0000298BF33F910100A4B88BF11461A8042F210734B4341F2883103F6C41393FBF1F305490B60054B73
:402A40001A80704702590040803700000A87FF1F1087FF1F0887FF1F08B5102000F084F807210320FFF76EFD07490320FFF75CFD064A0C20137843F006031370FFF7BCFF64
:402A8000034B00221A8008BD512B0000015900400C87FF1F10B5054C23781BB9FFF7DCFF01232370BDE81040FFF728BF6186FF1F044B1A7802F0FB021A701A7842F001027B
:402AC0001A7070470059004010B5084B1C7814F0010403D10028F9D0002404E02046FFF7E9FC024B1B78204610BD00BF01590040034A044B1B881088181A00B2704700BF9C
:402B00000887FF1FA05B00400E4A13881BB223B111880A2309B2594301E00B4B19680B4B1B88C01A42F2107300B203FB00F2022391FBF3F30028D8BF5B42134493FBF1F05F
:402B400000B270470A87FF1F1087FF1F0C87FF1F70470000034A00F0F800137803431370704700BF02410040034A00F0F800137803431370704700BF06410040014B187044
:402B8000704700BF79640040014B1870704700BF7264004073B515461E460B4C0023019300930A46014618462370FFF7F9FB324629462078FFF7B4FB02212078FFF79EFBBA
:402BC000207802B070BD00BFF880FF1F074A0223136002F688321268E0215064044A11706FF440710A441360704700BF80E100E001E400E0014B1870704700BF77650040B9
:402C0000014B1870704700BF7564004000000000FEB5494652465B460EB40746244909688A46244A12682448022100F071F8030020480068C018204900F06AF814388346AE
:402C40000121C9430C460125002600F041F8814651460B7823400B705846013000F030F83800F04028400B78234003430B70584600F026F80136072EF2D9002001300138D5
:402C8000013001200B78234003430B705846043000F016F8484600F01FF800BF00BF00BF0EBC894692469B46FEBD00BFAFF30080D480FF1FF480FF1F00C2010000000000C4
:402CC0000230800803D000BF01380046FCD17047EFF3108072B6704780F31088704700BF094A137803F00303012B0AD0022B09D113790C2103F07F02044B01FB02339B7A0D
:402D000000E0137900207047006000408886FF1F002902D0B0FBF1F0704708B14FF0FF3000F008B80029F8D00246B0FBF1F000FB11217047704700BF014B1868704700BF0E
:402D40005C81FF1F0E4B70B51E460E4C0025E41AA410A54204D056F8253098470135F8E700F0BAFD084B094C1E46E41AA4100025A54204D056F8253098470135F8E770BDEA
:402D8000E4380000E4380000E4380000EC38000003460244934202D003F8011BFAE7704730B5141E05469BB0184604DA8B232B604FF0FF301DE04FF40273ADF80C300CBFC5
:402DC000234604F1FF33029305934FF6FF7300910491ADF80E3002461E9B6946284600F073F8431CBCBF8B232B6014B1009B00221A701BB030BD000007B5009313460A460E
:402E0000014603480068FFF7CBFF03B05DF804FB5C81FF1F2DE9F0478E6882469E420C46914698463ED88A8912F4906F3AD02568096902236F1A656905EB450595FBF3F57F
:402E40007B1C43449D4238BF1D4653050FD5294600F04AFB064698B13A46216900F0D2FAA38923F4906343F08003A38113E02A4600F098FB064670B92169504600F0E8FA63
:402E80000C23CAF80030A3894FF0FF3043F04003A381BDE8F08726613E44266046466561ED1BA560464528BF464649463246206800F0B3FAA36800209B1BA36023681E44B8
:402EC0002660BDE8F08700002DE9F04F9DB003938B8980461C060D4616460DD50B695BB9402100F001FB2860286118B90C23C8F80030CDE040236B610023099320238DF832
:402F00002930DFF89CB130238DF82A3037463C4614F8013B1BB9B7EB060910D003E0252BF9D02746F3E74B46324629464046FFF771FF013000F0A780099B4B4409933B78C5
:402F4000002B00F0A08000234FF0FF3204930793059206938DF853301A930126052221784E4800F041FA671C049B38B14B4A3C46801A06FA00F018430490EFE7D90644BF72
:402F800020228DF853201A0744BF2B228DF8532022782A2A03D0079A00210A200BE0039A111D12680391002A10DA524243F00200079204900BE027463B780134303B092B14
:402FC00003D800FB02320121F5E701B107923B782E2B1ED17B782A2B0AD1039B02371A1D1B680392002BB8BF4FF0FF33059310E0002319460593781C0A2407463A78013093
:40300000303A092A03D804FB01210123F5E703B1059103223978224800F0E6F940B14023CBEB000003FA00F0049B013718430490397806221B487E1C8DF8281000F0D4F991
:4030400088B1194B33B9039B073323F007030833039314E003AB00932A46144B04A94046AFF3008007E003AB00932A460F4B04A9404600F093F8B0F1FF3F824603D0099BEA
:403080005344099342E7AB895B0601D4099801E04FF0FF301DB0BDE8F08F00BFB3380000B9380000BD38000000000000152E00002DE9F04791461F460A698B680646934286
:4030C000B8BF1346C9F8003091F843200C46DDF8208012B10133C9F800302368990642BFD9F800300233C9F80030256815F0060510D104F1190A07E00123524639463046F4
:40310000C04701301AD00135E368D9F800209B1A9D42F1DB94F843302268003318BF012392060FD5E118302081F843005A1C94F845102244023382F8431003E04FF0FF3053
:40314000BDE8F08704F1430239463046C0470130F4D02268D9F80050E36802F00602042A08BF5D1B2269A3680CBF25EAE57500259342C4BF9B1AED184FF000091A344D4582
:4031800009D00123224639463046C0470130D5D009F10109F3E70020BDE8F0872DE9F04317460A7E85B06E2A984606460C460C9B01F1430E00F0AE8011D8632A22D009D8F6
:4031C000002A00F0BB80582A40F0CA8081F84520834955E0642A1ED0692A1CD0C0E0732A00F0B08009D86F2A2ED0702A40F0B8800A6842F020020A603EE0752A24D0782A4A
:403200003AD0ADE01A6801F14205111D1960136884F84230A8E021681A6811F0800F02D0111D196008E011F0400F02F10401196002D0B2F9003000E01368002B3CDA2D224F
:403240005B4284F8432037E021681A6811F0800F02D0111D196007E011F0400F02F10401196001D0138800E01368227E5C496F2A14BF0A2208221BE078225A4984F8452018
:403280002268186812F0800F00F104051D6003D1550601D5038800E00368D00744BF42F0200222601BB9226822F0200222601022002084F8430001E049490A226568002DB3
:4032C000A56008DB206820F0040020602BB9002D7DD175460CE0002B79D07546B3FBF2F002FB1033CB5C05F8013D03460028F5D1082A0BD12368DA0708D5236962689A42A3
:40330000DEBF302305F8013C05F1FF35C5EB0E0323612EE008681A6810F0800F496903D0101D1860136808E010F0400F02F104001860136801D0198000E019600023236135
:40334000754616E01A68111D1960156800216268284600F049F808B1401B6060636804E004F1420584F8422001232361002384F84330CDF800803B4603AA21463046FFF7CF
:4033800097FE013002D14FF0FF3026E023692A4639463046C0470130F5D023689B0710D5002504F1190907E001234A4639463046C0470130E7D00135E368039A9B1A9D4293
:4033C000F2DBE068039B9842B8BF184605E00B7804F1420584F842308AE705B0BDE8F08365370000C438000010B5C9B202449042034605D01C7801308C42F8D1184610BD06
:40340000002010BD10B5431E0A44914204D011F8014B03F8014FF8E710BD884210B501EB020301D8421E0BE09842FBD28118D21AD34204D013F8014D01F8014DF8E710BD33
:40344000994204D011F8014B02F8014FF8E710BD38B50546002944D051F8043C0C1F002BB8BFE41800F0D4F81E4A1368114613B96360146030E0A3420DD92268A0188342B0
:4034800001BF18685B681218226063600C6023E0A24203D813465A68002AF9D118681918A1420BD12168014458188242196013D110685268014419605A600DE002D90C23ED
:4034C0002B6009E021686018824201BF106852680918216062605C602846BDE8384000F098B838BD6886FF1F70B5CD1C25F0030508350C2D38BF0C25002D064601DBA942AC
:4035000002D90C23336046E000F082F8234B1C681A462146A1B10B685B1B0ED40B2B03D90B60CC18CD501EE08C420BBF63684B681360636018BF0C4615E00C464968E9E7CF
:40354000174C23681BB9304600F052F820602946304600F04DF8431C18D0C41C24F00304A0420DD12560304600F053F804F10B00231D20F00700C31A0ED05A42E25070BDFA
:40358000211A304600F034F80130EBD10C233360304600F03EF8002070BD00BF6886FF1F6486FF1FF8B5074615460E4621B91146BDE8F840FFF798BF1AB9FFF749FF284650
:4035C000F8BD00F027F885420ED929463846FFF78BFF044650B131462A46FFF713FF31463846FFF735FF01E03046F8BD2046F8BD38B5064C0023054608462360FDF744FDB9
:40360000431C02D1236803B12B6038BD3887FF1F7047704751F8040C0028BEBF091851F8043CC0180438704700000000050209020B020D020F02110213027265706C792028
:4036400030782530327800686F6D696E6700626567696E6E696E67207365656B2066726F6D20256420746F2025640066696E6973686564207365656B0057616974696E679A
:4036800020666F72205553422E2E2E0055534220726561647900636F6D6D616E642030782530327800756E64657272756E206166746572202564207061636B65747300638E
:4036C0006F756E743D256420693D256420643D256400636D645F777269746500703D25642063723D25642063773D256420663D256420773D256420696E6465783D2564206F
:40370000756E64657272756E3D25640077726974652066696E69736865640073746172742065726173696E670073746F702065726173696E670069646C6500005100401076
:403740000040510040300000000140001000140140000800400140000A004C0140000200500140200030313233343536373839414243444546000001000000040000001018
:4037800000010000000400000010000028000000000104000100000000000000000157494E5553420000303030303100000000000000000012034D0053004600540031007C
:4037C000300030000100000001000000D0370000010000009F380000000000000000000001000000E83700000100000071380000040000000A380000000000000000000078
:403800000000000008380000FF00000001024000FF00000082024000FF00000003034000FF00000084034000FF00020304030904160346006C007500780045006E0067004E
:4038400069006E0065002A0343006F0077006C00610072006B00200054006500630068006E006F006C006F0067006900650073000009022E0001010080320904000004FF0B
:4038800000000107050102400000070582024000000705030340000A0705840340000A12010002FF0001080912006E0100020180014300232D302B2000686C4C0065666724
:4038C000454647003031323334353637383961626364656600000000F8B500BFF8BC08BC9E4670475900000005110000F8B500BFF8BC08BC9E4670473500000010390000A9
:40390000C880FF1F98000000E005000000000000000000004087FF1FFF000000675000400C000000070000007F800000030000000000007D00FA0000400000000090D0039A
:40394000FF0000000000000000000000000000000000000000000000000000000000000000000000B13800000000000000000000000000000000000000000000000000005F
:40398000000000000000000000000000000000000000000000000000000000000000000000000000FC80FF1F0000000000000000000000000000000000000000000000006D
:4039C00000000000000000000000000000000000000000000000000000000000000000000000000000000000000000000000000000000000000000000000000000000000C7
:403A00000000000000000000000000000000000000000000000000000000000000000000000000000000000000000000000000000000000000000000000000000000000086
:403A40000000000000000000000000000000000000000000000000000000000000000000000000000000000000000000000000000000000000000000000000000000000046
:403A80000000000000000000000000000000000000000000000000000000000000000000000000000000000000000000000000000000000000000000000000000000000006
:020000040003F7
:0200000480007A
:400000000145004008520040015B0040016400404E000140360101404C02014058030140510401405A050140510601405A070140520801405F0901405E0A01405A0B01402A
:40004000490C01404F0D0140480E0140330F01404A140140591501404B160140501701404D18014065190140441A0140601B01400C4001400F41014010420140074301409F
:40008000064401400A450140084601400C470140094801400E490140144C01400A4D014008500140045101407E0208420901118018011902600361067C4027212A0A0003D2
:4000C000010203010403050207010A010B050C030D071003130115021603170118031B061C031D0721022202230124032707280329022B012C032D022F01310734033E102A
:400100003F015608580459045B045D905F01814882028302850186028A028B088D0F8E028F809202931095019602970899209A029E089F07A202A504A604A748A801A9E0C5
:40014000ADE0AE10B01FB3E0B71FB802B908BE01D804D904DB04DC90DF0100040102020103040440051406800A010B640D400F9410201140131215441608172519201F01CE
:4001800022022640272029112A802B202D202F21318432203302364A372039403A013B143D443E013F10588062406D80864488808F04C0FFC2FFC4FFCA7FCCFFCEFFD608AF
:4001C000D808E008E6080220040106080A400E080F05140118841A281C281E8220202607290C2A102B032C0F2D032F0C310432803308341F35013660370239AA3A803E04C0
:400200003F55420346E0480849FF4AFF4BFF4F83580459045A045B045C095D095F01810182018310840188018B058C018D0A8E02900196019801990D9C01A001A202A40149
:40024000A801AC01AD10B10CB310B403B503B710BE10BF44D804D90BDB04DC90DF01000501400308048005200620078009900B600D040E09104012011314154617201920D1
:400280001D481E042002214522182302242025012680270829402C022E10321034403540378039123A403D8042204304450857105D045EA664826604670869406C026E1042
:4002C00078018080821887088A8191119208944495C0960197749A489D179E819F07A140A240A304A420A580A628A772AB10B111C0FFC2EFC4FFCA38CC04CE1DD040D6F06E
:40030000D8F0DE01E008E292E404E640EE4000170503061E071009020A110B0D0D0F0E110F4011011211130215031611172019081A171B321E111F802031220226112770EC
:4003400028112A242C112D322E082F043010330F340F35F036203A203B203E41580459045C995F018107824083208401862887098A078B098C808F0D9208930B9716980471
:400380009A289B099C089E029F09A001A309A610A73FAB09ACAFAD3FB21FB303B480B505B660B738BF54D804D904DB04DC09DF01004602400308041A054009600B500E094C
:4003C0000F801020114212081540170A180519201A801B101C121DA01E291F30202021102314240227282A482D602E022F2031203248330234083510364A380839403B101F
:400400003E093F9459015B0161046320650167406C026D106E10802081128202854088028C508D108E80902091C1920894C59603977C9B029C039D179E859F25A080A208BF
:40044000A304A428A590A635A76AA880B001B408B541C0FFC2DFC4BFCAFACCFFCEFEE24FE6C0EA140008020203100440070808200B070D200F401140121013201501160749
:40048000180419011A081B081EE01F8020012148230224012504260827482A082C0F2D0F30203120321F331F34803520364037C03B803E413F115608580459045B045C9932
:4004C0005D905F018001830187038B018D1F90CC922293019644971E98889B1F9CF19D1FA211A311A709A8AAAA44AB05AE22AF01B0F0B109B305B511B60FB703BF55D80BBD
:40050000D904DC09DF0101020484064107080A9A0D090E080F01108A15401608170619021A021C441D081EC01F46202A21012418254126A0271429192A0A2B1A2D402E01C9
:400540002F203180320A332135023628374039403A013B143C123D803F04460447105F40640165806701780188428D018E2491E19239933494489602970898889A419B026A
:400580009C039D519E069F04A082A180A20EA374A408A501A661A70AAA11AB40AC90B130B620C078C2FFC4FBCADFCCFFCEFFD610D810DE01E808EA84EE06004001100382EC
:4005C000040105D7080F0B710C040DD70E0811C312101328142015D71A071BD71C201DD720012117220825D7260828082A022BD72C202D102F0C304031C03220330F341FD2
:40060000362037303ACC3E013F45580459045B045C095F0183028501861289088F01930494109501960C9B019C329D019E04A012A110A412A701A812A910AA08AC01AD0135
:40064000B010B110B20EB307B420B601B708BB08BE40BF41D804D904DB04DC99DF0101C0031105100682072008010AA00B020E150F40100212A414801608178819221A202E
:400680001B421C421D401E241F5020802106220423112421278029A62C042D082E402F403285331036A43701380139143A403C043D823F3045024640584059405C406802D5
:4006C0007F03850187108A108B108C808E028F09900291349251943495439680978C98029C359D459E099F44A148A2A8A380A4EDA512A602A734AA80AB10AE01AF02B010E2
:40070000B380B520C0F4C2F5C4FFCAFFCCFFCEFFD610E050E2A0E440E890EC800002010104020501080809080A010C100F021002130114021501180219011C021D01200334
:4007400022042301241C2501260329012A022C022F04301F310733083401350739223E113F0440234620480849FF4AFF4BFF4D204EF05110580459045A045B045C905D0901
:400780005F0161086240634064806640674082018406871188068A018B778C018E0C920194069511978898019A069BE19E029F0EA007A111A344A406A577A911AA06AB22E2
:4007C000AC03AE08AF11B10FB20FB3F0BB0ABE04D804D904DC90DF0100940101041405400740086009080B800C400D1A1004110412A21424154017011A041B011E10211454
:4008000022312340248027B029152B012D222E082F0230A9340837A039463A023B203C203F084104420453105E805F4061106304680269107C807E02804287308A088F8006
:40084000900292419434956096A0970C984A99029B019CB49D459E039F04A148A280A4EDA512A668A7B0A904AB40B005B103B304B408B610C0FFC2FFC4FFCAFFCC7FCE6F68
:40088000D006E248E482E610E8C0EC10000103070510060209070A3F0E3F0F101184123F1620172119071A101D071E08203F234225C626042721283F29A52B422C3F2F08FE
:4008C00033F035E0363F370F3B803E403F10580459045C905F01800181088401870289038A018B0C8C018D0F8E029104920193109401970F980199089D089E01A001A31819
:40090000A401A701A801A908AC01AD08AE02B10FB603B710BE40BF41D804D904DF0100180341041005550610072009800AA00B040CA80D0210A0114013201520160217453E
:4009400019801E0121802201240B250426802701282129012A102D802E102FA03090310A340235103648381439403A023C013D203E083F8058405A4078207B0482048A0879
:400980008C048E019240943695419622970C98029C849D059E02A148A4E9A502A6A4A714AF40B104B210C0FFC2FFC4FFCAFFCCFFCEFFE028E212E640EA80EEC202040303DB
:4009C00004060503085609030A210C060D030E781201130414111503162618061B031D031E0220072208230226012701284029032A062C7F2F08307F330F3E015804590435
:400A00005C905F0180018308860487048A028B3F8E018F3F90109101960897029808993F9D3F9E01A001A13FA401A710AA01AB20AC01AF3FB007B218B53FBA02BF10D6086E
:400A4000D804D904DB04DC09DD90DF0100160202046A084009020A200B0A0C820E28102411401280146015501B011E601F01210C240828802B152CA82F013108329134208F
:400A8000350536A0381439413CD03D103E023F045F40640265408402854089488A028F01C0FFC2FFC4FFCAFFCCFFCEFFD610D810E2600105020F0404052C07020A020B0579
:400AC0000C080D1010011105140815131720180319081A0C1B021C081D052008210F2310240F2505280829052D052E08313F360F3E403F01580459045B045F018101820EB3
:400B00008302850189018AE18D018E1191019211950196119A779B019C779D01A101A211A411A622A701A811A901AA44AC11AD01AE88AF02B00FB103B4F0BA22BF01D8040C
:400B4000D904DC09DF0101220210030205110701082009840B800E090F901020110212051408154217041B801D111E802080274028802AA02B102D402E012F1430013188B9
:400B800033223508366238283A023B803F9662806302651067086802802481208440882089088B2090209142920193B4940897089889990A9AB79B059D119F40A185A2A615
:400BC000A350A402A508A780A810A901AA85AB10AC01AE20B081B102B340B410B520B702C0DFC2FFC4FFCAFFCCFFCEFFE002E605E820EA0DEC08EE0302010540060107A06D
:400C00000A010B100D4F0E010F80120113071541160119411A071B081C071D202168220123022504260227682A012B082E042F40311F35E036073B203E40580459045C902C
:400C40005F0182048308850E86088A028B018C038F0E912E920393419403957F9803990F9B109E039F04A121A201A34EA403A701A803AB02AC10AD0EAF70B00FB210B57F51
:400C8000BE04BF10D804D904DB04DC09DF010048038804800519088009200A200B800D010E490F101086110415A01705185019021B011D40200824042601270828A02B05D1
:400CC0002E412F14304431083210330235803629380839053A103B803C243D4068096A808308858088288A028D04908091E1926193B49680974098C899889A109B059D5190
:400D00009F48A010A2AEA344A408A601A840A9C0AE10B004B340B540C0FFC2FFC4FFCAFFCCFFCE7FE603E801EA02EC05EE08001B02200310041B05070660081309070C10F6
:400D40000DA50E060F421013118414131721180819071A431C131F08207922042342241025C6260127212A132C132D073078331F340735E03E115608580459045B045C90F5
:400D80005D905F01820384A9880C89018A408C309080948098809C80A080A43DA6C0A880AC56B2FFB501BE04BF10C004C7ECC830C9FFCAFFCBFFD004D601D804D904DA04A3
:400DC000DB04DD09DF01E2C00094028004820718086009080A400C400D180E40100211061220131014041508160217011A101E801F10221024102514260427102C022FA098
:400E00003402364837103A103DA43E0143024E044F20520559405A245B045D405E206690682D69136A886B4070807115720473447810791081018501861089508C809002F2
:400E4000912892409310941495029682970C98469C309D0D9E859F55A040A10AA2A8A382A4ACA511A606A720AA08AB64AD02B004B340B510C0FFC2FFC4FFCAD0CCF0CEF435
:400E8000D001D63CD830E280E420E648E864EC80EE08000203080402073F0802093F0C040D011001133F153F160318021B3F1C031D3F200223202402271028022B022E0234
:400EC0002F043004313F36033E413F015608580459045B045D905F01803F81028602870289028A208E3F8F029102923F943F9A109B029D029E04A208A308A43FA704A9012E
:400F0000AA3FAC01AD01B10EB501B63FBB22BE40D804D904DB04DC90DF01000201480208048005040604074009460A040CA40D0210201111120513401502162117101A4169
:400F40001F8022012484250126222708288429102A402B102C012E102F90310632803350351036803701392A3A203B403C803D0A3E20598C614069406C026D806F0182649E
:400F800084818608888589808B01913B921493609484960399149A409B109D409F09A0E5A106A284A310A402A501A602A820A905AC80AE40AF20B020B10CB206B304B544E2
:400FC000C0FFC2FFC4FFCAFFCCBFCEFFD608D808E004E280E620E890EEE21280170432403304368037083A013B403C10C430CCF0CE70320233803408358086028B048E4142
:40100000968097409E01A810B708CCF0E240EE8053045580800285808A408C088E40930897409C089D80A180A780B580D460E2309240974098209A40A002A780B020148024
:4010400070028901C404DC01E20461208402860495029640A402AC80B640D802EE021A4087188F0495029644A520C608E20208080A040F188E02950296049710A308A520C8
:40108000A704C20FE40826409240974098209A40A002AF80C820EE105640582072407402924098209A40A002AF40B240D4C0DC80DE20EE4005100B100C400D011F1050101E
:4010C000520257085E0284409502A202A308A920AC08C001C20DC601D407D60180108B1093109420AF10B510B601E601E808EA02010109010B010D010F0111011B011D01AB
:4011000000FF01AB02021005BF0000A09F001F000000000000000000100000004000000000000000C0000000FF0000B84700470000010000800000008000800000000000F8
:4011400000030300030000002700180127001801000100000000000000000000000000000000000000000000000000000000000000000000000000000000000000000000E5
:40118000000000000000000000000000000000000000000000000000000000000000000000000000000000000000000000000000000000000000000000000000000000002F
:4011C00000000000000000000000000000000000000000000000000000000000000000000000000000000000000000000000000000000000000000000000000000000000EF
:4012000000000000000000000000000000000000000000000000000000000000000000000000000000000000000000000000000000000000000000000000000000000000AE
:40124000000000000000000000000000000000000000000000000000000000000000000000000000000000000000000000000000000000000000000000000000000000006E
:0200000490006A
:0400000000000007F5
:0200000490105A
:04000000BC90ACAF55
:0200000490303A
:0200000093CE9D
:0200000490402A
:4000000000000000000000000000000000000000000000000000000000000000000000000000000000000000000000000000000000000000000000000000000000000000C0
:400040000000000000000000000000000000000000000000000000000000000000000000000000000000000000000000000000000000000000000000000000000000000080
:400080000000000000000000000000000000000000000000000000000000000000000000000000000000000000000000000000000000000000000000000000000000000040
:4000C0000000000000000000000000000000000000000000000000000000000000000000000000000000000000000000000000000000000000000000000000000000000000
:0200000490501A
:0C00000000012E16106900002E30A437FD
:00000001FF