:400000000080002011000000950F0000950F0000064A08B5136843F020031360044B1A6803F53F5302331A6000F0D2FFE8460040FA46004010B5054C237833B9044B13B10D
:400040000448AFF300800123237010BD6081FF1F0000000008380000084B10B51BB108490848AFF300800848036803B910BD074B002BFBD0BDE81040184700BF0000000009
:400080006481FF1F08380000C880FF1F0000000072B6034A13680133136062B6704700BF8081FF1F0A4A0B4B516801310B40002BBEBF03F1FF3363F00F03013353605168A0
:4000C0009368994202BF024B01221A73704700BF8081FF1F0F0000800A4A0B4B916801310B40002BBEBF03F1FF3363F00F030133936091685368994202BF024B01221A7381
:40010000704700BF8081FF1F0F000080024B012200205A7302F032B98081FF1F10B5C4B2204601F017F90128FAD110BD70B5C4B220460E4601F016F931460546024620461A
:4001400001F0D2F9204601F005F90128FAD0284670BD000038B5094CA57B3DB9012002F073F84FF47A7002F0C1FAE573236823610123A373BDE8384002F0F6BA8081FF1FB1
:4001800038B50446C5B2284602F06AF8062002F0C3FA44F00200C0B202F062F8062002F0BBFA284602F05CF8BDE83840062002F09DBA000038B5044D0024285D013402F0EB
:4001C0005BFA102CF9D138BD9481FF1F08B502F077FC002002F080FC02F092FC02F09CFC80B208BD10B50446012002F0F9FD642002F07CFAFFF7EAFF2080002002F0F0FD49
:40020000642002F073FAFFF7E1FF608010BD08B502F080FD002002F089FD02F09BFD02F0A5FD80B208BD0FB400B593B014AB53F8042B402102A8019302F0D8FE02A802F088
:40024000B0F802F0BAF813B05DF804EB04B0704710B5044601780648FFF7E5FF0420FFF75DFF62782146BDE81040042001F0CAB81A38000007B50023ADF804308DF8060038
:40028000032301A88DF80530FFF7E2FF03B05DF804FB0000F8B5214C0646FFF75BFFE37B93B91F48FFF7BFFF01F0D4FF18B90120FFF766FFF8E70120FFF762FF01200023B0
:4002C000E073636202F028FA3246616A1548FFF7AAFF124D0027636A9E4216D001F0BAFF00B16F62636A9E4205DD0020FFF748FF6B6A013305E005DA0120FFF741FF6B6A69
:40030000013B6B6202F030FAE5E7322002F0EEF9BDE8F8400448FFF786BF00BF8081FF1F273800002E3800004B38000010B504460020FFF7AFFFC82002F0D8F9FFF767FF3D
:4003400020800120FFF7A6FFC82002F0CFF9FFF75EFF608010BD000010B5044CA37B23B1002001F071FF0023A37310BD8081FF1F10B5094C94F8283083420CD084F828008F
:4003800000F0010002F000F894F82800400802F027FD0023E37310BD8081FF1F2DE9F04F9BB062B602F04AFABE49042002F06EFABD4801F05BFFBD4801F08EFFBC4801F0B0
:4003C000BFFF02F01BFC02F0EFFA002001F0DCFF01F0E6FF0221002000F072FFB54D0321084602F0A1F92E462C4602F0BDF9AB7B5BB12A692B689B1A41F28832934204D9BB
:40040000002001F021FF0023AB7300F091FF18B9A948FFF708FF04E000F090FF0028F7D109E000F085FF0028FBD0A448FFF7FBFE032001F0ADF8032000F08CFF0128D4D168
:400440009F490320FFF772FE94F829109D48FFF7EAFE94F82930023B122B00F2A883DFE813F01300A6031C00A6032200A6033A00A6035E00A6039B01A6032803A6034703A4
:40048000A6034D03A603590303238DF828308DF8293008238DF82A3038E394F82B00FFF7F9FE894B2FE3FFF755FE00236373637B002BFCD0002373733268637B002BFCD01F
:4004C000336807218DF828109B1A04218DF82910ADF82A301AE30220FFF720FE4FF000090DF1280A4FF480780027C8EB0903DA1907F80A200137402FF9D10220FFF70EFE68
:400500003A465146022000F07DFFB8F10108EBD109F10109B9F1400FE4D16C4BC4E294F82B0001F0B7FE606AFFF7B4FE012001F031FF02F0BDFC664BDFF898811A78002783
:4005400042F004021A701A7842F001021A701A7802F0FE021A701A7802F0FE021A7002F0ABFC0220FFF7DAFD41F6FF734FF480420121022001F094FE84F8690002F062F81E
:4005800008F807000137102FF8D1DFF84CA100270AF15D081FFA88F90137102F14BF3A4600221AF8010F22440623127D402102F07DF84A4646F246519AF8000002F088F8B8
:4005C00009F14009102F1FFA89F9E5D100237373637B002BFCD00027142239460AA87773DFF8F89002F0CFFC40230D9338464FF0FF337760CDF83090B360377301F0CAFEF2
:40060000736896F869003344197D01F0D3FF96F8690001F091FF012196F8690001F064FF636813B96B7B002BFAD0002794F82CA0A76094F80CB0BBF1000F6AD102F094F87F
:400640006B7B43B1BAF1010A85F80DB003D160E02B7B002B5DD1A26863689A42F8D04FF0000BA3680AA808EB83135B440A93CBF140030B9300F0BAFA0B9B0137C3F1400342
:400680009B440D9B5FFA8BFB9BBB022000F062FE012825D0637B002B3BD12B7B002BF4D037E000BF910000000D010000A5000000D90000008081FF1F593800006C380000FD
:4006C000A981FF1F763800000C3800000E380000966500409481FF1F9381FF1FF085FF1F4022BA49022000F08DFE4023CDF830900D93BBF13F0FB4D9A268B54B01321340A6
:40070000002BBEBF03F1FF3363F00F030133A3608FE7042194F8690001F058FF94F8690001F064FF0028F9D10AA800F093FA0220FFF7F4FCDDF83480B8F1400F06D0C8F1F5
:40074000400292B2A149022000F05CFE0D9A32F0400203D11146022000F054FE0220FFF7DDFCFFF727FD237B33B19A48FFF75BFD0220FFF77FFD06E0974B09A81B88ADF8F1
:400780002430FFF765FD627B3946237B9348CDF80080FFF748FD0DE29148FFF744FDD4F82D7017F03F0701D0032001E2012001F0A5FD95F82B0001F06DFD02F079FB894BAB
:4007C000DFF824821A7802F0FB021A701A7842F001021A701A7802F0FE021A701A7802F0FE021A7002F068FB686AFFF753FD01214FF4804341F6FF72084601F085FD85F889
:40080000690001F01FFF08F807000137102FF8D1DFF8D891002709F15D031FFA83F807930137102F14BF3A46002219F8010F22440523127D402101F039FF414646F248420D
:4008400099F8000001F044FF08F14008102F1FFA88F8E5D10027BB46B946BA46D6F82D304FF0FF389B09142239460AA877600593C6F80880377302F086FB402301200D931B
:4008800000F086FECDF818806268514B01321340002BBCBF03F1FF3363F00F03A168B8BF01338B4200F0A480BAF1000F07D0237B002B40F0B0806B7B002B40F0AC800B9BE8
:4008C000002B34D1B9F1000F0BD07F223F495A540133402BFAD10A910B9328E0BAF1000F06D1012000F036FD01288046F6D107E0237B002B40F08F806B7B002BF1D08AE0FC
:400900003249FFF713FC8146304B0B9040460A9300F03EFEB9F13F0F07F1010706DD059BDB1BD3F1000949EB030900E0C1460B9BDBB16368079A0AA802EB83120D9BC3F178
:40094000400313440C9300F094F90D9B6BB96A681F4B01321340002BBEBF03F1FF3363F00F030133636040230D93A36801333FD16B680F2B3CD14FF00008C5F8088001F020
:40098000F1FC85F80C80AB6895F869002B44197D01F010FE95F8690001F0CEFD012195F8690001F0A1FD85F80D80637B002BFCD04FF00008012086F80D8001F0DFFC404637
:4009C00001F09CFCCDF8188015E000BFF085FF1F0F00008085380000103800009F380000B8380000986400409481FF1F9381FF1FBAF1000F05D0237B6BB96B7B5BB94FF044
:400A0000010AA368069A93423FF43EAFAB680BF1010B069338E701F0ABFC012001F06EFC002001F0ABFC042194F8690001F0CEFD94F8690001F0DAFD0028F9D196F86900F0
:400A400001F068FD737B327B0293012303920193CDF800905B463A4605995A48FFF7E3FBB9F1000F16D1059BBB420ADD012000F071FC01288046F6D15349FFF757FB3F2876
:400A800003DC012000F098FD04E0404600F080FD0137E8E7FFF78EFB4C48FFF7C4FB237B0BB1022084E04A4B1B8809A8ADF824302DE094F82B0001F0EDFB606AFFF7EAFB07
:400AC0004448FFF7B0FB00236373637B002BFCD0012001F053FC00237373637B002BFCD0002001F04BFC3C48FFF79DFB3B4B0AE00020E073FFF7CEFB394B04E094F82B0091
:400B0000FFF736FC374B1B88ADF828300AA8FFF79FFB4FE0FFF720FC02F0EEF8002002F091F81A2701F0BEFF002001F061FF3A4600210AA802F027FA152300208DF828307A
:400B40008DF82970FFF714FC4FF4FA7001F0CEFD0DF12A00FFF746FB0DF13600FFF7E6FB0020FFF705FCFFF7F5FA4FF4FA7001F0BDFD0DF12E00FFF735FB0DF13A00FFF7AA
:400B8000D5FB0120FFF7F4FB4FF4FA7001F0AEFD0DF13200FFF726FB0DF13E00FFF7C6FBFFF7DAFB02F02AF801F0FEFEAEE70120FFF760FB032000F0EBFC0B48FFF733FB98
:400BC00013E400BFC2380000F085FF1FF238000012380000013900000F3900001438000016380000183800001C39000010B54268002A2ED0C368002B2BD00368048A591C27
:400C000001601B78013A13F0800F817C42601DBF03F0010242EA84030231083114BF43F0020343EA0423817414BF03820382837C072BDCD9028A083B42FA03F38268511CF4
:400C400081601370C368013BC360837C083B8374CDE710BD07B5827C42B102AA002102F8011D026001224260FFF7C0FF03B05DF804FB30B543686BB3C2685AB3827C072A43
:400C80000CD8046890F91050611C01602178013B41EA05210832018243608274827C018AA2F108042141CBB2090608D5C3F3801363F07F03023A03F08103827402E084740D
:400CC000002BD7D08268511C81601370C368013BC360CFE730BD00002DE9F04172B6874B61221A70A3F5F06301221A801924844A9C7092E803008033062283F8002283E8CD
:400D00000300522203F580731A707E4B7E4A1B787E4EDBB2137040F618027D4B00251A8041F2512223F8022C33784FF4F07003F0010343EA450502F0B3F8013C05F003056E
:400D40002ED0032DF0D1734B4FF480721A8007221A70714A002548211570917002221D705D7103F8032C0422DA716C4A6C4C13786C4E43F00103137012F8013C062743F047
:400D8000030302F8013C2378012243F0800323705A4B1A70644A137843F02003137000E0FEE707FB056300219A881868013502F0EAF8082DF5D180225C495D4802F0D8F809
:400DC0005C4E5D48002550F8041F05F1105303F14C0221F0FF074D33C9B20B4452005B0002329A4206D012F802EC12F801CC0EF807C0F5E7B0420D44E5D1504A00231360E4
:400E00009360136193614E4B4E4F1A684E4BDFF880811A604D4B1A684D4B1A604D4A137843F002031370137C43F0020313742378A2F5863243F040032370413A137843F031
:400E400010031370444A454B07CA03C31A80444A2833106843F8250C127903F8212C414A07CA03C31A80404AE83B07CA03C31A803E4A083307CA03C31A803D4A0A20137823
:400E800043F0080313703B4B02F5AA521B783D78DBB298F80060EDB203F007010C321B091170F6B2537045F003033B7046F0030388F80030304B082280211A7019742F49A4
:400EC00040230B708B700B728B722D4B1A70202381F8223281F827222A4A137001F01CFC294B88F8006044223D70284D1A7094E80F0007C52B80BDE8F08100BF0048004006
:400F00000C0C00480F010049A146004025420040224200400440004006400040A2430040A043004021390000E8460040540B00480016014094000048FCFFFF47007600409B
:400F4000140C0048F846004020760040180C00482876004003500140D40B0048C0510040E00B0048E80B0048F40B0048000C004822430040CF0100491D5100400159004050
:400F8000205B00402B5B004076580040B0430040F946004008B501F0BFFF03680C2B00D1FEE7FEE7084908B50B68084A1844821A802A01DC086005E001F0AEFF0C23036078
:400FC0004FF0FF33184608BDCC80FF1F4087FF1F80B51148114B0025C0B1A3F1100192C922460439161BB74204D051F8046F42F8046BF7E7114653F8046C8C1AA64202D036
:4010000041F8045BF9E701381033E5E701F08AFFFFF7C4F9FEE700BF01000000F83A0000124A134B10B51A60124A134C1368134843F4007313600023032B98BF54F823200E
:401040004FEA830188BF0E4A0133302B4250F3D10C4B1A780C4B1A700C4B084A1A60FFF73BFEBDE8104001F029BA00BF0004FA050CED00E014ED00E0000000000080FF1F30
:40108000950F0000BC760040C080FF1F08ED00E0F8B501F00DFF4B4A01271378022643F001031370137C484C43F001031374474B02F5E3521F700B3203F8946C13780546D7
:4010C00003F07F031370002001F026FB2378404A03F0F90323701378384603F0DF03137023783B43237001F017FB282001F014FB384B30461A7802F07F021A701A7802F0BB
:40110000BF021A7023783343237001F005FB2378314A43F0040323700023137053702F4AFF2199540133092BFBD1284601F0C4FE0721172001F038FB2949172001F026FB6A
:401140000721182001F030FB2649182001F01EFB0721152001F028FB2349152001F016FB0721052001F020FB2049052001F00EFB0721062001F018FB1D49062001F006FB7D
:401180000721084601F010FB1A49072001F0FEFA0721082001F008FB1749082001F0F6FA0021162001F000FB1449162001F0EEFA07210C2001F0F8FABDE8F84010490C2055
:4011C00001F0E4BAA5430040944300409D60004012600040F8510040846000406586FF1F5F1A0000991800005D1A000091190000BD190000ED190000251A0000651A000097
:40120000D91A0000214B224A10B5187000231370204A40201370204A0F2413701F4A13701F4A13701F4A13701F4A13701F4B4FF400021A604FF080721A604FF400121A6030
:4012400020221A601860802018604FF480701860174804704FF480001860164B1A70933B19B91A7802F0FE0202E01A7842F001021A70114B03221A70802203F8202C012012
:4012800001F00EFE0D4B04221A7010BD8086FF1F8686FF1F8486FF1F8586FF1F8186FF1F7086FF1F8386FF1FF886FF1F00E100E09E6000409C60004028600040126000400C
:4012C00070B5074C054623780E461BB9FFF7E0FE0123237031462846BDE87040FFF792BF3086FF1F0A4A002313700A4A13700A4A13700A4A13700A4A13700A4A13700A4A07
:4013000013700A4B03221A70802203F8202C70478686FF1F8486FF1F8586FF1F8186FF1F7086FF1F8386FF1FF886FF1F28600040014B1878704700BF8586FF1F044B1A78EB
:4013400002F0FF001AB118780022C0B21A7070478486FF1F024A0C2303FB0020407870478C86FF1F431E072B0CD8074A064B00010344805C5B7800F00F0043EA0020023856
:4013800080B2704700207047FC5F00401A4A38B50C2303FB00231B79090C13F0800F00F1FF35044619BF8AB24FF480438BB24FF48042032D18D8DFE805F002070C11002108
:4013C000084601F057F80DE00021084601F036F808E00021084601F015F803E00021084600F0F4FF054B1855EDB2072D03D801F029F9034B185538BD8C86FF1F5C86FF1FFC
:401400006586FF1F431E072B2DE9F0470446894615465CD82F4F0C2202FB0072D388DFF8B8A09BB2C3F500739D424FF00C0303FB007388BFD588DB7884BFC5F50075ADB298
:40144000254A43EA15230601B354B244EBB28AF80130224B1A5C9846FF2A01D1FFF796FF0C2303FB047200215170B9F1000F28D03DB31B4F385D01F04DF811232946FE22DF
:4014800018F8040001F012F906F5C04278321FFA89F118F8040001F01BF9124D18F80410385D01F087F80121385D01F01DF8735D43F002037355735D03F0FD037355BDE884
:4014C000F08703FB04746379DBB28AF80230BDE8F08700BF8C86FF1FFC5F00406586FF1F5C86FF1F706000402DE9F047044615468846002940D0431E072B3FD8FFF732FF59
:40150000A84203D22046FFF72DFF05461D4E335DFF2B03D141462046FFF738FFDFF868A027011AF8040000F0F5FF1223FE222946305D01F0BBF807F5C0411FFA88F27831D7
:40154000305D01F0C5F8DFF84490315D1AF8040001F030F801211AF8040000F0C5FF17F8093043F0020307F8093017F8093003F0FD0307F8093002E00D4600E00025284609
:40158000BDE8F0876586FF1F5C86FF1F70600040431E072B0AD8064A0C2303FB002300225A705A79034BD2B200011A54704700BF8C86FF1FFE5F0040431E072B9FBF024B60
:4015C000000108221A547047FE5F004030B51A4A1A491B4D0878138803449BB21380194A00231488D8B2A4B27CB1082B0CD050680078C0B2E8545068013301305060108827
:40160000013880B21080ECE718460B780E4C082B0E4A00D040B10E4D2B7883F080032B700F232370022301E0022323701370094B1870087030BD00BFFC86FF1FF886FF1F84
:40164000006000407486FF1F7186FF1F8686FF1F8286FF1FF986FF1F074B02221A70074B80221A70064B0F221A70064A00231370054A0120137070478686FF1F8286FF1F36
:401680007186FF1FF886FF1FF986FF1F30B5164B16491B780A8803F00F03023BDBB21A4492B20A80124C134A0020118889B279B173B15568215C013BC9B229705168DBB24A
:4016C0000131516011880130013989B21180ECE7094A1370094A137883F080031370084B0B221A7030BD00BF29600040FC86FF1F006000407486FF1FF986FF1F8286FF1F9D
:401700007186FF1F064A06231370064A01201370054B80221A70054B00221A70704700BF8686FF1F7186FF1F8286FF1FF986FF1F054B9A683AB19A68044910709A68098815
:40174000518000229A6070477486FF1FFC86FF1F08B5124B1A78D2B21A701B78DBB21A0602D50F4A137008BD0220FFF7E1FF0D4B1B7803F06003202B05D0402B06D043B905
:4017800000F012FC04E001F09BFB01E000F046FD10B9034B03221A7008BD00BF286000407186FF1F0060004008B5084A084B0120197813880B449BB21380064B00221A700A
:4017C000FFF7B6FF044B03221A7008BDFC86FF1FF886FF1F8686FF1F7186FF1F08B50C4B1B78DBB2042B07D0062B09D0022B0DD1BDE80840FFF7D8BFBDE80840FFF746BF4F
:401800000320FFF795FF034B03221A7008BD00BF8686FF1F7186FF1F08B5054B002201201A70FFF785FF034B03221A7008BD00BF8686FF1F7186FF1F08B50A4B1A7832B1A0
:401840001A78094942F080020A7000221A70074B002201201A70FFF76BFF054B03221A7008BD00BF7086FF1F086000408686FF1F7186FF1F074B1B78DBB2042B05D0062B06
:4018800005D0022B05D1FFF7A1BEFFF7C5BFFFF7D3BF70478686FF1F38B51D4C2378DBB2DD0634D518060AD503F00F03012B2ED1FFF74EFF174B1B78190609D538BD5A06F7
:4018C00002D5FFF7D7FF03E09D0620D5FFF786FF23781B061BD4104B1A78104B1B7813430F4A13701278934211D10A4A0849154613782078DBB2000605D41378DBB20B7034
:401900000B7803F00F0328788342F1D138BD38BD286000407186FF1F8286FF1FF986FF1F29600040054A00231380054A916819B191680B7092685380704700BFFC86FF1F37
:401940007486FF1F0E4808B503889BB213B9FFF783FE13E00B4B02221A700B4B00221A70FFF7E0FF094AD1799379028843EA012392B2934238BF0380FFF728FE012008BD3A
:401980007486FF1F8686FF1F8286FF1F00600040084B01221A700F3B9B7C074B1A7B02F00302012A1EBFDA7B82F08002DA7301225A7370470B6000408C86FF1F094B022248
:4019C0001A700F3B93F82230074B1A7E02F00302012A1EBFDA7E82F08002DA7601225A76704700BF0B6000408C86FF1F0B4B04221A700F3B93F83230094B93F8242002F01B
:401A00000302012A1EBF93F8272082F0800283F82720012283F82520704700BF0B6000408C86FF1F0B4B08221A700F3B93F84230094B93F8302002F00302012A1EBF93F8D3
:401A4000332082F0800283F83320012283F83120704700BF0B6000408C86FF1F7047FFF741BC0000F0B5184B184E19780C27C9B201234FF0000C31B3CA0720D5144A4FEA0A
:401A8000031E7244947850782040C5070DD507FB03652C79240608D5147804F0FE0414706D790C4CEDB204F80E50840706D507FB036425792D0658BF84F801C090700133F2
:401AC000DBB24908D7E7F0BD9F6000408C86FF1F70600040FE5F004000F0E8BC70B50446184B88B003AA03F11006154618685968083303C5B3422A46F7D11B782B70FCB185
:401B00002223237001AD03232846637000F0C6FE002220461146AB5C08AC04EB131414F8144C03F00F03847008AC234413F8143C0132082AC1700371417100F10400EAD10D
:401B400008B070BD513900002DE9F0431C4D01222E460C201F274FF0800E4FF0080C194B00FB02581401234418705F70164998F805902144B9F1000F07D098F80440240618
:401B80004CBF887081F802C001E081F802E000FB0261CC880132E4B29C71CC88092AC4F30724DC71CC88E4B21C71C988C1F307215971D4D1054BFF221A70BDE8F08300BF88
:401BC0008C86FF1F70600040FC5F00400A600040064B074A1B7802EBC30253681A7C824286BF03EBC0035869002070478086FF1FB43900002DE9F84F424B1A78002A7ED0D1
:401C00001878414D0138C0B2FFF7E2FFA8463F4AC3681478007ADFF800C1E4B203EBC0000C2600274FF0010E834268D01A78A24263D11CF80420597891425ED19A7893F88A
:401C4000039002F07F0206FB02FA05EB0A01CF7093F802B009F0030981F804B093F803B005F80AB0B3F804A0A1F808A093F902A0BAF1000F0BDAB9F1010F0CBF4FF0070992
:401C80004FF00D0981F8059081F801E009E0B9F1010F0CBF4FF005094FF0090981F805904F704FEA02191A4906FB0282494481F802E0B2F808A0CAF3072A81F800A0B2F867
:401CC00008A05FFA8AFA81F801A0B2F806A011495FFA8AFA494481F806A0B2F80690C9F3072981F80790B2F806905FFA89F981F80490D288C2F307224A71083394E7BDE860
:401D0000F88F00BF8586FF1F8C86FF1F8186FF1FFC5F0040706000407286FF1F08B5064B18780138C0B2FFF753FF20B143681B7900EBC300406908BD8586FF1F00212DE901
:401D4000F84F0B464E4E0C2707FB01F401313219092933554FF000059370494CD3701381937253705371EFD118B1464B1D70464B1D70464B1A78002A7FD01878012501383F
:401D8000C0B2FFF725FFA8464368DFF8F8E0DB790C2713F0400F3E4B4FF0000C1A7814BF42F0010202F0FE021A70027AD20007FB0541C36803EB02094B4531D093F802A014
:401DC0000AF07F06AE4229D10E89B3F804B0B6B25E4538BFA1F808B01E7893F801B01EF80660B3451AD181F804A0DE780E7093F902A0DE78BAF1000F06F0030607DA012EC2
:401E00000CBF07260D264E7181F8018006E0012E0CBF052609264E7181F801C00833CBE70135092DC3D1C1680A328B1C0A440C200833934209D013F8081C13F80A5C01F09E
:401E40007F0100FB01418D72F2E7FFF767FF114B0121186000230C2000FB0142D3801289013113449BB203F00102134409299BB2F2D1BDE8F84FFFF767BEBDE8F88F00BFA9
:401E80008C86FF1F7286FF1FFA86FF1F8586FF1F8386FF1F8886FF1F114B1B7903F07F035A1E072A19D80F490C2202FB031291781B0141F0010191700021D170517841F076
:401EC00002015170127912F0800F074A1A4414BF8D2389239370FFF715BC0020704700BF006000408C86FF1FFC5F004030B4194B1A7902F07F02531E072B27D8164B0C24D8
:401F000004FB02339978154D01F0FE0199700021D97029461201505D114400F07F0050555A7802F0FD025A701A795B78120605D5012B01D18C7006E00D2303E0012B0CBF30
:401F4000082309238B7030BCFFF7DCBB002030BC704700BF006000408C86FF1FFC5F004010B50D4B0D4C21791878C9B20138C0B2FFF72EFE43681B798B4201D2012909D8D7
:401F8000074A0848535CDBB24354A3780120DBB2535410BD002010BD8586FF1F006000407286FF1FFA86FF1F38B58A4A8A4C13780021DBB221801806517840F18D800A293D
:401FC00000F20581DFE811F05D00030103010301030103010B0003017E0003018200D3787C49012B09D17D4B1A787D4B03EBC2035B685B686360122310E0CB78022B12D171
:402000008878FFF7E5FD002800F0E180436863606368DA7863689B7843EA02232380BDE83840FFF78FBCCB78032B26D16D4B00228878D5B2854209D3664A91786A4AEE29A3
:4020400008BF1346634A917881B106E0187801320028F1D018780344EAE764499278097C914203D16248FFF739FD614B1A78002A00F0AD801A78228018E0BDE8384000F0A7
:402080001FBF13F0030313D0022B40F0A0802380504B0C211B7903F07F02564B01FB02339A78554BD2B21A7000225A706360B6E702222280514A11784F4AC9B21170537046
:4020C0006260ACE7012323804D4BEFE70123238013794C4A1344E9E701390A2977D8DFE801F037764F76067676760A7620009378454ADBB25AE0937803F0FF0153B9404B62
:402100001A7891425FD01970404B01201870FFF715FE58E0481EC0B2FFF75AFD0028EED155E0FFF71DFF002851D02A4A384913791279DBB2D2B20A70364A3249D25CCB5C8A
:402140009A4240D0314B01221A70FFF753FD3AE003F00303012B2BD009D3022B37D11D4B9B78002B33D1BDE83840FFF7BFBE194B9B78012B2BD1214A137803F0FD0315E002
:4021800003F00303012B13D008D3022B1FD1114B9B78E3B9BDE83840FFF77EBE0D4B9B78012B14D1154A137843F0020313700AE0084B1A795AB998781B791749DBB2CA5C0A
:4021C00022EA0002CA54BDE83840FFF79BBA002038BD00BF006000407486FF1F8086FF1FB4390000183A0000A03900008B3A00001887FF1F8C86FF1F3186FF1F8386FF1FD5
:402200008586FF1F7286FF1F7086FF1F8486FF1F8186FF1FFA86FF1F8786FF1F074B1A78120609D55B78012B06D1054B054A5A6012781A80FFF786BB00207047006000405A
:402240007486FF1F78390000014B1870704700BF79640040014B1878704700BF68640040014B1870704700BF76640040074A0223136002F688321268E0215064044A1170D3
:402280006FF440710A441360704700BF80E100E001E400E0014B1870704700BF7A64004073B515461E460B4C04230022019200920A4601461846237000F0A4F932462946BD
:4022C000207800F05FF90221207800F049F9207802B070BDD080FF1F064A0123136002F688321268E0211064034A1170A2F540721360704780E100E000E400E0014B18708A
:40230000704700BF7B65004073B515461E460B4C05230022019200920A4601461846237000F070F932462946207800F02BF90221207800F015F9207802B070BDD180FF1F47
:40234000064A0423136002F688321268E0219064034A1170A2F202321360704780E100E002E400E0014B04221A60704700E100E0014B04221A60704780E100E0014B18706F
:40238000704700BF7E640040014B1870704700BF77640040014B1870704700BF7B640040704738B505460078012428B100F020FD285D0134E4B2F8E738BD08B50D2000F047
:4023C00017FDBDE808400A2000F012BDF7B516461F460B4C00230325019300930A4601462846257000F00EF93A463146207800F0C9F80221207800F0B3F8207803B0F0BD9E
:40240000E080FF1FF7B516461F460B4C00230225019300930A4601462846257000F0F2F83A463146207800F0ADF82946207800F097F8207803B0F0BDE180FF1FF7B516464C
:402440001F460B4C00230125019300930A4601462846257000F0D6F83A463146207800F091F80221207800F07BF8207803B0F0BDE280FF1F73B515461E460B4C0023019345
:4024800000930A4601461846237000F0BBF832462946207800F076F80221207800F060F8207802B070BD00BFE380FF1F024B1878C0F38010704700BF8F450040074A7F232A
:4024C000802113705170064A013BDBB202F80839002BF9D1034A1370704700BFE480FF1FF87B00400078004017280FD8084B0001C25C11B142F0200201E002F0DF02C25403
:40250000C25C42F00102C25400207047012070471070004017280BD8064B0001C25C02F0FE02C254C25C02F0DF02C25400207047012070471070004017280DD8074900013E
:402540000B4603441A7942F004021A71435C43F00103435400207047012070471070004017280BD8064A0001835C490003F0F10301F00E011943815400207047012070472F
:402580001070004041F6FF73994208BF4FF400519A4208BF4FF4005217289FBFC00000F1804000F5EC4081809ABFC280002001207047000017289FBF034B00011954002008
:4025C00088BF0120704700BF1970004017289FBF054B00011A5C01F007019DBF1143195400200120704700BF1470004017289FBF034B0001185C00F0070088BFFF207047CB
:4026000014700040172810B51AD8C00001F07F0100F1804441EAC21204F5EC44D2B222709DF8082003F00F0343EA0213DBB263709DF80C30002003F00F03A370E07010BD32
:40264000012010BD10B500F033FC0A4A5378182B0AD91478013B5370E30003F1804303F5F0431B78137000E0FF2400F025FC204610BD00BFE480FF1F030610B5044611D458
:4026800000F016FC084AE300117803F1804303F5F04319705378147001335370BDE8104000F00ABC10BD00BFE480FF1F30B504060CD411F4704509D1C40004F1804404F517
:4026C000F0442180A270E370284630BD012030BD03065FBFC00000F1804000F5F04081805ABFC280002001207047000038B50446084DB4F5004F05D9286800F0D1FBA4F5DF
:402700000044F6E7034B58686043BDE8384000F0C7BB00BFEC80FF1F024B1B7A584300F0BFBB00BFEC80FF1F0E4B00F003001A78490102F0FC02104318701A7801F06001E8
:4027400042F080021A701A7802F07F021A701A7802F09F020A431A701A7842F010021A70704700BF83430040014B01221A70704784430040044B00F00F021B6853F82200BD
:4027800043F82210704700BF08ED00E0054A00F01F00126800F1100352F8230042F82310704700BF08ED00E000F01F0000F16040490100F56440C9B2017070470F4B10B51B
:4027C0000F4900240F205C609C60DC601C615C61FFF7D0FF0B4A136843F0040313600A4B4FF47A72DB68B3FBF2F3084A1360084B4FF400421C60C3F8E82010BD3486FF1FE3
:402800006928000010E000E0EC80FF1F14E000E018E000E0024A136843F002031360704710E000E008B5FFF7F5FF034A136843F00103136008BD00BF10E000E010B5054C85
:40284000A3691BB9FFF7BAFF0123A361BDE81040FFF7E8BF3486FF1F024B1868C0F30040704700BF10E000E038B5FFF7F5FF012808D1054D002455F8243003B19847013479
:40288000052CF8D138BD00BF3886FF1F024B03EB80035868596070473486FF1F134B144A1B78DBB20360127843EA0223114A0360127843EA0243104A0360127843EA02631A
:4028C00003600E4B0E4A1B78DBB24360127843EA02230C4A4360127843EA02430A4A4360127843EA02634360704700BF0301004904010049EC460040020100490101004960
:4029000000010049050100490601004910B500F0CFFA214A044613780A2043F001031370137C43F00103137412F80A3C43F0010302F80A3C937943F00103937102F5AA52BE
:402940001832137843F003031370144B18221A7013F8012C42F0400203F8012C13F8012C02F0FC0203F8012CCE2203F8062CA3F597530222123B1A70094A137843F00803C9
:402980001370FFF7C9FE074B10222046BDE810401A6000F091BA00BFAB43004006590040275B004080E200E008B500F081FA0F4A137803F0FE031370A2F5AA52153A1378C3
:4029C00003F0FE031370137C03F0FE03137412F80A3C03F0FE0302F80A3C937903F0FE039371BDE8084000F067BA00BF00590040044A137803F03F0343EA8010C0B21070BB
:402A0000704700BF00590040082804D00A280CBF8223C22300E0422308380E4AC0B20428137098BF0C4B4FF0000298BF33F910100A4B88BF11461A8042F210734B4341F267
:402A4000883103F6C41393FBF1F305490B60054B1A80704702590040623900000287FF1F0487FF1F0887FF1F08B5102000F0A4F907210420FFF798FE07490420FFF786FE8E
:402A8000064A0C20137843F006031370FFF7BCFF034B00221A8008BD612B0000015900400087FF1F10B5054C23781BB9FFF7DCFF01232370BDE81040FFF728BF5086FF1F32
:402AC000044B1A7802F0FB021A701A7842F001021A7070470059004010B5084B1C7814F0010403D10028F9D0002404E02046FFF713FE024B1B78204610BD00BF0159004080
:402B0000034A044B1B881088181A00B2704700BF0887FF1FA05B00400E4A13881BB223B111880A2309B2594301E00B4B19680B4B1B88C01A42F2107300B203FB00F20223C2
:402B400091FBF3F30028D8BF5B42134493FBF1F000B270470287FF1F0487FF1F0087FF1F7047000010B500F0A3F9204A044613780A2043F002031370137C43F002031374E9
:402B800012F80A3C43F0020302F80A3C937943F00203937102F5AB52137843F003031370134B18221A7013F8012C42F0400203F8012C13F8012C02F0FC0203F8012CCE2294
:402BC00003F8062CA3F597530222183B1A70094A137843F008031370FFF79EFD064B08222046BDE810401A6000F066B9AB4300400E5900402F5B004080E200E008B500F008
:402C000057F90F4A137803F0FE031370A2F5AA521D3A137803F0FD031370137C03F0FD03137412F80A3C03F0FD0302F80A3C937903F0FD039371BDE8084000F03DB900BFDD
:402C400008590040044A137803F03F0343EA8010C0B21070704700BF08590040082804D00A280CBF8223C22300E0422308380E4AC0B20428137098BF0C4B4FF0000298BF10
:402C800033F910100A4B88BF11461A8042F210734B4341F2883103F6C41393FBF1F305490B60054B1A8070470A5900406C3900000E87FF1F1487FF1F0C87FF1F08B510201C
:402CC00000F084F807210320FFF76EFD07490320FFF75CFD064A0C20137843F006031370FFF7BCFF034B00221A8008BDB52D0000095900401087FF1F10B5054C23781BB9F6
:402D0000FFF7DCFF01232370BDE81040FFF72ABF5186FF1F044B1A7802F0FB021A701A7842F001021A7070470859004010B5084B1C7814F0010403D10028F9D0002404E0BD
:402D40002046FFF7E9FC024B1B78204610BD00BF09590040034A044B1B881088181A00B2704700BF0C87FF1FA25B00400E4A13881BB223B111880A2309B2594301E00B4B97
:402D800019680B4B1B88C01A42F2107300B203FB00F2022391FBF3F30028D8BF5B42134493FBF1F000B270470E87FF1F1487FF1F1087FF1F70470000034A00F0F8001378AC
:402DC00003431370704700BF02410040034A00F0F800137803431370704700BF06410040014B1870704700BF7665004000000000FEB5494652465B460EB4074624490968BE
:402E00008A46244A12682448022100F071F8030020480068C018204900F06AF8143883460121C9430C460125002600F041F8814651460B7823400B705846013000F030F8DC
:402E40003800F04028400B78234003430B70584600F026F80136072EF2D9002001300138013001200B78234003430B705846043000F016F8484600F01FF800BF00BF00BFD3
:402E80000EBC894692469B46FEBD00BFAFF30080D480FF1FF880FF1F00C20100000000000230800803D000BF01380046FCD17047EFF3108072B6704780F31088704700BF38
:402EC000094A137803F00303012B0AD0022B09D113790C2103F07F02044B01FB02339B7A00E0137900207047006000408C86FF1F002902D0B0FBF1F0704708B14FF0FF30B4
:402F000000F008B80029F8D00246B0FBF1F000FB11217047704700BF014B1868704700BF5C81FF1F0E4B70B51E460E4C0025E41AA410A54204D056F8253098470135F8E720
:402F400000F0C0FD084B094C1E46E41AA4100025A54204D056F8253098470135F8E770BDD03A0000D03A0000D03A0000D83A000010B5431E0A44914204D011F8014B03F8A7
:402F8000014FF8E710BD03460244934202D003F8011BFAE7704730B5141E05469BB0184604DA8B232B604FF0FF301DE04FF40273ADF80C300CBF234604F1FF330293059382
:402FC0004FF6FF7300910491ADF80E3002461E9B6946284600F072F8431CBCBF8B232B6014B1009B00221A701BB030BD07B5009313460A46014603480068FFF7CCFF03B05C
:403000005DF804FB5C81FF1F2DE9F0478E6882469E420C46914698463ED88A8912F4906F3AD02568096902236F1A656905EB450595FBF3F57B1C43449D4238BF1D4653053B
:403040000FD5294600F040FB064698B13A462169FFF78EFFA38923F4906343F08003A38113E02A4600F08EFB064670B92169504600F0DEFA0C23CAF80030A3894FF0FF30AC
:4030800043F04003A381BDE8F08726613E44266046466561ED1BA560464528BF464649463246206800F0A8FAA36800209B1BA36023681E442660BDE8F08700002DE9F04F85
:4030C0009DB003938B8980461C060D4616460DD50B695BB9402100F0F7FA2860286118B90C23C8F80030CDE040236B610023099320238DF82930DFF89CB130238DF82A3083
:4031000037463C4614F8013B1BB9B7EB060910D003E0252BF9D02746F3E74B46324629464046FFF771FF013000F0A780099B4B4409933B78002B00F0A08000234FF0FF32A4
:4031400004930793059206938DF853301A930126052221784E4800F041FA671C049B38B14B4A3C46801A06FA00F018430490EFE7D90644BF20228DF853201A0744BF2B2293
:403180008DF8532022782A2A03D0079A00210A200BE0039A111D12680391002A10DA524243F00200079204900BE027463B780134303B092B03D800FB02320121F5E701B103
:4031C00007923B782E2B1ED17B782A2B0AD1039B02371A1D1B680392002BB8BF4FF0FF33059310E0002319460593781C0A2407463A780130303A092A03D804FB012101238E
:40320000F5E703B1059103223978224800F0E6F940B14023CBEB000003FA00F0049B013718430490397806221B487E1C8DF8281000F0D4F988B1194B33B9039B073323F0D8
:4032400007030833039314E003AB00932A46144B04A94046AFF3008007E003AB00932A460F4B04A9404600F093F8B0F1FF3F824603D0099B5344099342E7AB895B0601D496
:40328000099801E04FF0FF301DB0BDE8F08F00BF9F3A0000A53A0000A93A000000000000093000002DE9F04791461F460A698B6806469342B8BF1346C9F8003091F84320DD
:4032C0000C46DDF8208012B10133C9F800302368990642BFD9F800300233C9F80030256815F0060510D104F1190A07E00123524639463046C04701301AD00135E368D9F82B
:4033000000209B1A9D42F1DB94F843302268003318BF012392060FD5E118302081F843005A1C94F845102244023382F8431003E04FF0FF30BDE8F08704F14302394630467A
:40334000C0470130F4D02268D9F80050E36802F00602042A08BF5D1B2269A3680CBF25EAE57500259342C4BF9B1AED184FF000091A344D4509D00123224639463046C0476A
:403380000130D5D009F10109F3E70020BDE8F0872DE9F04317460A7E85B06E2A984606460C460C9B01F1430E00F0AE8011D8632A22D009D8002A00F0BB80582A40F0CA8004
:4033C00081F84520834955E0642A1ED0692A1CD0C0E0732A00F0B08009D86F2A2ED0702A40F0B8800A6842F020020A603EE0752A24D0782A3AD0ADE01A6801F14205111D19
:403400001960136884F84230A8E021681A6811F0800F02D0111D196008E011F0400F02F10401196002D0B2F9003000E01368002B3CDA2D225B4284F8432037E021681A682F
:4034400011F0800F02D0111D196007E011F0400F02F10401196001D0138800E01368227E5C496F2A14BF0A2208221BE078225A4984F845202268186812F0800F00F104051F
:403480001D6003D1550601D5038800E00368D00744BF42F0200222601BB9226822F0200222601022002084F8430001E049490A226568002DA56008DB206820F00400206042
:4034C0002BB9002D7DD175460CE0002B79D07546B3FBF2F002FB1033CB5C05F8013D03460028F5D1082A0BD12368DA0708D5236962689A42DEBF302305F8013C05F1FF3551
:40350000C5EB0E0323612EE008681A6810F0800F496903D0101D1860136808E010F0400F02F104001860136801D0198000E0196000232361754616E01A68111D1960156830
:4035400000216268284600F049F808B1401B6060636804E004F1420584F8422001232361002384F84330CDF800803B4603AA21463046FFF797FE013002D14FF0FF3026E017
:4035800023692A4639463046C0470130F5D023689B0710D5002504F1190907E001234A4639463046C0470130E7D00135E368039A9B1A9D42F2DBE068039B9842B8BF18463C
:4035C00005E00B7804F1420584F842308AE705B0BDE8F08351390000B03A000010B5C9B202449042034605D01C7801308C42F8D1184610BD002010BD884210B501EB02031D
:4036000001D8421E0BE09842FBD28118D21AD34204D013F8014D01F8014DF8E710BD994204D011F8014B02F8014FF8E710BD000038B50546002944D051F8043C0C1F002BB7
:40364000B8BFE41800F0D4F81E4A1368114613B96360146030E0A3420DD92268A018834201BF18685B681218226063600C6023E0A24203D813465A68002AF9D1186819189C
:40368000A1420BD12168014458188242196013D110685268014419605A600DE002D90C232B6009E021686018824201BF106852680918216062605C602846BDE8384000F085
:4036C00098B838BD5886FF1F70B5CD1C25F0030508350C2D38BF0C25002D064601DBA94202D90C23336046E000F082F8234B1C681A462146A1B10B685B1B0ED40B2B03D96B
:403700000B60CC18CD501EE08C420BBF63684B681360636018BF0C4615E00C464968E9E7174C23681BB9304600F052F820602946304600F04DF8431C18D0C41C24F0030494
:40374000A0420DD12560304600F053F804F10B00231D20F00700C31A0ED05A42E25070BD211A304600F034F80130EBD10C233360304600F03EF8002070BD00BF5886FF1F26
:403780005486FF1FF8B5074615460E4621B91146BDE8F840FFF798BF1AB9FFF749FF2846F8BD00F027F885420ED929463846FFF78BFF044650B131462A46FFF7D9FB31463C
:4037C0003846FFF735FF01E03046F8BD2046F8BD38B5064C0023054608462360FDF7E2FB431C02D1236803B12B6038BD3C87FF1F7047704751F8040C0028BEBF091851F803
:40380000043CC0180438704700000000050209020B020D020F02110213027265706C792030782530327800686F6D696E6700626567696E6E696E67207365656B2066726FC1
:403840006D20256420746F2025640066696E6973686564207365656B0057616974696E6720666F72205553422E2E2E0055534220726561647900636F6D6D616E64203078E0
:403880002530327800756E64657272756E206166746572202564207061636B65747300636F756E743D256420693D256420643D2564207A7A3D256400636D645F77726974F5
:4038C0006500703D25642063723D25642063773D256420663D256420773D256420696E6465783D256420756E64657272756E3D25640077726974652066696E69736865641D
:403900000073746172742065726173696E670073746F702065726173696E670069646C6500005100401000305100404000000001400010001401400002801601408005003D
:40394000400140000A004C01400002005001402000303132333435363738394142434445460000010000000400000010000100000004000000100000280000000001040083
:403980000100000000000000000157494E5553420000303030303100000000000000000012034D005300460054003100300030000100000001000000BC3900000100000064
:4039C0008B3A0000000000000000000001000000D4390000010000005D3A000004000000F6390000000000000000000000000000F4390000FF00000001024000FF000000BB
:403A000082024000FF00000003034000FF00000084034000FF00020304030904160346006C007500780045006E00670069006E0065002A0343006F0077006C0061007200FC
:403A40006B00200054006500630068006E006F006C006F0067006900650073000009022E0001010080320904000004FF0000010705010240000007058202400000070503AB
:403A80000340000A0705840340000A12010002FF0001080912006E0100020180014300232D302B2000686C4C0065666745464700303132333435363738396162636465661D
:403AC00000000000F8B500BFF8BC08BC9E4670475900000021100000F8B500BFF8BC08BC9E46704735000000F83A0000C880FF1F98000000E0050000000000004087FF1F0F
:403B0000FFFF0000675000400C00000007000000FFFFFFFF7F8000003F0000000000007D00FA0000400000000090D003000000000000000000000000000000000000000029
:403B40000000000000000000000000009D3A00000000000000000000000000000000000000000000000000000000000000000000000000000000000000000000000000006E
:403B8000000000000000000000000000FC80FF1F0000000000000000000000000000000000000000000000000000000000000000000000000000000000000000000000006B
:403BC00000000000000000000000000000000000000000000000000000000000000000000000000000000000000000000000000000000000000000000000000000000000C5
:403C00000000000000000000000000000000000000000000000000000000000000000000000000000000000000000000000000000000000000000000000000000000000084
:403C40000000000000000000000000000000000000000000000000000000000000000000000000000000000000000000000000000000000000000000000000000000000044
:403C80000000000000000000000000000000000000000000000000000000000000000000000000000000000000000000000000000000000000000000000000000000000004
:020000040003F7
:0200000480007A
:400000000145004006520040015B0040016400400265004005030140070501404F060140440701404A0801405F090140570A0140500B01404E0C0140490D0140470E0140C0
:40004000310F01400A150140271601405917014051180140571901404A1A01404B1B01400A4001400B410140124201400C4301400244014005450140094601400E47014054
:400080000C48014007490140174C0140074D014007500140045101407E02080209441180601A611B7C402F212A0A2680367E8120A010AC10E601EA0881208D409920A010FE
:4000C000E246E601EA08050F0639072009800D401102130514391602170F180819021A161B341C081E30202022092439250F2604271029012B0A2C403140324033803407D4
:400100003538363837073A803B803E043F055608580459045B045C995D905F0181018208840486018A108B508DD08E089410950D980499109C209D0AA406A601A705A801DC
:40014000A9A0AA02B008B10CB230B303B407B5C0B730B802BE01D608D804D90ADB04DC99DD90DF010002031A050409A80E0A0F201208130814011502170819091B381C106E
:400180001E0A2149229024222622270129282C042E102F203188321035043620370139A23C043D103E405A805D806180640168016D5078048080844488208A808C108D014C
:4001C0008E029120954099209A04A010A120AA04AD10C02FC2E7C4B6CA66CCEECE7DD618D818DE02E202E6C7EA03EE040102044005020A020D030E20101111021411150239
:4002000019021A101C111F062248230325022604281129022C012D012F043040323034083503360737043A083E013F50400546E0470C481849FF4AFF4BFF50045601580486
:4002400059045A045B045C095D095F0162C081028201860188018C018D0492019301940198019E04A901AA02B104B207B301B502B908BA08BF15D804D904DB04DC09DF0109
:40028000015202100444051008200A220B800C100D800F6013101550168017181A201B041C341DCF1E601F4020082104220224022708281829042C202F4A300235083761C7
:4002C00039823D413E04458046014D8056285C806020610468026C086D056E066F09746176527760820184018610870888408A208B048C808D088E0290E0918292029302B0
:40030000941A954596E09788980299209B149C219D069E539F41A204A47CA586A681A74DA908AD40B348C0EFC2FFC4F2CAF4CCF1CED9D210D610E090E450E6A4EE04013F58
:400340000208061007100A200B020D010E04113F123F163F173F187F1B041E7F1F3F20012308253F2602283F2A402B202C3F2F3F3040353F363F3E413F10404647204820A9
:4003800049FF4AFF4BFF4D204EF05110580459045A045B045D095F01610862406340648066406740820184018508880189048A028C019001910894019504980199089E0146
:4003C0009F01A201A401A801A901AC01AD02AE02B003B304B508B703BB38BE01D201D610D804D904DB04DC90DD90DF0100800105030804120612082009800AA00C280D803E
:400400000F40102512401404154417111A021B021C402220242025482654272429042A022B092E802F04302031813304366A39053A503D083E10430248044A014B405101A5
:4004400069806C0280029080921093029428954596609780980299219A809B109C209D069E139F6DA20AA438A50AA695A74DAE40B501B710C0FFC2FFC4FFCA3FCCFFCE6F5F
:40048000D001D204E202E601EA08EE020205030104050702080F09070A100C050D030F081010130114051506180519011B0C1C051D06200821062202230124052501270635
:4004C000282C29062A022C132E202F06310F323F3E043F015608580459045B045D905F018010810C834084028580880289A98C028D5691809202940295809803993D9A049E
:400500009BC09C029D80A002A180A41CA603A703A802A980AC08AD30AE01B21FB3FFBE04BF04D804D904DF01000401020306051006120740086009020A200C280E42101056
:400540001281132014801544172119081E1022082602284029042B452C902D202E402F403110328033163695382C39403A013B043C203D403F065E806402668080029080CC
:400580009302942895459660981099209B109CC09D0C9E139F6CA302A4A0A50AA681A709AA10AF02B204B301C0FFC2FFC4FFCAFFCCFFCEFFD610D810E801012E0204034135
:4005C00004030702090E0A080C030D7F1203130E16011704181019211B4E1E021F082003210E2370250F2603271028032B012C032F01300F3210337F340F3E043F04580427
:4006000059045B045C095F018101820884088501880389018A0C8C088F029001910196029704980899019C049F01A008A301A408A501A901AA0FAC0FB307B60FB908BE4081
:40064000D804D904DC90DF0100120322050206320748084009020A240C200D080E400F0A1090114013201555188019211A101B021C022010271029052B292D062F0831023C
:40068000328033143490350836013710382839403A013D403E223F084D306B017F03C0FFC2FFC4FFCAEFCCFFCEFF8C088D4091809C08AC01B050B401B620EC02EE0C8004D1
:4006C0008408850F872089018A018B068C0890039101920C9332940F970F99049A089B099C08A008A408A50FA710AA02AD40AE0FB138B307B60FB740BB08BE40BF40D6088F
:40070000D804D904DB04DC90DD90DF0100AA0412050406880710088809010A080D200E020F28102112041301170818011D0620102140220124042590260427082B112D20B1
:400740002E88310432113689371038143D203F08450247184D044E884F2058505F406220630266406E408180820484018504864087408C108E40902292289301940496C01D
:40078000988099209A049D049F18A074A121A201A310A608AA10AB02AE04B001B180B501B701C07FC2EFC42FCA7ACCF7CE66D0E0D220D61CD81CE202E401EA0DEE0802725F
:4007C0000302040206C00701087209030C720F0310731103120C14731503160418021A101B041C021D031E202072230824722703280129032A782C3F2D032E8032F03303A8
:40080000340F370F3E143F045608580459045B045C905D905F01810D82028402850D8802890D8C118D048F12910192029318950D960898109B0D9C029D0DA204A30DA50D21
:40084000A602AB07AC02AD0DB010B303B401B60EB71CBA80BE01BF44D804D904DC09DF0100600182031004A805010A290B800EA10F081020114013011550171519021A8B68
:400880001B431D101F042311240225042680270129452B042D602FA032813334354036443721382839403B023C203E413F085F40668078017B4083108501870190A0910389
:4008C00092449382940895409680971099659A5B9B149D929E80A070A188A216A30CA504A680A753A802AA80AC01AD04B00AB340B420B580C0FFC2FFC4FDCAFFCCFFCEFFFD
:40090000D610D810E210E442E880EA10EE9002080308053F06020A200B020E040F10123F133F143F173F193F1A101E3F1F3F2001213F243F2704283F2B202D012E3F323FD2
:40094000333F3E043F04580459045F0180068278830185018602880689498C068D488F1090409101920694079608970499499A019D409E019F30A07FA301A548A604A72038
:40098000A811AA26AB02AC56AE21AF49B140B507B67FB738BB20BE40D804D904DB04DC90DF01008001010210030804AA050409880A840B020D040E640F02103111101240E0
:4009C000160117151A201F802208244C268028102A422B082E0A2F05318433123698370139093A903C443D103F025C805F206D406F018A848D408F2090A2911192C4930877
:400A000094489540962098819A5B9B14A060A188A210A30BA780AE02AF41B480B720C0FFC2FFC4FFCAFFCCFFCEFFD630E240E410E812EAA0EC10EE041A801F083240330897
:400A4000342036043840C630CCF0CE10300831103580370239083E2094409C20A604CCF0CE6052805410830284088E80944095089C209D109E209F02A408A604AD80D46071
:400A8000E240E680EA10811089048C0295089C209D109E20A410A604A840E620EE201504C404620291049B20AB20D8021B04818085409B209C04A602AC04AD04C608094050
:400AC0000A200C040D8082108E028F109B209C04A5C0A602AB04C20FE40A2620802086209C209E20A002A604AC10C820E210E620EA107002A002AA04AE20DC80EC40EE208A
:400B0000058008020C400F201F80501057085B20610287088C108F109B309D80B180C001C20DC601D407D802E208E402EE0177109B10AB80AD02B042DE04EA0501010B01E4
:400B40000D010F0111011B011D0100FF01AB020211050000000001005000AD02000684E800000000002000802F06D018003202C40020480000000000C3203C500001000047
:400B800000040000E0001F0100FE0001082000000000010432060400004E000003FFFFFF0020F0012010000000000800040404049999000100080000402080084020000897
:400BC000000040A800000000000000000000000000000000BF0000A09F001F000000000000000000100000004000000000000000C0000000FF0000B847004700000100009A
:400C000080000000800080000000000027001801270018010004000000050000000000000000000000000000000000000000000000000000000000000000000000000000AB
:400C40000000000000000000000000000000000000000000000000000000000000000000000000000000000000000000000000000000000000000000000000000000000074
:400C80000000000000000000000000000000000000000000000000000000000000000000000000000000000000000000000000000000000000000000000000000000000034
:400CC00000000000000000000000000000000000000000000000000000000000000000000000000000000000000000000000000000000000000000000000000000000000F4
:400D000000000000000000000000000000000000000000000000000000000000000000000000000000000000000000000000000000000000000000000000000000000000B3
:0200000490006A
:0400000000000007F5
:0200000490105A
:04000000BC90ACAF55
:0200000490303A
:02000000AB66ED
:0200000490402A
:4000000000000000000000000000000000000000000000000000000000000000000000000000000000000000000000000000000000000000000000000000000000000000C0
:400040000000000000000000000000000000000000000000000000000000000000000000000000000000000000000000000000000000000000000000000000000000000080
:400080000000000000000000000000000000000000000000000000000000000000000000000000000000000000000000000000000000000000000000000000000000000040
:4000C0000000000000000000000000000000000000000000000000000000000000000000000000000000000000000000000000000000000000000000000000000000000000
:0200000490501A
:0C00000000012E16106900002E2FBBCF4F
:00000001FF