:400000000080002011000000E90F0000E90F0000064A08B5136843F020031360044B1A6803F53F5302331A6000F0FCFFE8460040FA46004010B5054C237833B9044B13B13B
:400040000448AFF300800123237010BD6081FF1F0000000050380000084B10B51BB108490848AFF300800848036803B910BD074B002BFBD0BDE81040184700BF00000000C1
:400080006481FF1F50380000C880FF1F0000000072B6034A13680133136062B6704700BF8081FF1F0A4A0B4B516801310B40002BBEBF03F1FF3363F00F0301335360516858
:4000C0009368994202BF024B01221A73704700BF8081FF1F0F0000800A4A0B4B916801310B40002BBEBF03F1FF3363F00F030133936091685368994202BF024B01221A7381
:40010000704700BF8081FF1F0F000080024B012200205A7302F05CB98081FF1F10B5C4B2204601F041F90128FAD110BD10B50446094B9A7B987382421CBF0022DA7310F0FA
:40014000010F14BF0220012002F06EFE6008BDE8104002F063BE00BF8081FF1F70B5C4B220460E4601F028F9314605460246204601F0E4F9204601F017F90128FAD0284640
:4001800070BD000038B5094C257C3DB9012002F085F84FF47A7002F0C7FAE5732368636101232374BDE8384002F0FCBA8081FF1F38B50446C5B2284602F07CF8062002F0E9
:4001C000C9FA44F00200C0B202F074F8062002F0C1FA284602F06EF8BDE83840062002F0A3BA10B5642402F05FF820B10120BDE81040FFF7DDBF0120FFF7DAFF013CF2D10C
:40020000F4E7000038B5044D0024285D013402F051FA102CF9D138BD9881FF1F08B502F06BFC002002F074FC02F086FC02F090FC80B208BD10B50446012002F055F86420E4
:4002400002F072FAFFF7EAFF2080002002F04CF8642002F069FAFFF7E1FF608010BD08B502F076FD002002F07FFD02F091FD02F09BFD80B208BD10B50446FFF7B2FF322036
:4002800002F052FAFFF7EBFF20800020FFF790FF322002F049FAFFF7E2FF608010BD0FB400B593B014AB53F8042B402102A8019302F0B6FE02A802F092F802F09CF813B028
:4002C0005DF804EB04B0704710B5044601780648FFF7E5FF0420FFF721FF62782146BDE81040042001F0B8B86238000007B50023ADF804308DF80600032301A88DF8053044
:40030000FFF7E2FF03B05DF804FB0000F8B51D4C0646FFF737FFE37B03B156B91A48FFF7BEFFFFF75EFF01200023E073A36202F011FA3246A16A1548FFF7B1FF114D002724
:40034000A36A9E4216D001F0AFFF00B1AF62A36A9E4205DD0020FFF72BFFAB6A013305E005DA0120FFF724FFAB6A013BAB6202F019FAE5E7322002F0D7F9BDE8F840044887
:40038000FFF78DBF8081FF1F6F38000076380000933800002DE9F04F9BB062B602F06CFABC49042002F090FABB4801F089FFBB4801F0BCFFBA4801F0EDFF02F03DFC02F0E0
:4003C0000FFB002002F030FD02F008F80221002000F0A0FFB34D0321084602F0C3F92E462C4602F0DFF92B7C5BB16A692B689B1A41F28832934204D9002001F04FFF002331
:400400002B7400F0BFFF18B9A748FFF748FF04E000F0BEFF0028F7D109E000F0B3FF0028FBD0A248FFF73BFF032001F0DBF8032000F0BAFF0128D4D1A07BFFF777FE9C496D
:400440000320FFF78BFE94F82C109A48FFF727FF94F82C30023B122B00F2DD83DFE813F01300DB031C00DB032200DB033A00DB035E00DB039401DB031F03DB033E03DB03C5
:400480004403DB03500303238DF828308DF8293008238DF82A302FE394F82E00FFF736FF854B26E3FFF76EFE00236373637B002BFCD0002373733268637B002BFCD03368C6
:4004C00007218DF828109B1A04218DF82910ADF82A3011E30220FFF721FE4FF000090DF1280A4FF480780027C8EB0903DA1907F80A200137402FF9D10220FFF70FFE3A468A
:400500005146022000F0A8FFB8F10108EBD109F10109B9F1400FE4D1684BBBE294F82E0001F0E2FEA06AFFF7F1FE02F0E5FC644BDFF894811A78002742F004021A701A7806
:4005400042F001021A701A7802F0FE021A701A7802F0FE021A7002F0D3FC0220FFF7DEFD41F6FF734FF480420121022001F0C2FE84F86C0002F084F808F807000137102F75
:40058000F8D1DFF848A100270AF159081FFA88F90137102F14BF3A4600221AF8010F22440623127E402102F09FF84A4646F247419AF8000002F0AAF809F14009102F1FFA6D
:4005C00089F9E5D100237373637B002BFCD00027142239460AA8777302F0EEFC40230D934FF0FF337760B36037737368DFF8D4903344197E96F86C00CDF8309001F0F8FFFE
:4006000096F86C0001F0B6FF012196F86C0001F089FF636813B96B7B002BFAD0002794F82FA0A76094F80CB0BBF1000F69D102F0B9F86B7B43B1BAF1010A85F80DB003D10C
:400640005FE02B7B002B5CD1A26863689A42F8D04FF0000BA3680AA808EB83135B440A93CBF140030B9300F0F5FA0B9B0137C3F140039B440D9B5FFA8BFB93BB022000F0E1
:4006800093FE012824D0637B002B3AD12B7B002BF4D036E0910000000D010000A5000000D90000008081FF1FA1380000B4380000AC81FF1FBE380000543800005638000071
:4006C00097640040F085FF1F9881FF1F9781FF1F4022B949022000F0BFFE4023CDF830900D93BBF13F0FB5D9A268B44B01321340002BBEBF03F1FF3363F00F030133A36083
:4007000090E7042194F86C0001F07EFF94F86C0001F08AFF0028F9D10AA800F0CFFA0220FFF7FCFCDDF83480B8F1400F06D0C8F1400292B2A049022000F08EFE0D9A32F0F2
:40074000400203D11146022000F086FE0220FFF7E5FCFFF757FD237B33B19948FFF79FFD0220FFF7C3FD06E0964B09A81B88ADF82430FFF7A9FD627B3946237B9248CDF81D
:400780000080FFF78CFD49E29048FFF788FD276B17F03F0701D003203EE2012001F0D8FD95F82E0001F0A0FD02F0A6FB884BDFF824821A7802F0FB021A701A7842F00102E4
:4007C0001A701A7802F0FE021A701A7802F0FE021A7002F095FBA86AFFF798FD01214FF4804341F6FF72084601F0B8FD85F86C0001F046FF08F807000137102FF8D1DFF833
:40080000D891002709F159031FFA83F807930137102F14BF3A46002219F8010F22440523127E402101F060FF414646F2495299F8000001F06BFF08F14008102F1FFA88F869
:40084000E5D10027BB46B946BA46336B4FF0FF389B09142239460AA877600593C6F80880377302F0A9FB402301200D9300F0BAFECDF818806268514B01321340002BBCBFCC
:4008800003F1FF3363F00F03A168B8BF01338B4200F0A480BAF1000F07D0237B002B40F0B0806B7B002B40F0AC800B9B002B34D1B9F1000F0BD07F223F495A540133402B11
:4008C000FAD10A910B9328E0BAF1000F06D1012000F06AFD01288046F6D107E0237B002B40F08F806B7B002BF1D08AE03249FFF735FC8146304B0B9040460A9300F072FE00
:40090000B9F13F0F07F1010706DD059BDB1BD3F1000949EB030900E0C1460B9BDBB16368079A0AA802EB83120D9BC3F1400313440C9300F0D2F90D9B6BB96A681F4B0132F5
:400940001340002BBEBF03F1FF3363F00F030133636040230D93A36801333FD16B680F2B3CD14FF00008C5F8088001F025FD85F80C80AB6895F86C002B44197E01F038FEAD
:4009800095F86C0001F0F6FD012195F86C0001F0C9FD85F80D80637B002BFCD04FF00008012086F80D8001F013FD404601F0D0FCCDF8188015E000BFF085FF1F0F000080BF
:4009C000CD38000058380000E738000000390000996500409881FF1F9781FF1FBAF1000F05D0237B6BB96B7B5BB94FF0010AA368069A93423FF43EAFAB680BF1010B069376
:400A000038E701F0DFFC012001F0A2FC002001F0DFFC042194F86C0001F0F6FD94F86C0001F002FE0028F9D196F86C0001F090FD737B327B0293012303920193CDF8009009
:400A40005B463A4605997948FFF729FCB9F1000F16D1059BBB420ADD012000F0A5FC01288046F6D17249FFF779FB3F2803DC012000F0CCFD04E0404600F0B4FD0137E8E7F8
:400A8000FFF7C0FB6B48FFF70AFC237B0BB10220C2E0694B1B8809A8ADF824302DE094F82E0001F021FCA06AFFF730FC6348FFF7F6FB00236373637B002BFCD0012001F044
:400AC00087FC00237373637B002BFCD0002001F07FFC5B48FFF7E3FB5A4B0AE00020E073FFF714FC584B04E094F82E00FFF71EFB564B1B88ADF828300AA8FFF7E5FB8DE004
:400B0000237C23B1002001F0C9FB00232B7402F011F9002002F0B4F82A2701F0DFFF002001F082FF3A4600210AA802F045FA15238DF828308DF8297001F034FE002001F054
:400B4000ADFB002002F070F9C82001F0EDFD0DEB0700FFF76FFB0DF13E00FFF78CFB01F021FE012002F060F9322001F0DDFD0DF12E00FFF75FFB0DF14200FFF77CFB012094
:400B800001F08CFB4FF4967001F0CEFD01F00AFE0DF13600FFF74EFB0DF14A00FFF76BFB002001F07BFB4FF4967001F0BDFD01F0F9FD022002F038F9322001F0B5FD0DF10E
:400BC0003200FFF737FB0DF14600FFF754FB012001F064FB4FF4967001F0A6FD01F0E2FD0DF13A00FFF726FB0DF14E00FFF743FB002001F053FB4FF4967001F095FD01F009
:400C0000D1FD002002F010F90023E37302F014F801F0E6FE70E70120FFF768FB032000F0E1FC0B48FFF73BFBFFF7DBBB0A390000F085FF1F3A3900005A3800004939000056
:400C4000573900005C3800005E380000603800006439000010B54268002A2ED0C368002B2BD00368048A591C01601B78013A13F0800F817C42601DBF03F0010242EA84034A
:400C80000231083114BF43F0020343EA0423817414BF03820382837C072BDCD9028A083B42FA03F38268511C81601370C368013BC360837C083B8374CDE710BD07B5827CF7
:400CC00042B102AA002102F8011D026001224260FFF7C0FF03B05DF804FB30B543686BB3C2685AB3827C072A0CD8046890F91050611C01602178013B41EA0521083201822B
:400D000043608274827C018AA2F108042141CBB2090608D5C3F3801363F07F03023A03F08103827402E08474002BD7D08268511C81601370C368013BC360CFE730BD0000CC
:400D40002DE9F04172B6844B61221A70A3F5F06301221A801924814A9C7092E803008033062283F8002283E80300522203F580731A707B4B7B4A1B787B4EDBB2137040F6F3
:400D800018027A4B00251A8041F2512223F8022C33784FF4F07003F0010343EA450502F0A3F8013C05F003052ED0032DF0D1704B4FF480721A8007221A706E4A00254821B1
:400DC0001570917002221D705D7103F8032C0422DA71694A694C1378694E43F00103137012F8013C062743F0030302F8013C2378012243F080032370574B1A70614A1378A2
:400E000043F02003137000E0FEE707FB056300219A881868013502F0CFF8072DF5D15A485A4E002550F8041F05F1105303F14E0221F0FF074F33C9B20B4452005B00023243
:400E40009A4206D012F802EC12F801CC0EF807C0F5E7B0420D44E5D14D4A002313609360136193614B4B4C4F1A684C4BDFF874811A604B4B1A684B4B1A604B4A137843F0BC
:400E800002031370137C43F0020313742378A2F5863243F040032370413A137843F010031370424A424B07CA03C31A80414A2833106843F8250C127903F8212C3E4A07CA5A
:400EC00003C31A803D4AE83B07CA03C31A803C4A083307CA03C31A803A4A0420137843F008031370384B02F5AA521B783D78DBB298F80060EDB203F007010C321B09117019
:400F0000F6B2537045F003033B7046F0030388F800302E4B48221A702D4A402313702D49937013729372082382F81F3220220A7048710A72284A0A20137001F00BFC274B37
:400F400088F8006044223D70254D1A7094E80F0007C52B80BDE8F08100480040C00C00480F010049A146004025420040224200400440004006400040A2430040A0430040B1
:400F800069390000E8460040FCFFFF479800004800760040C80C0048F846004020760040CC0C00482876004003500140880C0048C0510040940C00489C0C0048A80C004847
:400FC000B40C004822430040CF0100491D51004001590040235B0040585B004076580040B0430040F946004008B501F0B9FF03680C2B00D1FEE7FEE7084908B50B68084AFC
:401000001844821A802A01DC086005E001F0A8FF0C2303604FF0FF33184608BDCC80FF1F4087FF1F80B51148114B0025C0B1A3F1100192C922460439161BB74204D051F86B
:40104000046F42F8046BF7E7114653F8046C8C1AA64202D041F8045BF9E701381033E5E701F084FFFFF796F9FEE700BF01000000383B0000124A134B10B51A60124A134C7F
:401080001368134843F4007313600023032B98BF54F823204FEA830188BF0E4A0133302B4250F3D10C4B1A780C4B1A700C4B084A1A60FFF745FEBDE8104001F01DBA00BF23
:4010C0000004FA050CED00E014ED00E0000000000080FF1FE90F0000BC760040C080FF1F08ED00E0F8B501F007FF4B4A01271378022643F001031370137C484C43F00103D0
:401100001374474B02F5E3521F700B3203F8946C1378054603F07F031370002001F01AFB2378404A03F0F90323701378384603F0DF03137023783B43237001F00BFB2820BC
:4011400001F008FB384B30461A7802F07F021A701A7802F0BF021A7023783343237001F0F9FA2378314A43F0040323700023137053702F4AFF2199540133092BFBD1284628
:4011800001F0BEFE0721172001F02CFB2949172001F01AFB0721182001F024FB2649182001F012FB0721152001F01CFB2349152001F00AFB0721052001F014FB2049052070
:4011C00001F002FB0721062001F00CFB1D49062001F0FAFA0721084601F004FB1A49072001F0F2FA0721082001F0FCFA1749082001F0EAFA0021162001F0F4FA1449162020
:4012000001F0E2FA07210C2001F0ECFABDE8F84010490C2001F0D8BAA5430040944300409D60004012600040F8510040846000406586FF1FB31A0000ED180000B11A000050
:40124000E5190000111A0000411A0000791A0000B91A00002D1B0000214B224A10B5187000231370204A40201370204A0F2413701F4A13701F4A13701F4A13701F4A137054
:401280001F4B4FF400021A604FF080721A604FF400121A6020221A601860802018604FF480701860174804704FF480001860164B1A70933B19B91A7802F0FE0202E01A7803
:4012C00042F001021A70114B03221A70802203F8202C012001F008FE0D4B04221A7010BD8086FF1F8686FF1F8486FF1F8586FF1F8186FF1F7086FF1F8386FF1FF886FF1FB3
:4013000000E100E09E6000409C600040286000401260004070B5074C054623780E461BB9FFF7E0FE0123237031462846BDE87040FFF792BF3086FF1F0A4A002313700A4A44
:4013400013700A4A13700A4A13700A4A13700A4A13700A4A13700A4B03221A70802203F8202C70478686FF1F8486FF1F8586FF1F8186FF1F7086FF1F8386FF1FF886FF1F9C
:4013800028600040014B1878704700BF8586FF1F044B1A7802F0FF001AB118780022C0B21A7070478486FF1F024A0C2303FB0020407870478C86FF1F431E072B0CD8074AC0
:4013C000064B00010344805C5B7800F00F0043EA0020023880B2704700207047FC5F00401A4A38B50C2303FB00231B79090C13F0800F00F1FF35044619BF8AB24FF480435F
:401400008BB24FF48042032D18D8DFE805F002070C110021084601F04BF80DE00021084601F02AF808E00021084601F009F803E00021084600F0E8FF054B1855EDB2072D54
:4014400003D801F01DF9034B185538BD8C86FF1F5C86FF1F6586FF1F431E072B2DE9F0470446894615465CD82F4F0C2202FB0072D388DFF8B8A09BB2C3F500739D424FF0DE
:401480000C0303FB007388BFD588DB7884BFC5F50075ADB2254A43EA15230601B354B244EBB28AF80130224B1A5C9846FF2A01D1FFF796FF0C2303FB047200215170B9F146
:4014C000000F28D03DB31B4F385D01F041F811232946FE2218F8040001F006F906F5C04278321FFA89F118F8040001F00FF9124D18F80410385D01F07BF80121385D01F09A
:4015000011F8735D43F002037355735D03F0FD037355BDE8F08703FB04746379DBB28AF80230BDE8F08700BF8C86FF1FFC5F00406586FF1F5C86FF1F706000402DE9F0478C
:40154000044615468846002940D0431E072B3FD8FFF732FFA84203D22046FFF72DFF05461D4E335DFF2B03D141462046FFF738FFDFF868A027011AF8040000F0E9FF12231F
:40158000FE222946305D01F0AFF807F5C0411FFA88F27831305D01F0B9F8DFF84490315D1AF8040001F024F801211AF8040000F0B9FF17F8093043F0020307F8093017F80C
:4015C000093003F0FD0307F8093002E00D4600E000252846BDE8F0876586FF1F5C86FF1F70600040431E072B0AD8064A0C2303FB002300225A705A79034BD2B200011A5495
:40160000704700BF8C86FF1FFE5F0040431E072B9FBF024B000108221A547047FE5F004030B51A4A1A491B4D0878138803449BB21380194A00231488D8B2A4B27CB1082B84
:401640000CD050680078C0B2E85450680133013050601088013880B21080ECE718460B780E4C082B0E4A00D040B10E4D2B7883F080032B700F232370022301E002232370E4
:401680001370094B1870087030BD00BFFC86FF1FF886FF1F006000407486FF1F7186FF1F8686FF1F8286FF1FF986FF1F074B02221A70074B80221A70064B0F221A70064AD7
:4016C00000231370054A0120137070478686FF1F8286FF1F7186FF1FF886FF1FF986FF1F30B5164B16491B780A8803F00F03023BDBB21A4492B20A80124C134A00201188C3
:4017000089B279B173B15568215C013BC9B229705168DBB20131516011880130013989B21180ECE7094A1370094A137883F080031370084B0B221A7030BD00BF296000401E
:40174000FC86FF1F006000407486FF1FF986FF1F8286FF1F7186FF1F064A06231370064A01201370054B80221A70054B00221A70704700BF8686FF1F7186FF1F8286FF1FF6
:40178000F986FF1F054B9A683AB19A68044910709A680988518000229A6070477486FF1FFC86FF1F08B5124B1A78D2B21A701B78DBB21A0602D50F4A137008BD0220FFF707
:4017C000E1FF0D4B1B7803F06003202B05D0402B06D043B900F012FC04E001F095FB01E000F046FD10B9034B03221A7008BD00BF286000407186FF1F0060004008B5084A1E
:40180000084B0120197813880B449BB21380064B00221A70FFF7B6FF044B03221A7008BDFC86FF1FF886FF1F8686FF1F7186FF1F08B50C4B1B78DBB2042B07D0062B09D0AF
:40184000022B0DD1BDE80840FFF7D8BFBDE80840FFF746BF0320FFF795FF034B03221A7008BD00BF8686FF1F7186FF1F08B5054B002201201A70FFF785FF034B03221A703D
:4018800008BD00BF8686FF1F7186FF1F08B50A4B1A7832B11A78094942F080020A7000221A70074B002201201A70FFF76BFF054B03221A7008BD00BF7086FF1F0860004062
:4018C0008686FF1F7186FF1F074B1B78DBB2042B05D0062B05D0022B05D1FFF7A1BEFFF7C5BFFFF7D3BF70478686FF1F38B51D4C2378DBB2DD0634D518060AD503F00F0386
:40190000012B2ED1FFF74EFF174B1B78190609D538BD5A0602D5FFF7D7FF03E09D0620D5FFF786FF23781B061BD4104B1A78104B1B7813430F4A13701278934211D10A4A0C
:401940000849154613782078DBB2000605D41378DBB20B700B7803F00F0328788342F1D138BD38BD286000407186FF1F8286FF1FF986FF1F29600040054A00231380054A43
:40198000916819B191680B7092685380704700BFFC86FF1F7486FF1F0E4808B503889BB213B9FFF783FE13E00B4B02221A700B4B00221A70FFF7E0FF094AD17993790288C6
:4019C00043EA012392B2934238BF0380FFF728FE012008BD7486FF1F8686FF1F8286FF1F00600040084B01221A700F3B9B7C074B1A7B02F00302012A1EBFDA7B82F0800269
:401A0000DA7301225A7370470B6000408C86FF1F094B02221A700F3B93F82230074B1A7E02F00302012A1EBFDA7E82F08002DA7601225A76704700BF0B6000408C86FF1FE5
:401A40000B4B04221A700F3B93F83230094B93F8242002F00302012A1EBF93F8272082F0800283F82720012283F82520704700BF0B6000408C86FF1F0B4B08221A700F3BF7
:401A800093F84230094B93F8302002F00302012A1EBF93F8332082F0800283F83320012283F83120704700BF0B6000408C86FF1F7047FFF741BC0000F0B5184B184E197872
:401AC0000C27C9B201234FF0000C31B3CA0720D5144A4FEA031E7244947850782040C5070DD507FB03652C79240608D5147804F0FE0414706D790C4CEDB204F80E508407F1
:401B000006D507FB036425792D0658BF84F801C090700133DBB24908D7E7F0BD9F6000408C86FF1F70600040FE5F004000F0DCBC70B50446184B88B003AA03F110061546FF
:401B400018685968083303C5B3422A46F7D11B782B70FCB12223237001AD03232846637000F0BAFE002220461146AB5C08AC04EB131414F8144C03F00F03847008AC234454
:401B800013F8143C0132082AC1700371417100F10400EAD108B070BD933900002DE9F0431C4D01222E460C201F274FF0800E4FF0080C194B00FB02581401234418705F7046
:401BC000164998F805902144B9F1000F07D098F8044024064CBF887081F802C001E081F802E000FB0261CC880132E4B29C71CC88092AC4F30724DC71CC88E4B21C71C988EE
:401C0000C1F307215971D4D1054BFF221A70BDE8F08300BF8C86FF1F70600040FC5F00400A600040064B074A1B7802EBC30253681A7C824286BF03EBC00358690020704778
:401C40008086FF1FF43900002DE9F84F424B1A78002A7ED01878414D0138C0B2FFF7E2FFA8463F4AC3681478007ADFF800C1E4B203EBC0000C2600274FF0010E834268D057
:401C80001A78A24263D11CF80420597891425ED19A7893F8039002F07F0206FB02FA05EB0A01CF7093F802B009F0030981F804B093F803B005F80AB0B3F804A0A1F808A0A1
:401CC00093F902A0BAF1000F0BDAB9F1010F0CBF4FF007094FF00D0981F8059081F801E009E0B9F1010F0CBF4FF005094FF0090981F805904F704FEA02191A4906FB028271
:401D0000494481F802E0B2F808A0CAF3072A81F800A0B2F808A05FFA8AFA81F801A0B2F806A011495FFA8AFA494481F806A0B2F80690C9F3072981F80790B2F806905FFA11
:401D400089F981F80490D288C2F307224A71083394E7BDE8F88F00BF8586FF1F8C86FF1F8186FF1FFC5F0040706000407286FF1F08B5064B18780138C0B2FFF753FF20B19F
:401D800043681B7900EBC300406908BD8586FF1F00212DE9F84F0B464E4E0C2707FB01F401313219092933554FF000059370494CD3701381937253705371EFD118B1464B7A
:401DC0001D70464B1D70464B1A78002A7FD0187801250138C0B2FFF725FFA8464368DFF8F8E0DB790C2713F0400F3E4B4FF0000C1A7814BF42F0010202F0FE021A70027A9A
:401E0000D20007FB0541C36803EB02094B4531D093F802A00AF07F06AE4229D10E89B3F804B0B6B25E4538BFA1F808B01E7893F801B01EF80660B3451AD181F804A0DE7850
:401E40000E7093F902A0DE78BAF1000F06F0030607DA012E0CBF07260D264E7181F8018006E0012E0CBF052609264E7181F801C00833CBE70135092DC3D1C1680A328B1C87
:401E80000A440C200833934209D013F8081C13F80A5C01F07F0100FB01418D72F2E7FFF767FF114B0121186000230C2000FB0142D3801289013113449BB203F001021344A9
:401EC00009299BB2F2D1BDE8F84FFFF767BEBDE8F88F00BF8C86FF1F7286FF1FFA86FF1F8586FF1F8386FF1F8886FF1F114B1B7903F07F035A1E072A19D80F490C2202FBCC
:401F0000031291781B0141F0010191700021D170517841F002015170127912F0800F074A1A4414BF8D2389239370FFF715BC0020704700BF006000408C86FF1FFC5F00404E
:401F400030B4194B1A7902F07F02531E072B27D8164B0C2404FB02339978154D01F0FE0199700021D97029461201505D114400F07F0050555A7802F0FD025A701A795B784B
:401F8000120605D5012B01D18C7006E00D2303E0012B0CBF082309238B7030BCFFF7DCBB002030BC704700BF006000408C86FF1FFC5F004010B50D4B0D4C21791878C9B272
:401FC0000138C0B2FFF72EFE43681B798B4201D2012909D8074A0848535CDBB24354A3780120DBB2535410BD002010BD8586FF1F006000407286FF1FFA86FF1F38B58A4A4E
:402000008A4C13780021DBB221801806517840F18D800A2900F20581DFE811F05D00030103010301030103010B0003017E0003018200D3787C49012B09D17D4B1A787D4B9C
:4020400003EBC2035B685B686360122310E0CB78022B12D18878FFF7E5FD002800F0E180436863606368DA7863689B7843EA02232380BDE83840FFF78FBCCB78032B26D177
:402080006D4B00228878D5B2854209D3664A91786A4AEE2908BF1346634A917881B106E0187801320028F1D018780344EAE764499278097C914203D16248FFF739FD614BF1
:4020C0001A78002A00F0AD801A78228018E0BDE8384000F019BF13F0030313D0022B40F0A0802380504B0C211B7903F07F02564B01FB02339A78554BD2B21A7000225A709C
:402100006360B6E702222280514A11784F4AC9B2117053706260ACE7012323804D4BEFE70123238013794C4A1344E9E701390A2977D8DFE801F037764F76067676760A7695
:4021400020009378454ADBB25AE0937803F0FF0153B9404B1A7891425FD01970404B01201870FFF715FE58E0481EC0B2FFF75AFD0028EED155E0FFF71DFF002851D02A4AA7
:40218000384913791279DBB2D2B20A70364A3249D25CCB5C9A4240D0314B01221A70FFF753FD3AE003F00303012B2BD009D3022B37D11D4B9B78002B33D1BDE83840FFF749
:4021C000BFBE194B9B78012B2BD1214A137803F0FD0315E003F00303012B13D008D3022B1FD1114B9B78E3B9BDE83840FFF77EBE0D4B9B78012B14D1154A137843F00203ED
:4022000013700AE0084B1A795AB998781B791749DBB2CA5C22EA0002CA54BDE83840FFF79BBA002038BD00BF006000407486FF1F8086FF1FF4390000583A0000E039000065
:40224000CB3A00001887FF1F8C86FF1F3186FF1F8386FF1F8586FF1F7286FF1F7086FF1F8486FF1F8186FF1FFA86FF1F8786FF1F074B1A78120609D55B78012B06D1054B07
:40228000054A5A6012781A80FFF786BB00207047006000407486FF1FB8390000014B1870704700BF7F640040014B1878704700BF66650040014B1870704700BF766500400B
:4022C000074A0223136002F688321268E0215064044A11706FF440710A441360704700BF80E100E001E400E0014B1870704700BF7C64004073B515461E460B4C0423002203
:40230000019200920A4601461846237000F098F932462946207800F053F90221207800F03DF9207802B070BDD080FF1F064A0123136002F688321268E0211064034A117098
:40234000A2F540721360704780E100E000E400E0014B1870704700BF7864004073B515461E460B4C05230022019200920A4601461846237000F064F932462946207800F08E
:402380001FF90221207800F009F9207802B070BDD180FF1F064A0423136002F688321268E0219064034A1170A2F202321360704780E100E002E400E0014B04221A607047FD
:4023C00000E100E0014B04221A60704780E100E0014B1870704700BF77650040704738B505460078012428B100F026FD285D0134E4B2F8E738BD08B50D2000F01DFDBDE89D
:4024000008400A2000F018BDF7B516461F460B4C00230325019300930A4601462846257000F00EF93A463146207800F0C9F80221207800F0B3F8207803B0F0BDE080FF1F92
:40244000F7B516461F460B4C00230225019300930A4601462846257000F0F2F83A463146207800F0ADF82946207800F097F8207803B0F0BDE180FF1FF7B516461F460B4CCE
:4024800000230125019300930A4601462846257000F0D6F83A463146207800F091F80221207800F07BF8207803B0F0BDE280FF1F73B515461E460B4C0023019300930A46DE
:4024C00001461846237000F0BBF832462946207800F076F80221207800F060F8207802B070BD00BFE380FF1F024B1878C0F38010704700BF8F450040074A7F2380211370A9
:402500005170064A013BDBB202F80839002BF9D1034A1370704700BFE480FF1FF87B00400078004017280FD8084B0001C25C11B142F0200201E002F0DF02C254C25C42F096
:402540000102C25400207047012070471070004017280BD8064B0001C25C02F0FE02C254C25C02F0DF02C25400207047012070471070004017280DD8074900010B460344B6
:402580001A7942F004021A71435C43F00103435400207047012070471070004017280BD8064A0001835C490003F0F10301F00E0119438154002070470120704710700040C7
:4025C00041F6FF73994208BF4FF400519A4208BF4FF4005217289FBFC00000F1804000F5EC4081809ABFC280002001207047000017289FBF034B00011954002088BF012020
:40260000704700BF1970004017289FBF054B00011A5C01F007019DBF1143195400200120704700BF1470004017289FBF034B0001185C00F0070088BFFF207047147000402E
:40264000172810B51AD8C00001F07F0100F1804441EAC21204F5EC44D2B222709DF8082003F00F0343EA0213DBB263709DF80C30002003F00F03A370E07010BD012010BDC8
:4026800010B500F039FC0A4A5378182B0AD91478013B5370E30003F1804303F5F0431B78137000E0FF2400F02BFC204610BD00BFE480FF1F030610B5044611D400F01CFCF2
:4026C000084AE300117803F1804303F5F04319705378147001335370BDE8104000F010BC10BD00BFE480FF1F30B504060CD411F4704509D1C40004F1804404F5F0442180FE
:40270000A270E370284630BD012030BD03065FBFC00000F1804000F5F04081805ABFC280002001207047000038B50446084DB4F5004F05D9286800F0D7FBA4F50044F6E74C
:40274000034B58686043BDE8384000F0CDBB00BFEC80FF1F024B1B7A584300F0C5BB00BFEC80FF1F0E4B00F003001A78490102F0FC02104318701A7801F0600142F0800209
:402780001A701A7802F07F021A701A7802F09F020A431A701A7842F010021A70704700BF83430040014B01221A70704784430040044B00F00F021B6853F8220043F82210C4
:4027C000704700BF08ED00E0054A00F01F00126800F1100352F8230042F82310704700BF08ED00E000F01F0000F16040490100F56440C9B2017070470F4B10B50F490024CC
:402800000F205C609C60DC601C615C61FFF7D0FF0B4A136843F0040313600A4B4FF47A72DB68B3FBF2F3084A1360084B4FF400421C60C3F8E82010BD3486FF1FA528000051
:4028400010E000E0EC80FF1F14E000E018E000E0024A136843F002031360704710E000E008B5FFF7F5FF034A136843F00103136008BD00BF10E000E010B5054CA3691BB9F6
:40288000FFF7BAFF0123A361BDE81040FFF7E8BF3486FF1F024B1868C0F30040704700BF10E000E038B5FFF7F5FF012808D1054D002455F8243003B198470134052CF8D11F
:4028C00038BD00BF3886FF1F024B03EB80035868596070473486FF1F134B144A1B78DBB20360127843EA0223114A0360127843EA0243104A0360127843EA026303600E4B18
:402900000E4A1B78DBB24360127843EA02230C4A4360127843EA02430A4A4360127843EA02634360704700BF0301004904010049EC46004002010049010100490001004991
:40294000050100490601004910B500F0D5FA204A044613780A2043F002031370137C43F00203137412F80A3C43F0010302F80A3C937943F00103937102F5AB52137843F002
:4029800003031370134B18221A7013F8012C42F0400203F8012C13F8012C02F0FC0203F8012CCE2203F8062CA3F597530222183B1A70094A137843F008031370FFF7CAFE4B
:4029C000064B10222046BDE810401A6000F098BAAB4300400E5900402F5B004080E200E008B500F089FA0F4A137803F0FE031370A2F5AA521D3A137803F0FD031370137C57
:402A000003F0FD03137412F80A3C03F0FE0302F80A3C937903F0FE039371BDE8084000F06FBA00BF08590040044A137803F03F0343EA8010C0B21070704700BF085900405A
:402A4000082804D00A280CBF8223C22300E0422308380E4AC0B20428137098BF0C4B4FF0000298BF33F910100A4B88BF11461A8042F210734B4341F2883103F6C41393FB1F
:402A8000F1F305490B60054B1A8070470A590040A43900000287FF1F0487FF1F0887FF1F08B5102000F0A6F907210420FFF79AFE07490420FFF788FE064A0C20137843F0DB
:402AC00006031370FFF7BCFF034B00221A8008BD992B0000095900400087FF1F10B5054C23781BB9FFF7DCFF01232370BDE81040FFF72ABF5086FF1F044B1A7802F0FB021A
:402B00001A701A7842F001021A7070470859004010B5084B1C7814F0010403D10028F9D0002404E02046FFF715FE024B1B78204610BD00BF09590040034A044B1B88108826
:402B4000181A00B2704700BF0887FF1FA25B00400E4A13881BB223B111880A2309B2594301E00B4B19680B4B1B88C01A42F2107300B203FB00F2022391FBF3F30028D8BF26
:402B80005B42134493FBF1F000B270470287FF1F0487FF1F0087FF1F7047000010B500F0ABF9214A044613780A2043F001031370137C43F00103137412F80A3C43F002034B
:402BC00002F80A3C937943F00203937102F5AA521832137843F003031370144B18221A7013F8012C42F0400203F8012C13F8012C02F0FC0203F8012CCE2203F8062CA3F5CD
:402C000097530222123B1A70094A137843F008031370FFF79FFD074B08222046BDE810401A6000F06DB900BFAB43004006590040275B004080E200E008B500F05DF90F4A2B
:402C4000137803F0FE031370A2F5AA52153A137803F0FE031370137C03F0FE03137412F80A3C03F0FD0302F80A3C937903F0FD039371BDE8084000F043B900BF00590040AD
:402C8000044A137803F03F0343EA8010C0B21070704700BF00590040082804D00A280CBF8223C22300E0422308380E4AC0B20428137098BF0C4B4FF0000298BF33F910102D
:402CC0000A4B88BF11461A8042F210734B4341F2883103F6C41393FBF1F305490B60054B1A80704702590040AE3900000E87FF1F1487FF1F0C87FF1F08B5102000F084F882
:402D000007210320FFF76EFD07490320FFF75CFD064A0C20137843F006031370FFF7BCFF034B00221A8008BDF12D0000015900401087FF1F10B5054C23781BB9FFF7DCFF1C
:402D400001232370BDE81040FFF728BF5186FF1F044B1A7802F0FB021A701A7842F001021A7070470059004010B5084B1C7814F0010403D10028F9D0002404E02046FFF7FC
:402D8000E9FC024B1B78204610BD00BF01590040034A044B1B881088181A00B2704700BF0C87FF1FA05B00400E4A13881BB223B111880A2309B2594301E00B4B19680B4BE6
:402DC0001B88C01A42F2107300B203FB00F2022391FBF3F30028D8BF5B42134493FBF1F000B270470E87FF1F1487FF1F1087FF1F70470000034A00F0F8001378034313707A
:402E0000704700BF02410040034A00F0F800137803431370704700BF06410040014B1870704700BF79640040014B1870704700BF7D64004000000000FEB5494652465B46C6
:402E40000EB40746244909688A46244A12682448022100F071F8030020480068C018204900F06AF8143883460121C9430C460125002600F041F8814651460B7823400B7096
:402E80005846013000F030F83800F04028400B78234003430B70584600F026F80136072EF2D9002001300138013001200B78234003430B705846043000F016F8484600F000
:402EC0001FF800BF00BF00BF0EBC894692469B46FEBD00BFAFF30080D480FF1FF880FF1F00C20100000000000230800803D000BF01380046FCD17047EFF3108072B6704725
:402F000080F31088704700BF094A137803F00303012B0AD0022B09D113790C2103F07F02044B01FB02339B7A00E0137900207047006000408C86FF1F002902D0B0FBF1F0D0
:402F4000704708B14FF0FF3000F008B80029F8D00246B0FBF1F000FB11217047704700BF014B1868704700BF5C81FF1F0E4B70B51E460E4C0025E41AA410A54204D056F84B
:402F8000253098470135F8E700F0BCFD084B094C1E46E41AA4100025A54204D056F8253098470135F8E770BD103B0000103B0000103B0000183B000003460244934202D053
:402FC00003F8011BFAE7704730B5141E05469BB0184604DA8B232B604FF0FF301DE04FF40273ADF80C300CBF234604F1FF33029305934FF6FF7300910491ADF80E3002466C
:403000001E9B6946284600F073F8431CBCBF8B232B6014B1009B00221A701BB030BD000007B5009313460A46014603480068FFF7CBFF03B05DF804FB5C81FF1F2DE9F04787
:403040008E6882469E420C46914698463ED88A8912F4906F3AD02568096902236F1A656905EB450595FBF3F57B1C43449D4238BF1D4653050FD5294600F04AFB064698B17A
:403080003A46216900F0D2FAA38923F4906343F08003A38113E02A4600F098FB064670B92169504600F0E8FA0C23CAF80030A3894FF0FF3043F04003A381BDE8F0872661F5
:4030C0003E44266046466561ED1BA560464528BF464649463246206800F0B3FAA36800209B1BA36023681E442660BDE8F08700002DE9F04F9DB003938B8980461C060D4645
:4031000016460DD50B695BB9402100F001FB2860286118B90C23C8F80030CDE040236B610023099320238DF82930DFF89CB130238DF82A3037463C4614F8013B1BB9B7EBAC
:40314000060910D003E0252BF9D02746F3E74B46324629464046FFF771FF013000F0A780099B4B4409933B78002B00F0A08000234FF0FF3204930793059206938DF85330B8
:403180001A930126052221784E4800F041FA671C049B38B14B4A3C46801A06FA00F018430490EFE7D90644BF20228DF853201A0744BF2B228DF8532022782A2A03D0079A62
:4031C00000210A200BE0039A111D12680391002A10DA524243F00200079204900BE027463B780134303B092B03D800FB02320121F5E701B107923B782E2B1ED17B782A2B41
:403200000AD1039B02371A1D1B680392002BB8BF4FF0FF33059310E0002319460593781C0A2407463A780130303A092A03D804FB01210123F5E703B10591032239782248C3
:4032400000F0E6F940B14023CBEB000003FA00F0049B013718430490397806221B487E1C8DF8281000F0D4F988B1194B33B9039B073323F007030833039314E003AB0093EE
:403280002A46144B04A94046AFF3008007E003AB00932A460F4B04A9404600F093F8B0F1FF3F824603D0099B5344099342E7AB895B0601D4099801E04FF0FF301DB0BDE804
:4032C000F08F00BFDF3A0000E53A0000E93A0000000000003D3000002DE9F04791461F460A698B6806469342B8BF1346C9F8003091F843200C46DDF8208012B10133C9F88C
:4033000000302368990642BFD9F800300233C9F80030256815F0060510D104F1190A07E00123524639463046C04701301AD00135E368D9F800209B1A9D42F1DB94F84330EA
:403340002268003318BF012392060FD5E118302081F843005A1C94F845102244023382F8431003E04FF0FF30BDE8F08704F1430239463046C0470130F4D02268D9F8005012
:40338000E36802F00602042A08BF5D1B2269A3680CBF25EAE57500259342C4BF9B1AED184FF000091A344D4509D00123224639463046C0470130D5D009F10109F3E70020FD
:4033C000BDE8F0872DE9F04317460A7E85B06E2A984606460C460C9B01F1430E00F0AE8011D8632A22D009D8002A00F0BB80582A40F0CA8081F84520834955E0642A1ED03D
:40340000692A1CD0C0E0732A00F0B08009D86F2A2ED0702A40F0B8800A6842F020020A603EE0752A24D0782A3AD0ADE01A6801F14205111D1960136884F84230A8E0216840
:403440001A6811F0800F02D0111D196008E011F0400F02F10401196002D0B2F9003000E01368002B3CDA2D225B4284F8432037E021681A6811F0800F02D0111D196007E0F2
:4034800011F0400F02F10401196001D0138800E01368227E5C496F2A14BF0A2208221BE078225A4984F845202268186812F0800F00F104051D6003D1550601D5038800E0E2
:4034C0000368D00744BF42F0200222601BB9226822F0200222601022002084F8430001E049490A226568002DA56008DB206820F0040020602BB9002D7DD175460CE0002BBE
:4035000079D07546B3FBF2F002FB1033CB5C05F8013D03460028F5D1082A0BD12368DA0708D5236962689A42DEBF302305F8013C05F1FF35C5EB0E0323612EE008681A68FC
:4035400010F0800F496903D0101D1860136808E010F0400F02F104001860136801D0198000E0196000232361754616E01A68111D1960156800216268284600F049F808B1F2
:40358000401B6060636804E004F1420584F8422001232361002384F84330CDF800803B4603AA21463046FFF797FE013002D14FF0FF3026E023692A4639463046C0470130F1
:4035C000F5D023689B0710D5002504F1190907E001234A4639463046C0470130E7D00135E368039A9B1A9D42F2DBE068039B9842B8BF184605E00B7804F1420584F8423093
:403600008AE705B0BDE8F08393390000F03A000010B5C9B202449042034605D01C7801308C42F8D1184610BD002010BD10B5431E0A44914204D011F8014B03F8014FF8E7D2
:4036400010BD884210B501EB020301D8421E0BE09842FBD28118D21AD34204D013F8014D01F8014DF8E710BD994204D011F8014B02F8014FF8E710BD38B50546002944D009
:4036800051F8043C0C1F002BB8BFE41800F0D4F81E4A1368114613B96360146030E0A3420DD92268A018834201BF18685B681218226063600C6023E0A24203D813465A6822
:4036C000002AF9D118681918A1420BD12168014458188242196013D110685268014419605A600DE002D90C232B6009E021686018824201BF106852680918216062605C601B
:403700002846BDE8384000F098B838BD5886FF1F70B5CD1C25F0030508350C2D38BF0C25002D064601DBA94202D90C23336046E000F082F8234B1C681A462146A1B10B6819
:403740005B1B0ED40B2B03D90B60CC18CD501EE08C420BBF63684B681360636018BF0C4615E00C464968E9E7174C23681BB9304600F052F820602946304600F04DF8431CCD
:4037800018D0C41C24F00304A0420DD12560304600F053F804F10B00231D20F00700C31A0ED05A42E25070BD211A304600F034F80130EBD10C233360304600F03EF80020EB
:4037C00070BD00BF5886FF1F5486FF1FF8B5074615460E4621B91146BDE8F840FFF798BF1AB9FFF749FF2846F8BD00F027F885420ED929463846FFF78BFF044650B13146C5
:403800002A46FFF713FF31463846FFF735FF01E03046F8BD2046F8BD38B5064C0023054608462360FDF7E8FB431C02D1236803B12B6038BD3C87FF1F7047704751F8040CDC
:403840000028BEBF091851F8043CC0180438704700000000050209020B020D020F02110213027265706C792030782530327800686F6D696E6700626567696E6E696E672081
:403880007365656B2066726F6D20256420746F2025640066696E6973686564207365656B0057616974696E6720666F72205553422E2E2E0055534220726561647900636F66
:4038C0006D6D616E642030782530327800756E64657272756E206166746572202564207061636B65747300636F756E743D256420693D256420643D2564207A7A3D25640039
:40390000636D645F777269746500703D25642063723D25642063773D256420663D256420773D256420696E6465783D256420756E64657272756E3D256400777269746520CD
:4039400066696E69736865640073746172742065726173696E670073746F702065726173696E670069646C6500005100401000305100404000000001400010001401400011
:403980000800400140000A004C014000020050014020003031323334353637383941424344454600000100000004000000100001000000040000001028000000000104003B
:4039C0000100000000000000000157494E5553420000303030303100000000000000000012034D005300460054003100300030000100000001000000FC39000001000000E4
:403A0000CB3A0000000000000000000001000000143A0000010000009D3A000004000000363A0000000000000000000000000000343A0000FF00000001024000FF00000037
:403A400082024000FF00000003034000FF00000084034000FF00020304030904160346006C007500780045006E00670069006E0065002A0343006F0077006C0061007200BC
:403A80006B00200054006500630068006E006F006C006F0067006900650073000009022E0001010080320904000004FF00000107050102400000070582024000000705036B
:403AC0000340000A0705840340000A12010002FF0001080912006E0100020180014300232D302B2000686C4C006566674546470030313233343536373839616263646566DD
:403B000000000000F8B500BFF8BC08BC9E4670475900000075100000F8B500BFF8BC08BC9E46704735000000383B0000C880FF1F98000000E0050000000000004087FF1F39
:403B4000FFFF0000675000400C00000007000000FFFFFFFF7F8000003F0000000000007D00FA0000400000000090D0030000000000000000000000000000000000000000E9
:403B8000000000000000000000000000DD3A0000000000000000000000000000000000000000000000000000000000000000000000000000000000000000000000000000EE
:403BC000000000000000000000000000FC80FF1F0000000000000000000000000000000000000000000000000000000000000000000000000000000000000000000000002B
:403C00000000000000000000000000000000000000000000000000000000000000000000000000000000000000000000000000000000000000000000000000000000000084
:403C40000000000000000000000000000000000000000000000000000000000000000000000000000000000000000000000000000000000000000000000000000000000044
:403C80000000000000000000000000000000000000000000000000000000000000000000000000000000000000000000000000000000000000000000000000000000000004
:403CC00000000000000000000000000000000000000000000000000000000000000000000000000000000000000000000000000000000000000000000000000000000000C4
:020000040003F7
:0200000480007A
:400000000145004007520040015B004001640040020101400C030140110501403F0601405007014050080140560901404B0A0140520B01403E0C0140480D0140410E014039
:40004000360F01404414014055150140461601404A1701404E18014059190140491A0140551B01400C40014010410140104201400643014002440140084501400C460140E4
:400080000E4701400748014007490140194C0140074D014007500140045101407E0208040945108011806009611A7C402721280A8F40E201800188119B04A008A222A34051
:4000C000A808B622B704E20AE604EA038C04900291049204981199029B44A008A222A340AB40AD06B204E20CE440E604EE0B0101021006080E041A011E2022022415262AB8
:4001000030303403360C37013B303F4056085804590A5B045C995D905F018208830F864087018A108B0F8E048F0797039A809B0F9E01A30FA602AA20AC55AEAAB00CB10851
:40014000B230B304B4C0B502B603B701BBAAC205C6E0C7C0C828C9FFCAFFCBFFCF83D804D90ADA04DB04DC99DD09DF0100040102030A0408054006800A010B040D800E08F5
:400180001010120A15021704180419011A011B9E1D421E0821892208234424082640290230103108380239103B443F01410242804A024C044D105010530159415A245C80E9
:4001C00061026280632867017A207E2080408121825083808480851090029104920494289702981199029B44A008A222A340A810B701C0BFC2C3C437CA01CC06CE8FD208F8
:40020000D61FD81FDE42E203E603EE04000903030401070808010B020D031001130416021701181019131D03231325032604280129032B102D033010310F3207330334086A
:4002400035103E013F1440244502480149FF4AFF4BFF4D204EF051105608580459045A045B045C995D995F01610862406340648066406740803D82C08603888089018C30F8
:4002800090569102940C964098809CA9A080A480A880A901AC80B101B4FFB502BB02BE10BF10D804D904DB04DC90DF010008018003880410066009080A4A0E600F081010BE
:4002C000110212091508160419201C301D0E1F242080210122132511276029202A042B202C102F96300235103609374039243A083C813E1445124F085C80633064026980E8
:400300006C016D806E406F028010810885408C808D088E029001912892049446951796B3975C99029A609C589D8C9E0B9FC0A002A180A221A380A4ACA529A68AA712B42055
:40034000C07FC27FC46FCAF4CCF1CEF4D0A0D610D810E602E840EE04001C012C02030302040305050604080209050C100F051002110514021510180819051A011C021D0898
:400380001F0220022105250526022802290F2B102C022D132F20341F353F3E103F10580459045F01807F810884068508881189088A268E028F0890069302945695039621A7
:4003C000970C98079A089B019E019F0FA040A104A206A508A601A908AA04AC06AD0FAE78B10FB47FBE10BF01D804D904DF01000801800208038004060520060109010A1230
:400400000B080D290E01104812211408150417421A081E042110260129202A222B122D182E012F02302132403304341035043602374039123B443D013F5444014780491012
:400440004B1082108A808C108E408F08900191089450951596D9975C99229A409B069C209D909E0A9F80A002A180A220A380A480A508A70AAB02AE10AF02B202B601C0FF14
:40048000C2FFC4FFCAFFCCFFCEFFE010E20CE440EE20000403090A030D020F0415081A011F022203270431063201330134023508360437083A283E403F505608580B590448
:4004C0005B045C995D905F01803F81028502861089028A208C3F8F0290019103963F970399029A3F9D029E3FA102A204A43FA502AA02AB04AD01AE08B03FB104B303BB023E
:40050000BE01BF04D804D90BDB04DC90DF0100400114038004120A110B480E0810C012011394150219021E2A1F2021052401262A274629802A0E2B082F203118324033023E
:400540003608374039103A013B643C803F015E406703680269206C0178017D0283208911950196889776980199209A409C609E04A040A181A380A402A702A801AE02B08082
:40058000B180B503C05FC24FC41FCA4FCC5FCE9FD610D810DE81E22AE620EA10EE1000080301040108010E021201130114011A041C012001240128012E0130083101340773
:4005C000360738A039023E013F015608580459045B045C095D905F01800881A08D0D8E049030910A95019601982099D09A109C029D10A004A305A430A801AB50AC10AE2043
:40060000B020B1C0B203B330B430B50CB60CB703BA20D608D804D908DB04DC99DD90DF010004024403020540064008400A880B200D020E280F0111011354142117621885B2
:4006400019201B801C801D421E281F4422022541276A2F443002318033803402376838023D803F0158805D806002624067016C016E407F0180408E40C09FC2FFC4FFCAA03B
:40068000CCF1CE91D618D818DE10E640010102200602073F0A3F0B040D3F0E0412081302143F153F1A3F1B081C3F1F1022102320263F273F283F2B3F2C012D3F313F363F99
:4006C0003E403F01580459045B045F01800182088301841D881D8B018C1D8F0492079501961D980199019A309C1DA01DA101A61DA702A80CA901AA22AC1DAF01B23CB4037C
:40070000B507BB20BE14D608D804D904DB04DC90DD90DF0100820120021004840688080809500B510C0A0D200F0110481221130214821524172018021D081F202040270C87
:40074000280129242A022C092F603058310237283A053B903C403D22582059845B045D40658080208402870888038B028D40908491E493C09402989899209A9F9B029C0275
:400780009F04A049A173A220A302A508A880A910AA05AB01AC40AD06AF02B140B281B520B620B704C0FFC2FFC4FFCAFFCC6FCEBFD61CD810E008E684E808EA27EE03020675
:4007C0000401060C080609020C060E0110071401160619021A021E01200621022601280329012A082C063502360F37013B303E403F40580459045B045C905F01822083102C
:400800008602870489048A3F8D048E04903F9120963F970899049A3F9C3F9F04A210A301A504A608A83FAB04AC01AD02AF01B102B320B43FB51CB701B980BB20BE10BF450D
:40084000D804D904DB04DC90DF0100820120021004840608074009500B500C0A0D200F2110081108120113021492152019101F80216422212404269028092B502F8831287D
:40088000324033013510380239203A043B803E105EA05F106B016F0A800C84108610874088038A028B408D448E80908091249290980199209A089B40A008A101A240A3401E
:4008C000A610AA94B218C0FFC2FFC4FFCAAFCC2FCE2FD610E004E202E626EA01EE080132020405320610080809330B0C0D020E010F101008113212011401153317041801C6
:400900001A081B321D321E022008210123382409253229022A012B602C012D1F2F403018317032073418350F3A2A3F11580459045C095F0180128433860488018C128D017B
:400940008E089010920C9812AE12B00EB210B420B601B701BE40BF40C003C5C0C6E0C80AC9FFCAFFCBFFD004D601D804D904DA04DB04DC09DD09DF01E2C0008001280380C4
:4009800004080582060409200A400C010E1A100115401668181319A81A411C481D301E1C1F08228026112D402F9A3626374039803C203D0A3E804010484052106820691777
:4009C0006AAA6B8070C07101720A737478407A02810482028501872089308A108C808E10918093089444951596919774980399029A649B409D909E039F80A010A180A2229B
:400A0000A382A4ACA520A698A708AB24B049B108B205C0FFC2FAC4F1CAF0CCF0CEF8D002E2C0E6F0E880EA20EC04EE08000101040310040105030602070C09080A010C01DF
:400A40000D080E021108120114011508180119011C011F02200123182401250828012B0F2D0F2E0131103403370F3E103F41580459045F0180068121834E840687048806C5
:400A8000892E8B418E028F02910E9206950F9604971098069B0E9E089F08A006A301A50EA610A770AA06AB01AC01AD7FB001B41EB57FBE01BF10D804D904DC09DF010028F8
:400AC0000101030204040580068409800AA80B010D410E18108013641442171818081C041D101F1121402340270829112A882B022D102E012F12304032253310362637405E
:400B000038823A043B183C203D083F8148084B206580664079027B80830186488B309082911192BB931C940C9720984299019A089B60A094A184A226A3C2A408A608A8019F
:400B4000A901AB40AD04AF04B204B501B681B740C0FFC2FFC4FFCAFFCCFFCEFFE220E410E620E898EC50EE201A801F0832403308360437203B108320C630CCF0CE10E28099
:400B800030023380358036023B043E40860287109710A108A604AD08CCF0CE60E250EA40510857048002830485808C04964097049D80A108A402A604A780D460E230E62046
:400BC00094049704A780AA44EA20EE201410C4046708860487409C04B014D801EA04EE011B04812087108B04960497889C04A310B710C608E001E808080809200E040F100D
:400C000085208E01960497909C04A310A520AB04C20FE20824048B0494049704AF80C820EE107402788088029880B080DC80DE2005200A200C040E021F4052805402584016
:400C400063208E1097809C049D20A280A310A601AA80AC08C001C20DC601D405D604D802E20279808D40AC02B040DC01E408E80101010B010D010F0111011B011D0100FF30
:400C800001AB020211050000BF0000A09F001F000000000000000000100000004000000000000000C0000000FF0000B847004700000100008000000080008000000000007B
:400CC000270018012700180100040000000500000000000000000000000000000000000000000000000000000000000000000000000000000000000000000000000000006B
:400D000000000000000000000000000000000000000000000000000000000000000000000000000000000000000000000000000000000000000000000000000000000000B3
:400D40000000000000000000000000000000000000000000000000000000000000000000000000000000000000000000000000000000000000000000000000000000000073
:400D80000000000000000000000000000000000000000000000000000000000000000000000000000000000000000000000000000000000000000000000000000000000033
:400DC00000000000000000000000000000000000000000000000000000000000000000000000000000000000000000000000000000000000000000000000000000000000F3
:0200000490006A
:0400000000000007F5
:0200000490105A
:04000000BC90ACAF55
:0200000490303A
:020000002FFCD3
:0200000490402A
:4000000000000000000000000000000000000000000000000000000000000000000000000000000000000000000000000000000000000000000000000000000000000000C0
:400040000000000000000000000000000000000000000000000000000000000000000000000000000000000000000000000000000000000000000000000000000000000080
:400080000000000000000000000000000000000000000000000000000000000000000000000000000000000000000000000000000000000000000000000000000000000040
:4000C0000000000000000000000000000000000000000000000000000000000000000000000000000000000000000000000000000000000000000000000000000000000000
:0200000490501A
:0C00000000012E16106900002E30406533
:00000001FF