:400000000080002011000000F50F0000F50F0000064A08B5136843F020031360044B1A6803F53F5302331A6001F002F8E8460040FA46004010B5054C237833B9044B13B123
:400040000448AFF300800123237010BD6081FF1F0000000068380000084B10B51BB108490848AFF300800848036803B910BD074B002BFBD0BDE81040184700BF00000000A9
:400080006481FF1F68380000C880FF1F0000000072B6034A13680133136062B6704700BF8081FF1F0A4A0B4B516801310B40002BBEBF03F1FF3363F00F0301335360516840
:4000C0009368994202BF024B01221A73704700BF8081FF1F0F0000800A4A0B4B916801310B40002BBEBF03F1FF3363F00F030133936091685368994202BF024B01221A7381
:40010000704700BF8081FF1F0F000080024B012200205A7302F062B98081FF1F10B5C4B2204601F047F90128FAD110BD10B50446094B9A7B987382421CBF0022DA7310F0EE
:40014000010F14BF0220012002F07AFE6008BDE8104002F06FBE00BF8081FF1F70B5C4B220460E4601F02EF9314605460246204601F0EAF9204601F01DF90128FAD0284616
:4001800070BD000038B5094C257C3DB9012002F08BF84FF47A7002F0D3FAE5732368636101232374BDE8384002F008BB8081FF1F38B50446C5B2284602F082F8062002F0C4
:4001C000D5FA44F00200C0B202F07AF8062002F0CDFA284602F074F8BDE83840062002F0AFBA10B5642402F065F820B10120BDE81040FFF7DDBF0120FFF7DAFF013CF2D1D6
:40020000F4E7000038B5044D0024285D013402F05DFA102CF9D138BD9881FF1F08B502F077FC002002F080FC02F092FC02F09CFC80B208BD10B50446012002F05BF86420A2
:4002400002F07EFAFFF7EAFF2080002002F052F8642002F075FAFFF7E1FF608010BD08B502F082FD002002F08BFD02F09DFD02F0A7FD80B208BD10B50446FFF7B2FF3220E8
:4002800002F05EFAFFF7EBFF20800020FFF790FF322002F055FAFFF7E2FF608010BD0FB400B593B014AB53F8042B402102A8019302F0C2FE02A802F09EF802F0A8F813B0EC
:4002C0005DF804EB04B0704710B5044601780648FFF7E5FF0420FFF721FF62782146BDE81040042001F0BEB87A38000007B50023ADF804308DF80600032301A88DF8053026
:40030000FFF7E2FF03B05DF804FB0000F8B51D4C0646FFF737FFE37B03B156B91A48FFF7BEFFFFF75EFF01200023E073A36202F01DFA3246A16A1548FFF7B1FF114D002718
:40034000A36A9E4216D001F0B5FF00B1AF62A36A9E4205DD0020FFF72BFFAB6A013305E005DA0120FFF724FFAB6A013BAB6202F025FAE5E7322002F0E3F9BDE8F840044869
:40038000FFF78DBF8081FF1F873800008E380000AB3800002DE9F04F9BB062B602F078FAAB49042002F09CFAAA4801F08FFFAA4801F0C2FFA94801F0F3FF02F049FC02F0A6
:4003C0001BFB002002F03CFD02F014F80221002000F0A6FFA24D0321084602F0CFF92E462C4602F0EBF92B7C5BB16A692B689B1A41F28832934204D9002001F055FF0023FA
:400400002B7400F0C5FF18B99648FFF748FF04E000F0C4FF0028F7D109E000F0B9FF0028FBD09148FFF73BFF032001F0E1F8032000F0C0FF0128D4D1A07BFFF777FE8B4982
:400440000320FFF78BFE94F82C108948FFF727FF94F82C30023B122B00F2E383DFE813F01300E1031C00E1032200E1033A00E1035E00E1039A01E1032503E1034403E1038E
:400480004A03E103560303238DF828308DF8293008238DF82A3035E394F82E00FFF736FF744B2CE3FFF76EFE00236373637B002BFCD0002373733268637B002BFCD03368B9
:4004C00007218DF828109B1A04218DF82910ADF82A3017E30220FFF721FE4FF000090DF1280A4FF480780027C8EB0903DA1907F80A200137402FF9D10220FFF70FFE3A4684
:400500005146022000F0AEFFB8F10108EBD109F10109B9F1400FE4D1574BC1E294F82E0001F0E8FEA06AFFF7F1FE012001F05CFF02F0EEFC514BDFF848811A78002742F010
:4005400004021A701A7842F001021A701A7802F0FE021A701A7802F0FE021A7002F0DCFC0220FFF7DBFD41F6FF734FF480420121022001F0C5FE84F86C0002F08DF808F8BF
:4005800007000137102FF8D1DFF8F8A000270AF159081FFA88F90137102F14BF3A4600221AF8010F22440623127E402102F0A8F84A4646F249519AF8000002F0B3F809F1BD
:4005C0004009102F1FFA89F9E5D100237373637B002BFCD00027142239460AA87773DFF8A89002F0F5FC40230D9338464FF0FF337760CDF83090B360377301F0F5FE736810
:4006000096F86C003344197E01F0FEFF96F86C0001F0BCFF012196F86C0001F08FFF636813B96B7B002BFAD0002794F82FA0A76094F80CB0BBF1000F69D102F0BFF86B7BBC
:400640003BB3BAF1010A85F80DB022D15FE000BF910000000D010000A5000000D90000008081FF1FB9380000CC380000AC81FF1FD63800006C3800006E3800009965004099
:400680009881FF1F9781FF1FF085FF1F2B7B002B3DD1A26863689A42F8D04FF0000BA3680AA808EB83135B440A93CBF140030B9300F0D6FA0B9B0137C3F140039B440D9B5D
:4006C0005FFA8BFB9BB9022000F074FE012805D0637BE3B92B7B002BF5D018E04022B949022000F0BFFE4023CDF830900D93BBF13F0FD4D9A268B44B01321340002BBEBFA4
:4007000003F1FF3363F00F030133A36090E7042194F86C0001F084FF94F86C0001F090FF0028F9D10AA800F0CFFA0220FFF7F6FCDDF83480B8F1400F06D0C8F1400292B27A
:40074000A049022000F08EFE0D9A32F0400203D11146022000F086FE0220FFF7DFFCFFF751FD237B33B19948FFF799FD0220FFF7BDFD06E0964B09A81B88ADF82430FFF724
:40078000A3FD627B3946237B9248CDF80080FFF786FD49E29048FFF782FD276B17F03F0701D003203EE2012001F0D8FD95F82E0001F0A0FD02F0ACFB884BDFF824821A78F1
:4007C00002F0FB021A701A7842F001021A701A7802F0FE021A701A7802F0FE021A7002F09BFBA86AFFF792FD01214FF4804341F6FF72084601F0B8FD85F86C0001F04CFF0B
:4008000008F807000137102FF8D1DFF8D891002709F159031FFA83F807930137102F14BF3A46002219F8010F22440523127E402101F066FF414646F2484299F8000001F0D9
:4008400071FF08F14008102F1FFA88F8E5D10027BB46B946BA46336B4FF0FF389B09142239460AA877600593C6F80880377302F0AFFB402301200D9300F0BAFECDF81880CF
:400880006268514B01321340002BBCBF03F1FF3363F00F03A168B8BF01338B4200F0A480BAF1000F07D0237B002B40F0B0806B7B002B40F0AC800B9B002B34D1B9F1000FD0
:4008C0000BD07F223F495A540133402BFAD10A910B9328E0BAF1000F06D1012000F06AFD01288046F6D107E0237B002B40F08F806B7B002BF1D08AE03249FFF72FFC81464E
:40090000304B0B9040460A9300F072FEB9F13F0F07F1010706DD059BDB1BD3F1000949EB030900E0C1460B9BDBB16368079A0AA802EB83120D9BC3F1400313440C9300F062
:40094000D2F90D9B6BB96A681F4B01321340002BBEBF03F1FF3363F00F030133636040230D93A36801333FD16B680F2B3CD14FF00008C5F8088001F025FD85F80C80AB68CD
:4009800095F86C002B44197E01F03EFE95F86C0001F0FCFD012195F86C0001F0CFFD85F80D80637B002BFCD04FF00008012086F80D8001F013FD404601F0D0FCCDF818805D
:4009C00015E000BFF085FF1F0F000080E538000070380000FF38000018390000986400409881FF1F9781FF1FBAF1000F05D0237B6BB96B7B5BB94FF0010AA368069A934216
:400A00003FF43EAFAB680BF1010B069338E701F0DFFC012001F0A2FC002001F0DFFC042194F86C0001F0FCFD94F86C0001F008FE0028F9D196F86C0001F096FD737B327B5A
:400A40000293012303920193CDF800905B463A4605997948FFF723FCB9F1000F16D1059BBB420ADD012000F0A5FC01288046F6D17249FFF773FB3F2803DC012000F0CCFDDF
:400A800004E0404600F0B4FD0137E8E7FFF7BAFB6B48FFF704FC237B0BB10220C2E0694B1B8809A8ADF824302DE094F82E0001F021FCA06AFFF72AFC6348FFF7F0FB002307
:400AC0006373637B002BFCD0012001F087FC00237373637B002BFCD0002001F07FFC5B48FFF7DDFB5A4B0AE00020E073FFF70EFC584B04E094F82E00FFF718FB564B1B884B
:400B0000ADF828300AA8FFF7DFFB8DE0237C23B1002001F0C9FB00232B7402F017F9002002F0BAF82A2701F0E5FF002001F088FF3A4600210AA802F04BFA15238DF828309C
:400B40008DF8297001F03AFE002001F0ADFB002002F076F9C82001F0F3FD0DEB0700FFF769FB0DF13E00FFF786FB01F027FE012002F066F9322001F0E3FD0DF12E00FFF752
:400B800059FB0DF14200FFF776FB012001F08CFB4FF4967001F0D4FD01F010FE0DF13600FFF748FB0DF14A00FFF765FB002001F07BFB4FF4967001F0C3FD01F0FFFD0220FC
:400BC00002F03EF9322001F0BBFD0DF13200FFF731FB0DF14600FFF74EFB012001F064FB4FF4967001F0ACFD01F0E8FD0DF13A00FFF720FB0DF14E00FFF73DFB002001F0FE
:400C000053FB4FF4967001F09BFD01F0D7FD002002F016F90023E37302F01AF801F0ECFE70E70120FFF762FB032000F0E1FC0B48FFF735FBFFF7D5BB22390000F085FF1FAE
:400C40005239000072380000613900006F3900007438000076380000783800007C39000010B54268002A2ED0C368002B2BD00368048A591C01601B78013A13F0800F817C2A
:400C800042601DBF03F0010242EA84030231083114BF43F0020343EA0423817414BF03820382837C072BDCD9028A083B42FA03F38268511C81601370C368013BC360837C45
:400CC000083B8374CDE710BD07B5827C42B102AA002102F8011D026001224260FFF7C0FF03B05DF804FB30B543686BB3C2685AB3827C072A0CD8046890F91050611C016099
:400D00002178013B41EA05210832018243608274827C018AA2F108042141CBB2090608D5C3F3801363F07F03023A03F08103827402E08474002BD7D08268511C8160137016
:400D4000C368013BC360CFE730BD00002DE9F04172B6844B61221A70A3F5F06301221A801924814A9C7092E803008033062283F8002283E80300522203F580731A707B4B2D
:400D80007B4A1B787B4EDBB2137040F618027A4B00251A8041F2512223F8022C33784FF4F07003F0010343EA450502F0A9F8013C05F003052ED0032DF0D1704B4FF48072D7
:400DC0001A8007221A706E4A002548211570917002221D705D7103F8032C0422DA71694A694C1378694E43F00103137012F8013C062743F0030302F8013C2378012243F087
:400E000080032370574B1A70614A137843F02003137000E0FEE707FB056300219A881868013502F0D5F8072DF5D15A485A4E002550F8041F05F1105303F14E0221F0FF07F2
:400E40004F33C9B20B4452005B0002329A4206D012F802EC12F801CC0EF807C0F5E7B0420D44E5D14D4A002313609360136193614B4B4C4F1A684C4BDFF874811A604B4B74
:400E80001A684B4B1A604B4A137843F002031370137C43F0020313742378A2F5863243F040032370413A137843F010031370424A424B07CA03C31A80414A2833106843F8D2
:400EC000250C127903F8212C3E4A07CA03C31A803D4AE83B07CA03C31A803C4A083307CA03C31A803A4A0420137843F008031370384B02F5AA521B783D78DBB298F8006039
:400F0000EDB203F007010C321B091170F6B2537045F003033B7046F0030388F800302E4B48221A702D4A402313702D49937013729372082382F81F3220220A7048710A7243
:400F4000284A0A20137001F011FC274B88F8006044223D70254D1A7094E80F0007C52B80BDE8F08100480040900C00480F010049A146004025420040224200400440004020
:400F800006400040A2430040A043004081390000E8460040FCFFFF479800004800760040980C0048F8460040207600409C0C00482876004003500140580C0048C0510040C5
:400FC000640C00486C0C0048780C0048840C004822430040CF0100491D51004001590040235B0040585B004076580040B0430040F946004008B501F0BFFF03680C2B00D17F
:40100000FEE7FEE7084908B50B68084A1844821A802A01DC086005E001F0AEFF0C2303604FF0FF33184608BDCC80FF1F4087FF1F80B51148114B0025C0B1A3F1100192C9B4
:4010400022460439161BB74204D051F8046F42F8046BF7E7114653F8046C8C1AA64202D041F8045BF9E701381033E5E701F08AFFFFF790F9FEE700BF01000000503B00002F
:40108000124A134B10B51A60124A134C1368134843F4007313600023032B98BF54F823204FEA830188BF0E4A0133302B4250F3D10C4B1A780C4B1A700C4B084A1A60FFF72E
:4010C00045FEBDE8104001F023BA00BF0004FA050CED00E014ED00E0000000000080FF1FF50F0000BC760040C080FF1F08ED00E0F8B501F00DFF4B4A01271378022643F0DA
:4011000001031370137C484C43F001031374474B02F5E3521F700B3203F8946C1378054603F07F031370002001F020FB2378404A03F0F90323701378384603F0DF031370C0
:4011400023783B43237001F011FB282001F00EFB384B30461A7802F07F021A701A7802F0BF021A7023783343237001F0FFFA2378314A43F0040323700023137053702F4ADA
:40118000FF2199540133092BFBD1284601F0C4FE0721172001F032FB2949172001F020FB0721182001F02AFB2649182001F018FB0721152001F022FB2349152001F010FB72
:4011C0000721052001F01AFB2049052001F008FB0721062001F012FB1D49062001F000FB0721084601F00AFB1A49072001F0F8FA0721082001F002FB1749082001F0F0FADC
:401200000021162001F0FAFA1449162001F0E8FA07210C2001F0F2FABDE8F84010490C2001F0DEBAA5430040944300409D60004012600040F8510040846000406586FF1F0C
:40124000BF1A0000F9180000BD1A0000F11900001D1A00004D1A0000851A0000C51A0000391B0000214B224A10B5187000231370204A40201370204A0F2413701F4A13700F
:401280001F4A13701F4A13701F4A13701F4B4FF400021A604FF080721A604FF400121A6020221A601860802018604FF480701860174804704FF480001860164B1A70933B09
:4012C00019B91A7802F0FE0202E01A7842F001021A70114B03221A70802203F8202C012001F00EFE0D4B04221A7010BD8086FF1F8686FF1F8486FF1F8586FF1F8186FF1FBA
:401300007086FF1F8386FF1FF886FF1F00E100E09E6000409C600040286000401260004070B5074C054623780E461BB9FFF7E0FE0123237031462846BDE87040FFF792BF8F
:401340003086FF1F0A4A002313700A4A13700A4A13700A4A13700A4A13700A4A13700A4A13700A4B03221A70802203F8202C70478686FF1F8486FF1F8586FF1F8186FF1F51
:401380007086FF1F8386FF1FF886FF1F28600040014B1878704700BF8586FF1F044B1A7802F0FF001AB118780022C0B21A7070478486FF1F024A0C2303FB002040787047E1
:4013C0008C86FF1F431E072B0CD8074A064B00010344805C5B7800F00F0043EA0020023880B2704700207047FC5F00401A4A38B50C2303FB00231B79090C13F0800F00F1FF
:40140000FF35044619BF8AB24FF480438BB24FF48042032D18D8DFE805F002070C110021084601F051F80DE00021084601F030F808E00021084601F00FF803E00021084611
:4014400000F0EEFF054B1855EDB2072D03D801F023F9034B185538BD8C86FF1F5C86FF1F6586FF1F431E072B2DE9F0470446894615465CD82F4F0C2202FB0072D388DFF859
:40148000B8A09BB2C3F500739D424FF00C0303FB007388BFD588DB7884BFC5F50075ADB2254A43EA15230601B354B244EBB28AF80130224B1A5C9846FF2A01D1FFF796FF87
:4014C0000C2303FB047200215170B9F1000F28D03DB31B4F385D01F047F811232946FE2218F8040001F00CF906F5C04278321FFA89F118F8040001F015F9124D18F80410FA
:40150000385D01F081F80121385D01F017F8735D43F002037355735D03F0FD037355BDE8F08703FB04746379DBB28AF80230BDE8F08700BF8C86FF1FFC5F00406586FF1F3C
:401540005C86FF1F706000402DE9F047044615468846002940D0431E072B3FD8FFF732FFA84203D22046FFF72DFF05461D4E335DFF2B03D141462046FFF738FFDFF868A00D
:4015800027011AF8040000F0EFFF1223FE222946305D01F0B5F807F5C0411FFA88F27831305D01F0BFF8DFF84490315D1AF8040001F02AF801211AF8040000F0BFFF17F85B
:4015C000093043F0020307F8093017F8093003F0FD0307F8093002E00D4600E000252846BDE8F0876586FF1F5C86FF1F70600040431E072B0AD8064A0C2303FB00230022BB
:401600005A705A79034BD2B200011A54704700BF8C86FF1FFE5F0040431E072B9FBF024B000108221A547047FE5F004030B51A4A1A491B4D0878138803449BB21380194AA5
:4016400000231488D8B2A4B27CB1082B0CD050680078C0B2E85450680133013050601088013880B21080ECE718460B780E4C082B0E4A00D040B10E4D2B7883F080032B7068
:401680000F232370022301E0022323701370094B1870087030BD00BFFC86FF1FF886FF1F006000407486FF1F7186FF1F8686FF1F8286FF1FF986FF1F074B02221A70074BDC
:4016C00080221A70064B0F221A70064A00231370054A0120137070478686FF1F8286FF1F7186FF1FF886FF1FF986FF1F30B5164B16491B780A8803F00F03023BDBB21A447D
:4017000092B20A80124C134A0020118889B279B173B15568215C013BC9B229705168DBB20131516011880130013989B21180ECE7094A1370094A137883F080031370084B08
:401740000B221A7030BD00BF29600040FC86FF1F006000407486FF1FF986FF1F8286FF1F7186FF1F064A06231370064A01201370054B80221A70054B00221A70704700BF2F
:401780008686FF1F7186FF1F8286FF1FF986FF1F054B9A683AB19A68044910709A680988518000229A6070477486FF1FFC86FF1F08B5124B1A78D2B21A701B78DBB21A0632
:4017C00002D50F4A137008BD0220FFF7E1FF0D4B1B7803F06003202B05D0402B06D043B900F012FC04E001F09BFB01E000F046FD10B9034B03221A7008BD00BF286000404C
:401800007186FF1F0060004008B5084A084B0120197813880B449BB21380064B00221A70FFF7B6FF044B03221A7008BDFC86FF1FF886FF1F8686FF1F7186FF1F08B50C4B1B
:401840001B78DBB2042B07D0062B09D0022B0DD1BDE80840FFF7D8BFBDE80840FFF746BF0320FFF795FF034B03221A7008BD00BF8686FF1F7186FF1F08B5054B002201200E
:401880001A70FFF785FF034B03221A7008BD00BF8686FF1F7186FF1F08B50A4B1A7832B11A78094942F080020A7000221A70074B002201201A70FFF76BFF054B03221A70A1
:4018C00008BD00BF7086FF1F086000408686FF1F7186FF1F074B1B78DBB2042B05D0062B05D0022B05D1FFF7A1BEFFF7C5BFFFF7D3BF70478686FF1F38B51D4C2378DBB234
:40190000DD0634D518060AD503F00F03012B2ED1FFF74EFF174B1B78190609D538BD5A0602D5FFF7D7FF03E09D0620D5FFF786FF23781B061BD4104B1A78104B1B7813438F
:401940000F4A13701278934211D10A4A0849154613782078DBB2000605D41378DBB20B700B7803F00F0328788342F1D138BD38BD286000407186FF1F8286FF1FF986FF1FEF
:4019800029600040054A00231380054A916819B191680B7092685380704700BFFC86FF1F7486FF1F0E4808B503889BB213B9FFF783FE13E00B4B02221A700B4B00221A70B1
:4019C000FFF7E0FF094AD1799379028843EA012392B2934238BF0380FFF728FE012008BD7486FF1F8686FF1F8286FF1F00600040084B01221A700F3B9B7C074B1A7B02F0B7
:401A00000302012A1EBFDA7B82F08002DA7301225A7370470B6000408C86FF1F094B02221A700F3B93F82230074B1A7E02F00302012A1EBFDA7E82F08002DA7601225A76E0
:401A4000704700BF0B6000408C86FF1F0B4B04221A700F3B93F83230094B93F8242002F00302012A1EBF93F8272082F0800283F82720012283F82520704700BF0B6000402A
:401A80008C86FF1F0B4B08221A700F3B93F84230094B93F8302002F00302012A1EBF93F8332082F0800283F83320012283F83120704700BF0B6000408C86FF1F7047FFF7EA
:401AC00041BC0000F0B5184B184E19780C27C9B201234FF0000C31B3CA0720D5144A4FEA031E7244947850782040C5070DD507FB03652C79240608D5147804F0FE041470B7
:401B00006D790C4CEDB204F80E50840706D507FB036425792D0658BF84F801C090700133DBB24908D7E7F0BD9F6000408C86FF1F70600040FE5F004000F0E2BC70B50446E4
:401B4000184B88B003AA03F11006154618685968083303C5B3422A46F7D11B782B70FCB12223237001AD03232846637000F0C0FE002220461146AB5C08AC04EB131414F815
:401B8000144C03F00F03847008AC234413F8143C0132082AC1700371417100F10400EAD108B070BDAB3900002DE9F0431C4D01222E460C201F274FF0800E4FF0080C194BE2
:401BC00000FB02581401234418705F70164998F805902144B9F1000F07D098F8044024064CBF887081F802C001E081F802E000FB0261CC880132E4B29C71CC88092AC4F306
:401C00000724DC71CC88E4B21C71C988C1F307215971D4D1054BFF221A70BDE8F08300BF8C86FF1F70600040FC5F00400A600040064B074A1B7802EBC30253681A7C8242C6
:401C400086BF03EBC0035869002070478086FF1F0C3A00002DE9F84F424B1A78002A7ED01878414D0138C0B2FFF7E2FFA8463F4AC3681478007ADFF800C1E4B203EBC00054
:401C80000C2600274FF0010E834268D01A78A24263D11CF80420597891425ED19A7893F8039002F07F0206FB02FA05EB0A01CF7093F802B009F0030981F804B093F803B044
:401CC00005F80AB0B3F804A0A1F808A093F902A0BAF1000F0BDAB9F1010F0CBF4FF007094FF00D0981F8059081F801E009E0B9F1010F0CBF4FF005094FF0090981F8059025
:401D00004F704FEA02191A4906FB0282494481F802E0B2F808A0CAF3072A81F800A0B2F808A05FFA8AFA81F801A0B2F806A011495FFA8AFA494481F806A0B2F80690C9F3EF
:401D4000072981F80790B2F806905FFA89F981F80490D288C2F307224A71083394E7BDE8F88F00BF8586FF1F8C86FF1F8186FF1FFC5F0040706000407286FF1F08B5064B1A
:401D800018780138C0B2FFF753FF20B143681B7900EBC300406908BD8586FF1F00212DE9F84F0B464E4E0C2707FB01F401313219092933554FF000059370494CD3701381CC
:401DC000937253705371EFD118B1464B1D70464B1D70464B1A78002A7FD0187801250138C0B2FFF725FFA8464368DFF8F8E0DB790C2713F0400F3E4B4FF0000C1A7814BF21
:401E000042F0010202F0FE021A70027AD20007FB0541C36803EB02094B4531D093F802A00AF07F06AE4229D10E89B3F804B0B6B25E4538BFA1F808B01E7893F801B01EF8DF
:401E40000660B3451AD181F804A0DE780E7093F902A0DE78BAF1000F06F0030607DA012E0CBF07260D264E7181F8018006E0012E0CBF052609264E7181F801C00833CBE7D7
:401E80000135092DC3D1C1680A328B1C0A440C200833934209D013F8081C13F80A5C01F07F0100FB01418D72F2E7FFF767FF114B0121186000230C2000FB0142D3801289C0
:401EC000013113449BB203F00102134409299BB2F2D1BDE8F84FFFF767BEBDE8F88F00BF8C86FF1F7286FF1FFA86FF1F8586FF1F8386FF1F8886FF1F114B1B7903F07F03C6
:401F00005A1E072A19D80F490C2202FB031291781B0141F0010191700021D170517841F002015170127912F0800F074A1A4414BF8D2389239370FFF715BC0020704700BF9C
:401F4000006000408C86FF1FFC5F004030B4194B1A7902F07F02531E072B27D8164B0C2404FB02339978154D01F0FE0199700021D97029461201505D114400F07F005055D3
:401F80005A7802F0FD025A701A795B78120605D5012B01D18C7006E00D2303E0012B0CBF082309238B7030BCFFF7DCBB002030BC704700BF006000408C86FF1FFC5F00409A
:401FC00010B50D4B0D4C21791878C9B20138C0B2FFF72EFE43681B798B4201D2012909D8074A0848535CDBB24354A3780120DBB2535410BD002010BD8586FF1F00600040A8
:402000007286FF1FFA86FF1F38B58A4A8A4C13780021DBB221801806517840F18D800A2900F20581DFE811F05D00030103010301030103010B0003017E0003018200D37814
:402040007C49012B09D17D4B1A787D4B03EBC2035B685B686360122310E0CB78022B12D18878FFF7E5FD002800F0E180436863606368DA7863689B7843EA02232380BDE8AB
:402080003840FFF78FBCCB78032B26D16D4B00228878D5B2854209D3664A91786A4AEE2908BF1346634A917881B106E0187801320028F1D018780344EAE764499278097CF9
:4020C000914203D16248FFF739FD614B1A78002A00F0AD801A78228018E0BDE8384000F01FBF13F0030313D0022B40F0A0802380504B0C211B7903F07F02564B01FB023319
:402100009A78554BD2B21A7000225A706360B6E702222280514A11784F4AC9B2117053706260ACE7012323804D4BEFE70123238013794C4A1344E9E701390A2977D8DFE834
:4021400001F037764F76067676760A7620009378454ADBB25AE0937803F0FF0153B9404B1A7891425FD01970404B01201870FFF715FE58E0481EC0B2FFF75AFD0028EED160
:4021800055E0FFF71DFF002851D02A4A384913791279DBB2D2B20A70364A3249D25CCB5C9A4240D0314B01221A70FFF753FD3AE003F00303012B2BD009D3022B37D11D4B9A
:4021C0009B78002B33D1BDE83840FFF7BFBE194B9B78012B2BD1214A137803F0FD0315E003F00303012B13D008D3022B1FD1114B9B78E3B9BDE83840FFF77EBE0D4B9B78CB
:40220000012B14D1154A137843F0020313700AE0084B1A795AB998781B791749DBB2CA5C22EA0002CA54BDE83840FFF79BBA002038BD00BF006000407486FF1F8086FF1F0A
:402240000C3A0000703A0000F8390000E33A00001887FF1F8C86FF1F3186FF1F8386FF1F8586FF1F7286FF1F7086FF1F8486FF1F8186FF1FFA86FF1F8786FF1F074B1A78EA
:40228000120609D55B78012B06D1054B054A5A6012781A80FFF786BB00207047006000407486FF1FD0390000014B1870704700BF77650040014B1878704700BF6865004041
:4022C000014B1870704700BF7F640040074A0223136002F688321268E0215064044A11706FF440710A441360704700BF80E100E001E400E0014B1870704700BF7A6500401E
:4023000073B515461E460B4C04230022019200920A4601461846237000F09EF932462946207800F059F90221207800F043F9207802B070BDD080FF1F064A0123136002F676
:4023400088321268E0211064034A1170A2F540721360704780E100E000E400E0014B1870704700BF7865004073B515461E460B4C05230022019200920A46014618462370D2
:4023800000F06AF932462946207800F025F90221207800F00FF9207802B070BDD180FF1F064A0423136002F688321268E0219064034A1170A2F202321360704780E100E098
:4023C00002E400E0014B04221A60704700E100E0014B04221A60704780E100E0014B1870704700BF7B640040014B1870704700BF7D640040704738B505460078012428B196
:4024000000F026FD285D0134E4B2F8E738BD08B50D2000F01DFDBDE808400A2000F018BDF7B516461F460B4C00230325019300930A4601462846257000F00EF93A463146D7
:40244000207800F0C9F80221207800F0B3F8207803B0F0BDE080FF1FF7B516461F460B4C00230225019300930A4601462846257000F0F2F83A463146207800F0ADF829460B
:40248000207800F097F8207803B0F0BDE180FF1FF7B516461F460B4C00230125019300930A4601462846257000F0D6F83A463146207800F091F80221207800F07BF8207844
:4024C00003B0F0BDE280FF1F73B515461E460B4C0023019300930A4601461846237000F0BBF832462946207800F076F80221207800F060F8207802B070BD00BFE380FF1FB2
:40250000024B1878C0F38010704700BF8F450040074A7F23802113705170064A013BDBB202F80839002BF9D1034A1370704700BFE480FF1FF87B00400078004017280FD877
:40254000084B0001C25C11B142F0200201E002F0DF02C254C25C42F00102C25400207047012070471070004017280BD8064B0001C25C02F0FE02C254C25C02F0DF02C25490
:4025800000207047012070471070004017280DD8074900010B4603441A7942F004021A71435C43F00103435400207047012070471070004017280BD8064A0001835C4900D2
:4025C00003F0F10301F00E011943815400207047012070471070004041F6FF73994208BF4FF400519A4208BF4FF4005217289FBFC00000F1804000F5EC4081809ABFC28072
:40260000002001207047000017289FBF034B00011954002088BF0120704700BF1970004017289FBF054B00011A5C01F007019DBF1143195400200120704700BF147000408D
:4026400017289FBF034B0001185C00F0070088BFFF20704714700040172810B51AD8C00001F07F0100F1804441EAC21204F5EC44D2B222709DF8082003F00F0343EA021304
:40268000DBB263709DF80C30002003F00F03A370E07010BD012010BD10B500F039FC0A4A5378182B0AD91478013B5370E30003F1804303F5F0431B78137000E0FF2400F01E
:4026C0002BFC204610BD00BFE480FF1F030610B5044611D400F01CFC084AE300117803F1804303F5F04319705378147001335370BDE8104000F010BC10BD00BFE480FF1F0C
:4027000030B504060CD411F4704509D1C40004F1804404F5F0442180A270E370284630BD012030BD03065FBFC00000F1804000F5F04081805ABFC28000200120704700000C
:4027400038B50446084DB4F5004F05D9286800F0D7FBA4F50044F6E7034B58686043BDE8384000F0CDBB00BFEC80FF1F024B1B7A584300F0C5BB00BFEC80FF1F0E4B00F0DD
:4027800003001A78490102F0FC02104318701A7801F0600142F080021A701A7802F07F021A701A7802F09F020A431A701A7842F010021A70704700BF83430040014B012277
:4027C0001A70704784430040044B00F00F021B6853F8220043F82210704700BF08ED00E0054A00F01F00126800F1100352F8230042F82310704700BF08ED00E000F01F0089
:4028000000F16040490100F56440C9B2017070470F4B10B50F4900240F205C609C60DC601C615C61FFF7D0FF0B4A136843F0040313600A4B4FF47A72DB68B3FBF2F3084A9B
:402840001360084B4FF400421C60C3F8E82010BD3486FF1FBD28000010E000E0EC80FF1F14E000E018E000E0024A136843F002031360704710E000E008B5FFF7F5FF034A51
:40288000136843F00103136008BD00BF10E000E010B5054CA3691BB9FFF7BAFF0123A361BDE81040FFF7E8BF3486FF1F024B1868C0F30040704700BF10E000E038B5FFF77F
:4028C000F5FF012808D1054D002455F8243003B198470134052CF8D138BD00BF3886FF1F024B03EB80035868596070473486FF1F134B144A1B78DBB20360127843EA022398
:40290000114A0360127843EA0243104A0360127843EA026303600E4B0E4A1B78DBB24360127843EA02230C4A4360127843EA02430A4A4360127843EA02634360704700BF30
:402940000301004904010049EC460040020100490101004900010049050100490601004910B500F0D5FA204A044613780A2043F002031370137C43F00203137412F80A3C84
:4029800043F0010302F80A3C937943F00103937102F5AB52137843F003031370134B18221A7013F8012C42F0400203F8012C13F8012C02F0FC0203F8012CCE2203F8062CBB
:4029C000A3F597530222183B1A70094A137843F008031370FFF7CAFE064B10222046BDE810401A6000F098BAAB4300400E5900402F5B004080E200E008B500F089FA0F4AF3
:402A0000137803F0FE031370A2F5AA521D3A137803F0FD031370137C03F0FD03137412F80A3C03F0FE0302F80A3C937903F0FE039371BDE8084000F06FBA00BF08590040B2
:402A4000044A137803F03F0343EA8010C0B21070704700BF08590040082804D00A280CBF8223C22300E0422308380E4AC0B20428137098BF0C4B4FF0000298BF33F9101067
:402A80000A4B88BF11461A8042F210734B4341F2883103F6C41393FBF1F305490B60054B1A8070470A590040BC3900000287FF1F0487FF1F0887FF1F08B5102000F0A6F9AB
:402AC00007210420FFF79AFE07490420FFF788FE064A0C20137843F006031370FFF7BCFF034B00221A8008BDB12B0000095900400087FF1F10B5054C23781BB9FFF7DCFF4D
:402B000001232370BDE81040FFF72ABF5086FF1F044B1A7802F0FB021A701A7842F001021A7070470859004010B5084B1C7814F0010403D10028F9D0002404E02046FFF735
:402B400015FE024B1B78204610BD00BF09590040034A044B1B881088181A00B2704700BF0887FF1FA25B00400E4A13881BB223B111880A2309B2594301E00B4B19680B4BF4
:402B80001B88C01A42F2107300B203FB00F2022391FBF3F30028D8BF5B42134493FBF1F000B270470287FF1F0487FF1F0087FF1F7047000010B500F0ABF9214A04461378D8
:402BC0000A2043F001031370137C43F00103137412F80A3C43F0020302F80A3C937943F00203937102F5AA521832137843F003031370144B18221A7013F8012C42F0400241
:402C000003F8012C13F8012C02F0FC0203F8012CCE2203F8062CA3F597530222123B1A70094A137843F008031370FFF79FFD074B08222046BDE810401A6000F06DB900BF2B
:402C4000AB43004006590040275B004080E200E008B500F05DF90F4A137803F0FE031370A2F5AA52153A137803F0FE031370137C03F0FE03137412F80A3C03F0FD0302F8FA
:402C80000A3C937903F0FD039371BDE8084000F043B900BF00590040044A137803F03F0343EA8010C0B21070704700BF00590040082804D00A280CBF8223C22300E04223FE
:402CC00008380E4AC0B20428137098BF0C4B4FF0000298BF33F910100A4B88BF11461A8042F210734B4341F2883103F6C41393FBF1F305490B60054B1A8070470259004094
:402D0000C63900000E87FF1F1487FF1F0C87FF1F08B5102000F084F807210320FFF76EFD07490320FFF75CFD064A0C20137843F006031370FFF7BCFF034B00221A8008BD6A
:402D4000092E0000015900401087FF1F10B5054C23781BB9FFF7DCFF01232370BDE81040FFF728BF5186FF1F044B1A7802F0FB021A701A7842F001021A70704700590040FE
:402D800010B5084B1C7814F0010403D10028F9D0002404E02046FFF7E9FC024B1B78204610BD00BF01590040034A044B1B881088181A00B2704700BF0C87FF1FA05B0040C7
:402DC0000E4A13881BB223B111880A2309B2594301E00B4B19680B4B1B88C01A42F2107300B203FB00F2022391FBF3F30028D8BF5B42134493FBF1F000B270470E87FF1F69
:402E00001487FF1F1087FF1F70470000034A00F0F800137803431370704700BF02410040034A00F0F800137803431370704700BF06410040014B1870704700BF79650040FD
:402E4000014B1870704700BF7C64004000000000FEB5494652465B460EB40746244909688A46244A12682448022100F071F8030020480068C018204900F06AF81438834665
:402E80000121C9430C460125002600F041F8814651460B7823400B705846013000F030F83800F04028400B78234003430B70584600F026F80136072EF2D900200130013893
:402EC000013001200B78234003430B705846043000F016F8484600F01FF800BF00BF00BF0EBC894692469B46FEBD00BFAFF30080D480FF1FF880FF1F00C20100000000007E
:402F00000230800803D000BF01380046FCD17047EFF3108072B6704780F31088704700BF094A137803F00303012B0AD0022B09D113790C2103F07F02044B01FB02339B7ACA
:402F400000E0137900207047006000408C86FF1F002902D0B0FBF1F0704708B14FF0FF3000F008B80029F8D00246B0FBF1F000FB11217047704700BF014B1868704700BFC8
:402F80005C81FF1F0E4B70B51E460E4C0025E41AA410A54204D056F8253098470135F8E700F0BCFD084B094C1E46E41AA4100025A54204D056F8253098470135F8E770BDA6
:402FC000283B0000283B0000283B0000303B000003460244934202D003F8011BFAE7704730B5141E05469BB0184604DA8B232B604FF0FF301DE04FF40273ADF80C300CBF67
:40300000234604F1FF33029305934FF6FF7300910491ADF80E3002461E9B6946284600F073F8431CBCBF8B232B6014B1009B00221A701BB030BD000007B5009313460A46CB
:40304000014603480068FFF7CBFF03B05DF804FB5C81FF1F2DE9F0478E6882469E420C46914698463ED88A8912F4906F3AD02568096902236F1A656905EB450595FBF3F53D
:403080007B1C43449D4238BF1D4653050FD5294600F04AFB064698B13A46216900F0D2FAA38923F4906343F08003A38113E02A4600F098FB064670B92169504600F0E8FA21
:4030C0000C23CAF80030A3894FF0FF3043F04003A381BDE8F08726613E44266046466561ED1BA560464528BF464649463246206800F0B3FAA36800209B1BA36023681E4476
:403100002660BDE8F08700002DE9F04F9DB003938B8980461C060D4616460DD50B695BB9402100F001FB2860286118B90C23C8F80030CDE040236B610023099320238DF8EF
:403140002930DFF89CB130238DF82A3037463C4614F8013B1BB9B7EB060910D003E0252BF9D02746F3E74B46324629464046FFF771FF013000F0A780099B4B4409933B7883
:40318000002B00F0A08000234FF0FF3204930793059206938DF853301A930126052221784E4800F041FA671C049B38B14B4A3C46801A06FA00F018430490EFE7D90644BF30
:4031C00020228DF853201A0744BF2B228DF8532022782A2A03D0079A00210A200BE0039A111D12680391002A10DA524243F00200079204900BE027463B780134303B092BD2
:4032000003D800FB02320121F5E701B107923B782E2B1ED17B782A2B0AD1039B02371A1D1B680392002BB8BF4FF0FF33059310E0002319460593781C0A2407463A78013050
:40324000303A092A03D804FB01210123F5E703B1059103223978224800F0E6F940B14023CBEB000003FA00F0049B013718430490397806221B487E1C8DF8281000F0D4F94F
:4032800088B1194B33B9039B073323F007030833039314E003AB00932A46144B04A94046AFF3008007E003AB00932A460F4B04A9404600F093F8B0F1FF3F824603D0099BA8
:4032C0005344099342E7AB895B0601D4099801E04FF0FF301DB0BDE8F08F00BFF73A0000FD3A0000013B000000000000553000002DE9F04791461F460A698B68064693422F
:40330000B8BF1346C9F8003091F843200C46DDF8208012B10133C9F800302368990642BFD9F800300233C9F80030256815F0060510D104F1190A07E00123524639463046B1
:40334000C04701301AD00135E368D9F800209B1A9D42F1DB94F843302268003318BF012392060FD5E118302081F843005A1C94F845102244023382F8431003E04FF0FF3011
:40338000BDE8F08704F1430239463046C0470130F4D02268D9F80050E36802F00602042A08BF5D1B2269A3680CBF25EAE57500259342C4BF9B1AED184FF000091A344D4540
:4033C00009D00123224639463046C0470130D5D009F10109F3E70020BDE8F0872DE9F04317460A7E85B06E2A984606460C460C9B01F1430E00F0AE8011D8632A22D009D8B4
:40340000002A00F0BB80582A40F0CA8081F84520834955E0642A1ED0692A1CD0C0E0732A00F0B08009D86F2A2ED0702A40F0B8800A6842F020020A603EE0752A24D0782A07
:403440003AD0ADE01A6801F14205111D1960136884F84230A8E021681A6811F0800F02D0111D196008E011F0400F02F10401196002D0B2F9003000E01368002B3CDA2D220D
:403480005B4284F8432037E021681A6811F0800F02D0111D196007E011F0400F02F10401196001D0138800E01368227E5C496F2A14BF0A2208221BE078225A4984F84520D6
:4034C0002268186812F0800F00F104051D6003D1550601D5038800E00368D00744BF42F0200222601BB9226822F0200222601022002084F8430001E049490A226568002D71
:40350000A56008DB206820F0040020602BB9002D7DD175460CE0002B79D07546B3FBF2F002FB1033CB5C05F8013D03460028F5D1082A0BD12368DA0708D5236962689A4260
:40354000DEBF302305F8013C05F1FF35C5EB0E0323612EE008681A6810F0800F496903D0101D1860136808E010F0400F02F104001860136801D0198000E0196000232361F3
:40358000754616E01A68111D1960156800216268284600F049F808B1401B6060636804E004F1420584F8422001232361002384F84330CDF800803B4603AA21463046FFF78D
:4035C00097FE013002D14FF0FF3026E023692A4639463046C0470130F5D023689B0710D5002504F1190907E001234A4639463046C0470130E7D00135E368039A9B1A9D4251
:40360000F2DBE068039B9842B8BF184605E00B7804F1420584F842308AE705B0BDE8F083AB390000083B000010B5C9B202449042034605D01C7801308C42F8D1184610BD34
:40364000002010BD10B5431E0A44914204D011F8014B03F8014FF8E710BD884210B501EB020301D8421E0BE09842FBD28118D21AD34204D013F8014D01F8014DF8E710BDF1
:40368000994204D011F8014B02F8014FF8E710BD38B50546002944D051F8043C0C1F002BB8BFE41800F0D4F81E4A1368114613B96360146030E0A3420DD92268A01883426E
:4036C00001BF18685B681218226063600C6023E0A24203D813465A68002AF9D118681918A1420BD12168014458188242196013D110685268014419605A600DE002D90C23AB
:403700002B6009E021686018824201BF106852680918216062605C602846BDE8384000F098B838BD5886FF1F70B5CD1C25F0030508350C2D38BF0C25002D064601DBA94279
:4037400002D90C23336046E000F082F8234B1C681A462146A1B10B685B1B0ED40B2B03D90B60CC18CD501EE08C420BBF63684B681360636018BF0C4615E00C464968E9E78D
:40378000174C23681BB9304600F052F820602946304600F04DF8431C18D0C41C24F00304A0420DD12560304600F053F804F10B00231D20F00700C31A0ED05A42E25070BDB8
:4037C000211A304600F034F80130EBD10C233360304600F03EF8002070BD00BF5886FF1F5486FF1FF8B5074615460E4621B91146BDE8F840FFF798BF1AB9FFF749FF28462E
:40380000F8BD00F027F885420ED929463846FFF78BFF044650B131462A46FFF713FF31463846FFF735FF01E03046F8BD2046F8BD38B5064C0023054608462360FDF7E2FBDA
:40384000431C02D1236803B12B6038BD3C87FF1F7047704751F8040C0028BEBF091851F8043CC0180438704700000000050209020B020D020F02110213027265706C7920E2
:4038800030782530327800686F6D696E6700626567696E6E696E67207365656B2066726F6D20256420746F2025640066696E6973686564207365656B0057616974696E6758
:4038C00020666F72205553422E2E2E0055534220726561647900636F6D6D616E642030782530327800756E64657272756E206166746572202564207061636B65747300634C
:403900006F756E743D256420693D256420643D2564207A7A3D256400636D645F777269746500703D25642063723D25642063773D256420663D256420773D256420696E6415
:4039400065783D256420756E64657272756E3D25640077726974652066696E69736865640073746172742065726173696E670073746F702065726173696E670069646C6512
:403980000000510040100030510040400000000140001000140140000800400140000A004C0140000200500140200030313233343536373839414243444546000001000049
:4039C0000004000000100001000000040000001028000000000104000100000000000000000157494E5553420000303030303100000000000000000012034D0053004600AB
:403A000054003100300030000100000001000000143A000001000000E33A00000000000000000000010000002C3A000001000000B53A0000040000004E3A00000000000050
:403A400000000000000000004C3A0000FF00000001024000FF00000082024000FF00000003034000FF00000084034000FF00020304030904160346006C007500780045009B
:403A80006E00670069006E0065002A0343006F0077006C00610072006B00200054006500630068006E006F006C006F0067006900650073000009022E0001010080320904F7
:403AC000000004FF00000107050102400000070582024000000705030340000A0705840340000A12010002FF0001080912006E0100020180014300232D302B2000686C4C11
:403B000000656667454647003031323334353637383961626364656600000000F8B500BFF8BC08BC9E4670475900000081100000F8B500BFF8BC08BC9E4670473500000002
:403B4000503B0000C880FF1F98000000E0050000000000004087FF1FFFFF0000675000400C00000007000000FFFFFFFF7F8000003F0000000000007D00FA000040000000F9
:403B80000090D0030000000000000000000000000000000000000000000000000000000000000000F53A000000000000000000000000000000000000000000000000000073
:403BC000000000000000000000000000000000000000000000000000000000000000000000000000FC80FF1F0000000000000000000000000000000000000000000000002B
:403C00000000000000000000000000000000000000000000000000000000000000000000000000000000000000000000000000000000000000000000000000000000000084
:403C40000000000000000000000000000000000000000000000000000000000000000000000000000000000000000000000000000000000000000000000000000000000044
:403C80000000000000000000000000000000000000000000000000000000000000000000000000000000000000000000000000000000000000000000000000000000000004
:403CC00000000000000000000000000000000000000000000000000000000000000000000000000000000000000000000000000000000000000000000000000000000000C4
:020000040003F7
:0200000480007A
:400000000145004006520040015B0040036500400101014005030140450401403C05014044060140470701404D08014054090140440A01404B0B0140470C0140440D01402C
:40004000440E0140330F01400E1501404216014057170140601801405E190140491A0140491B01400C400140114101401242014008430140064401400B4501400E46014012
:400080000F4701400648014008490140184C0140024D014007500140045101407E020841090510806019610A7C402721280A2980397EE60481018310E208E609EE01001D60
:4000C0000101041D05100708080109010A300C010E080F08101D1301161D17021A071B011C0C1E221F042101221D241D2501281D2B012C1D31083307343C360337103902BD
:400100003B083E503F41580459045C905F0182028320873F893F8A048D3F92019304940197029A019B089C019D01A001A33FA53FA601A801AB3FAF10B207B53FBA08BF10EB
:40014000D804D904DC09DF01002802800301040207080A500B0A0D280F421004114A14801510162018021A081D081F042020214422012330270829102A202BA02D812F24CE
:40018000312032463440362A3A843B123C083D103E103F4146804702814086018B209A049F02A101A310B302B604C05FC2FFC47FCAF7CCFFCEFFE208E402E611EA04EE8292
:4001C000000103200401073F08010B040E020F021001133F153F16011801193F1D011E012204233F2401253F28012B082F1032073607373F38883F40580459045C095F0186
:4002000080308102840C85028640888089088B018C808D0290809102943D950296C0988099039B049C569D1C9F03A080A102A480A702A910AA03ACA9AD02B11FB2FFBE04B0
:40024000BF01D804D904DF010028010103010450069008800A500B0A0C510F10115812401506171018201E301F802101254028042A022B122C012D012F28310833A1345019
:400280003618370139083A413B203C083E203F41884089048A168B50910893089541965097439A409CC09D109F03A010A108A310A404A524A6AAA7A1A980AA40B004B108CB
:4002C000B240C0FFC2FFC47FCAFFCCFFCEFFE640EA04EC02EE0100090105040905050801090F0A300B100D130F20100F1105121014021510180919051A201D2C1F0223056F
:400300002505260929052D082F02300132043438353F36023E403F104005450C46E0480949FF4AFF4BFF50045601580459045A045B045C095D095F0162C08102850386019C
:400340008774880189038B0C8F01980199109D109E029F40A119A362A401A801AD10AF28B203B57FB920BA08D804D904DC99DF0101280518068009100A020D080E800F887A
:4003800010241610182019081DD81E801F402004261028402A402D422E18326036803716380639803B203C083DA24F8856206C466D566E146F1074C57506760E770A784079
:4003C0007A027C807F0188478E20900391809282932094AC954298019A409B249C909D6E9E9E9F11A122A202A30AA4A8A5C5A604AA30AB10AF40B002B101B360B410B601C7
:40040000C076C273C426CAF9CCFCCEFFD210E2A0E6E0EA01EC20EE80013F0201040107200801093F0C010E020F081001133F1401170218011B101C011E021F7F2001210199
:4004400023402601270428012B3F2D3F2E01353F360337403E403F50580459045F01830185068B068D038F08910694029507980299069F01A101A30CA401A506A701A802F3
:40048000A901AB06AF02B001B50FB602BAC0BE01BF10D608D804D904DB04DC09DD90DF01000202050310080409410B040E28108811401210152016201A021C011D021F406F
:4004C00020022220261029022A982C292F4030053184331034103548370138A83A023B043DAA5E105F40640867016F02860188018D08900291A09281932094AC97019A60F7
:400500009B049C889D269E9A9F10A138A202A308A402A580AE40B010B448B610C00FC26FC46FCAFFCCFFCEFFD630D830E422E611E820EA04EE90010103CA050F07200C01C1
:400540000D020E080F051002130F15801A021D021F34250F2608271028043004313832013340340635803608370738803B803E453F10580459045B045C995F018284830835
:4005800084C3863C8720893F8C508D3F8EAD9248933F942F96D097029B109F3FA101A202A704AB3FAD3FAE01B01FB2E0B53FB802BE04BF10D201D618D804D904DB04DC0995
:4005C000DD90DF0100060242030207010AC00B200D020E0811801302141015101B0A1D081E891F202110240225702628274429022A982D302F10300231843310360A37400F
:4006000038A83A023C043D823F0158805C405E20630269806B026E106F01822087019240932094049A209D209F02A001A102A210A501A722AF54C08DC25CC469CA4FCCDFA1
:40064000CEDFD638D808E208EA0AEE03040F05390620070409390B020E0F10011206140F150816101716180119201A321B091D081F302C042E092F39300733073438373815
:400680003A023B80580459045C995F018004810A82018406860188208C048D019305950D980199109A029DD0A040A410A750A808A9A0AE20B010B130B208B3C0B407B503B4
:4006C000B660B70CBE05D608D804D90BDB04DC99DD90DF010004030204040680070A0A440B200E0811801402164817041A441E2A1F11200221082240254227782A802B0268
:400700002D202F2031083240331034023601376838043B203D803F015F54666867016C016F047D0280018F01C0F5C24EC4F1CA68CCFECE96D670D870DE808E408F0296403B
:40074000A702A810A904AA01AE05B444B502B701E80AEA04EE020009070109010C010F041101140118011B021C012204230125012B012D012E023407360837073B80580459
:4007800059045C995F01800F813284038532860C880889328D328E029102920193609502960F971099339A089B049C089D019F38A008A11FA340A408A732A804A933AB0CAA
:4007C000AC08AD32B40FB570B70FBE10BF50D608D804D904DB04DD90DF010008014203080440074009040A480B010E25108412101340158218041C081D101E051F102140D9
:400800002220270129122B122C842F21310833A136203701382039083A423D803E14584060026B0280028340844089018B018D408E029108921893419440954096409722E5
:4008400098049A509D109E039F03A080A148A210A3B8A404A504A702A890AA38AB18AC05AD31AE80AF21B220B410B680B701C09FC2EFC49FCAFFCCAFCE7FD608D808E4015D
:40088000E608E801EA0EEE0902020413050108030C0312041504160819041A031C032213240326102A012C032D02300F310232103301340337043B803E143F054032450212
:4008C000480149FF4AFF4BFF4D204EF05110580459045A045B045C995D095F01610862406340648066406740820284028C028D029001940298029C039D01A002A603A8029E
:40090000AC02B102B301B603BE40BF05C025C106C203C5E0C640C80AC9FFCAFFCBFFCD20CEF0CF01D020D110D804D904DA04DB04DD09DF01E108E440E520E680E708E840C7
:40094000E920EB08EE40EFA800880102041005080781084009400A140B800C400D240F8011421214169017601A021D091E4821012310268127112F023240361839803E40A2
:400980003F48400443084480450A47104A024B224F0852205A405B405C8069806C016D80812083048A018B948E8090059154921493A0950297429801990A9A849B249C0485
:4009C0009D209E109F01A04CA1A3A21AA30AA420A544A6A4A808A911AA80AB08AD08AE04AF40B090B340B618C0FDC2FFC4FFCA10CC68CE48D066D20CD610E260E424E60827
:400A0000EC40EE900208030404080701080809060C080F01100811061511160F1726180119401B061C041D7F210622022378240825072708280329562A0C2B212C0F2F0299
:400A4000337F360F3E403F04580459045B045F01807F8308840F86108702880E89038A708C0E8D0392089421964E97039A0E9B019D039E01A103A204A42EA503A641AA011E
:400A8000AB03AE02AF04B30FB50FB67FBE40D804D904DC90DF0100880102020404020508070909A50C080DA00E4010041184128014011512161019801C0221042410250420
:400AC0002708280529092A102C282D802E0230483120330136803724381139063B803C123D803F046A8089088A028F0890039114924093849410950896809841990B9A141D
:400B00009B25A06CA1E1A280A504AA41AC24AE10B401B740C0FFC2FFC4FFCAFFCC7FCEFFE640EA40EC41EE021A801F0832403308348036013B408140C630CCF0CE10E620BB
:400B400030803302358037023A013D1084808510914097409C80AA01CCF0CE60E210E610EE80534055088008830287408D08914097409E019F02A980AC80B302D460E290E1
:400B8000E680EA20EE408E01914097409E01A008A580AD80EC4014407E018E02C404DE04E0025C0287409502968698409A029D80AA40AD81AE04D6011A8082018601950267
:400BC00096C7978098409A029C029D80AA40B201C608EE010A010B800E4295029645978098409A029D80A502A601A902B002C20FE804258091409740A008A580C820700816
:400C00007D409140A008AF40DC80DE20EE40058009020D010E041F10528056025A805E01828084408A019502960498409A029D80A502C001C20DC601D405D605E401AA4031
:400C4000AF1001010B010D010F0111011B011D0100FF01AB02021105BF0000A09F001F000000000000000000100000004000000000000000C0000000FF0000B84700470006
:400C8000000100008000000080008000000000002700180127001801000400000005000000000000000000000000000000000000000000000000000000000000000000002A
:400CC00000000000000000000000000000000000000000000000000000000000000000000000000000000000000000000000000000000000000000000000000000000000F4
:400D000000000000000000000000000000000000000000000000000000000000000000000000000000000000000000000000000000000000000000000000000000000000B3
:400D40000000000000000000000000000000000000000000000000000000000000000000000000000000000000000000000000000000000000000000000000000000000073
:400D80000000000000000000000000000000000000000000000000000000000000000000000000000000000000000000000000000000000000000000000000000000000033
:0200000490006A
:0400000000000007F5
:0200000490105A
:04000000BC90ACAF55
:0200000490303A
:020000002C17BB
:0200000490402A
:4000000000000000000000000000000000000000000000000000000000000000000000000000000000000000000000000000000000000000000000000000000000000000C0
:400040000000000000000000000000000000000000000000000000000000000000000000000000000000000000000000000000000000000000000000000000000000000080
:400080000000000000000000000000000000000000000000000000000000000000000000000000000000000000000000000000000000000000000000000000000000000040
:4000C0000000000000000000000000000000000000000000000000000000000000000000000000000000000000000000000000000000000000000000000000000000000000
:0200000490501A
:0C00000000012E16106900002E303C801C
:00000001FF