:400000000080002011000000A1100000A1100000064A08B5136843F020031360044B1A6803F53F5302331A6001F058F8E8460040FA46004010B5054C237833B9044B13B173
:400040000448AFF300800123237010BD6081FF1F00000000F0380000084B10B51BB108490848AFF300800848036803B910BD074B002BFBD0BDE81040184700BF0000000021
:400080006481FF1FF0380000C880FF1F000000000A4A0B4B116801310B40002BBEBF03F1FF3363F03F030133136011685368994202BF024B01221A72704700BF8081FF1FA4
:4000C0003F0000800A4A0B4B516801310B40002BBEBF03F1FF3363F03F030133536051681368994202BF024B01221A72704700BF8081FF1F3F000080114BDA68196919B905
:4001000001221A75597514E09969521A19698A4294BF587D00201875187D094908B1002204E0086982428CBF002201224A75DA689A611B7D13B1002002F082B9704700BF34
:400140008081FF1F10B5C4B2204601F089F90128FAD110BD08B572B60F4B0F49DA680132DA60DA690132C82A08BF0022DA611A6AD8690132A72A08BF00220A621B6A002BEB
:400180000CBF02230023002814BF184643F0010002F0DAFB62B608BD8081FF1F38B50446C5B2284602F0C4F8062002F099FD44F00200C0B202F0BCF8062002F091FD284602
:4001C00002F0B6F8BDE83840062002F073BD10B5642402F0A7F828B9FFF7E0FF013CF8D1204610BD012010BD70B5C4B2054620460E4601F035F9012805D0204601F04EFAE3
:400200002846FFF79FFF204601F032F9314605460246204601F0EEF9204601F021F90028FAD1284670BD000038B5044D0024285D013402F005FD402CF9D138BDA481FF1F75
:4002400008B502F0FDF9002002F006FA02F018FA02F022FA80B208BD10B50446012002F07FF8642002F026FDFFF7EAFF2080002002F076F8642002F01DFDFFF7E1FF608047
:4002800010BD08B502F008FB002002F011FB02F023FB02F02DFB80B208BD10B50446FFF796FF322002F006FDFFF7EBFF20800120FFF774FF322002F0FDFCFFF7E2FF6080A1
:4002C00010BD0FB400B593B014AB53F8042B402102A8019302F0F4FE02A802F0BEF802F0C8F813B05DF804EB04B0704710B5044601780648FFF7E5FF0420FFF723FF62787E
:400300002146BDE81040042001F002B90C3A000007B50023ADF804308DF80600032301A88DF80530FFF7E2FF03B05DF804FB000010B5074C94F8643043B1002001F0ECFF79
:40034000002002F083F8002384F8643010BD00BF8081FF1F38B5124D837895F8672004469A4204D0FFF7E4FF002385F86A302368C5F8653022790B4B1A71A378002B14BF38
:400380000220012002F062F8E078B0FA80F0400902F0D4FA2079BDE8384002F0DBBA00BF8081FF1FE581FF1F38B50D4C94F8645065B904F16500FFF7CDFF012001F0ACFF17
:4003C0004FF47A7002F076FC84F86A50E368E366012384F86430BDE8384002F0A9BC00BF8081FF1FF8B5214C0546FFF7DDFF94F86A3003B15DB91E48FFF763FFFFF7E7FE5C
:400400000120002384F86A00236702F069FC2A46216F1848FFF755FF144E0027236F9D4216D001F07FFF00B13767236F9D4205DD0120FFF7B3FE336F013305E005DA002094
:40044000FFF7ACFE336F013B336702F071FCE5E7322002F02FFC2A2DCCBF0020012002F07FFABDE8F8400448FFF72BBF8081FF1F193A0000203A00003D3A00002DE9F04F9B
:4004800099B062B602F0BEFC9F49042002F0E2FC9E4801F053FF9E4801F084FF9D4801F0B1FF02F06DF902F03FF8002001F0CEFF01F0D2FF0221002000F088FF012001F05D
:4004C00001F9954D0321084602F012FC2E462C4602F02EFC95F8643043B1EA6EEB689B1A41F28832934201D9FFF722FF00F0A6FF18B98A48FFF7E5FE04E000F0A5FF0028D3
:40050000F7D134E000F09AFF10B902F011FCF9E78348FFF7D6FE032001F0C0F88148FFF7D0FE002386F86730FFF73EFFFFF74FFE86F87400FFF7FCFE012386F86730FFF701
:4005400033FFFFF744FE86F87500FFF7F1FE96F874007549754B96F87520002A14BF0A461A46002808BF19467148FFF7AAFE032000F076FF0128ABD16E48FFF7EBFE6E49CB
:400580000320FFF731FE94F876106C48FFF799FE94F87630023B142B00F2D783DFE813F01500D5031E00D5032400D5035000D5037600D503DA00D503C201D5030903D50356
:4005C0002D03D5033403D5034E0303238DF820308DF8213011238DF822302BE394F87800FFF700FF564B22E340F2DC57FFF7DCFE00232375E068227D02F0FF012AB9EB680B
:400600001B1ABB42F7DD0B4611E083B10022174696F87810F068277594F814E0BEF1000F02D1EB681B1AF7E701329142F3DA07228DF8202004228DF82120ADF82230F9E2BF
:400640000220FFF77FFD4FF000080DF1200A02F06FFB4FF480790027C9EB0803DA1907F80A200137402FF9D10220FFF76BFD3A465146022000F04CFFB9F10109EBD108F10F
:400680000108B8F1400FE2D12E4B38E04FF0010A4FF000080DF1200B02F04AFB4FF0000959460120FFF7A0FD08EB090300270493049B1BF807203B44DBB29A4209D08DE89D
:4006C0000C0041463B464A461F48FFF7FAFD4FF0000A0137402FEBD109F10109B9F5807FDED108F10108B8F1400FD5D151461748FFF7E7FDBAF1000F00F01C81144B1B883D
:4007000007A8ADF81C3096E255010000F900000091000000C50000008081FF1F523A0000653A00006F3A00004B3A00004F3A0000823A0000E581FF1FF681FF1F9A3A000052
:40074000F4380000F6380000A93A0000C53A0000F8380000206FFFF745FE94F8780001F0FFFD94F8780001F0E3FD02F015FCB94BDFF8FC821A78002702F0FB021A701A785F
:4007800042F001021A701A7802F0FE021A701A7802F0FE021A7002F003FC0220FFF7D2FC012141F6FF734FF48042084601F0DEFD84F8B60002F02AFA08F807000137402FA7
:4007C000F8D1DFF8B0A200270AF195091FFA89F80137402F14BF3A4600221AF8010F2244062392F82420402102F044FA424646F24E419AF8000002F04FFA08F14008402FB5
:400800001FFA88F8E4D196F8793053B196F87C30336100233375237D002BFCD000233375336100234FF0FF32236062602372236894F8B600234493F8241002F09FF994F82A
:40084000B60002F05DF9012194F8B60002F030F92368002BFCD0002398467360D6F80CA0012702F065FAE368B4F87A20CAEB030393420DD367B1042195F8B60002F08AF9BC
:4008800094F8B60002F096F90028F9D107463072237AFBB96A682B689A4202D1002FE0D118E00220FFF74EFC6968402209EB8111022000F02DFE6A68674B01321340002BCA
:4008C000BEBF03F1FF3363F03F03013308F101086360C6E70220277AFFF734FC00221146022000F015FE0220FFF72CFCFFB2FFF79BFC002001F01CFD37B15848FFF7E1FC90
:400900000220FFF705FD06E0554B08A81B88ADF82030FFF7EBFC227D4146237A5148FFF7D0FC15E25048FFF7CCFCD4F87A7017F03F0701D0032009E2286FFFF753FD95F83B
:40094000780001F00DFD95F8780001F0F1FC012001F098FD02F020FB444BDFF814811A7842F004021A701A7842F001021A701A7802F0FE021A701A7802F0FE021A7002F0BF
:400980000FFB01214FF4804341F6FF72084601F01DFD85F8B60002F039F908F807000137402FF8D1DFF8CC90002709F195031FFA83F804930137402F14BF3A46002219F8F2
:4009C000010F2244052392F82420402102F052F9414646F2484299F8000002F05DF908F14008402F1FFA88F8E4D100274FF0FF33376098467360BB463B46D6F87A903772EA
:400A00005FEA99190CBF4FF0010A4FF0000A2168114A01310A40002ABCBF02F1FF3262F03F026068B8BF013282426FD02BB1227A002A7AD12A7D002A77D12068049A059368
:400A400002EB8010BAF1000F16D040223F2102F003FB1CE09E6400403F000080CF3A0000FA380000E93A0000FC3A000098640040A481FF1FA381FF1F014601370120FFF7BF
:400A8000B3FBC7EB0903D3F1000A4AEB030A2168B34A01310A40002ABEBF02F1FF3262F03F02013222606268059B01322ED12A683F2A2BD14FF00008C5F8048001F0B4FCE9
:400AC00085F808806B6895F8B6002B4493F8241002F054F895F8B60002F012F8012195F8B60001F0E5FF95F87E302B6185F81480237D002BFCD04FF00008012086F814800D
:400B000001F09EFC404601F0BDFC00E023B1237A5BB92B7D4BB90123626842453FF477AF0BF1010BD5F8048071E701F083FC012001F0A8FC002001F083FC042194F8B6004D
:400B400002F028F894F8B60002F034F880460028F8D196F8B60001F0C1FF337D327A0293012303920193CDF800A05B463A4649467C48FFF7A6FBC6F81080BAF1000F0BD0C6
:400B8000FFF752FB002001F0D3FB237A63B17648FFF797FB0220D9E0B945F1D073490120FFF722FB0137F7E77148FFF78AFB714B3DE094F8780001F0D3FB206FFFF712FC19
:400BC0006D48FFF77EFB94F87930236100232375237D002BFCD0012001F032FC00233375237D002BFCD0002001F02AFC002363483361FFF766FB624B19E0002084F86A0088
:400C0000FFF7F0FB5F4B12E094F8743023B195F875200AB985F8782094F875201AB113B9012385F878305848FFF794FB574B1B88ADF8203008A8FFF759FB89E0FFF778FB0D
:400C400001F01CFE002001F0BFFD2A2701F0EAFC002001F08DFC3A46002108A802F0FCF917238DF820308DF8217002F061F8002001F052FB002001F0E9FBC82002F01AF8F3
:400C80000DF12200FFF7E8FA0DF13600FFF705FB02F04EF8012001F0D9FB322002F00AF80DF12600FFF7D8FA0DF13A00FFF7F5FA012001F031FB4FF4967001F0FBFF02F041
:400CC00037F80DF12E00FFF7C7FA0DF14200FFF7E4FA002001F020FB4FF4967001F0EAFF02F026F8022001F0B1FB322001F0E2FF0DEB0700FFF7B0FA0DF13E00FFF7CDFAF4
:400D0000012001F009FB4FF4967001F0D3FF02F00FF80DF13200FFF79FFA0DF14600FFF7BCFA002001F0F8FA4FF4967001F0C2FF01F0FEFF002001F089FB002384F86A302F
:400D400001F01EFD01F0F0FB74E70120FFF7E0FA032000F0A3FC0E48FFF7B3FAFFF7B8BB3F000080063B0000363B00003892FF1F403B0000FC380000483B0000563B00000F
:400D8000FE38000000390000F681FF1F02390000633B00000F4B1A78120616D55878C0B2012814D11B79DBB2042B02D0052B05D07047094A094B5A60282203E0084A074B07
:400DC0005A60E0221A8000F043BE002070470120704700BF0060004004390000BC92FF1F2C3900002DE9F04172B6884B61221A70A3F5F06301221A801924854A9C7092E807
:400E000003008033062283F8002283E80300522203F580731A707F4B7F4A1B787F4EDBB2137040F618027E4B00251A8041F2512223F8022C33784FF4F07003F0010343EAA4
:400E4000450502F0A1F8013C05F003052ED0032DF0D1744B4FF480721A8007221A70724A002548211570917002221D705D7103F8032C0422DA716D4A6D4C13786D4E43F060
:400E80000103137012F8013C062743F0030302F8013C2378012243F0800323705B4B1A70654A137843F02003137000E0FEE707FB056300219A881868013502F0CDF8072D6A
:400EC000F5D15E485E4E002550F8041F05F1105303F14A0221F0FF074B33C9B20B4452005B0002329A4206D012F802EC12F801CC0EF807C0F5E7B0420D44E5D1514A002390
:400F000013609360136193614F4B504F1A68504BDFF888811A604F4B1A684F4B1A604F4A137843F002031370137C43F0020313742378A2F5863243F040032370413A1378DD
:400F400043F010031370464A464B07CA03C31A80454A2833106843F8250C127903F8212C424A07CA03C31A80414AE83B07CA03C31A80404A083307CA03C31A803E4A3F4B11
:400F8000A2F5616203CBC2F8100EC2F8141E1378042043F008031370394B02F5AA521B783D78DBB298F80060EDB203F007010C321B091170F6B2537045F003033B7046F095
:400FC000030388F800302F4B48221A702E4A402313702E49937013729372082382F81F3220220A7048710A72294A0A20137001F077FE284B88F8006044223D70264D1A709B
:4010000094E80F0007C52B80BDE8F08100480040680A00480F010049A146004025420040224200400440004006400040A2430040A0430040683B0000E8460040FCFFFF47E7
:401040009000004800760040700A0048F846004020760040740A00482876004003500140280A0048C0510040340A00483C0A0048480A0048540A004832510040600A004800
:40108000CF0100491D51004001590040235B0040585B004076580040B0430040F946004008B501F0ADFF03680C2B00D1FEE7FEE7084908B50B68084A1844821A802A01DC75
:4010C000086005E001F09CFF0C2303604FF0FF33184608BDCC80FF1F8893FF1F80B51148114B0025C0B1A3F1100192C922460439161BB74204D051F8046F42F8046BF7E7E8
:40110000114653F8046C8C1AA64202D041F8045BF9E701381033E5E701F078FFFFF7AEF9FEE700BF01000000FC3C0000124A134B10B51A60124A134C1368134843F4007367
:4011400013600023032B98BF54F823204FEA830188BF0E4A0133302B4250F3D10C4B1A780C4B1A700C4B084A1A60FFF73BFEBDE8104001F087BC00BF0004FA050CED00E0A4
:4011800014ED00E0000000000080FF1FA1100000BC760040C080FF1F08ED00E0F8B501F0FBFE4B4A01271378022643F001031370137C484C43F001031374474B02F5E352FA
:4011C0001F700B3203F8946C1378054603F07F031370002001F084FD2378404A03F0F90323701378384603F0DF03137023783B43237001F075FD282001F072FD384B304610
:401200001A7802F07F021A701A7802F0BF021A7023783343237001F063FD2378314A43F0040323700023137053702F4AFF2199540133092BFBD1284601F0B2FE07211720E7
:4012400001F096FD2949172001F084FD0721182001F08EFD2649182001F07CFD0721152001F086FD2349152001F074FD0721052001F07EFD2049052001F06CFD072106201F
:4012800001F076FD1D49062001F064FD0721084601F06EFD1A49072001F05CFD0721082001F066FD1749082001F054FD0021162001F05EFD1449162001F04CFD07210C2014
:4012C00001F056FDBDE8F84010490C2001F042BDA5430040944300409D60004012600040F851004084600040AD92FF1F6B1B0000A5190000691B00009D1A0000C91A0000BE
:40130000F91A0000311B0000711B0000E51B0000214B224A10B5187000231370204A40201370204A0F2413701F4A13701F4A13701F4A13701F4A13701F4B4FF400021A60B1
:401340004FF080721A604FF400121A6020221A601860802018604FF480701860174804704FF480001860164B1A70933B19B91A7802F0FE0202E01A7842F001021A70114B50
:4013800003221A70802203F8202C012001F0FCFD0D4B04221A7010BDC892FF1FCE92FF1FCC92FF1FCD92FF1FC992FF1FB892FF1FCB92FF1F4093FF1F00E100E09E6000407A
:4013C0009C600040286000401260004070B5074C054623780E461BB9FFF7E0FE0123237031462846BDE87040FFF792BF7892FF1F0A4A002313700A4A13700A4A13700A4A81
:4014000013700A4A13700A4A13700A4A13700A4B03221A70802203F8202C7047CE92FF1FCC92FF1FCD92FF1FC992FF1FB892FF1FCB92FF1F4093FF1F28600040014B187898
:40144000704700BFCD92FF1F044B1A7802F0FF001AB118780022C0B21A707047CC92FF1F024A0C2303FB002040787047D492FF1F431E072B0CD8074A064B00010344805C32
:401480005B7800F00F0043EA0020023880B2704700207047FC5F00401A4A38B50C2303FB00231B79090C13F0800F00F1FF35044619BF8AB24FF480438BB24FF48042032DA1
:4014C00018D8DFE805F002070C110021084601F0A1FA0DE00021084601F080FA08E00021084601F05FFA03E00021084601F03EFA054B1855EDB2072D03D801F087FB034B10
:40150000185538BDD492FF1FA492FF1FAD92FF1F431E072B2DE9F0470446894615465CD82F4F0C2202FB0072D388DFF8B8A09BB2C3F500739D424FF00C0303FB007388BF8A
:40154000D588DB7884BFC5F50075ADB2254A43EA15230601B354B244EBB28AF80130224B1A5C9846FF2A01D1FFF796FF0C2303FB047200215170B9F1000F28D03DB31B4FEB
:40158000385D01F0ABFA11232946FE2218F8040001F070FB06F5C04278321FFA89F118F8040001F079FB124D18F80410385D01F0E5FA0121385D01F07BFA735D43F002030D
:4015C0007355735D03F0FD037355BDE8F08703FB04746379DBB28AF80230BDE8F08700BFD492FF1FFC5F0040AD92FF1FA492FF1F706000402DE9F047044615468846002945
:4016000040D0431E072B3FD8FFF732FFA84203D22046FFF72DFF05461D4E335DFF2B03D141462046FFF738FFDFF868A027011AF8040001F053FA1223FE222946305D01F087
:4016400019FB07F5C0411FFA88F27831305D01F023FBDFF84490315D1AF8040001F08EFA01211AF8040001F023FA17F8093043F0020307F8093017F8093003F0FD0307F881
:40168000093002E00D4600E000252846BDE8F087AD92FF1FA492FF1F70600040431E072B0AD8064A0C2303FB002300225A705A79034BD2B200011A54704700BFD492FF1F5D
:4016C000FE5F0040431E072B9FBF024B000108221A547047FE5F004030B51A4A1A491B4D0878138803449BB21380194A00231488D8B2A4B27CB1082B0CD050680078C0B2EC
:40170000E85450680133013050601088013880B21080ECE718460B780E4C082B0E4A00D040B10E4D2B7883F080032B700F232370022301E0022323701370094B18700870CA
:4017400030BD00BF4493FF1F4093FF1F00600040BC92FF1FB992FF1FCE92FF1FCA92FF1F4193FF1F074B02221A70074B80221A70064B0F221A70064A00231370054A012088
:4017800013707047CE92FF1FCA92FF1FB992FF1F4093FF1F4193FF1F30B5164B16491B780A8803F00F03023BDBB21A4492B20A80124C134A0020118889B279B173B155682C
:4017C000215C013BC9B229705168DBB20131516011880130013989B21180ECE7094A1370094A137883F080031370084B0B221A7030BD00BF296000404493FF1F006000400F
:40180000BC92FF1F4193FF1FCA92FF1FB992FF1F064A06231370064A01201370054B80221A70054B00221A70704700BFCE92FF1FB992FF1FCA92FF1F4193FF1F054B9A68E4
:401840003AB19A68044910709A680988518000229A607047BC92FF1F4493FF1F08B5124B1A78D2B21A701B78DBB21A0602D50F4A137008BD0220FFF7E1FF0D4B1B7803F0CE
:401880006003202B05D0402B06D043B900F012FC04E001F089FB01E0FFF77CFA10B9034B03221A7008BD00BF28600040B992FF1F0060004008B5084A084B012019781388FA
:4018C0000B449BB21380064B00221A70FFF7B6FF044B03221A7008BD4493FF1F4093FF1FCE92FF1FB992FF1F08B50C4B1B78DBB2042B07D0062B09D0022B0DD1BDE8084045
:40190000FFF7D8BFBDE80840FFF746BF0320FFF795FF034B03221A7008BD00BFCE92FF1FB992FF1F08B5054B002201201A70FFF785FF034B03221A7008BD00BFCE92FF1FCA
:40194000B992FF1F08B50A4B1A7832B11A78094942F080020A7000221A70074B002201201A70FFF76BFF054B03221A7008BD00BFB892FF1F08600040CE92FF1FB992FF1FC0
:40198000074B1B78DBB2042B05D0062B05D0022B05D1FFF7A1BEFFF7C5BFFFF7D3BF7047CE92FF1F38B51D4C2378DBB2DD0634D518060AD503F00F03012B2ED1FFF74EFF42
:4019C000174B1B78190609D538BD5A0602D5FFF7D7FF03E09D0620D5FFF786FF23781B061BD4104B1A78104B1B7813430F4A13701278934211D10A4A0849154613782078EB
:401A0000DBB2000605D41378DBB20B700B7803F00F0328788342F1D138BD38BD28600040B992FF1FCA92FF1F4193FF1F29600040054A00231380054A916819B191680B701D
:401A400092685380704700BF4493FF1FBC92FF1F0E4808B503889BB213B9FFF783FE13E00B4B02221A700B4B00221A70FFF7E0FF094AD1799379028843EA012392B2934229
:401A800038BF0380FFF728FE012008BDBC92FF1FCE92FF1FCA92FF1F00600040084B01221A700F3B9B7C074B1A7B02F00302012A1EBFDA7B82F08002DA7301225A73704722
:401AC0000B600040D492FF1F094B02221A700F3B93F82230074B1A7E02F00302012A1EBFDA7E82F08002DA7601225A76704700BF0B600040D492FF1F0B4B04221A700F3B21
:401B000093F83230094B93F8242002F00302012A1EBF93F8272082F0800283F82720012283F82520704700BF0B600040D492FF1F0B4B08221A700F3B93F84230094B93F856
:401B4000302002F00302012A1EBF93F8332082F0800283F83320012283F83120704700BF0B600040D492FF1F7047FFF741BC0000F0B5184B184E19780C27C9B201234FF028
:401B8000000C31B3CA0720D5144A4FEA031E7244947850782040C5070DD507FB03652C79240608D5147804F0FE0414706D790C4CEDB204F80E50840706D507FB036425795F
:401BC0002D0658BF84F801C090700133DBB24908D7E7F0BD9F600040D492FF1F70600040FE5F004000F032BF70B50446184B88B003AA03F11006154618685968083303C530
:401C0000B3422A46F7D11B782B70FCB12223237001AD03232846637001F024F9002220461146AB5C08AC04EB131414F8144C03F00F03847008AC234413F8143C0132082AB1
:401C4000C1700371417100F10400EAD108B070BD923B00002DE9F0431C4D01222E460C201F274FF0800E4FF0080C194B00FB02581401234418705F70164998F8059021445B
:401C8000B9F1000F07D098F8044024064CBF887081F802C001E081F802E000FB0261CC880132E4B29C71CC88092AC4F30724DC71CC88E4B21C71C988C1F307215971D4D1CB
:401CC000054BFF221A70BDE8F08300BFD492FF1F70600040FC5F00400A600040064B074A1B7802EBC30253681A7C824286BF03EBC003586900207047C892FF1FB83B000044
:401D00002DE9F84F424B1A78002A7ED01878414D0138C0B2FFF7E2FFA8463F4AC3681478007ADFF800C1E4B203EBC0000C2600274FF0010E834268D01A78A24263D11CF829
:401D40000420597891425ED19A7893F8039002F07F0206FB02FA05EB0A01CF7093F802B009F0030981F804B093F803B005F80AB0B3F804A0A1F808A093F902A0BAF1000FB6
:401D80000BDAB9F1010F0CBF4FF007094FF00D0981F8059081F801E009E0B9F1010F0CBF4FF005094FF0090981F805904F704FEA02191A4906FB0282494481F802E0B2F806
:401DC00008A0CAF3072A81F800A0B2F808A05FFA8AFA81F801A0B2F806A011495FFA8AFA494481F806A0B2F80690C9F3072981F80790B2F806905FFA89F981F80490D288FA
:401E0000C2F307224A71083394E7BDE8F88F00BFCD92FF1FD492FF1FC992FF1FFC5F004070600040BA92FF1F08B5064B18780138C0B2FFF753FF20B143681B7900EBC3008A
:401E4000406908BDCD92FF1F00212DE9F84F0B464E4E0C2707FB01F401313219092933554FF000059370494CD3701381937253705371EFD118B1464B1D70464B1D70464B16
:401E80001A78002A7FD0187801250138C0B2FFF725FFA8464368DFF8F8E0DB790C2713F0400F3E4B4FF0000C1A7814BF42F0010202F0FE021A70027AD20007FB0541C368D0
:401EC00003EB02094B4531D093F802A00AF07F06AE4229D10E89B3F804B0B6B25E4538BFA1F808B01E7893F801B01EF80660B3451AD181F804A0DE780E7093F902A0DE78D3
:401F0000BAF1000F06F0030607DA012E0CBF07260D264E7181F8018006E0012E0CBF052609264E7181F801C00833CBE70135092DC3D1C1680A328B1C0A440C20083393423E
:401F400009D013F8081C13F80A5C01F07F0100FB01418D72F2E7FFF767FF114B0121186000230C2000FB0142D3801289013113449BB203F00102134409299BB2F2D1BDE88B
:401F8000F84FFFF767BEBDE8F88F00BFD492FF1FBA92FF1F4293FF1FCD92FF1FCB92FF1FD092FF1F114B1B7903F07F035A1E072A19D80F490C2202FB031291781B0141F08E
:401FC000010191700021D170517841F002015170127912F0800F074A1A4414BF8D2389239370FFF715BC0020704700BF00600040D492FF1FFC5F004030B4194B1A7902F0D8
:402000007F02531E072B27D8164B0C2404FB02339978154D01F0FE0199700021D97029461201505D114400F07F0050555A7802F0FD025A701A795B78120605D5012B01D167
:402040008C7006E00D2303E0012B0CBF082309238B7030BCFFF7DCBB002030BC704700BF00600040D492FF1FFC5F004010B50D4B0D4C21791878C9B20138C0B2FFF72EFE80
:4020800043681B798B4201D2012909D8074A0848535CDBB24354A3780120DBB2535410BD002010BDCD92FF1F00600040BA92FF1F4293FF1F38B5874A874C13780021DBB254
:4020C00021801806517840F188800A2900F20081DFE811F05800FE00FE00FE00FE00FE000B00FE007900FE007D00D3787949012B09D17A4B1A787A4B03EBC2035B685B68FE
:402100006360122310E0CB78022B12D18878FFF7E5FD002800F0DC80436863606368DA7863689B7843EA02232380BDE83840FFF78FBCCB78032B21D16A4B00228878D5B29B
:40214000854203D3634A92783AB910E0187801320028F7D018780344F0E75E4A62499278097C914203D16148FFF73EFD5F4B1A78002A00F0AD801A78228018E0BDE8384099
:4021800000F012BF13F0030313D0022B40F0A0802380504B0C211B7903F07F02544B01FB02339A78534BD2B21A7000225A706360BBE702222280504A11784E4AC9B2117026
:4021C00053706260B1E7012323804C4BEFE70123238013794A4A1344E9E701390A2977D8DFE801F037764F76067676760A7620009378444ADBB25AE0937803F0FF0153B928
:402200003E4B1A7891425FD019703F4B01201870FFF71AFE58E0481EC0B2FFF75FFD0028EED155E0FFF722FF002851D0294A374913791279DBB2D2B20A70354A3049D25C1E
:40224000CB5C9A4240D0304B01221A70FFF758FD3AE003F00303012B2BD009D3022B37D11C4B9B78002B33D1BDE83840FFF7C4BE184B9B78012B2BD11F4A137803F0FD03CA
:4022800015E003F00303012B13D008D3022B1FD1104B9B78E3B9BDE83840FFF783BE0D4B9B78012B14D1144A137843F0020313700AE0084B1A795AB998781B791549DBB239
:4022C000CA5C22EA0002CA54BDE83840FFF7A0BA002038BD00600040BC92FF1FC892FF1FB83B00001C3C00008F3C00006093FF1FD492FF1F7992FF1FCB92FF1FCD92FF1FBA
:40230000BA92FF1FB892FF1FCC92FF1FC992FF1F4293FF1FCF92FF1F014B1870704700BF72640040014B1878704700BF68650040014B1870704700BF7A650040064A0123C8
:40234000136002F688321268E0211064034A1170A2F540721360704780E100E000E400E0014B1870704700BF7A64004073B515461E460B4C04230022019200920A46014658
:402380001846237000F022FC32462946207800F0DDFB0221207800F0C7FB207802B070BDD080FF1F074A0223136002F688321268E0215064044A11706FF440710A44136017
:4023C000704700BF80E100E001E400E073B515461E460B4C05230022019200920A4601461846237000F0F2FB32462946207800F0ADFB0221207800F097FB207802B070BD84
:40240000D180FF1F064A0423136002F688321268E0219064034A1170A2F202321360704780E100E002E400E0014B04221A60704700E100E0014B04221A60704780E100E013
:40244000014B1870704700BF7B650040014B1870704700BF73640040704738B505460078012428B100F038FD285D0134E4B2F8E738BD08B50D2000F02FFDBDE808400A20C6
:4024800000F02ABD014B1870704700BF7865004010B500F081FD204A044613780A2043F002031370137C43F00203137412F80A3C43F0010302F80A3C937943F0010393712B
:4024C00002F5AB52137843F003031370134B18221A7013F8012C42F0400203F8012C13F8012C02F0FC0203F8012CCE2203F8062CA3F597530222183B1A70094A137843F0AA
:402500000803137000F0ECFB064B10222046BDE810401A6000F044BDAB4300400E5900402F5B004080E200E008B500F035FD0F4A137803F0FE031370A2F5AA521D3A13785D
:4025400003F0FD031370137C03F0FD03137412F80A3C03F0FE0302F80A3C937903F0FE039371BDE8084000F01BBD00BF08590040044A137803F03F0343EA8010C0B2107082
:40258000704700BF08590040082804D00A280CBF8223C22300E0422308380E4AC0B20428137098BF0C4B4FF0000298BF33F910100A4B88BF11461A8042F210734B4341F2E4
:4025C000883103F6C41393FBF1F305490B60054B1A8070470A590040A43B00004A93FF1F4C93FF1F5093FF1F08B5102000F036FA0721042000F0BCFB0749042000F0AAFB02
:40260000064A0C20137843F006031370FFF7BCFF034B00221A8008BDE1260000095900404893FF1F10B5054C23781BB9FFF7DCFF01232370BDE81040FFF72ABF7B92FF1FA6
:40264000044B1A7802F0FB021A701A7842F001021A7070470859004010B5084B1C7814F0010403D10028F9D0002404E0204600F037FB024B1B78204610BD00BF09590040D9
:40268000034A044B1B881088181A00B2704700BF5093FF1FA25B00400E4A13881BB223B111880A2309B2594301E00B4B19680B4B1B88C01A42F2107300B203FB00F20223F1
:4026C00091FBF3F30028D8BF5B42134493FBF1F000B270474A93FF1F4C93FF1F4893FF1F7047000010B500F057FC214A044613780A2043F001031370137C43F001031374BC
:4027000012F80A3C43F0020302F80A3C937943F00203937102F5AA521832137843F003031370144B18221A7013F8012C42F0400203F8012C13F8012C02F0FC0203F8012CBE
:40274000CE2203F8062CA3F597530222123B1A70094A137843F00803137000F0C1FA074B08222046BDE810401A6000F019BC00BFAB43004006590040275B004080E200E0CF
:4027800008B500F009FC0F4A137803F0FE031370A2F5AA52153A137803F0FE031370137C03F0FE03137412F80A3C03F0FD0302F80A3C937903F0FD039371BDE8084000F0BB
:4027C000EFBB00BF00590040044A137803F03F0343EA8010C0B21070704700BF00590040082804D00A280CBF8223C22300E0422308380E4AC0B20428137098BF0C4B4FF095
:40280000000298BF33F910100A4B88BF11461A8042F210734B4341F2883103F6C41393FBF1F305490B60054B1A80704702590040AE3B00005693FF1F5C93FF1F5493FF1FFC
:4028400008B5102000F014F90721032000F090FA0749032000F07EFA064A0C20137843F006031370FFF7BCFF034B00221A8008BD39290000015900405893FF1F10B5054C6D
:4028800023781BB9FFF7DCFF01232370BDE81040FFF728BF7C92FF1F044B1A7802F0FB021A701A7842F001021A7070470059004010B5084B1C7814F0010403D10028F9D0AE
:4028C000002404E0204600F00BFA024B1B78204610BD00BF01590040034A044B1B881088181A00B2704700BF5493FF1FA05B00400E4A13881BB223B111880A2309B25943E7
:4029000001E00B4B19680B4B1B88C01A42F2107300B203FB00F2022391FBF3F30028D8BF5B42134493FBF1F000B270475693FF1F5C93FF1F5893FF1F70470000014B1870E9
:40294000704700BF7B640040014B1870704700BF7F640040014B1870704700BF7C640040014B1870704700BF7E640040F7B516461F460B4C00230325019300930A460146B2
:402980002846257000F022F93A463146207800F0DDF80221207800F0C7F8207803B0F0BDE080FF1FF7B516461F460B4C00230225019300930A4601462846257000F006F917
:4029C0003A463146207800F0C1F82946207800F0ABF8207803B0F0BDE180FF1FF7B516461F460B4C00230125019300930A4601462846257000F0EAF83A463146207800F06F
:402A0000A5F80221207800F08FF8207803B0F0BDE280FF1F73B515461E460B4C0023019300930A4601461846237000F0CFF832462946207800F08AF80221207800F074F880
:402A4000207802B070BD00BFE380FF1F024B1878C0F38010704700BF8F450040034A00F0F800137803431370704700BF02410040034A00F0F800137803431370704700BF74
:402A800006410040074A7F23802113705170064A013BDBB202F80839002BF9D1034A1370704700BFE480FF1FF87B00400078004017280FD8084B0001C25C11B142F020028D
:402AC00001E002F0DF02C254C25C42F00102C25400207047012070471070004017280BD8064B0001C25C02F0FE02C254C25C02F0DF02C25400207047012070471070004024
:402B000017280DD8074900010B4603441A7942F004021A71435C43F00103435400207047012070471070004017280BD8064A0001835C490003F0F10301F00E0119438154A3
:402B400000207047012070471070004041F6FF73994208BF4FF400519A4208BF4FF4005217289FBFC00000F1804000F5EC4081809ABFC280002001207047000017289FBF6F
:402B8000034B00011954002088BF0120704700BF1970004017289FBF054B00011A5C01F007019DBF1143195400200120704700BF1470004017289FBF034B0001185C00F04D
:402BC000070088BFFF20704714700040172810B51AD8C00001F07F0100F1804441EAC21204F5EC44D2B222709DF8082003F00F0343EA0213DBB263709DF80C30002003F08B
:402C00000F03A370E07010BD012010BD10B500F0C3F90A4A5378182B0AD91478013B5370E30003F1804303F5F0431B78137000E0FF2400F0B5F9204610BD00BFE480FF1F33
:402C4000030610B5044611D400F0A6F9084AE300117803F1804303F5F04319705378147001335370BDE8104000F09AB910BD00BFE480FF1F30B504060CD411F4704509D1B0
:402C8000C40004F1804404F5F0442180A270E370284630BD012030BD03065FBFC00000F1804000F5F04081805ABFC280002001207047000038B50446084DB4F5004F05D988
:402CC000286800F061F9A4F50044F6E7034B58686043BDE8384000F057B900BFEC80FF1F024B1B7A584300F04FB900BFEC80FF1F0E4B00F003001A78490102F0FC02104300
:402D000018701A7801F0600142F080021A701A7802F07F021A701A7802F09F020A431A701A7842F010021A70704700BF83430040014B01221A70704784430040044B00F08C
:402D40000F021B6853F8220043F82210704700BF08ED00E0054A00F01F00126800F1100352F8230042F82310704700BF08ED00E000F01F0000F16040490100F56440C9B29B
:402D8000017070470F4B10B50F4900240F205C609C60DC601C615C61FFF7D0FF0B4A136843F0040313600A4B4FF47A72DB68B3FBF2F3084A1360084B4FF400421C60C3F883
:402DC000E82010BD8092FF1F312E000010E000E0EC80FF1F14E000E018E000E0024A136843F002031360704710E000E008B5FFF7F5FF034A136843F00103136008BD00BFD3
:402E000010E000E010B5054CA3691BB9FFF7BAFF0123A361BDE81040FFF7E8BF8092FF1F024B1868C0F30040704700BF10E000E038B5FFF7F5FF012808D1054D002455F891
:402E4000243003B198470134052CF8D138BD00BF8492FF1F024B03EB80035868596070478092FF1F134B144A1B78DBB20360127843EA0223114A0360127843EA0243104A07
:402E80000360127843EA026303600E4B0E4A1B78DBB24360127843EA02230C4A4360127843EA02430A4A4360127843EA02634360704700BF0301004904010049EC460040B2
:402EC000020100490101004900010049050100490601004900000000FEB5494652465B460EB40746244909688A46244A12682448022100F071F8030020480068C018204936
:402F000000F06AF8143883460121C9430C460125002600F041F8814651460B7823400B705846013000F030F83800F04028400B78234003430B70584600F026F80136072E00
:402F4000F2D9002001300138013001200B78234003430B705846043000F016F8484600F01FF800BF00BF00BF0EBC894692469B46FEBD00BFAFF30080D480FF1FF880FF1F6B
:402F800000C20100000000000230800803D000BF01380046FCD17047EFF3108072B6704780F31088704700BF094A137803F00303012B0AD0022B09D113790C2103F07F021C
:402FC000044B01FB02339B7A00E013790020704700600040D492FF1F002902D0B0FBF1F0704708B14FF0FF3000F008B80029F8D00246B0FBF1F000FB11217047704700BFA1
:40300000014B1868704700BF5C81FF1F0E4B70B51E460E4C0025E41AA410A54204D056F8253098470135F8E700F04EFE084B094C1E46E41AA4100025A54204D056F8253071
:4030400098470135F8E770BDD43C0000D43C0000D43C0000DC3C000003460244934202D003F8011BFAE7704730B5141E05469BB0184604DA8B232B604FF0FF301DE04FF432
:403080000273ADF80C300CBF234604F1FF33029305934FF6FF7300910491ADF80E3002461E9B6946284600F073F8431CBCBF8B232B6014B1009B00221A701BB030BD000022
:4030C00007B5009313460A46014603480068FFF7CBFF03B05DF804FB5C81FF1F2DE9F0478E6882469E420C46914698463ED88A8912F4906F3AD02568096902236F1A656977
:4031000005EB450595FBF3F57B1C43449D4238BF1D4653050FD5294600F04AFB064698B13A46216900F0D2FAA38923F4906343F08003A38113E02A4600F098FB064670B9E0
:403140002169504600F0E8FA0C23CAF80030A3894FF0FF3043F04003A381BDE8F08726613E44266046466561ED1BA560464528BF464649463246206800F0B3FAA3680020A9
:403180009B1BA36023681E442660BDE8F08700002DE9F04F9DB003938B8980461C060D4616460DD50B695BB9402100F001FB2860286118B90C23C8F80030CDE040236B6150
:4031C0000023099320238DF82930DFF89CB130238DF82A3037463C4614F8013B1BB9B7EB060910D003E0252BF9D02746F3E74B46324629464046FFF771FF013000F0A780FE
:40320000099B4B4409933B78002B00F0A08000234FF0FF3204930793059206938DF853301A930126052221784E4800F041FA671C049B38B14B4A3C46801A06FA00F0184379
:403240000490EFE7D90644BF20228DF853201A0744BF2B228DF8532022782A2A03D0079A00210A200BE0039A111D12680391002A10DA524243F00200079204900BE027468C
:403280003B780134303B092B03D800FB02320121F5E701B107923B782E2B1ED17B782A2B0AD1039B02371A1D1B680392002BB8BF4FF0FF33059310E0002319460593781CA7
:4032C0000A2407463A780130303A092A03D804FB01210123F5E703B1059103223978224800F0E6F940B14023CBEB000003FA00F0049B013718430490397806221B487E1CEB
:403300008DF8281000F0D4F988B1194B33B9039B073323F007030833039314E003AB00932A46144B04A94046AFF3008007E003AB00932A460F4B04A9404600F093F8B0F12A
:40334000FF3F824603D0099B5344099342E7AB895B0601D4099801E04FF0FF301DB0BDE8F08F00BFA33C0000A93C0000AD3C000000000000DD3000002DE9F04791461F4627
:403380000A698B6806469342B8BF1346C9F8003091F843200C46DDF8208012B10133C9F800302368990642BFD9F800300233C9F80030256815F0060510D104F1190A07E05B
:4033C0000123524639463046C04701301AD00135E368D9F800209B1A9D42F1DB94F843302268003318BF012392060FD5E118302081F843005A1C94F845102244023382F884
:40340000431003E04FF0FF30BDE8F08704F1430239463046C0470130F4D02268D9F80050E36802F00602042A08BF5D1B2269A3680CBF25EAE57500259342C4BF9B1AED1843
:403440004FF000091A344D4509D00123224639463046C0470130D5D009F10109F3E70020BDE8F0872DE9F04317460A7E85B06E2A984606460C460C9B01F1430E00F0AE8054
:4034800011D8632A22D009D8002A00F0BB80582A40F0CA8081F84520834955E0642A1ED0692A1CD0C0E0732A00F0B08009D86F2A2ED0702A40F0B8800A6842F020020A6091
:4034C0003EE0752A24D0782A3AD0ADE01A6801F14205111D1960136884F84230A8E021681A6811F0800F02D0111D196008E011F0400F02F10401196002D0B2F9003000E045
:403500001368002B3CDA2D225B4284F8432037E021681A6811F0800F02D0111D196007E011F0400F02F10401196001D0138800E01368227E5C496F2A14BF0A2208221BE068
:4035400078225A4984F845202268186812F0800F00F104051D6003D1550601D5038800E00368D00744BF42F0200222601BB9226822F0200222601022002084F8430001E08A
:4035800049490A226568002DA56008DB206820F0040020602BB9002D7DD175460CE0002B79D07546B3FBF2F002FB1033CB5C05F8013D03460028F5D1082A0BD12368DA0737
:4035C00008D5236962689A42DEBF302305F8013C05F1FF35C5EB0E0323612EE008681A6810F0800F496903D0101D1860136808E010F0400F02F104001860136801D0198064
:4036000000E0196000232361754616E01A68111D1960156800216268284600F049F808B1401B6060636804E004F1420584F8422001232361002384F84330CDF800803B468C
:4036400003AA21463046FFF797FE013002D14FF0FF3026E023692A4639463046C0470130F5D023689B0710D5002504F1190907E001234A4639463046C0470130E7D00135CC
:40368000E368039A9B1A9D42F2DBE068039B9842B8BF184605E00B7804F1420584F842308AE705B0BDE8F083923B0000B43C000010B5C9B202449042034605D01C78013064
:4036C0008C42F8D1184610BD002010BD10B5431E0A44914204D011F8014B03F8014FF8E710BD884210B501EB020301D8421E0BE09842FBD28118D21AD34204D013F8014DA2
:4037000001F8014DF8E710BD994204D011F8014B02F8014FF8E710BD38B50546002944D051F8043C0C1F002BB8BFE41800F0D4F81E4A1368114613B96360146030E0A342E7
:403740000DD92268A018834201BF18685B681218226063600C6023E0A24203D813465A68002AF9D118681918A1420BD12168014458188242196013D11068526801441960EE
:403780005A600DE002D90C232B6009E021686018824201BF106852680918216062605C602846BDE8384000F098B838BDA092FF1F70B5CD1C25F0030508350C2D38BF0C2534
:4037C000002D064601DBA94202D90C23336046E000F082F8234B1C681A462146A1B10B685B1B0ED40B2B03D90B60CC18CD501EE08C420BBF63684B681360636018BF0C4695
:4038000015E00C464968E9E7174C23681BB9304600F052F820602946304600F04DF8431C18D0C41C24F00304A0420DD12560304600F053F804F10B00231D20F00700C31A48
:403840000ED05A42E25070BD211A304600F034F80130EBD10C233360304600F03EF8002070BD00BFA092FF1F9C92FF1FF8B5074615460E4621B91146BDE8F840FFF798BFAB
:403880001AB9FFF749FF2846F8BD00F027F885420ED929463846FFF78BFF044650B131462A46FFF713FF31463846FFF735FF01E03046F8BD2046F8BD38B5064C002305467D
:4038C00008462360FDF7F4FB431C02D1236803B12B6038BD8493FF1F7047704751F8040C0028BEBF091851F8043CC0180438704700000000050209020B020D020F021102BB
:403900001302150228000000000104000100000000000000000157494E55534200003030303031000000000000000000E0000000000105000100D6000000070000002A0075
:4039400044006500760069006300650049006E0074006500720066006100630065004700550049004400730000009E0000007B00330064003200370035006300660065004E
:403980002D0035003400330035002D0034006400640035002D0061006300630061002D003900660062003900390035006500320066003600330038007D0000007B00330058
:4039C00064003200370035006300660065002D0035003400330035002D0034006400640035002D0061006300630061002D00390066006200390039003500650032006600B4
:403A00003600330038007D00000000007265706C792030782530327800686F6D696E6700626567696E6E696E67207365656B2066726F6D20256420746F2025640066696E14
:403A40006973686564207365656B00796573006E6F0057616974696E6720666F72205553422E2E2E00555342207265616479005363616E6E696E67206472697665732E2E1C
:403A80002E00647269766520303A20257320647269766520313A20257300636F6D6D616E6420307825303278006661696C2025642B25642B2564203D3D2025642C206E6F40
:403AC00074202564007061737365643D256400756E64657272756E206166746572202564207061636B65747300636F756E743D256420693D256420643D256400636D645FEF
:403B0000777269746500703D25642063723D25642063773D256420663D256420773D256420696E6465783D256420756E64657272756E3D256400756E64657272756E210015
:403B4000737563636573730073746172742065726173696E670073746F702065726173696E670069646C650000510040100040510040300000000140001000140140000858
:403B800000400140000A004C01400002005001402000303132333435363738394142434445460000000100000004000000100001000000040000001001000000C03B000072
:403BC000010000008F3C0000000000000000000001000000D83B000001000000613C000004000000FA3B0000000000000000000000000000F83B0000FF0000000102400099
:403C0000FF00000082024000FF00000003034000FF00000084034000FF00020304030904160346006C007500780045006E00670069006E0065002A0343006F0077006C00CE
:403C4000610072006B00200054006500630068006E006F006C006F0067006900650073000009022E0001010080320904000004FF00000107050102400000070582024000E5
:403C8000000705030340000A0705840340000A12010002FF0001080912006E0100020180014300232D302B2000686C4C00656667454647003031323334353637383961629E
:403CC0006364656600000000F8B500BFF8BC08BC9E467047590000002D110000F8B500BFF8BC08BC9E46704735000000003D0000C880FF1F980000002812000000000000F3
:403D0000000000008893FF1FFFFF0000675000400C00000007000000FFFFFFFF7F8000003F0000000000007D00FA0000400000000090D003000000000000000000000000EE
:403D40000000000000000000000000000000000000000000A13C00000000000000000000000000000000000000000000000000000000000000000000000000000000000066
:403D80000000000000000000000000000000000000000000FC80FF1F0000000000000000000000000000000000000000000000000000000000000000000000000000000069
:403DC00000000000000000000000000000000000000000000000000000000000000000000000000000000000000000000000000000000000000000000000000000000000C3
:403E00000000000000000000000000000000000000000000000000000000000000000000000000000000000000000000000000000000000000000000000000000000000082
:403E40000000000000000000000000000000000000000000000000000000000000000000000000000000000000000000000000000000000000000000000000000000000042
:403E80000000000000000000000000000000000000000000000000000000000000000000000000000000000000000000000000000000000000000000000000000000000002
:020000040003F7
:0200000480007A
:400000000145004008520040015B004001650040020101402C0201402D0301400F0501400B0701406308014056090140570A01404A0B0140500C01404A0D0140480E014042
:40004000390F01400415014004170140671801404B190140361A0140471B01400D40014010410140134201400D43014004440140064501400A460140084701400B48014097
:4000800010490140144C01400C4D014006500140045101407E02080109441180180219016009610A7C402721290AE204E6080F011001150126012E012F013001310138026A
:4000C00039023E013F01580459045B045F01810883048C018D0E910194029701A404AD04AE04AF0AB004B102B301B402B50CB601B802B908BE51BF04D608D804D909DB0401
:40010000DC90DD90DF01020208080C02100213081540170818081A801B801C80200821012210231026012A802C02300233043708388039023D405840600268026B0C6D4004
:40014000782088028B109840B040C001C214C4A5CA18CC43CE19D608D808DE04E208E68080088201928094809C289E80A201A602B044B380B404B610E604EA01EE44804068
:40018000842094809C209E80A602AA40E211E608EA01EE0C00800121020403020403052106FC0704080109210A020B080C040E100F4010FF11011404152F162019201A0495
:4001C0001B011C041D211EF91F0E220224042608271028042A402B2F2D0F2E02311F336034FF39083A0C3E104003450C470E481149FF4AFF4BFF50045609581859045A044E
:400200005B045C995D995F0162C081028407850186388702880189048C028D048E04902091049208940895029610983F99029C089D049E30A105A503A704A802A902AA0417
:40024000AC3FAD02B43FB507B63FBF10D608D804D904DB04DC09DD90DF010010010803010490050909240A420C030E020F24100A15081602172119401A021B501E101F107B
:400280002120242025052603272029982B402C022F18300831803202332035983701388039013B183C803D113E0447084F0856085A805F4062806302670269806B026C0881
:4002C0006D116E846F21759076467F01814087018E08908094209581971499049C019DC99E449F03A382A408A682A729C0F7C2FFC4F3CA7FCCFFCEFFD040D618D818DE1080
:40030000E210EA01EE0C0101041205010624084209800A100B200C040D700F80107011081201130414061508170219071A081B081D801E601F102140221023802404250F16
:4003400027F028042B0F2C802D01300F320F348035FF3670380A3B0C3E103F105804590A5B045C995F01824185F186418704888089208A018B118CF18E0291F1924E930218
:40038000954096419711980199109A149BE19F0EA1F1A308A580A641A711A801AA28B00FB10FB3F0B4F0BA02BB02D80BD90BDB04DC99DF010108020203080510076208017B
:4003C00009200A220D020E1410021240131414081508188819041A221B821C801D121F1021282501277029892B082D022F103008314033213608376238A039013A043E1454
:4004000068026D407A107E80800481408D108F019108921495809702980899029D109F72A218A440A509A701A809B340B408B502B640C0F7C27FC46FCACFCCFFCE6FDE8298
:40044000E401E8F0EC20EE40020103C4070808050A020B040C380D200F82101011C7120813181602170418081A301B041F302520274128042B042C062E012F043020320715
:40048000330F341837F43B083E04580459085B045C995F0182108303840285628604870489208A108B508DFC8E108F0192039420964097809A109B1C9C409E209F10A07C22
:4004C000A162A201A308A61CA710A940AA10AB30AC02AE08AF10B01FB11FB360B460B780D808D908DC99DF0100A001800204036004020706081009080A800B010C080E8878
:400500001218134215401608180419201A841B201C081EA02105220923112504268429922A242D802E102F20301031083350340136883722380439823B103D0A3E203F4070
:40054000611062106D406F047B037F028A08900292509508968297129C019D329F62A018A444A501A690A721C0DFC27FC4CFCA7FCCFECEFFDE18E020E208EA8000020120A4
:40058000024803C004C20502062407440A030B900E9011FC129013011690170318201AC01B901E901F9020FC21C222012328269027902A9C2B9C2F90321F331F34E037E015
:4005C0003A203B80420647E0482049FF4AFF4BFF4F83580859085A045B045C995D095F0180E28208861088E28A049210942096D09A03A0FCA201A440A630A880AA30AE1C91
:40060000B2E0B41FD808DB04DC09DF01009001C6032005260610072009010A140B420D200E100F40121013121548171218101A241B101C201D201E101F0820022204230148
:4006400029862B08300131103204335039043B1148054A0252015AAA6120628263206A406C097B037F0282018610C07FC27FC4FECA0FCC0FCE07D204D60FD80FDE188A02E6
:40068000A602E604EE02A602B680E401EE020010022003020406063807040802090C0A040BF10C080D0C0F20100813081408150C17101808190C1B401C081F0221802204B3
:4006C000230C250327FC281A29012A202B022DFF2E01303F31FF3E013F01580459045B045F0181238280830C842286CC870188308A028B2F8CC88D0F9123924894C8952367
:40070000970898D499239B049CC89F10A0C8A120A302A4C8A52FA802AB40AC80AE01B080B261B31FB41FB560B760B808B9A0BE11C046C620C808C9FFCAFFCBFFCD20CEF004
:40074000D110D804D904DA04DB04DC99DD09DF01E108E240E340E480E640E7400010010803820490050909080A420B040E020F941002110A120415401721184019181C80B4
:40078000218C2314274029182A022D4A2F0830083361350436413720381039413A043D013F9440404A085010584059205F806C026D4082409080910192029410950896C023
:4007C000971C99049A069B219D099F08A008A105A2C1A3E6A442A580A708B340B610C0FFC2FFC4DFCAF7CCFFCEFFD001D204D61CEE120008060209020D01100411041202D8
:4008000018041F04220428012C063006310132013302340835043A023E143F055608580459045B045C995D905F0181028405881090019236930198019C319E0AAC05AD012B
:40084000B00CB102B210B420B501B603BE04BF11D608D804D904DB04DC09DD90DF0101080240051809200A400E820F08100811401280154019231A501C101D101E821F0E2C
:4008800020402120220827882F02300232803601382039803F0158205A805F40600862406701680869806F0180408210844887408B018E4090209140941096409708982064
:4008C00099089C409D239F88A002A280A304A608A708B020B410C06CC2DAC48BCA10CC89CE8CD61CD81CE001E622EE021B011F083140330836843B4083408540C630CCF07B
:40090000CE10E220E61030803204364037043A083F80848088029740A340A604AE80AF01CCF0CE60E2105004570880049002960897409A049E089F04A002A120A644A80182
:40094000AA04B520D460E680EA80EE208E08900297409A049E08A002A120A640AA04AB0CAE04EA80EEB014407008C404DC0160808740A408B040D802EA011B0482209780E6
:400980009940B008B140B480C608E809EC040B880F4197899940A220AB05AF04C20F24088004900297409A04A002A120AE40C820E480EE4050015120560470027F018301EC
:4009C00090029A04A002A120AF40D4E0DC80DE20E620EE40070208080D010E021F10520854085940622095029940A220AF40B101C001C20DC601D407D802EA04800887021E
:400A00008E019B02A201A408AF10B008B608E208EA01EC02010109010D010F0111011D0100FF01AB02021105BF0000A09F001F0000000000000000001000000040000000B7
:400A400000000000C0000000FF0000B84700470000010000800000008000800000000000000707000700000027001801270018010004000000050000000000000000000052
:400A80000000000000000000000000000000000000000000000000000000000000000000000000000000000000000000000000000000000000000000000000000000000036
:400AC00000000000000000000000000000000000000000000000000000000000000000000000000000000000000000000000000000000000000000000000000000000000F6
:400B000000000000000000000000000000000000000000000000000000000000000000000000000000000000000000000000000000000000000000000000000000000000B5
:400B40000000000000000000000000000000000000000000000000000000000000000000000000000000000000000000000000000000000000000000000000000000000075
:0200000490006A
:0400000000000007F5
:0200000490105A
:04000000BC90ACAF55
:0200000490303A
:0200000021B02D
:0200000490402A
:4000000000000000000000000000000000000000000000000000000000000000000000000000000000000000000000000000000000000000000000000000000000000000C0
:400040000000000000000000000000000000000000000000000000000000000000000000000000000000000000000000000000000000000000000000000000000000000080
:400080000000000000000000000000000000000000000000000000000000000000000000000000000000000000000000000000000000000000000000000000000000000040
:4000C0000000000000000000000000000000000000000000000000000000000000000000000000000000000000000000000000000000000000000000000000000000000000
:0200000490501A
:0C00000000012E16106900002E3032198D
:00000001FF