:4000000000800020110000003510000035100000064A08B5136843F020031360044B1A6803F53F5302331A6001F022F8E8460040FA46004010B5054C237833B9044B13B181
:400040000448AFF300800123237010BD6881FF1F0000000098380000084B10B51BB108490848AFF300800848036803B910BD074B002BFBD0BDE81040184700BF0000000071
:400080006C81FF1F98380000C880FF1F0000000072B6034A13680133136062B6704700BF8881FF1F0A4A0B4B516801310B40002BBEBF03F1FF3363F00F0301335360516800
:4000C0009368994202BF024B01221A73704700BF8881FF1F0F0000800A4A0B4B916801310B40002BBEBF03F1FF3363F00F030133936091685368994202BF024B01221A7379
:40010000704700BF8881FF1F0F000080024B012200205A7302F052B98881FF1F10B5C4B2204601F067F90128FAD110BD10B50446094B9A7B987382421CBF0022DA7310F0CE
:40014000010F14BF0220012002F064FE6008BDE8104002F059BE00BF8881FF1F70B5C4B220460E4601F04EF9314605460246204601F00AFA204601F03DF90128FAD02846D9
:4001800070BD000038B50B4C257C55B9A07BFFF7CDFF012002F0A8F84FF47A7002F0BAFAE5732368636101232374BDE8384002F0EFBA00BF8881FF1F38B50446C5B22846A0
:4001C00002F09EF8062002F0BBFA44F00200C0B202F096F8062002F0B3FA284602F090F8BDE83840062002F095BA10B5642402F081F820B10120BDE81040FFF7DDBF0120FF
:40020000FFF7DAFF013CF2D1F4E7000038B5044D0024285D013402F043FA102CF9D138BDA081FF1F08B502F05DFC002002F066FC02F078FC02F082FC80B208BD10B5044637
:40024000012002F075F8642002F064FAFFF7EAFF2080002002F06CF8642002F05BFAFFF7E1FF608010BD08B502F068FD002002F071FD02F083FD02F08DFD80B208BD10B5A9
:400280000446FFF7B2FF322002F044FAFFF7EBFF20800020FFF790FF322002F03BFAFFF7E2FF608010BD0FB400B593B014AB53F8042B402102A8019302F0D6FE02A802F0B4
:4002C00084F802F08EF813B05DF804EB04B0704710B5044601780648FFF7E5FF0420FFF71DFF62782146BDE81040042001F0DAB8AA38000007B50023ADF804308DF80600B0
:40030000032301A88DF80530FFF7E2FF03B05DF804FB0000F8B51D4C0646FFF733FFE37B03B156B91A48FFF7BEFFFFF75EFF01200023E073A36202F003FA3246A16A1548D8
:40034000FFF7B1FF114D0027A36A9E4216D001F0D1FF00B1AF62A36A9E4205DD0020FFF72BFFAB6A013305E005DA0120FFF724FFAB6A013BAB6202F00BFAE5E7322002F041
:40038000C9F9BDE8F8400448FFF78DBF8881FF1FB7380000BE380000DB3800002DE9F04F9BB062B602F05EFABE49042002F082FABD4801F0ABFFBD4802F04EFDBC4801F07F
:4003C000DFFF02F02FFC02F001FB002002F022FD01F0FAFF0221002000F0C2FFB54D0321084602F0B5F92E462C4602F0D1F92B7C73B16A692B689B1A41F28832934207D9C7
:40040000002001F071FF002002F004FD00232B7400F0DEFF18B9A848FFF745FF04E000F0DDFF0028F7D109E000F0D2FF0028FBD0A248FFF738FF032001F0FAF8032000F031
:40044000D9FF0128D1D1A07BFFF770FE9C490320FFF784FE94F82C109A48FFF724FF94F82C30023B122B00F2DF83DFE813F01300DD031C00DD032200DD033A00DD035E002E
:40048000DD039301DD031E03DD033D03DD034303DD034F0303238DF828308DF8293009238DF82A302EE394F82E00FFF733FF864B25E3FFF767FE00236373637B002BFCD06E
:4004C000002373733268637B002BFCD0336807218DF828109B1A04218DF82910ADF82A3010E30220FFF71AFE4FF000090DF1280A4FF480780027C8EB0903DA1907F80A2095
:400500000137402FF9D10220FFF708FE3A465146022000F0C7FFB8F10108EBD109F10109B9F1400FE4D1694BBAE294F82E0001F0FFFEA06AFFF7EEFE02F002FD644BDFF8C2
:4005400094811A78002742F004021A701A7842F001021A701A7802F0FE021A701A7802F0FE021A7002F0F0FC0220FFF7D7FD41F6FF734FF480420121022002F051FC84F807
:400580006C0002F073F808F807000137102FF8D1DFF844A100270AF159081FFA88F90137102F14BF3A4600221AF8010F22440623127E402102F08EF84A4646F24F419AF862
:4005C000000002F099F809F14009102F1FFA89F9E5D100237373637B002BFCD00027142239460AA8777302F00BFD40230D934FF0FF337760B36037737368DFF8E0903344B4
:40060000197E96F86C00CDF8309001F0E7FF96F86C0001F0A5FF012196F86C0001F078FF636813B96B7B002BFAD0002794F82FA0A76094F80CB0BBF1000F6AD102F0A8F8EF
:400640006B7B43B1BAF1010A85F80DB003D160E02B7B002B5DD1A26863689A42F8D04FF0000BA3680AA808EB83135B440A93CBF140030B9300F0F8FA0B9B0137C3F1400304
:400680009B440D9B5FFA8BFB9BBB022000F0B2FE012825D0637B002B3BD12B7B002BF4D037E000BF910000000D010000A5000000D90000008881FF1FE9380000FC38000085
:4006C000B481FF1F063900009C3800009E3800009F640040A081FF1F9F81FF1FF885FF1F4022B849022000F0DDFE4023CDF830900D93BBF13F0FB4D9A268B34B0132134076
:40070000002BBEBF03F1FF3363F00F030133A3608FE7042194F86C0001F06CFF94F86C0001F078FF0028F9D10AA800F0D1FA0220FFF7F4FC337B63B90D9A402A06D0C2F135
:40074000400292B29F49022000F0ACFE0220FFF7E5FC0D9A32F0400203D11146022000F0A1FEFFF753FD237B33B19848FFF79BFD0220FFF7BFFD06E0954B09A81B88ADF8A6
:400780002430FFF7A5FD627B3946237B9148FFF78AFD4CE29048FFF786FD276B17F03F0701D0032041E2012001F0C8FD95F82E0001F0BEFD02F0C4FB884BDFF824821A78B7
:4007C00002F0FB021A701A7842F001021A701A7802F0FE021A701A7802F0FE021A7002F0B3FBA86AFFF796FD01214FF4804341F6FF72084601F0A8FD85F86C0001F036FF15
:4008000008F807000137102FF8D1DFF8D891002709F159031FFA83F807930137102F14BF3A46002219F8010F22440523127E402101F050FF414646F24B5299F8000001F0DC
:400840005BFF08F14008102F1FFA88F8E5D10027BB46B946BA46336B4FF0FF389B09142239460AA877600593C6F80880377302F0C7FB402301200D9300F0DAFECDF81880AD
:400880006268514B01321340002BBCBF03F1FF3363F00F03A168B8BF01338B4200F0A480BAF1000F07D0237B002B40F0B0806B7B002B40F0AC800B9B002B34D1B9F1000FD0
:4008C0000BD07F223F495A540133402BFAD10A910B9328E0BAF1000F06D1012000F08AFD01288046F6D107E0237B002B40F08F806B7B002BF1D08AE03249FFF72FFC81462E
:40090000304B0B9040460A9300F092FEB9F13F0F07F1010706DD059BDB1BD3F1000949EB030900E0C1460B9BDBB16368079A0AA802EB83120D9BC3F1400313440C9300F042
:40094000D6F90D9B6BB96A681F4B01321340002BBEBF03F1FF3363F00F030133636040230D93A36801333FD16B680F2B3CD14FF00008C5F8088001F015FD85F80C80AB68D9
:4009800095F86C002B44197E01F028FE95F86C0001F0E6FD012195F86C0001F0B9FD85F80D80637B002BFCD04FF00008012086F80D8001F003FD404601F0C0FCCDF81880BF
:4009C00015E000BFF885FF1F0F00008015390000A03800002F390000423900009B650040A081FF1F9F81FF1FBAF1000F05D0237B6BB96B7B5BB94FF0010AA368069A93423E
:400A00003FF43EAFAB680BF1010B069338E701F0CFFC012001F092FC002001F0CFFC042194F86C0001F0E6FD94F86C0001F0F2FD0028F9D196F86C0001F080FD737B327BCD
:400A40000293012303920193CDF800905B463A4605997B48FFF727FCB9F1000F16D1059BBB420ADD012000F0C5FC01288046F6D17449FFF773FB3F2803DC012000F0ECFD97
:400A800004E0404600F0D4FD0137E8E7FFF7BEFB6D48FFF708FC237B0BB10220C5E06B4B1B8809A8ADF824302DE094F82E0001F03FFCA06AFFF72EFC6548FFF7F4FB0023B0
:400AC0006373637B002BFCD0012001F077FC00237373637B002BFCD0002001F06FFC5D48FFF7E1FB5C4B0AE00020E073FFF712FC5A4B04E094F82E00FFF718FB584B1B885B
:400B0000ADF828300AA8FFF7E3FB90E0237C3BB1002001F0E9FB002002F07CF900232B7402F0FEF8002002F0A1F82A2701F0CCFF002001F06FFF3A4600210AA802F060FA3B
:400B400015238DF828308DF8297001F021FE002001F0CAFB002002F05DF9C82001F0DAFD0DEB0700FFF76AFB0DF13E00FFF787FB01F00EFE012002F04DF9322001F0CAFDD6
:400B80000DF12E00FFF75AFB0DF14200FFF777FB012001F0A9FB4FF4967001F0BBFD01F0F7FD0DF13600FFF749FB0DF14A00FFF766FB002001F098FB4FF4967001F0AAFDF7
:400BC00001F0E6FD022002F025F9322001F0A2FD0DF13200FFF732FB0DF14600FFF74FFB012001F081FB4FF4967001F093FD01F0CFFD0DF13A00FFF721FB0DF14E00FFF795
:400C00003EFB002001F070FB4FF4967001F082FD01F0BEFD002002F0FDF80023E37302F001F801F0D3FE6DE70120FFF763FB032000F0FEFC0B48FFF736FBFFF7D6BB00BFD7
:400C40004C390000F885FF1F7C390000A23800008B39000099390000A4380000A6380000A8380000A639000010B54268002A2ED0C368002B2BD00368048A591C01601B786C
:400C8000013A13F0800F817C42601DBF03F0010242EA84030231083114BF43F0020343EA0423817414BF03820382837C072BDCD9028A083B42FA03F38268511C8160137004
:400CC000C368013BC360837C083B8374CDE710BD07B5827C42B102AA002102F8011D026001224260FFF7C0FF03B05DF804FB30B543686BB3C2685AB3827C072A0CD80468D7
:400D000090F91050611C01602178013B41EA05210832018243608274827C018AA2F108042141CBB2090608D5C3F3801363F07F03023A03F08103827402E08474002BD7D00A
:400D40008268511C81601370C368013BC360CFE730BD00002DE9F04172B644F21A118E4B61221A70A3F5F06301221A8019244FF443729C709A80894A1B231370518044F633
:400D80001F611371D1801372854A864B92E80300062283F8002283E80300522203F580731A70814B814A1B78814EDBB2137040F61802804B00251A8041F2512223F8022C4E
:400DC00033784FF4F07003F0010343EA450502F0AFF8013C05F003052ED0032DF0D1764B4FF480721A8007221A70744A002548211570917002221D705D7103F8032C042291
:400E0000DA716F4A6F4C13786F4E43F00F03137012F8013C062743F0030302F8013C2378012243F0800323705B4B1A70674A137843F02003137000E0FEE707FB0563002163
:400E40009A881868013502F0DBF8072DF5D16048604E002550F8041F05F1105303F1560221F0FF075733C9B20B4452005B0002329A4206D012F802EC12F801CC0EF807C0B6
:400E8000F5E7B0420D44E5D1534A00231360936013619361514B524F1A68524BDFF890811A60514B1A68514B1A60514A137843F002031370137C43F0020313742378A2F57C
:400EC000863243F040032370413A137843F010031370484A484B07CA03C31A80474A2833106843F8250C127903F8212C444A07CA03C31A80434AE83B07CA03C31A80424A3D
:400F0000083307CA03C31A80404A414BA2F5616203CBC2F8100EC2F8141E1378042043F0080313703B4B02F5AA521B783D78DBB298F80060EDB203F007010C321B09117018
:400F4000F6B2537045F003033B7046F0030388F80030314B48221A70304A402313703049937013729372082382F81F3220220A7048710A722B4A0A20137001F0E1FB2A4B13
:400F800088F8006044223D70284D1A7094E80F0007C52B80BDE8F081004800408640004074100048004100400F010049A14600402542004022420040044000400640004077
:400FC000A2430040A0430040AB390000E8460040FCFFFF47A8000048007600407C100048F84600402076004080100048287600400350014034100048C05100404010004889
:40100000481000485410004860100048325100406C100048CF0100491D51004001590040235B0040585B004076580040B0430040F946004008B501F0B7FF03680C2B00D17C
:40104000FEE7FEE7084908B50B68084A1844821A802A01DC086005E001F0A6FF0C2303604FF0FF33184608BDCC80FF1F4887FF1F80B51148114B0025C0B1A3F1100192C974
:4010800022460439161BB74204D051F8046F42F8046BF7E7114653F8046C8C1AA64202D041F8045BF9E701381033E5E701F082FFFFF774F9FEE700BF010000007C3B0000E7
:4010C000124A134B10B51A60124A134C1368134843F4007313600023032B98BF54F823204FEA830188BF0E4A0133302B4250F3D10C4B1A780C4B1A700C4B084A1A60FFF7EE
:4011000029FEBDE8104001F0EDB900BF0004FA050CED00E014ED00E0000000000080FF1F35100000BC760040C080FF1F08ED00E0F8B501F005FF4B4A01271378022643F0B3
:4011400001031370137C484C43F001031374474B02F5E3521F700B3203F8946C1378054603F07F031370002001F0EAFA2378404A03F0F90323701378384603F0DF031370B7
:4011800023783B43237001F0DBFA282001F0D8FA384B30461A7802F07F021A701A7802F0BF021A7023783343237001F0C9FA2378314A43F0040323700023137053702F4A3E
:4011C000FF2199540133092BFBD1284601F0BCFE0721172001F0FCFA2949172001F0EAFA0721182001F0F4FA2649182001F0E2FA0721152001F0ECFA2349152001F0DAFA84
:401200000721052001F0E4FA2049052001F0D2FA0721062001F0DCFA1D49062001F0CAFA0721084601F0D4FA1A49072001F0C2FA0721082001F0CCFA1749082001F0BAFA51
:401240000021162001F0C4FA1449162001F0B2FA07210C2001F0BCFABDE8F84010490C2001F0A8BAA5430040944300409D60004012600040F8510040846000406D86FF1F9C
:40128000FF1A000039190000FD1A0000311A00005D1A00008D1A0000C51A0000051B0000791B0000214B224A10B5187000231370204A40201370204A0F2413701F4A13708C
:4012C0001F4A13701F4A13701F4A13701F4B4FF400021A604FF080721A604FF400121A6020221A601860802018604FF480701860174804704FF480001860164B1A70933BC9
:4013000019B91A7802F0FE0202E01A7842F001021A70114B03221A70802203F8202C012001F006FE0D4B04221A7010BD8886FF1F8E86FF1F8C86FF1F8D86FF1F8986FF1F59
:401340007886FF1F8B86FF1F0087FF1F00E100E09E6000409C600040286000401260004070B5074C054623780E461BB9FFF7E0FE0123237031462846BDE87040FFF792BF36
:401380003886FF1F0A4A002313700A4A13700A4A13700A4A13700A4A13700A4A13700A4A13700A4B03221A70802203F8202C70478E86FF1F8C86FF1F8D86FF1F8986FF1FE9
:4013C0007886FF1F8B86FF1F0087FF1F28600040014B1878704700BF8D86FF1F044B1A7802F0FF001AB118780022C0B21A7070478C86FF1F024A0C2303FB00204078704778
:401400009486FF1F431E072B0CD8074A064B00010344805C5B7800F00F0043EA0020023880B2704700207047FC5F00401A4A38B50C2303FB00231B79090C13F0800F00F1B6
:40144000FF35044619BF8AB24FF480438BB24FF48042032D18D8DFE805F002070C110021084601F01BF80DE00021084600F0FAFF08E00021084600F0D9FF03E00021084667
:4014800000F0B8FF054B1855EDB2072D03D801F0EDF8034B185538BD9486FF1F6486FF1F6D86FF1F431E072B2DE9F0470446894615465CD82F4F0C2202FB0072D388DFF86E
:4014C000B8A09BB2C3F500739D424FF00C0303FB007388BFD588DB7884BFC5F50075ADB2254A43EA15230601B354B244EBB28AF80130224B1A5C9846FF2A01D1FFF796FF47
:401500000C2303FB047200215170B9F1000F28D03DB31B4F385D01F011F811232946FE2218F8040001F0D6F806F5C04278321FFA89F118F8040001F0DFF8124D18F804105D
:40154000385D01F04BF80121385D00F0E1FF735D43F002037355735D03F0FD037355BDE8F08703FB04746379DBB28AF80230BDE8F08700BF9486FF1FFC5F00406D86FF1F52
:401580006486FF1F706000402DE9F047044615468846002940D0431E072B3FD8FFF732FFA84203D22046FFF72DFF05461D4E335DFF2B03D141462046FFF738FFDFF868A0C5
:4015C00027011AF8040000F0B9FF1223FE222946305D01F07FF807F5C0411FFA88F27831305D01F089F8DFF84490315D1AF8040000F0F4FF01211AF8040000F089FF17F823
:40160000093043F0020307F8093017F8093003F0FD0307F8093002E00D4600E000252846BDE8F0876D86FF1F6486FF1F70600040431E072B0AD8064A0C2303FB002300226A
:401640005A705A79034BD2B200011A54704700BF9486FF1FFE5F0040431E072B9FBF024B000108221A547047FE5F004030B51A4A1A491B4D0878138803449BB21380194A5D
:4016800000231488D8B2A4B27CB1082B0CD050680078C0B2E85450680133013050601088013880B21080ECE718460B780E4C082B0E4A00D040B10E4D2B7883F080032B7028
:4016C0000F232370022301E0022323701370094B1870087030BD00BF0487FF1F0087FF1F006000407C86FF1F7986FF1F8E86FF1F8A86FF1F0187FF1F074B02221A70074B61
:4017000080221A70064B0F221A70064A00231370054A0120137070478E86FF1F8A86FF1F7986FF1F0087FF1F0187FF1F30B5164B16491B780A8803F00F03023BDBB21A4412
:4017400092B20A80124C134A0020118889B279B173B15568215C013BC9B229705168DBB20131516011880130013989B21180ECE7094A1370094A137883F080031370084BC8
:401780000B221A7030BD00BF296000400487FF1F006000407C86FF1F0187FF1F8A86FF1F7986FF1F064A06231370064A01201370054B80221A70054B00221A70704700BFC5
:4017C0008E86FF1F7986FF1F8A86FF1F0187FF1F054B9A683AB19A68044910709A680988518000229A6070477C86FF1F0487FF1F08B5124B1A78D2B21A701B78DBB21A06C0
:4018000002D50F4A137008BD0220FFF7E1FF0D4B1B7803F06003202B05D0402B06D043B900F012FC04E001F093FB01E000F046FD10B9034B03221A7008BD00BF2860004013
:401840007986FF1F0060004008B5084A084B0120197813880B449BB21380064B00221A70FFF7B6FF044B03221A7008BD0487FF1F0087FF1F8E86FF1F7986FF1F08B50C4BB1
:401880001B78DBB2042B07D0062B09D0022B0DD1BDE80840FFF7D8BFBDE80840FFF746BF0320FFF795FF034B03221A7008BD00BF8E86FF1F7986FF1F08B5054B00220120BE
:4018C0001A70FFF785FF034B03221A7008BD00BF8E86FF1F7986FF1F08B50A4B1A7832B11A78094942F080020A7000221A70074B002201201A70FFF76BFF054B03221A7051
:4019000008BD00BF7886FF1F086000408E86FF1F7986FF1F074B1B78DBB2042B05D0062B05D0022B05D1FFF7A1BEFFF7C5BFFFF7D3BF70478E86FF1F38B51D4C2378DBB2D3
:40194000DD0634D518060AD503F00F03012B2ED1FFF74EFF174B1B78190609D538BD5A0602D5FFF7D7FF03E09D0620D5FFF786FF23781B061BD4104B1A78104B1B7813434F
:401980000F4A13701278934211D10A4A0849154613782078DBB2000605D41378DBB20B700B7803F00F0328788342F1D138BD38BD286000407986FF1F8A86FF1F0187FF1F96
:4019C00029600040054A00231380054A916819B191680B7092685380704700BF0487FF1F7C86FF1F0E4808B503889BB213B9FFF783FE13E00B4B02221A700B4B00221A7060
:401A0000FFF7E0FF094AD1799379028843EA012392B2934238BF0380FFF728FE012008BD7C86FF1F8E86FF1F8A86FF1F00600040084B01221A700F3B9B7C074B1A7B02F05E
:401A40000302012A1EBFDA7B82F08002DA7301225A7370470B6000409486FF1F094B02221A700F3B93F82230074B1A7E02F00302012A1EBFDA7E82F08002DA7601225A7698
:401A8000704700BF0B6000409486FF1F0B4B04221A700F3B93F83230094B93F8242002F00302012A1EBF93F8272082F0800283F82720012283F82520704700BF0B600040E2
:401AC0009486FF1F0B4B08221A700F3B93F84230094B93F8302002F00302012A1EBF93F8332082F0800283F83320012283F83120704700BF0B6000409486FF1F7047FFF79A
:401B000041BC0000F0B5184B184E19780C27C9B201234FF0000C31B3CA0720D5144A4FEA031E7244947850782040C5070DD507FB03652C79240608D5147804F0FE04147076
:401B40006D790C4CEDB204F80E50840706D507FB036425792D0658BF84F801C090700133DBB24908D7E7F0BD9F6000409486FF1F70600040FE5F004000F0ACBC70B50446D2
:401B8000184B88B003AA03F11006154618685968083303C5B3422A46F7D11B782B70FCB12223237001AD03232846637000F08AFE002220461146AB5C08AC04EB131414F80B
:401BC000144C03F00F03847008AC234413F8143C0132082AC1700371417100F10400EAD108B070BDD53900002DE9F0431C4D01222E460C201F274FF0800E4FF0080C194B78
:401C000000FB02581401234418705F70164998F805902144B9F1000F07D098F8044024064CBF887081F802C001E081F802E000FB0261CC880132E4B29C71CC88092AC4F3C5
:401C40000724DC71CC88E4B21C71C988C1F307215971D4D1054BFF221A70BDE8F08300BF9486FF1F70600040FC5F00400A600040064B074A1B7802EBC30253681A7C82427E
:401C800086BF03EBC0035869002070478886FF1F383A00002DE9F84F424B1A78002A7ED01878414D0138C0B2FFF7E2FFA8463F4AC3681478007ADFF800C1E4B203EBC000E0
:401CC0000C2600274FF0010E834268D01A78A24263D11CF80420597891425ED19A7893F8039002F07F0206FB02FA05EB0A01CF7093F802B009F0030981F804B093F803B004
:401D000005F80AB0B3F804A0A1F808A093F902A0BAF1000F0BDAB9F1010F0CBF4FF007094FF00D0981F8059081F801E009E0B9F1010F0CBF4FF005094FF0090981F80590E4
:401D40004F704FEA02191A4906FB0282494481F802E0B2F808A0CAF3072A81F800A0B2F808A05FFA8AFA81F801A0B2F806A011495FFA8AFA494481F806A0B2F80690C9F3AF
:401D8000072981F80790B2F806905FFA89F981F80490D288C2F307224A71083394E7BDE8F88F00BF8D86FF1F9486FF1F8986FF1FFC5F0040706000407A86FF1F08B5064BBA
:401DC00018780138C0B2FFF753FF20B143681B7900EBC300406908BD8D86FF1F00212DE9F84F0B464E4E0C2707FB01F401313219092933554FF000059370494CD370138184
:401E0000937253705371EFD118B1464B1D70464B1D70464B1A78002A7FD0187801250138C0B2FFF725FFA8464368DFF8F8E0DB790C2713F0400F3E4B4FF0000C1A7814BFE0
:401E400042F0010202F0FE021A70027AD20007FB0541C36803EB02094B4531D093F802A00AF07F06AE4229D10E89B3F804B0B6B25E4538BFA1F808B01E7893F801B01EF89F
:401E80000660B3451AD181F804A0DE780E7093F902A0DE78BAF1000F06F0030607DA012E0CBF07260D264E7181F8018006E0012E0CBF052609264E7181F801C00833CBE797
:401EC0000135092DC3D1C1680A328B1C0A440C200833934209D013F8081C13F80A5C01F07F0100FB01418D72F2E7FFF767FF114B0121186000230C2000FB0142D380128980
:401F0000013113449BB203F00102134409299BB2F2D1BDE8F84FFFF767BEBDE8F88F00BF9486FF1F7A86FF1F0287FF1F8D86FF1F8B86FF1F9086FF1F114B1B7903F07F0354
:401F40005A1E072A19D80F490C2202FB031291781B0141F0010191700021D170517841F002015170127912F0800F074A1A4414BF8D2389239370FFF715BC0020704700BF5C
:401F8000006000409486FF1FFC5F004030B4194B1A7902F07F02531E072B27D8164B0C2404FB02339978154D01F0FE0199700021D97029461201505D114400F07F0050558B
:401FC0005A7802F0FD025A701A795B78120605D5012B01D18C7006E00D2303E0012B0CBF082309238B7030BCFFF7DCBB002030BC704700BF006000409486FF1FFC5F004052
:4020000010B50D4B0D4C21791878C9B20138C0B2FFF72EFE43681B798B4201D2012909D8074A0848535CDBB24354A3780120DBB2535410BD002010BD8D86FF1F006000405F
:402040007A86FF1F0287FF1F38B58A4A8A4C13780021DBB221801806517840F18D800A2900F20581DFE811F05D00030103010301030103010B0003017E0003018200D378C3
:402080007C49012B09D17D4B1A787D4B03EBC2035B685B686360122310E0CB78022B12D18878FFF7E5FD002800F0E180436863606368DA7863689B7843EA02232380BDE86B
:4020C0003840FFF78FBCCB78032B26D16D4B00228878D5B2854209D3664A91786A4AEE2908BF1346634A917881B106E0187801320028F1D018780344EAE764499278097CB9
:40210000914203D16248FFF739FD614B1A78002A00F0AD801A78228018E0BDE8384000F017BF13F0030313D0022B40F0A0802380504B0C211B7903F07F02564B01FB0233E0
:402140009A78554BD2B21A7000225A706360B6E702222280514A11784F4AC9B2117053706260ACE7012323804D4BEFE70123238013794C4A1344E9E701390A2977D8DFE8F4
:4021800001F037764F76067676760A7620009378454ADBB25AE0937803F0FF0153B9404B1A7891425FD01970404B01201870FFF715FE58E0481EC0B2FFF75AFD0028EED120
:4021C00055E0FFF71DFF002851D02A4A384913791279DBB2D2B20A70364A3249D25CCB5C9A4240D0314B01221A70FFF753FD3AE003F00303012B2BD009D3022B37D11D4B5A
:402200009B78002B33D1BDE83840FFF7BFBE194B9B78012B2BD1214A137803F0FD0315E003F00303012B13D008D3022B1FD1114B9B78E3B9BDE83840FFF77EBE0D4B9B788A
:40224000012B14D1154A137843F0020313700AE0084B1A795AB998781B791749DBB2CA5C22EA0002CA54BDE83840FFF79BBA002038BD00BF006000407C86FF1F8886FF1FBA
:40228000383A00009C3A0000243A00000F3B00002087FF1F9486FF1F3986FF1F8B86FF1F8D86FF1F7A86FF1F7886FF1F8C86FF1F8986FF1F0287FF1F8F86FF1F074B1A789F
:4022C000120609D55B78012B06D1054B054A5A6012781A80FFF786BB00207047006000407C86FF1FFC390000014B1870704700BF77650040014B1878704700BF69650040CC
:40230000014B1870704700BF78650040064A0123136002F688321268E0211064034A1170A2F540721360704780E100E000E400E0014B1870704700BF70640040014B187036
:40234000704700BF7965004073B515461E460B4C05230022019200920A4601461846237000F064F932462946207800F01FF90221207800F009F9207802B070BDD080FF1F2E
:40238000064A0423136002F688321268E0219064034A1170A2F202321360704780E100E002E400E0014B04221A60704700E100E0014B04221A60704780E100E0014B18702F
:4023C000704700BF71640040704738B505460078012428B100F054FD285D0134E4B2F8E738BD08B50D2000F04BFDBDE808400A2000F046BDF7B516461F460B4C002303254D
:40240000019300930A4601462846257000F00EF93A463146207800F0C9F80221207800F0B3F8207803B0F0BDE080FF1FF7B516461F460B4C00230225019300930A4601460C
:402440002846257000F0F2F83A463146207800F0ADF82946207800F097F8207803B0F0BDE180FF1FF7B516461F460B4C00230125019300930A4601462846257000F0D6F8D2
:402480003A463146207800F091F80221207800F07BF8207803B0F0BDE280FF1F73B515461E460B4C0023019300930A4601461846237000F0BBF832462946207800F076F8EE
:4024C0000221207800F060F8207802B070BD00BFE380FF1F024B1878C0F38010704700BF8F450040074A7F23802113705170064A013BDBB202F80839002BF9D1034A137087
:40250000704700BFE480FF1FF87B00400078004017280FD8084B0001C25C11B142F0200201E002F0DF02C254C25C42F00102C25400207047012070471070004017280BD8C6
:40254000064B0001C25C02F0FE02C254C25C02F0DF02C25400207047012070471070004017280DD8074900010B4603441A7942F004021A71435C43F00103435400207047C6
:40258000012070471070004017280BD8064A0001835C490003F0F10301F00E011943815400207047012070471070004041F6FF73994208BF4FF400519A4208BF4FF400524A
:4025C00017289FBFC00000F1804000F5EC4081809ABFC280002001207047000017289FBF034B00011954002088BF0120704700BF1970004017289FBF054B00011A5C01F0A3
:4026000007019DBF1143195400200120704700BF1470004017289FBF034B0001185C00F0070088BFFF20704714700040172810B51AD8C00001F07F0100F1804441EAC212E7
:4026400004F5EC44D2B222709DF8082003F00F0343EA0213DBB263709DF80C30002003F00F03A370E07010BD012010BD10B500F067FC0A4A5378182B0AD91478013B5370BB
:40268000E30003F1804303F5F0431B78137000E0FF2400F059FC204610BD00BFE480FF1F030610B5044611D400F04AFC084AE300117803F1804303F5F043197053781470D8
:4026C00001335370BDE8104000F03EBC10BD00BFE480FF1F30B504060CD411F4704509D1C40004F1804404F5F0442180A270E370284630BD012030BD03065FBFC00000F1A2
:40270000804000F5F04081805ABFC280002001207047000038B50446084DB4F5004F05D9286800F005FCA4F50044F6E7034B58686043BDE8384000F0FBBB00BFEC80FF1F06
:40274000024B1B7A584300F0F3BB00BFEC80FF1F0E4B00F003001A78490102F0FC02104318701A7801F0600142F080021A701A7802F07F021A701A7802F09F020A431A7055
:402780001A7842F010021A70704700BF83430040014B01221A70704784430040044B00F00F021B6853F8220043F82210704700BF08ED00E0054A00F01F00126800F11003B2
:4027C00052F8230042F82310704700BF08ED00E000F01F0000F16040490100F56440C9B2017070470F4B10B50F4900240F205C609C60DC601C615C61FFF7D0FF0B4A136801
:4028000043F0040313600A4B4FF47A72DB68B3FBF2F3084A1360084B4FF400421C60C3F8E82010BD3C86FF1F9128000010E000E0EC80FF1F14E000E018E000E0024A136882
:4028400043F002031360704710E000E008B5FFF7F5FF034A136843F00103136008BD00BF10E000E010B5054CA3691BB9FFF7BAFF0123A361BDE81040FFF7E8BF3C86FF1F7A
:40288000024B1868C0F30040704700BF10E000E038B5FFF7F5FF012808D1054D002455F8243003B198470134052CF8D138BD00BF4086FF1F024B03EB8003586859607047DA
:4028C0003C86FF1F134B144A1B78DBB20360127843EA0223114A0360127843EA0243104A0360127843EA026303600E4B0E4A1B78DBB24360127843EA02230C4A4360127814
:4029000043EA02430A4A4360127843EA02634360704700BF0301004904010049EC460040020100490101004900010049050100490601004910B500F003FB204A044613787A
:402940000A2043F002031370137C43F00203137412F80A3C43F0010302F80A3C937943F00103937102F5AB52137843F003031370134B18221A7013F8012C42F0400203F812
:40298000012C13F8012C02F0FC0203F8012CCE2203F8062CA3F597530222183B1A70094A137843F008031370FFF7CAFE064B10222046BDE810401A6000F0C6BAAB430040A7
:4029C0000E5900402F5B004080E200E008B500F0B7FA0F4A137803F0FE031370A2F5AA521D3A137803F0FD031370137C03F0FD03137412F80A3C03F0FE0302F80A3C9379E7
:402A000003F0FE039371BDE8084000F09DBA00BF08590040044A137803F03F0343EA8010C0B21070704700BF08590040082804D00A280CBF8223C22300E0422308380E4ACE
:402A4000C0B20428137098BF0C4B4FF0000298BF33F910100A4B88BF11461A8042F210734B4341F2883103F6C41393FBF1F305490B60054B1A8070470A590040E639000087
:402A80000A87FF1F0C87FF1F1087FF1F08B5102000F0A6F907210420FFF79AFE07490420FFF788FE064A0C20137843F006031370FFF7BCFF034B00221A8008BD852B0000C5
:402AC000095900400887FF1F10B5054C23781BB9FFF7DCFF01232370BDE81040FFF72ABF5886FF1F044B1A7802F0FB021A701A7842F001021A7070470859004010B5084B8F
:402B00001C7814F0010403D10028F9D0002404E02046FFF715FE024B1B78204610BD00BF09590040034A044B1B881088181A00B2704700BF1087FF1FA25B00400E4A138832
:402B40001BB223B111880A2309B2594301E00B4B19680B4B1B88C01A42F2107300B203FB00F2022391FBF3F30028D8BF5B42134493FBF1F000B270470A87FF1F0C87FF1F31
:402B80000887FF1F7047000010B500F0D9F9214A044613780A2043F001031370137C43F00103137412F80A3C43F0020302F80A3C937943F00203937102F5AA5218321378E1
:402BC00043F003031370144B18221A7013F8012C42F0400203F8012C13F8012C02F0FC0203F8012CCE2203F8062CA3F597530222123B1A70094A137843F008031370FFF7A3
:402C00009FFD074B08222046BDE810401A6000F09BB900BFAB43004006590040275B004080E200E008B500F08BF90F4A137803F0FE031370A2F5AA52153A137803F0FE03E6
:402C40001370137C03F0FE03137412F80A3C03F0FD0302F80A3C937903F0FD039371BDE8084000F071B900BF00590040044A137803F03F0343EA8010C0B21070704700BFAF
:402C800000590040082804D00A280CBF8223C22300E0422308380E4AC0B20428137098BF0C4B4FF0000298BF33F910100A4B88BF11461A8042F210734B4341F2883103F6A9
:402CC000C41393FBF1F305490B60054B1A80704702590040F03900001687FF1F1C87FF1F1487FF1F08B5102000F084F807210320FFF76EFD07490320FFF75CFD064A0C20F5
:402D0000137843F006031370FFF7BCFF034B00221A8008BDDD2D0000015900401887FF1F10B5054C23781BB9FFF7DCFF01232370BDE81040FFF728BF5986FF1F044B1A78AB
:402D400002F0FB021A701A7842F001021A7070470059004010B5084B1C7814F0010403D10028F9D0002404E02046FFF7E9FC024B1B78204610BD00BF01590040034A044B6E
:402D80001B881088181A00B2704700BF1487FF1FA05B00400E4A13881BB223B111880A2309B2594301E00B4B19680B4B1B88C01A42F2107300B203FB00F2022391FBF3F35E
:402DC0000028D8BF5B42134493FBF1F000B270471687FF1F1C87FF1F1887FF1F70470000034A00F0F800137803431370704700BF02410040034A00F0F8001378034313704D
:402E0000704700BF06410040014B1870704700BF79640040014B1870704700BF7465004073B515461E460B4C04230022019200920A46014618462370FFF7F8FB32462946C7
:402E40002078FFF7B3FB02212078FFF79DFB207802B070BDFC80FF1F074A0223136002F688321268E0215064044A11706FF440710A441360704700BF80E100E001E400E0D2
:402E8000FEB5494652465B460EB40746244909688A46244A12682448022100F071F8030020480068C018204900F06AF8143883460121C9430C460125002600F041F88146D3
:402EC00051460B7823400B705846013000F030F83800F04028400B78234003430B70584600F026F80136072EF2D9002001300138013001200B78234003430B705846043044
:402F000000F016F8484600F01FF800BF00BF00BF0EBC894692469B46FEBD00BFAFF30080D480FF1FF880FF1F00C20100000000000230800803D000BF01380046FCD17047B9
:402F4000EFF3108072B6704780F31088704700BF094A137803F00303012B0AD0022B09D113790C2103F07F02044B01FB02339B7A00E0137900207047006000409486FF1FBE
:402F8000002902D0B0FBF1F0704708B14FF0FF3000F008B80029F8D00246B0FBF1F000FB11217047704700BF014B1868704700BF6081FF1F0E4B70B51E460E4C0025E41A3D
:402FC000A410A54204D056F8253098470135F8E700F0BAFD084B094C1E46E41AA4100025A54204D056F8253098470135F8E770BD543B0000543B0000543B00005C3B00007E
:4030000003460244934202D003F8011BFAE7704730B5141E05469BB0184604DA8B232B604FF0FF301DE04FF40273ADF80C300CBF234604F1FF33029305934FF6FF730091B5
:403040000491ADF80E3002461E9B6946284600F073F8431CBCBF8B232B6014B1009B00221A701BB030BD000007B5009313460A46014603480068FFF7CBFF03B05DF804FBCF
:403080006081FF1F2DE9F0478E6882469E420C46914698463ED88A8912F4906F3AD02568096902236F1A656905EB450595FBF3F57B1C43449D4238BF1D4653050FD52946B8
:4030C00000F04AFB064698B13A46216900F0D2FAA38923F4906343F08003A38113E02A4600F098FB064670B92169504600F0E8FA0C23CAF80030A3894FF0FF3043F04003B2
:40310000A381BDE8F08726613E44266046466561ED1BA560464528BF464649463246206800F0B3FAA36800209B1BA36023681E442660BDE8F08700002DE9F04F9DB003938C
:403140008B8980461C060D4616460DD50B695BB9402100F001FB2860286118B90C23C8F80030CDE040236B610023099320238DF82930DFF89CB130238DF82A3037463C46DB
:4031800014F8013B1BB9B7EB060910D003E0252BF9D02746F3E74B46324629464046FFF771FF013000F0A780099B4B4409933B78002B00F0A08000234FF0FF3204930793F2
:4031C000059206938DF853301A930126052221784E4800F041FA671C049B38B14B4A3C46801A06FA00F018430490EFE7D90644BF20228DF853201A0744BF2B228DF853204C
:4032000022782A2A03D0079A00210A200BE0039A111D12680391002A10DA524243F00200079204900BE027463B780134303B092B03D800FB02320121F5E701B107923B782E
:403240002E2B1ED17B782A2B0AD1039B02371A1D1B680392002BB8BF4FF0FF33059310E0002319460593781C0A2407463A780130303A092A03D804FB01210123F5E703B1C9
:40328000059103223978224800F0E6F940B14023CBEB000003FA00F0049B013718430490397806221B487E1C8DF8281000F0D4F988B1194B33B9039B073323F007030833A3
:4032C000039314E003AB00932A46144B04A94046AFF3008007E003AB00932A460F4B04A9404600F093F8B0F1FF3F824603D0099B5344099342E7AB895B0601D4099801E0D9
:403300004FF0FF301DB0BDE8F08F00BF233B0000293B00002D3B000000000000853000002DE9F04791461F460A698B6806469342B8BF1346C9F8003091F843200C46DDF8AC
:40334000208012B10133C9F800302368990642BFD9F800300233C9F80030256815F0060510D104F1190A07E00123524639463046C04701301AD00135E368D9F800209B1AFC
:403380009D42F1DB94F843302268003318BF012392060FD5E118302081F843005A1C94F845102244023382F8431003E04FF0FF30BDE8F08704F1430239463046C047013097
:4033C000F4D02268D9F80050E36802F00602042A08BF5D1B2269A3680CBF25EAE57500259342C4BF9B1AED184FF000091A344D4509D00123224639463046C0470130D5D04C
:4034000009F10109F3E70020BDE8F0872DE9F04317460A7E85B06E2A984606460C460C9B01F1430E00F0AE8011D8632A22D009D8002A00F0BB80582A40F0CA8081F845207B
:40344000834955E0642A1ED0692A1CD0C0E0732A00F0B08009D86F2A2ED0702A40F0B8800A6842F020020A603EE0752A24D0782A3AD0ADE01A6801F14205111D1960136882
:4034800084F84230A8E021681A6811F0800F02D0111D196008E011F0400F02F10401196002D0B2F9003000E01368002B3CDA2D225B4284F8432037E021681A6811F0800F13
:4034C00002D0111D196007E011F0400F02F10401196001D0138800E01368227E5C496F2A14BF0A2208221BE078225A4984F845202268186812F0800F00F104051D6003D1DE
:40350000550601D5038800E00368D00744BF42F0200222601BB9226822F0200222601022002084F8430001E049490A226568002DA56008DB206820F0040020602BB9002D01
:403540007DD175460CE0002B79D07546B3FBF2F002FB1033CB5C05F8013D03460028F5D1082A0BD12368DA0708D5236962689A42DEBF302305F8013C05F1FF35C5EB0E0320
:4035800023612EE008681A6810F0800F496903D0101D1860136808E010F0400F02F104001860136801D0198000E0196000232361754616E01A68111D196015680021626886
:4035C000284600F049F808B1401B6060636804E004F1420584F8422001232361002384F84330CDF800803B4603AA21463046FFF797FE013002D14FF0FF3026E023692A4686
:4036000039463046C0470130F5D023689B0710D5002504F1190907E001234A4639463046C0470130E7D00135E368039A9B1A9D42F2DBE068039B9842B8BF184605E00B784F
:4036400004F1420584F842308AE705B0BDE8F083D5390000343B000010B5C9B202449042034605D01C7801308C42F8D1184610BD002010BD10B5431E0A44914204D011F857
:40368000014B03F8014FF8E710BD884210B501EB020301D8421E0BE09842FBD28118D21AD34204D013F8014D01F8014DF8E710BD994204D011F8014B02F8014FF8E710BDC8
:4036C00038B50546002944D051F8043C0C1F002BB8BFE41800F0D4F81E4A1368114613B96360146030E0A3420DD92268A018834201BF18685B681218226063600C6023E047
:40370000A24203D813465A68002AF9D118681918A1420BD12168014458188242196013D110685268014419605A600DE002D90C232B6009E021686018824201BF1068526820
:403740000918216062605C602846BDE8384000F098B838BD6086FF1F70B5CD1C25F0030508350C2D38BF0C25002D064601DBA94202D90C23336046E000F082F8234B1C683D
:403780001A462146A1B10B685B1B0ED40B2B03D90B60CC18CD501EE08C420BBF63684B681360636018BF0C4615E00C464968E9E7174C23681BB9304600F052F8206029460B
:4037C000304600F04DF8431C18D0C41C24F00304A0420DD12560304600F053F804F10B00231D20F00700C31A0ED05A42E25070BD211A304600F034F80130EBD10C2333605D
:40380000304600F03EF8002070BD00BF6086FF1F5C86FF1FF8B5074615460E4621B91146BDE8F840FFF798BF1AB9FFF749FF2846F8BD00F027F885420ED929463846FFF704
:403840008BFF044650B131462A46FFF713FF31463846FFF735FF01E03046F8BD2046F8BD38B5064C0023054608462360FDF7EAFB431C02D1236803B12B6038BD4487FF1F0D
:403880007047704751F8040C0028BEBF091851F8043CC0180438704700000000050209020B020D020F02110213027265706C792030782530327800686F6D696E6700626584
:4038C00067696E6E696E67207365656B2066726F6D20256420746F2025640066696E6973686564207365656B0057616974696E6720666F72205553422E2E2E005553422003
:40390000726561647900636F6D6D616E642030782530327800756E64657272756E206166746572202564207061636B65747300636F756E743D256420693D256420643D254F
:403940006400636D645F777269746500703D25642063723D25642063773D256420663D256420773D256420696E6465783D256420756E64657272756E3D25640077726974AE
:40398000652066696E69736865640073746172742065726173696E670073746F702065726173696E670069646C65000051004010004051004030000000014000100014018C
:4039C00040000800400140000A004C0140000200500140200030313233343536373839414243444546000001000000040000001000010000000400000010000028000000C0
:403A0000000104000100000000000000000157494E5553420000303030303100000000000000000012034D005300460054003100300030000100000001000000403A00005A
:403A4000010000000F3B0000000000000000000001000000583A000001000000E13A0000040000007A3A0000000000000000000000000000783A0000FF00000001024000A0
:403A8000FF00000082024000FF00000003034000FF00000084034000FF00020304030904160346006C007500780045006E00670069006E0065002A0343006F0077006C0050
:403AC000610072006B00200054006500630068006E006F006C006F0067006900650073000009022E0001010080320904000004FF0000010705010240000007058202400067
:403B0000000705030340000A0705840340000A12010002FF0001080912006E0100020180014300232D302B2000686C4C00656667454647003031323334353637383961621F
:403B40006364656600000000F8B500BFF8BC08BC9E46704759000000C1100000F8B500BFF8BC08BC9E46704735000000803B0000C880FF1FA0000000E005000000000000B0
:403B8000000000004887FF1FFF000000675000400C00000007000000FFFFFFFF7F8000003F0000000000007D00FA0000400000000090D003FF0000000000000000000000BC
:403BC000000000000000000000000000000000000000000000000000213B000000000000000000000000000000000000000000000000000000000000000000000000000069
:403C00000000000000000000000000000000000000000000000000000081FF1F000000000000000000000000000000000000000000000000000000000000000000000000E5
:403C40000000000000000000000000000000000000000000000000000000000000000000000000000000000000000000000000000000000000000000000000000000000044
:403C80000000000000000000000000000000000000000000000000000000000000000000000000000000000000000000000000000000000000000000000000000000000004
:403CC00000000000000000000000000000000000000000000000000000000000000000000000000000000000000000000000000000000000000000000000000000000000C4
:403D00000000000000000000000000000000000000000000000000000000000000000000000000000000000000000000000000000000000000000000000000000000000083
:020000040003F7
:0200000480007A
:400000000145004008520040015B0040016400400165004045000140380101404F020140550301404404014051050140490601404D0701404308014055090140400A014093
:40004000520B0140450C0140540D0140490E0140360F0140411401405515014056160140551701404818014057190140461A0140591B01400B400140114101400E4201409D
:400080000E430140044401400B45014009460140104701401048014012490140154C0140074D014008500140045101407E0208410904108018031902600361197C40272154
:4000C0003301270A020103070404060B091F0A010E011140120215041601171019021A011B181C031E0C1F1821042201230826012720280929182A042D182E012F01313FF9
:400100003207334034083E043F045608580459045B045C995D905F0181018202860388028C04900293019402970298029B019C03A002A402A704A801AC02B403B507B60450
:40014000B920BE50D804D904DB04DC90DF0100A002A005200761082009080A410D200E020F5010A41140130214811510162019081A081E081F8021052202263027042804BC
:4001800029012B112D0830823228350136203708382039023E013F02584061406540670268026F01820289408F80C0FFC2FFC4FFCA4FCCEFCE85D608D808E001E604023F09
:4001C0000302043F07010A200B010C010D0111011202143F19011A101E3F22082304243F25012A3F2B012E043507363F37073BA03E40580459045C905F018001820886D3F2
:400200008C108E4290129280950C9610980A99039A059B089D019F0EA013A220A4F2A604A811A90EAAE2AB01B008B107B308B407B6F0B902BA20BE01BF05C034C9FFCAFF06
:40024000CBFFD004D601D804D904DA04DB04DC09DD09DF01E080E240E440E56400020220030204080522060208080A440DA00F501044130814911608172019411A071B022A
:400280001F80210525D02701280429102C102D102F8030403140322436113D823E083F1041055C205E10685069406A106B107020710C73028110828084508D048E4892088D
:4002C000930294209550964197549B049CA59D259E209F6AA224A340A470A528A689A710AB40AD04AE10B040B304B504C0FDC2FEC4FECAE4CCAECEF0D003E00BE284E80842
:40030000EA04EC08EE06010A0431050D06C20DD00E101222151018011A081C0A1E051F502033224023052480250126332CF22DA02E043008313033C034F035033607370C01
:400340003A803E01580459095C995F01827F843F87028A208B108C018D118E40903F91019602970499119A109E3FA208A320A43FA511AA3FAD19AE04B040B23FB307B5303A
:40038000B708BB20BE05D804D904DC90DF0103220408052206020A490D200F5110421220149116081720188019101A411B201E801F08204221012204230424082550261851
:4003C000272028202A402B402E082F8132443410360538403B063DA846024740792081108A108C40920293029428951096409754984099019A809B159C919D329E229F6877
:40040000A224A342A401A521A611A710AA10AB02AC28AE80B201B302B540C0F5C2FBC4FDCADBCCEACE7BDE04E405E807EC01EE0A000101020310040105320602080109335C
:400440000B040C010F32111F1201134014011533170C180119321C011D321E022001213225012601273829322A012C012D022F603170330F36033E403F05580459045F0191
:400480008001814084018707891F8A018D048F109118930195029604971898019B189E019F40A104A308A602A720A801A918AD80AE01B207B53FB7C0BA08D804D904DC9984
:4004C000DF01010802080340040805200601078008500A200D200E820F1010211120148216201720181019081A101F80200C2240250529112A402B102C102D012E90324100
:40050000331436A938A439023D603E083F0188128A848C1090A891029202930195109680975099119A809B359C919D229E62A110A258A310A525A601A780A812AB19AC21C1
:40054000AD10B208B308C0FEC2F7C4F7CAFFCCFFCEFFE201E401E684EA07EE010018011D020106180707080409010A100B080C1F0D1D1040111D151D160718181B1D1D0154
:400580001E201F302002211D221824C0271D291D2C042D0C2E082F223080323F3440353C364037033E503F50580459045C095F018101850189018F029203930495019901E6
:4005C0009C019D01A301A901AF01B401B507B602B920BE10D608D804D904DB04DC99DD90DF0104080640070508010A020E620F081440160117081A021B201D401E601F9055
:40060000200822202510270229012B0A2D402E202F603088322234863620382039403A0A3D083E103F8659085B50600861046280654067026801834088048C8090099218F0
:400640009310946495049780984199829A619B0D9C089D459E0A9F02A104A209A305A48FA690A770A908AA41AC01AF08B221B310B420C0F0C2F9C4B0CAFDCCFFCEFFD60EC5
:40068000D80EE010E221E684E820EC8200010108050809080F021308150819011D08230F250F280229032B0C2D043201330F34023E143F04580459045B045F0181498201A8
:4006C0008549860189018A018D408E018F3090019302940195489710980199019E019F01A201A349A601A704AA01AB01AD48AE01AF20B307B540B601B738BB08BE40D60825
:40070000D804D904DB04DC90DD90DF0100020480052206100C400E400F181004141015A119101B081D801E022208254C271829402A202B502C0A2E012F1030883101332004
:400740003540371A38203A0A3B803C083D803F2259105B405CA064056C016D406E406F01808083048B018D048F44908991A19218931094469544985099A29A519C09A580BF
:40078000A691A704A8CAAA01AC01AD12B014B120B248B310B502C0F8C2F0C4F2CAFFCCFFCEFFD63CD830E080E410E860EC80EE0201030201031C050C060107030A010B0ACA
:4007C0000D030E010F101201160118011E012201230F260127202801290F2E012F05313F34013B023E10580459045C905F018034810283048402871089028E028F02900482
:4008000091019308950A96019705980299039D109E28A102A614A703A903AF20B030B307B403B530B60CB708BB08BF40D608D80BD904DB04DC99DD90DF01000401800380CE
:4008400005220610070208080A880B010C480D020F081304141415011602174019401A881B821F1020022148230627402A012B252C462F1030013168382239803B043D409F
:400880003E223F084C0C588063037A80800182108302850186108C108D208E209460954496089710984099809C089E33A320A402A582A619A704A902AB10AC40AF20B2040D
:4008C000B480C0FDC2FFC4F4CAFFCC0FCEFFD608D808DE01E010E280E440E818EA80EC20EE0201040308070709040B100D1F0E02131815181601170118021F2021022318E4
:400900002918353F3603580459045C995F01818082078518880489048A108B108C1F8D1F9320945895189681970198989A409B409E209F18A0C2A102A218A318A540A6187D
:40094000AB07AC04AD04AE08AF08B2C0B3C0B53FB63FB780BE04BF40C203C5E0C802C9FFCAFFCBFFCF83D804D904DA04DB04DC99DD09DF01018004A108080A080E020F1820
:400980001440161119801C011D081E01230424022520271028402B042C462E043182320834803609371038A039403A013B043D403E203F0A4404452846044D025C405D045D
:4009C0005E2166066705800183018B01C0D1C2E6C4B0CAF5CCFBCEFFD040D6F0D8F0E0C00001062009050A3F0B0A0D0A0E100F0512021604183F1C3F1F03223F243F2A3FC6
:400A00002E083101323F33083502370439AA3E043F555608580459045B045D905F01800F8301860F8703880889038D038E08900893029408950399039A019C049F08A103BD
:400A4000A202A403A60CA703A808A903AC08AF04B00FB303B50FBE01BF04D804D904DC90DF01002A03020408052006020740088009100B500C400E080F501051120815014F
:400A80001608178418201F01229123202408250826202C102D012F0932403668370539903C403D203F0959806240699080808218840585208622872088018A018B908C4032
:400AC0008D208E048F0291019280934194289710985099809B419C819D209E629F80A010A110A248A30CA401A528A6A0A702A980AC02B340C0FFC2FFC4FFCAF0CCF8CEFCC5
:400B0000D608D808E228E404E60BEA0E0003010602080506060208060B040C060D400F06111112011326140715561721180119061A061B781D7F1E01200623012401260CF1
:400B40002702280629072A012B082E062F01360F377F3E403F40580459045F0180018102863F89018A208E10903F95019604987F9E08A101A23FA43FA640AA7FAE02B102EC
:400B8000B23FB301B440BB0CBE14BF01C064C720C820C9FFCAFFCBFFCD20CEF0D110D804D904DA04DB04DC90DD09DF01E108E240E340E480E640E7400002012803020508A5
:400BC00006080742088109100B180C520E201050120813401549172019101A201F8020202105220426402B802C402D082F06310834023628374038223C203D413E08410176
:400C000049105001660167406A80820183488501868088108A088C058F0291409301950196289750985299089B219C819D209E6B9FC0A110A218A304A520A621A820AC4071
:400C4000AD12B004B540B704C0FFC2FFC4FFCAF1CCF2CEF5D001D204E208E661EA01EC40EE08012C0228030204800505083409050A080C3F0D130F20120713051438150576
:400C800016011808190F1A101B101D051E40200221052238251029052C042D082E302F02307F3280353F3E043F105608580459045B045C095D905F018102850289088B0152
:400CC0008D028E0490019102950296029806991C9B039D10A102A702A902AD03AF04B001B11FB406BE01BF01D80BD904DB04DC09DF01018004080502070508090A080D0298
:400D00000E020F181440160118041A401C401D021F042202261028842B212C082E022F2231043221338035013624374038013A203B843D603E095A405F40640169406B02CA
:400D40006C046D807A8083128744880489088A018C068D0490019218933694649540978098C899829A219B0D9C069D099E0AA2A9A3A5A48AA602A75AA910AF80B104B7304D
:400D8000C0F1C2FEC490CAFFCCFFCEFFD618D810DE01E050E220E488E660E820EA40EC4002080301060307010803092E0B410C030D7F1003110E13701602170819211A038B
:400DC0001B4E1C031D0E200323022601270E2A042B042D0F2F10360F377F3F40580459045C095F0183038401858089808D80918094019580993D9BC09D80A1A9A530A90CC9
:400E0000AB40AD56B3FFB601BA80BF04C003C7CEC830C9FFCAFFCBFFD004D601D804D904DA04DB04DC09DD09DF01E2C0000201500320072008100A120B800E20110112088F
:400E4000130418021A021B401D801E011F402002272028842B212D502E202F5030103184322134863620380839403A203B023D013E103F864708540255086C946D206E0A04
:400E80006F4A741C7503760A770182018502870A88108B018C11914092109326942096039780988699049A209B089D019E0A9F40A238A321A48EA518A604A74AAC80AD400F
:400EC000AF40B004B108C02FC22FC40ECAFFCCFFCEFFD040E240E404E6E0EA24EE021B011F083388350836803B408380C630CCF0CE10E62031083280358037023B043C400C
:400F00008080890890409D08A840AE80AF41CCF0CE60E220EE6053045610830297049DA0A080A508A680A920AF02D460E480EC80EE408010810882808980970C9DA09E1000
:400F40009F02A080A508A680E280E480E62014408C20C404E0025F028B0192019820A404AC04AE01B040D601E201EA011B01920198209C109F02A404A701AC10C6080910EC
:400F80000A200C14811082108804920198209C10A404A604AF02B604C20FE601EA0220102608270287048B048F029410970C9D209E109F02A080A608B608C8E0E6101920F8
:400FC0005480570271087404850888049D20A080A302AE10C640D440D620DC80DE20E240EA40052008080C020E081C085380572058205E0187208F8092019820A404A604D3
:40100000C001C20DC601D407D601E00270018001A802AD20B008DC01EA01010109010B010D010F0111011B011D0100FF01AB020211050000BF0000A09F001F000000000078
:4010400000000000100000004000000000000000C0000000FF0000B8470047000001000080000000800080000000000000030300030000002700180127001801000400000D
:40108000000500000000000000000000000000000000000000000000000000000000000000000000000000000000000000000000000000000000000000000000000000002B
:4010C00000000000000000000000000000000000000000000000000000000000000000000000000000000000000000000000000000000000000000000000000000000000F0
:4011000000000000000000000000000000000000000000000000000000000000000000000000000000000000000000000000000000000000000000000000000000000000AF
:40114000000000000000000000000000000000000000000000000000000000000000000000000000000000000000000000000000000000000000000000000000000000006F
:40118000000000000000000000000000000000000000000000000000000000000000000000000000000000000000000000000000000000000000000000000000000000002F
:0200000490006A
:0400000000000007F5
:0200000490105A
:04000000BC90ACAF55
:0200000490303A
:020000006B692A
:0200000490402A
:4000000000000000000000000000000000000000000000000000000000000000000000000000000000000000000000000000000000000000000000000000000000000000C0
:400040000000000000000000000000000000000000000000000000000000000000000000000000000000000000000000000000000000000000000000000000000000000080
:400080000000000000000000000000000000000000000000000000000000000000000000000000000000000000000000000000000000000000000000000000000000000040
:4000C0000000000000000000000000000000000000000000000000000000000000000000000000000000000000000000000000000000000000000000000000000000000000
:0200000490501A
:0C00000000012E16106900002E317BD28A
:00000001FF