:4000000000800020110000003110000031100000064A08B5136843F020031360044B1A6803F53F5302331A6001F020F8E8460040FA46004010B5054C237833B9044B13B18B
:400040000448AFF300800123237010BD6881FF1F00000000B8380000084B10B51BB108490848AFF300800848036803B910BD074B002BFBD0BDE81040184700BF0000000051
:400080006C81FF1FB8380000C880FF1F000000000A4A0B4B116801310B40002BBEBF03F1FF3363F03F030133136011685368994202BF024B01221A72704700BF8881FF1FCC
:4000C0003F0000800A4A0B4B516801310B40002BBEBF03F1FF3363F03F030133536051681368994202BF024B01221A72704700BF8881FF1F3F0000800E4BDA681AB901215F
:4001000019745A7410E05A7C1A741A7C0AB1002207E059699A69D8688A1A82428CBF002201225A745A699A611B7C13B1002002F043B970478881FF1F10B5C4B2204601F054
:4001400057F90128FAD110BD08B572B60F4B0F495A6901325A61DA690132C82A08BF0022DA611A6AD8690132A72A08BF00220A621B6A002B0CBF02230023002814BF184660
:4001800043F0010002F080FE62B608BD8881FF1F38B50446C5B2284602F0B0F8062002F0CDFA44F00200C0B202F0A8F8062002F0C5FA284602F0A2F8BDE83840062002F0C2
:4001C000A7BA10B5642402F093F828B9FFF7E0FF013CF8D1204610BD012010BD70B5C4B2054620460E4601F003F9012805D0204601F01CFA2846FFF79FFF204601F000F9AD
:40020000314605460246204601F0BCF9204601F0EFF80028FAD1284670BD000038B5044D0024285D013402F039FA402CF9D138BDAC81FF1F08B502F053FC002002F05CFCBD
:4002400002F06EFC02F078FC80B208BD10B50446012002F06BF8642002F05AFAFFF7EAFF2080002002F062F8642002F051FAFFF7E1FF608010BD08B502F05EFD002002F02B
:4002800067FD02F079FD02F083FD80B208BD10B50446FFF796FF322002F03AFAFFF7EBFF20800120FFF774FF322002F031FAFFF7E2FF608010BD0FB400B593B014AB53F835
:4002C000042B402102A8019302F0DEFE02A802F07AF802F084F813B05DF804EB04B0704710B5044601780648FFF7E5FF0420FFF723FF62782146BDE81040042001F0D0B8B5
:40030000CC38000007B50023ADF804308DF80600032301A88DF80530FFF7E2FF03B05DF804FB000010B5074C94F8643043B1002001F0D8FF002002F06BFD002384F864304E
:4003400010BD00BF8881FF1F38B5104D837895F8672004469A4204D0FFF7E4FF002385F86A302368C5F865302279094B1A71A378002B14BF0220012002F04AFDE07802F02E
:4003800041FD2079BDE8384002F078BD8881FF1FED81FF1F38B50D4C94F8645065B904F16500FFF7D1FF012001F09CFF4FF47A7002F0AEF984F86A506369E366012384F84D
:4003C0006430BDE8384002F0E1B900BF8881FF1FF8B5214C0546FFF7DDFF94F86A3003B15DB91E48FFF767FFFFF7EBFE0120002384F86A00236702F0A1F92A46216F184872
:40040000FFF759FF144E0027236F9D4216D001F06FFF00B13767236F9D4205DD0120FFF7B7FE336F013305E005DA0020FFF7B0FE336F013B336702F0A9F9E5E7322002F047
:4004400067F92A2DCCBF0020012002F023FDBDE8F8400448FFF72FBF8881FF1FD9380000E0380000FD3800002DE9F04F99B062B602F0F6F99D49042002F01AFA9C4801F0D9
:4004800043FF9C4802F0E6FC9B4801F077FF02F0C7FB02F099FA002002F0BAFC01F092FF0221002000F05AFF944C012001F0D2F8002384F86730FFF76DFFFFF782FE84F8A3
:4004C0007400FFF72FFF012384F86730FFF762FFFFF777FE84F87500FFF724FF884B94F87400884994F875202546002A14BF0A461A46002808BF19468348FFF7DCFE032177
:40050000084602F023F9264602F040F994F8643043B1EA6E6B699B1A41F28832934201D9FFF700FF00F052FF18B97848FFF7C3FE04E000F051FF0028F7D10BE000F046FF85
:4005400010B902F023F9F9E77148FFF7B4FE032001F06CF8032000F04BFF0128D4D16D48FFF7F2FE6C490320FFF738FE94F876106A48FFF7A0FE94F87630023B142B00F229
:40058000D483DFE813F01500D2031E00D2032400D2034F00D2037500D203D700D203BF01D2030603D2032A03D2033103D2034B0303238DF820308DF821300F238DF8223084
:4005C00028E394F87800FFF703FF554B1FE3FFF7E1FE002323746069227C02F0FF0132B96B691B1AB3F57A7FF6DD0B4611E083B10022174696F878107069277494F810E007
:40060000BEF1000F02D16B691B1AF7E701329142F3DA07228DF8202004228DF82120ADF82230F7E20220FFF787FD4FF000080DF1200A02F0ABF84FF480790027C9EB080303
:40064000DA1907F80A200137402FF9D10220FFF773FD3A465146022000F022FFB9F10109EBD108F10108B8F1400FE2D12D4B38E04FF0010A4FF000080DF1200B02F086F844
:400680004FF0000959460120FFF7A8FD08EB090300270493049B1BF807203B44DBB29A4209D08DE80C0041463B464A461E48FFF702FE4FF0000A0137402FEBD109F101091B
:4006C000B9F5807FDED108F10108B8F1400FD5D151461648FFF7EFFDBAF1000F00F01A81134B1B8807A8ADF81C3094E249010000F900000091000000C50000008881FF1F0B
:400700000F3900000B390000123900002A3900003D390000ED81FF1FFE81FF1F47390000BC380000BE3800005639000072390000C0380000206FFFF74BFE94F8780001F081
:40074000F5FD94F8780001F0D9FD02F009FCB94BDFF8FC821A78002702F0FB021A701A7842F001021A701A7802F0FE021A701A7802F0FE021A7002F0F7FB0220FFF7DCFCF9
:40078000012141F6FF734FF48042084602F046FB84F8B60001F068FF08F807000137402FF8D1DFF8B0A200270AF195091FFA89F80137402F14BF3A4600221AF8010F2244C0
:4007C000062392F82420402101F082FF424646F240419AF8000001F08DFF08F14008402F1FFA88F8E4D196F8793053B196F87C30F36000233374237C002BFCD000233374EF
:40080000F36000234FF0FF32236062602372236894F8B600234493F8241001F0DDFE94F8B60001F09BFE012194F8B60001F06EFE2368002BFCD0002398467360D6F814A0D4
:40084000012701F0A3FF6369B4F87A20CAEB030393420DD367B1042195F8B60001F0C8FE94F8B60001F0D4FE0028F9D107463072237AFBB96A682B689A4202D1002FE0D1D9
:4008800018E00220FFF758FC6968402209EB8111022000F005FE6A68674B01321340002BBEBF03F1FF3363F03F03013308F101086360C6E70220277AFFF73EFC0022114687
:4008C000022000F0EDFD0220FFF736FCFFB2FFF7A5FC002001F012FD37B15848FFF7EBFC0220FFF70FFD06E0554B08A81B88ADF82030FFF7F5FC227C4146237A5148FFF7BB
:40090000DAFC15E25048FFF7D6FCD4F87A7017F03F0701D0032009E2286FFFF759FD95F8780001F003FD95F8780001F0E7FC012001F002FD02F014FB444BDFF814811A7857
:4009400042F004021A701A7842F001021A701A7802F0FE021A701A7802F0FE021A7002F003FB01214FF4804341F6FF72084601F0E9FC85F8B60001F077FE08F8070001378C
:40098000402FF8D1DFF8CC90002709F195031FFA83F804930137402F14BF3A46002219F8010F2244052392F82420402101F090FE414646F2475299F8000001F09BFE08F103
:4009C0004008402F1FFA88F8E4D100274FF0FF33376098467360BB463B46D6F87A9037725FEA99190CBF4FF0010A4FF0000A2168114A01310A40002ABCBF02F1FF3262F03B
:400A00003F026068B8BF013282426FD02BB1227A002A7AD12A7C002A77D12068049A059302EB8010BAF1000F16D040223F2102F0F7FA1CE0906400403F0000807C390000D7
:400A4000C238000096390000A939000097650040AC81FF1FAB81FF1F014601370120FFF7BDFBC7EB0903D3F1000A4AEB030A2168B34A01310A40002ABEBF02F1FF3262F0BF
:400A80003F02013222606268059B01322ED12A683F2A2BD14FF00008C5F8048001F080FC85F808806B6895F8B6002B4493F8241001F092FD95F8B60001F050FD012195F8BF
:400AC000B60001F023FD95F87E30EB6085F81080237C002BFCD04FF00008012086F8108001F06AFC404601F027FC00E023B1237A5BB92B7C4BB90123626842453FF477AFC1
:400B00000BF1010BD5F8048071E701F04FFC012001F012FC002001F04FFC042194F8B60001F066FD94F8B60001F072FD80460028F8D196F8B60001F0FFFC337C327A029318
:400B4000012303920193CDF800A05B463A4649467C48FFF7B0FBC6F80C80BAF1000F0BD0FFF75CFB002001F0C9FB237A63B17648FFF7A1FB0220D9E0B945F1D07349012035
:400B8000FFF72CFB0137F7E77148FFF794FB714B3DE094F8780001F0C9FB206FFFF718FC6D48FFF788FB94F87930E36000232374237C002BFCD0012001F0FEFB00233374CE
:400BC000237C002BFCD0002001F0F6FB00236348F360FFF770FB624B19E0002084F86A00FFF7F6FB5F4B12E094F8743023B195F875200AB985F8782094F875201AB113B9F6
:400C0000012385F878305848FFF79EFB574B1B88ADF8203008A8FFF763FB89E0FFF782FB02F07CF8002002F01FF82A2701F04AFF002001F0EDFE3A46002108A802F0F0F9E0
:400C400017238DF820308DF8217001F09FFD002001F048FB002002F0DBF8C82001F058FD0DF12200FFF7F2FA0DF13600FFF70FFB01F08CFD012002F0CBF8322001F048FD4D
:400C80000DF12600FFF7E2FA0DF13A00FFF7FFFA012001F027FB4FF4967001F039FD01F075FD0DF12E00FFF7D1FA0DF14200FFF7EEFA002001F016FB4FF4967001F028FD84
:400CC00001F064FD022002F0A3F8322001F020FD0DEB0700FFF7BAFA0DF13E00FFF7D7FA012001F0FFFA4FF4967001F011FD01F04DFD0DF13200FFF7A9FA0DF14600FFF756
:400D0000C6FA002001F0EEFA4FF4967001F000FD01F03CFD002002F07BF8002384F86A3001F07EFF01F050FE74E70120FFF7EAFA032000F07BFC0E48FFF7BDFAFFF7E4BBB6
:400D40003F000080B3390000E33900004092FF1FED390000C4380000F5390000033A0000C6380000C8380000FE81FF1FCA380000103A00002DE9F04172B6884B61221A70F9
:400D8000A3F5F06301221A801924854A9C7092E803008033062283F8002283E80300522203F580731A707F4B7F4A1B787F4EDBB2137040F618027E4B00251A8041F25122A6
:400DC00023F8022C33784FF4F07003F0010343EA450502F0BDF8013C05F003052ED0032DF0D1744B4FF480721A8007221A70724A002548211570917002221D705D7103F893
:400E0000032C0422DA716D4A6D4C13786D4E43F00103137012F8013C062743F0030302F8013C2378012243F0800323705B4B1A70654A137843F02003137000E0FEE707FBAD
:400E4000056300219A881868013502F0E9F8072DF5D15E485E4E002550F8041F05F1105303F1480221F0FF074933C9B20B4452005B0002329A4206D012F802EC12F801CC0C
:400E80000EF807C0F5E7B0420D44E5D1514A002313609360136193614F4B504F1A68504BDFF888811A604F4B1A684F4B1A604F4A137843F002031370137C43F002031374F7
:400EC0002378A2F5863243F040032370413A137843F010031370464A464B07CA03C31A80454A2833106843F8250C127903F8212C424A07CA03C31A80414AE83B07CA03C33B
:400F00001A80404A083307CA03C31A803E4A3F4BA2F5616203CBC2F8100EC2F8141E1378042043F008031370394B02F5AA521B783D78DBB298F80060EDB203F007010C329F
:400F40001B091170F6B2537045F003033B7046F0030388F800302F4B48221A702E4A402313702E49937013729372082382F81F3220220A7048710A72294A0A20137001F0C7
:400F8000DDFB284B88F8006044223D70264D1A7094E80F0007C52B80BDE8F081004800404C0A00480F010049A146004025420040224200400440004006400040A2430040BE
:400FC000A0430040153A0000E8460040FCFFFF478C00004800760040540A0048F846004020760040580A004828760040035001400C0A0048C0510040180A0048200A0048A5
:401000002C0A0048380A004832510040440A0048CF0100491D51004001590040235B0040585B004076580040B0430040F946004008B501F0C9FF03680C2B00D1FEE7FEE7CA
:40104000084908B50B68084A1844821A802A01DC086005E001F0B8FF0C2303604FF0FF33184608BDCC80FF1F9093FF1F80B51148114B0025C0B1A3F1100192C92246043933
:40108000161BB74204D051F8046F42F8046BF7E7114653F8046C8C1AA64202D041F8045BF9E701381033E5E701F094FFFFF7DCF9FEE700BF01000000E43B0000124A134BF0
:4010C00010B51A60124A134C1368134843F4007313600023032B98BF54F823204FEA830188BF0E4A0133302B4250F3D10C4B1A780C4B1A700C4B084A1A60FFF73BFEBDE8CA
:40110000104001F0EDB900BF0004FA050CED00E014ED00E0000000000080FF1F31100000BC760040C080FF1F08ED00E0F8B501F017FF4B4A01271378022643F001031370EA
:40114000137C484C43F001031374474B02F5E3521F700B3203F8946C1378054603F07F031370002001F0EAFA2378404A03F0F90323701378384603F0DF03137023783B4325
:40118000237001F0DBFA282001F0D8FA384B30461A7802F07F021A701A7802F0BF021A7023783343237001F0C9FA2378314A43F0040323700023137053702F4AFF2199544A
:4011C0000133092BFBD1284601F0CEFE0721172001F0FCFA2949172001F0EAFA0721182001F0F4FA2649182001F0E2FA0721152001F0ECFA2349152001F0DAFA0721052032
:4012000001F0E4FA2049052001F0D2FA0721062001F0DCFA1D49062001F0CAFA0721084601F0D4FA1A49072001F0C2FA0721082001F0CCFA1749082001F0BAFA0021162047
:4012400001F0C4FA1449162001F0B2FA07210C2001F0BCFABDE8F84010490C2001F0A8BAA5430040944300409D60004012600040F851004084600040B592FF1FFB1A00008A
:4012800035190000F91A00002D1A0000591A0000891A0000C11A0000011B0000751B0000214B224A10B5187000231370204A40201370204A0F2413701F4A13701F4A1370D9
:4012C0001F4A13701F4A13701F4B4FF400021A604FF080721A604FF400121A6020221A601860802018604FF480701860174804704FF480001860164B1A70933B19B91A7851
:4013000002F0FE0202E01A7842F001021A70114B03221A70802203F8202C012001F018FE0D4B04221A7010BDD092FF1FD692FF1FD492FF1FD592FF1FD192FF1FC092FF1F97
:40134000D392FF1F4893FF1F00E100E09E6000409C600040286000401260004070B5074C054623780E461BB9FFF7E0FE0123237031462846BDE87040FFF792BF8092FF1F7A
:401380000A4A002313700A4A13700A4A13700A4A13700A4A13700A4A13700A4A13700A4B03221A70802203F8202C7047D692FF1FD492FF1FD592FF1FD192FF1FC092FF1F05
:4013C000D392FF1F4893FF1F28600040014B1878704700BFD592FF1F044B1A7802F0FF001AB118780022C0B21A707047D492FF1F024A0C2303FB002040787047DC92FF1FB8
:40140000431E072B0CD8074A064B00010344805C5B7800F00F0043EA0020023880B2704700207047FC5F00401A4A38B50C2303FB00231B79090C13F0800F00F1FF35044670
:4014400019BF8AB24FF480438BB24FF48042032D18D8DFE805F002070C110021084601F01BF80DE00021084600F0FAFF08E00021084600F0D9FF03E00021084600F0B8FF3E
:40148000054B1855EDB2072D03D801F0EDF8034B185538BDDC92FF1FAC92FF1FB592FF1F431E072B2DE9F0470446894615465CD82F4F0C2202FB0072D388DFF8B8A09BB274
:4014C000C3F500739D424FF00C0303FB007388BFD588DB7884BFC5F50075ADB2254A43EA15230601B354B244EBB28AF80130224B1A5C9846FF2A01D1FFF796FF0C2303FBBF
:40150000047200215170B9F1000F28D03DB31B4F385D01F011F811232946FE2218F8040001F0D6F806F5C04278321FFA89F118F8040001F0DFF8124D18F80410385D01F004
:401540004BF80121385D00F0E1FF735D43F002037355735D03F0FD037355BDE8F08703FB04746379DBB28AF80230BDE8F08700BFDC92FF1FFC5F0040B592FF1FAC92FF1FD4
:40158000706000402DE9F047044615468846002940D0431E072B3FD8FFF732FFA84203D22046FFF72DFF05461D4E335DFF2B03D141462046FFF738FFDFF868A027011AF893
:4015C000040000F0B9FF1223FE222946305D01F07FF807F5C0411FFA88F27831305D01F089F8DFF84490315D1AF8040000F0F4FF01211AF8040000F089FF17F8093043F0F1
:40160000020307F8093017F8093003F0FD0307F8093002E00D4600E000252846BDE8F087B592FF1FAC92FF1F70600040431E072B0AD8064A0C2303FB002300225A705A7991
:40164000034BD2B200011A54704700BFDC92FF1FFE5F0040431E072B9FBF024B000108221A547047FE5F004030B51A4A1A491B4D0878138803449BB21380194A00231488E7
:40168000D8B2A4B27CB1082B0CD050680078C0B2E85450680133013050601088013880B21080ECE718460B780E4C082B0E4A00D040B10E4D2B7883F080032B700F23237022
:4016C000022301E0022323701370094B1870087030BD00BF4C93FF1F4893FF1F00600040C492FF1FC192FF1FD692FF1FD292FF1F4993FF1F074B02221A70074B80221A70AE
:40170000064B0F221A70064A00231370054A012013707047D692FF1FD292FF1FC192FF1F4893FF1F4993FF1F30B5164B16491B780A8803F00F03023BDBB21A4492B20A80CC
:40174000124C134A0020118889B279B173B15568215C013BC9B229705168DBB20131516011880130013989B21180ECE7094A1370094A137883F080031370084B0B221A70DF
:4017800030BD00BF296000404C93FF1F00600040C492FF1F4993FF1FD292FF1FC192FF1F064A06231370064A01201370054B80221A70054B00221A70704700BFD692FF1F52
:4017C000C192FF1FD292FF1F4993FF1F054B9A683AB19A68044910709A680988518000229A607047C492FF1F4C93FF1F08B5124B1A78D2B21A701B78DBB21A0602D50F4A1E
:40180000137008BD0220FFF7E1FF0D4B1B7803F06003202B05D0402B06D043B900F012FC04E001F0A5FB01E000F046FD10B9034B03221A7008BD00BF28600040C192FF1FC0
:401840000060004008B5084A084B0120197813880B449BB21380064B00221A70FFF7B6FF044B03221A7008BD4C93FF1F4893FF1FD692FF1FC192FF1F08B50C4B1B78DBB25E
:40188000042B07D0062B09D0022B0DD1BDE80840FFF7D8BFBDE80840FFF746BF0320FFF795FF034B03221A7008BD00BFD692FF1FC192FF1F08B5054B002201201A70FFF7B6
:4018C00085FF034B03221A7008BD00BFD692FF1FC192FF1F08B50A4B1A7832B11A78094942F080020A7000221A70074B002201201A70FFF76BFF054B03221A7008BD00BFA5
:40190000C092FF1F08600040D692FF1FC192FF1F074B1B78DBB2042B05D0062B05D0022B05D1FFF7A1BEFFF7C5BFFFF7D3BF7047D692FF1F38B51D4C2378DBB2DD0634D51B
:4019400018060AD503F00F03012B2ED1FFF74EFF174B1B78190609D538BD5A0602D5FFF7D7FF03E09D0620D5FFF786FF23781B061BD4104B1A78104B1B7813430F4A13705F
:401980001278934211D10A4A0849154613782078DBB2000605D41378DBB20B700B7803F00F0328788342F1D138BD38BD28600040C192FF1FD292FF1F4993FF1F29600040AD
:4019C000054A00231380054A916819B191680B7092685380704700BF4C93FF1FC492FF1F0E4808B503889BB213B9FFF783FE13E00B4B02221A700B4B00221A70FFF7E0FFAC
:401A0000094AD1799379028843EA012392B2934238BF0380FFF728FE012008BDC492FF1FD692FF1FD292FF1F00600040084B01221A700F3B9B7C074B1A7B02F00302012A07
:401A40001EBFDA7B82F08002DA7301225A7370470B600040DC92FF1F094B02221A700F3B93F82230074B1A7E02F00302012A1EBFDA7E82F08002DA7601225A76704700BFFE
:401A80000B600040DC92FF1F0B4B04221A700F3B93F83230094B93F8242002F00302012A1EBF93F8272082F0800283F82720012283F82520704700BF0B600040DC92FF1F78
:401AC0000B4B08221A700F3B93F84230094B93F8302002F00302012A1EBF93F8332082F0800283F83320012283F83120704700BF0B600040DC92FF1F7047FFF741BC000081
:401B0000F0B5184B184E19780C27C9B201234FF0000C31B3CA0720D5144A4FEA031E7244947850782040C5070DD507FB03652C79240608D5147804F0FE0414706D790C4C35
:401B4000EDB204F80E50840706D507FB036425792D0658BF84F801C090700133DBB24908D7E7F0BD9F600040DC92FF1F70600040FE5F004000F0ACBC70B50446184B88B021
:401B800003AA03F11006154618685968083303C5B3422A46F7D11B782B70FCB12223237001AD03232846637000F08AFE002220461146AB5C08AC04EB131414F8144C03F053
:401BC0000F03847008AC234413F8143C0132082AC1700371417100F10400EAD108B070BD3F3A00002DE9F0431C4D01222E460C201F274FF0800E4FF0080C194B00FB02580B
:401C00001401234418705F70164998F805902144B9F1000F07D098F8044024064CBF887081F802C001E081F802E000FB0261CC880132E4B29C71CC88092AC4F30724DC71A2
:401C4000CC88E4B21C71C988C1F307215971D4D1054BFF221A70BDE8F08300BFDC92FF1F70600040FC5F00400A600040064B074A1B7802EBC30253681A7C824286BF03EB6F
:401C8000C003586900207047D092FF1FA03A00002DE9F84F424B1A78002A7ED01878414D0138C0B2FFF7E2FFA8463F4AC3681478007ADFF800C1E4B203EBC0000C260027FE
:401CC0004FF0010E834268D01A78A24263D11CF80420597891425ED19A7893F8039002F07F0206FB02FA05EB0A01CF7093F802B009F0030981F804B093F803B005F80AB0A6
:401D0000B3F804A0A1F808A093F902A0BAF1000F0BDAB9F1010F0CBF4FF007094FF00D0981F8059081F801E009E0B9F1010F0CBF4FF005094FF0090981F805904F704FEAA3
:401D400002191A4906FB0282494481F802E0B2F808A0CAF3072A81F800A0B2F808A05FFA8AFA81F801A0B2F806A011495FFA8AFA494481F806A0B2F80690C9F3072981F8FE
:401D80000790B2F806905FFA89F981F80490D288C2F307224A71083394E7BDE8F88F00BFD592FF1FDC92FF1FD192FF1FFC5F004070600040C292FF1F08B5064B187801384A
:401DC000C0B2FFF753FF20B143681B7900EBC300406908BDD592FF1F00212DE9F84F0B464E4E0C2707FB01F401313219092933554FF000059370494CD37013819372537031
:401E00005371EFD118B1464B1D70464B1D70464B1A78002A7FD0187801250138C0B2FFF725FFA8464368DFF8F8E0DB790C2713F0400F3E4B4FF0000C1A7814BF42F0010273
:401E400002F0FE021A70027AD20007FB0541C36803EB02094B4531D093F802A00AF07F06AE4229D10E89B3F804B0B6B25E4538BFA1F808B01E7893F801B01EF80660B34576
:401E80001AD181F804A0DE780E7093F902A0DE78BAF1000F06F0030607DA012E0CBF07260D264E7181F8018006E0012E0CBF052609264E7181F801C00833CBE70135092D89
:401EC000C3D1C1680A328B1C0A440C200833934209D013F8081C13F80A5C01F07F0100FB01418D72F2E7FFF767FF114B0121186000230C2000FB0142D38012890131134463
:401F00009BB203F00102134409299BB2F2D1BDE8F84FFFF767BEBDE8F88F00BFDC92FF1FC292FF1F4A93FF1FD592FF1FD392FF1FD892FF1F114B1B7903F07F035A1E072A3C
:401F400019D80F490C2202FB031291781B0141F0010191700021D170517841F002015170127912F0800F074A1A4414BF8D2389239370FFF715BC0020704700BF0060004065
:401F8000DC92FF1FFC5F004030B4194B1A7902F07F02531E072B27D8164B0C2404FB02339978154D01F0FE0199700021D97029461201505D114400F07F0050555A7802F013
:401FC000FD025A701A795B78120605D5012B01D18C7006E00D2303E0012B0CBF082309238B7030BCFFF7DCBB002030BC704700BF00600040DC92FF1FFC5F004010B50D4BA5
:402000000D4C21791878C9B20138C0B2FFF72EFE43681B798B4201D2012909D8074A0848535CDBB24354A3780120DBB2535410BD002010BDD592FF1F00600040C292FF1FB6
:402040004A93FF1F38B58A4A8A4C13780021DBB221801806517840F18D800A2900F20581DFE811F05D00030103010301030103010B0003017E0003018200D3787C49012B9C
:4020800009D17D4B1A787D4B03EBC2035B685B686360122310E0CB78022B12D18878FFF7E5FD002800F0E180436863606368DA7863689B7843EA02232380BDE83840FFF7EE
:4020C0008FBCCB78032B26D16D4B00228878D5B2854209D3664A91786A4AEE2908BF1346634A917881B106E0187801320028F1D018780344EAE764499278097C914203D180
:402100006248FFF739FD614B1A78002A00F0AD801A78228018E0BDE8384000F029BF13F0030313D0022B40F0A0802380504B0C211B7903F07F02564B01FB02339A78554BC3
:40214000D2B21A7000225A706360B6E702222280514A11784F4AC9B2117053706260ACE7012323804D4BEFE70123238013794C4A1344E9E701390A2977D8DFE801F0377608
:402180004F76067676760A7620009378454ADBB25AE0937803F0FF0153B9404B1A7891425FD01970404B01201870FFF715FE58E0481EC0B2FFF75AFD0028EED155E0FFF793
:4021C0001DFF002851D02A4A384913791279DBB2D2B20A70364A3249D25CCB5C9A4240D0314B01221A70FFF753FD3AE003F00303012B2BD009D3022B37D11D4B9B78002B47
:4022000033D1BDE83840FFF7BFBE194B9B78012B2BD1214A137803F0FD0315E003F00303012B13D008D3022B1FD1114B9B78E3B9BDE83840FFF77EBE0D4B9B78012B14D1B7
:40224000154A137843F0020313700AE0084B1A795AB998781B791749DBB2CA5C22EA0002CA54BDE83840FFF79BBA002038BD00BF00600040C492FF1FD092FF1FA03A000049
:40228000043B00008C3A0000773B00006893FF1FDC92FF1F8192FF1FD392FF1FD592FF1FC292FF1FC092FF1FD492FF1FD192FF1F4A93FF1FD792FF1F074B1A78120609D546
:4022C0005B78012B06D1054B054A5A6012781A80FFF786BB0020704700600040C492FF1F643A0000014B1870704700BF76650040014B1878704700BF67640040014B187035
:40230000704700BF77640040064A0123136002F688321268E0211064034A1170A2F540721360704780E100E000E400E0014B1870704700BF74640040014B1870704700BF92
:402340007565004073B515461E460B4C05230022019200920A4601461846237000F064F932462946207800F01FF90221207800F009F9207802B070BDD080FF1F064A042331
:40238000136002F688321268E0219064034A1170A2F202321360704780E100E002E400E0014B04221A60704700E100E0014B04221A60704780E100E0014B1870704700BF30
:4023C00074650040704738B505460078012428B100F066FD285D0134E4B2F8E738BD08B50D2000F05DFDBDE808400A2000F058BDF7B516461F460B4C002303250193009362
:402400000A4601462846257000F00EF93A463146207800F0C9F80221207800F0B3F8207803B0F0BDE080FF1FF7B516461F460B4C00230225019300930A4601462846257030
:4024400000F0F2F83A463146207800F0ADF82946207800F097F8207803B0F0BDE180FF1FF7B516461F460B4C00230125019300930A4601462846257000F0D6F83A463146DE
:40248000207800F091F80221207800F07BF8207803B0F0BDE280FF1F73B515461E460B4C0023019300930A4601461846237000F0BBF832462946207800F076F8022120782A
:4024C00000F060F8207802B070BD00BFE380FF1F024B1878C0F38010704700BF8F450040074A7F23802113705170064A013BDBB202F80839002BF9D1034A1370704700BFCC
:40250000E480FF1FF87B00400078004017280FD8084B0001C25C11B142F0200201E002F0DF02C254C25C42F00102C25400207047012070471070004017280BD8064B0001EA
:40254000C25C02F0FE02C254C25C02F0DF02C25400207047012070471070004017280DD8074900010B4603441A7942F004021A71435C43F001034354002070470120704740
:402580001070004017280BD8064A0001835C490003F0F10301F00E011943815400207047012070471070004041F6FF73994208BF4FF400519A4208BF4FF4005217289FBF85
:4025C000C00000F1804000F5EC4081809ABFC280002001207047000017289FBF034B00011954002088BF0120704700BF1970004017289FBF054B00011A5C01F007019DBFDC
:402600001143195400200120704700BF1470004017289FBF034B0001185C00F0070088BFFF20704714700040172810B51AD8C00001F07F0100F1804441EAC21204F5EC4422
:40264000D2B222709DF8082003F00F0343EA0213DBB263709DF80C30002003F00F03A370E07010BD012010BD10B500F079FC0A4A5378182B0AD91478013B5370E30003F1FB
:40268000804303F5F0431B78137000E0FF2400F06BFC204610BD00BFE480FF1F030610B5044611D400F05CFC084AE300117803F1804303F5F0431970537814700133537094
:4026C000BDE8104000F050BC10BD00BFE480FF1F30B504060CD411F4704509D1C40004F1804404F5F0442180A270E370284630BD012030BD03065FBFC00000F1804000F5D2
:40270000F04081805ABFC280002001207047000038B50446084DB4F5004F05D9286800F017FCA4F50044F6E7034B58686043BDE8384000F00DBC00BFEC80FF1F024B1B7AB4
:40274000584300F005BC00BFEC80FF1F0E4B00F003001A78490102F0FC02104318701A7801F0600142F080021A701A7802F07F021A701A7802F09F020A431A701A7842F060
:4027800010021A70704700BF83430040014B01221A70704784430040044B00F00F021B6853F8220043F82210704700BF08ED00E0054A00F01F00126800F1100352F8230009
:4027C00042F82310704700BF08ED00E000F01F0000F16040490100F56440C9B2017070470F4B10B50F4900240F205C609C60DC601C615C61FFF7D0FF0B4A136843F0040334
:4028000013600A4B4FF47A72DB68B3FBF2F3084A1360084B4FF400421C60C3F8E82010BD8492FF1F8D28000010E000E0EC80FF1F14E000E018E000E0024A136843F0020334
:402840001360704710E000E008B5FFF7F5FF034A136843F00103136008BD00BF10E000E010B5054CA3691BB9FFF7BAFF0123A361BDE81040FFF7E8BF8492FF1F024B186891
:40288000C0F30040704700BF10E000E038B5FFF7F5FF012808D1054D002455F8243003B198470134052CF8D138BD00BF8892FF1F024B03EB80035868596070478492FF1F1F
:4028C000134B144A1B78DBB20360127843EA0223114A0360127843EA0243104A0360127843EA026303600E4B0E4A1B78DBB24360127843EA02230C4A4360127843EA024382
:402900000A4A4360127843EA02634360704700BF0301004904010049EC460040020100490101004900010049050100490601004910B500F015FB204A044613780A2043F07D
:4029400002031370137C43F00203137412F80A3C43F0010302F80A3C937943F00103937102F5AB52137843F003031370134B18221A7013F8012C42F0400203F8012C13F837
:40298000012C02F0FC0203F8012CCE2203F8062CA3F597530222183B1A70094A137843F008031370FFF7CAFE064B10222046BDE810401A6000F0D8BAAB4300400E59004026
:4029C0002F5B004080E200E008B500F0C9FA0F4A137803F0FE031370A2F5AA521D3A137803F0FD031370137C03F0FD03137412F80A3C03F0FE0302F80A3C937903F0FE0388
:402A00009371BDE8084000F0AFBA00BF08590040044A137803F03F0343EA8010C0B21070704700BF08590040082804D00A280CBF8223C22300E0422308380E4AC0B2042812
:402A4000137098BF0C4B4FF0000298BF33F910100A4B88BF11461A8042F210734B4341F2883103F6C41393FBF1F305490B60054B1A8070470A590040503A00005293FF1FB7
:402A80005493FF1F5893FF1F08B5102000F0A6F907210420FFF79AFE07490420FFF788FE064A0C20137843F006031370FFF7BCFF034B00221A8008BD812B0000095900402E
:402AC0005093FF1F10B5054C23781BB9FFF7DCFF01232370BDE81040FFF72ABFA092FF1F044B1A7802F0FB021A701A7842F001021A7070470859004010B5084B1C7814F0F1
:402B0000010403D10028F9D0002404E02046FFF715FE024B1B78204610BD00BF09590040034A044B1B881088181A00B2704700BF5893FF1FA25B00400E4A13881BB223B1D5
:402B400011880A2309B2594301E00B4B19680B4B1B88C01A42F2107300B203FB00F2022391FBF3F30028D8BF5B42134493FBF1F000B270475293FF1F5493FF1F5093FF1F29
:402B80007047000010B500F0EBF9214A044613780A2043F001031370137C43F00103137412F80A3C43F0020302F80A3C937943F00203937102F5AA521832137843F0030343
:402BC0001370144B18221A7013F8012C42F0400203F8012C13F8012C02F0FC0203F8012CCE2203F8062CA3F597530222123B1A70094A137843F008031370FFF79FFD074BEE
:402C000008222046BDE810401A6000F0ADB900BFAB43004006590040275B004080E200E008B500F09DF90F4A137803F0FE031370A2F5AA52153A137803F0FE031370137C9E
:402C400003F0FE03137412F80A3C03F0FD0302F80A3C937903F0FD039371BDE8084000F083B900BF00590040044A137803F03F0343EA8010C0B21070704700BF0059004016
:402C8000082804D00A280CBF8223C22300E0422308380E4AC0B20428137098BF0C4B4FF0000298BF33F910100A4B88BF11461A8042F210734B4341F2883103F6C41393FBDD
:402CC000F1F305490B60054B1A807047025900405A3A00005E93FF1F6493FF1F5C93FF1F08B5102000F084F807210320FFF76EFD07490320FFF75CFD064A0C20137843F035
:402D000006031370FFF7BCFF034B00221A8008BDD92D0000015900406093FF1F10B5054C23781BB9FFF7DCFF01232370BDE81040FFF728BFA192FF1F044B1A7802F0FB02D6
:402D40001A701A7842F001021A7070470059004010B5084B1C7814F0010403D10028F9D0002404E02046FFF7E9FC024B1B78204610BD00BF01590040034A044B1B88108822
:402D8000181A00B2704700BF5C93FF1FA05B00400E4A13881BB223B111880A2309B2594301E00B4B19680B4B1B88C01A42F2107300B203FB00F2022391FBF3F30028D8BF86
:402DC0005B42134493FBF1F000B270475E93FF1F6493FF1F6093FF1F70470000034A00F0F800137803431370704700BF02410040034A00F0F800137803431370704700BF9A
:402E000006410040014B1870704700BF72640040014B1870704700BF7864004073B515461E460B4C04230022019200920A46014618462370FFF7F8FB324629462078FFF7B3
:402E4000B3FB02212078FFF79DFB207802B070BDFC80FF1F074A0223136002F688321268E0215064044A11706FF440710A441360704700BF80E100E001E400E0014B18708C
:402E8000704700BF75640040014B1870704700BF76640040014B1870704700BF79640040FEB5494652465B460EB40746244909688A46244A12682448022100F071F80300AD
:402EC00020480068C018204900F06AF8143883460121C9430C460125002600F041F8814651460B7823400B705846013000F030F83800F04028400B78234003430B705846AA
:402F000000F026F80136072EF2D9002001300138013001200B78234003430B705846043000F016F8484600F01FF800BF00BF00BF0EBC894692469B46FEBD00BFAFF3008039
:402F4000D480FF1FF880FF1F00C20100000000000230800803D000BF01380046FCD17047EFF3108072B6704780F31088704700BF094A137803F00303012B0AD0022B09D181
:402F800013790C2103F07F02044B01FB02339B7A00E013790020704700600040DC92FF1F002902D0B0FBF1F0704708B14FF0FF3000F008B80029F8D00246B0FBF1F000FB0B
:402FC00011217047704700BF014B1868704700BF6081FF1F0E4B70B51E460E4C0025E41AA410A54204D056F8253098470135F8E700F0DEFD084B094C1E46E41AA41000251E
:40300000A54204D056F8253098470135F8E770BDBC3B0000BC3B0000BC3B0000C43B000003460244934202D003F8011BFAE7704730B5141E05469BB0184604DA8B232B6026
:403040004FF0FF301DE04FF40273ADF80C300CBF234604F1FF33029305934FF6FF7300910491ADF80E3002461E9B6946284600F073F8431CBCBF8B232B6014B1009B0022F6
:403080001A701BB030BD000007B5009313460A46014603480068FFF7CBFF03B05DF804FB6081FF1F2DE9F0478E6882469E420C46914698463ED88A8912F4906F3AD025685F
:4030C000096902236F1A656905EB450595FBF3F57B1C43449D4238BF1D4653050FD5294600F04AFB064698B13A46216900F0D2FAA38923F4906343F08003A38113E02A462B
:4031000000F098FB064670B92169504600F0E8FA0C23CAF80030A3894FF0FF3043F04003A381BDE8F08726613E44266046466561ED1BA560464528BF4646494632462068B9
:4031400000F0B3FAA36800209B1BA36023681E442660BDE8F08700002DE9F04F9DB003938B8980461C060D4616460DD50B695BB9402100F001FB2860286118B90C23C8F8D4
:403180000030CDE040236B610023099320238DF82930DFF89CB130238DF82A3037463C4614F8013B1BB9B7EB060910D003E0252BF9D02746F3E74B46324629464046FFF7EA
:4031C00071FF013000F0A780099B4B4409933B78002B00F0A08000234FF0FF3204930793059206938DF853301A930126052221784E4800F041FA671C049B38B14B4A3C46E7
:40320000801A06FA00F018430490EFE7D90644BF20228DF853201A0744BF2B228DF8532022782A2A03D0079A00210A200BE0039A111D12680391002A10DA524243F002006C
:40324000079204900BE027463B780134303B092B03D800FB02320121F5E701B107923B782E2B1ED17B782A2B0AD1039B02371A1D1B680392002BB8BF4FF0FF33059310E010
:40328000002319460593781C0A2407463A780130303A092A03D804FB01210123F5E703B1059103223978224800F0E6F940B14023CBEB000003FA00F0049B01371843049053
:4032C000397806221B487E1C8DF8281000F0D4F988B1194B33B9039B073323F007030833039314E003AB00932A46144B04A94046AFF3008007E003AB00932A460F4B04A937
:40330000404600F093F8B0F1FF3F824603D0099B5344099342E7AB895B0601D4099801E04FF0FF301DB0BDE8F08F00BF8B3B0000913B0000953B000000000000A5300000D1
:403340002DE9F04791461F460A698B6806469342B8BF1346C9F8003091F843200C46DDF8208012B10133C9F800302368990642BFD9F800300233C9F80030256815F00605F2
:4033800010D104F1190A07E00123524639463046C04701301AD00135E368D9F800209B1A9D42F1DB94F843302268003318BF012392060FD5E118302081F843005A1C94F84E
:4033C00045102244023382F8431003E04FF0FF30BDE8F08704F1430239463046C0470130F4D02268D9F80050E36802F00602042A08BF5D1B2269A3680CBF25EAE57500252C
:403400009342C4BF9B1AED184FF000091A344D4509D00123224639463046C0470130D5D009F10109F3E70020BDE8F0872DE9F04317460A7E85B06E2A984606460C460C9BE3
:4034400001F1430E00F0AE8011D8632A22D009D8002A00F0BB80582A40F0CA8081F84520834955E0642A1ED0692A1CD0C0E0732A00F0B08009D86F2A2ED0702A40F0B880A0
:403480000A6842F020020A603EE0752A24D0782A3AD0ADE01A6801F14205111D1960136884F84230A8E021681A6811F0800F02D0111D196008E011F0400F02F104011960E2
:4034C00002D0B2F9003000E01368002B3CDA2D225B4284F8432037E021681A6811F0800F02D0111D196007E011F0400F02F10401196001D0138800E01368227E5C496F2A40
:4035000014BF0A2208221BE078225A4984F845202268186812F0800F00F104051D6003D1550601D5038800E00368D00744BF42F0200222601BB9226822F020022260102266
:40354000002084F8430001E049490A226568002DA56008DB206820F0040020602BB9002D7DD175460CE0002B79D07546B3FBF2F002FB1033CB5C05F8013D03460028F5D131
:40358000082A0BD12368DA0708D5236962689A42DEBF302305F8013C05F1FF35C5EB0E0323612EE008681A6810F0800F496903D0101D1860136808E010F0400F02F1040087
:4035C0001860136801D0198000E0196000232361754616E01A68111D1960156800216268284600F049F808B1401B6060636804E004F1420584F8422001232361002384F8A9
:403600004330CDF800803B4603AA21463046FFF797FE013002D14FF0FF3026E023692A4639463046C0470130F5D023689B0710D5002504F1190907E001234A4639463046F8
:40364000C0470130E7D00135E368039A9B1A9D42F2DBE068039B9842B8BF184605E00B7804F1420584F842308AE705B0BDE8F0833F3A00009C3B000010B5C9B202449042CF
:40368000034605D01C7801308C42F8D1184610BD002010BD10B5431E0A44914204D011F8014B03F8014FF8E710BD884210B501EB020301D8421E0BE09842FBD28118D21A41
:4036C000D34204D013F8014D01F8014DF8E710BD994204D011F8014B02F8014FF8E710BD38B50546002944D051F8043C0C1F002BB8BFE41800F0D4F81E4A1368114613B912
:403700006360146030E0A3420DD92268A018834201BF18685B681218226063600C6023E0A24203D813465A68002AF9D118681918A1420BD12168014458188242196013D1F2
:4037400010685268014419605A600DE002D90C232B6009E021686018824201BF106852680918216062605C602846BDE8384000F098B838BDA892FF1F70B5CD1C25F003051A
:4037800008350C2D38BF0C25002D064601DBA94202D90C23336046E000F082F8234B1C681A462146A1B10B685B1B0ED40B2B03D90B60CC18CD501EE08C420BBF63684B6896
:4037C0001360636018BF0C4615E00C464968E9E7174C23681BB9304600F052F820602946304600F04DF8431C18D0C41C24F00304A0420DD12560304600F053F804F10B005E
:40380000231D20F00700C31A0ED05A42E25070BD211A304600F034F80130EBD10C233360304600F03EF8002070BD00BFA892FF1FA492FF1FF8B5074615460E4621B91146D1
:40384000BDE8F840FFF798BF1AB9FFF749FF2846F8BD00F027F885420ED929463846FFF78BFF044650B131462A46FFF713FF31463846FFF735FF01E03046F8BD2046F8BD40
:4038800038B5064C0023054608462360FDF7D8FB431C02D1236803B12B6038BD8C93FF1F7047704751F8040C0028BEBF091851F8043CC018043870470000000005020902A2
:4038C0000B020D020F021102130215027265706C792030782530327800686F6D696E6700626567696E6E696E67207365656B2066726F6D20256420746F2025640066696E08
:403900006973686564207365656B00796573006E6F00647269766520303A20257320647269766520313A2025730057616974696E6720666F72205553422E2E2E00555342F3
:4039400020726561647900636F6D6D616E6420307825303278006661696C2025642B25642B2564203D3D2025642C206E6F74202564007061737365643D256400756E646544
:403980007272756E206166746572202564207061636B65747300636F756E743D256420693D256420643D256400636D645F777269746500703D25642063723D256420637729
:4039C0003D256420663D256420773D256420696E6465783D256420756E64657272756E3D256400756E64657272756E21007375636365737300737461727420657261736912
:403A00006E670073746F702065726173696E670069646C650000510040100040510040300000000140001000140140000800400140000A004C0140000200500140200030F9
:403A400031323334353637383941424344454600000100000004000000100001000000040000001028000000000104000100000000000000000157494E5553420000303043
:403A800030303100000000000000000012034D005300460054003100300030000100000001000000A83A000001000000773B0000000000000000000001000000C03A000003
:403AC00001000000493B000004000000E23A0000000000000000000000000000E03A0000FF00000001024000FF00000082024000FF00000003034000FF00000084034000F7
:403B0000FF00020304030904160346006C007500780045006E00670069006E0065002A0343006F0077006C00610072006B00200054006500630068006E006F006C006F0003
:403B400067006900650073000009022E0001010080320904000004FF00000107050102400000070582024000000705030340000A0705840340000A12010002FF0001080921
:403B800012006E0100020180014300232D302B2000686C4C00656667454647003031323334353637383961626364656600000000F8B500BFF8BC08BC9E4670475900000094
:403BC000BD100000F8B500BFF8BC08BC9E46704735000000E83B0000C880FF1FA00000002812000000000000000000009093FF1FFF000000675000400C0000000700000097
:403C0000FFFFFFFF7F8000003F0000000000007D00FA0000400000000090D003FF000000000000000000000000000000000000000000000000000000000000000000000031
:403C4000893B000000000000000000000000000000000000000000000000000000000000000000000000000000000000000000000000000000000000000000000000000080
:403C80000081FF1F00000000000000000000000000000000000000000000000000000000000000000000000000000000000000000000000000000000000000000000000065
:403CC00000000000000000000000000000000000000000000000000000000000000000000000000000000000000000000000000000000000000000000000000000000000C4
:403D00000000000000000000000000000000000000000000000000000000000000000000000000000000000000000000000000000000000000000000000000000000000083
:403D40000000000000000000000000000000000000000000000000000000000000000000000000000000000000000000000000000000000000000000000000000000000043
:403D80000000000000000000000000000000000000000000000000000000000000000000000000000000000000000000000000000000000000000000000000000000000003
:020000040003F7
:0200000480007A
:400000000145004009520040015B00400165004047000140380101404E0201404703014046040140440501404C060140490701402C08014031090140040B0140030D014075
:400040006C14014057150140591601404B17014011190140071B01400B400140104101400C4201400F43014002440140054501400A4601400B4701400C480140104901404C
:40008000174C01400C4D014006500140045101407E02080409021082110218021904601561137C402721240A02E40303040E0520064107C00A840B900E840F901001120693
:4000C00013901684179019011A841B481C081DFC1E221F0221C122182324268427902B9C2CE72E10300733E0351F36F83A023B084204460E480449FF4AFF4BFF4F83580B46
:40010000590B5A045B045C995D095F01868088028A8190E7921094019686980F9A409C0F9E20A2E0A618A804AA81AE80B207B4F8D80BDC09DF010022022003010524084089
:4001400009080A080B400C420D200E2010021108130215801610172119011A011C241E201F0C210422082308284029042B88312032643301382039883A013B804240528017
:400180005A215B4A600461016218634278027C028280C06FC2FFC4FDCA07CC0FCE0FD001D60FD80FDE8103140404050806110710081F0A800C010E1E0FE4101F124015102D
:4001C00016E0178218021A111B141C1F1E20211023212408261127142B142D1F2F4032F0330F360F37F03A083B80580B590B5B045C995F018203830884618608873088204C
:4002000089108A508B828DC78E108F2892109304961C97C49A109B04A061A110A204A341A440A630A704AB04AC7CAE02AF04B01FB30FB460B5F4BB08D80BD90BDB04DC99FF
:40024000DF01012A02200301040805400708081009080B8C0C420E200F04104211081504180819221A0C1B011C221D4C1E211F4820042218242025442731285029402B8839
:400280002C022E042F883204331134103508380439813A103D8C3E016230680269806A806D4078027C029308942096E897809C029D249F61A403A50CA620A781AA01AB0889
:4002C000C0EFC2FEC42DCAFFCC67CEDFDE81E208021004400620080C0C010E0210081101140818051A081C04200828202AC02CE02F0130603280341E3501360138203E40ED
:400300005608580459045B045C995D905F0181608209842487108A128B108F10903F93039407950197089B1C9D40A036A209A310A710A82DA901AA12AB04AC40AD7CAF0220
:40034000B11FB238B440B540B607B720BE10D608D80BD90BDB04DC99DD90DF01000201280302040A070409980B800C020E20104212081550170119281A401B401E201FA0A5
:4003800022102662274828022C022E052F043302364237283C203D803F0558805D80600267016B026D106F017C0287208B848F4091409205930496409B209C029F48A0124A
:4003C000A140A208A620A780AD01AE08C07FC23FC4DBCAF8CCF1CEF0D618D818DE80E208E408EA040104020F0440068008700A800C800E200F0110011106130114081602E9
:40040000170218011C0F1EF0200124072608288029052A102B022C082E04310736FF3E403F01580459045B045F018001811C820283E18402852087C0880489828B218C0248
:400440008D088F10900491FF940495089710980599029C049D04A002A1FCA402A520A740A802AC03AE04AF02B007B3FCB503BB20BE01D804D904DB04DC90DF010081012440
:4004800004450520084009080A080B810C080D010E020F041008120113861544172219011C0220042114222C23282740280229012B202D1030083180321033023705396892
:4004C0003A013D82588068066C016D806F048004810184048F0191109220940A9780980299209B019C409F04A401A598A702A880A980AF02C0FFC2FFC4FFCA2BCCCFCE9F8E
:40050000D608E24CE402E605EA04EC02EE0C06010B0410041304160119021C022101240829042C013001310232043304340236083701380239083E553F45560858045904A9
:400540005B045D905F0183018A029501A401AC02B401B501B602B880B920BE50BF10D804D904DB04DF01030804080D800F50100212101410154019101A021E2A1F022210BD
:40058000250226882C802F083308372138023F10584059105DA45E01645266106A406C076D406F09800282C085808608890293409980AF40C022C2B0C4A5CAA0CCA2CE2157
:4005C000D6FCD8F0EA04EE0C9980E208E448EA049980B180E208018002200608070108280B100C020D210E2C1028110F1434152117081828192F1C101E021F2F202821210D
:40060000230224022740282829212B042C202D212E012F0E321F336035803620371F39083E443F1040524720482049FF4AFF4BFF4D204EF05110580459045A045B045C9038
:400640005D095F01610862406340648066406740800F810183028503861087FC88208A018B048C208DFF8E0290039302942395809608970499049A409B209D049E2F9FF9AF
:40068000A023A104A20CA308A423A504A604A740A82FA904AB10AF02B060B3FFB460B61FB822BF04D804D904DB04DC09DF01012202200301040205040608070209880A04D5
:4006C0000B800C080D800E48118012081305144015051610171019881C401D401E041F602118228023112410284129082A102D202E402F6030083240331234013680372A63
:40070000381039423A083C063D803F1041104980510159025A0269806C016D806F0285018D409004914592C2930494429604979199249A089B3B9D40A009A180A22CA548B8
:40074000A722AC02B704C0FFC2FFC47FCAFFCCFFCEFFD004D208E402E808EE1200FF01880403054606FC07B8080C09880A100C0C0EF10F0112081510160417A0180C198849
:400780001A401C011D421E021F04218822022480259A260C2720280C29882A202E022F0431C132FF333F35C137C139A23E043F04580459045B045C905F01800282058521EF
:4007C000870288028C0291279403950896049B389D049F01A118A340A706AC02AF01B006B107B310B401B560B708BE10BF40C006C5ECC803C9FFCAFFCBFFD004D601D8046C
:40080000D904DA04DB04DC99DD09DF01E2C00020010203020406056007100A200C010D800E040F1013801542172819131D042003218022D5240425102605278128102901DB
:400840002A802D202E402F603180321433023680372838043C043D803F11481049104B0264016701684869476A406C02728873068410860194419546978799209B2C9F827A
:40088000A228A448A598A601A722AB40B002B481C0FBC2F4C4F1CAFBCC7FCEF2D204E220E604EA4082108A018E048F029222960197109D209F20A214A302B080B104B6017C
:4008C000E220EA10EC808F209F20AF10B211B520E412EE021B011F083240330836843B408140C630CCF0CE10E62030803204358037083A023D408480914096809740A6046A
:40090000AE80AF01CCF0CE60E210508057208580968897409D809E02A604AB08D460E210EA20832284808E02968097409E02A480A620A720AA24AE04E230E620EC80EE30D9
:400940001501C4045D828740B101D605EE011B04850287108D8097809D82A480A880C608E4020B880C800F108A109798A480A740AB44AF04C20FE404262080018A01974061
:40098000A280A302A620AA40B680C820E620EE8052805302551070017E0190029202A110A280A302AF40B510D4E0DC80DE20EE40052008040E020F801F1053805610588014
:4009C00063028E208F809A109D20A740B120C001C20DC601D407D602E002E402EA04762084809A209C80AF10B004B301B601DE04E801EA08EE01010109010B010D011101C4
:400A00001B0100FF01AB020211050000BF0000A09F001F000000000000000000100000004000000000000000C0000000FF0000B847004700000100008000000282008200DC
:400A400000000000000707000700000027001801270018010004000000050000000000000000000000000000000000000000000000000000000000000000000000000000D8
:400A80000000000000000000000000000000000000000000000000000000000000000000000000000000000000000000000000000000000000000000000000000000000036
:400AC00000000000000000000000000000000000000000000000000000000000000000000000000000000000000000000000000000000000000000000000000000000000F6
:400B000000000000000000000000000000000000000000000000000000000000000000000000000000000000000000000000000000000000000000000000000000000000B5
:400B40000000000000000000000000000000000000000000000000000000000000000000000000000000000000000000000000000000000000000000000000000000000075
:0200000490006A
:0400000000000007F5
:0200000490105A
:04000000BC90ACAF55
:0200000490303A
:02000000F830D6
:0200000490402A
:4000000000000000000000000000000000000000000000000000000000000000000000000000000000000000000000000000000000000000000000000000000000000000C0
:400040000000000000000000000000000000000000000000000000000000000000000000000000000000000000000000000000000000000000000000000000000000000080
:400080000000000000000000000000000000000000000000000000000000000000000000000000000000000000000000000000000000000000000000000000000000000040
:4000C0000000000000000000000000000000000000000000000000000000000000000000000000000000000000000000000000000000000000000000000000000000000000
:0200000490501A
:0C00000000012E16106900002E30089937
:00000001FF