:4000000000800020110000004110000041100000064A08B5136843F020031360044B1A6803F53F5302331A6001F028F8E8460040FA46004010B5054C237833B9044B13B163
:400040000448AFF300800123237010BD6881FF1F00000000C8380000084B10B51BB108490848AFF300800848036803B910BD074B002BFBD0BDE81040184700BF0000000041
:400080006C81FF1FC8380000C880FF1F000000000A4A0B4B116801310B40002BBEBF03F1FF3363F03F030133136011685368994202BF024B01221A72704700BF8881FF1FBC
:4000C0003F0000800A4A0B4B516801310B40002BBEBF03F1FF3363F03F030133536051681368994202BF024B01221A72704700BF8881FF1F3F000080114BDA68196919B9FD
:4001000001221A75597514E09969521A19698A4294BF587D00201875187D094908B1002204E0086982428CBF002201224A75DA689A611B7D13B1002002F046B9704700BF70
:400140008881FF1F10B5C4B2204601F059F90128FAD110BD08B572B60F4B0F49DA680132DA60DA690132C82A08BF0022DA611A6AD8690132A72A08BF00220A621B6A002B13
:400180000CBF02230023002814BF184643F0010002F082FE62B608BD8881FF1F38B50446C5B2284602F0B2F8062002F0CFFA44F00200C0B202F0AAF8062002F0C7FA28460D
:4001C00002F0A4F8BDE83840062002F0A9BA10B5642402F095F828B9FFF7E0FF013CF8D1204610BD012010BD70B5C4B2054620460E4601F005F9012805D0204601F01EFA34
:400200002846FFF79FFF204601F002F9314605460246204601F0BEF9204601F0F1F80028FAD1284670BD000038B5044D0024285D013402F03BFA402CF9D138BDAC81FF1FCB
:4002400008B502F055FC002002F05EFC02F070FC02F07AFC80B208BD10B50446012002F06DF8642002F05CFAFFF7EAFF2080002002F064F8642002F053FAFFF7E1FF60809C
:4002800010BD08B502F060FD002002F069FD02F07BFD02F085FD80B208BD10B50446FFF796FF322002F03CFAFFF7EBFF20800120FFF774FF322002F033FAFFF7E2FF6080D2
:4002C00010BD0FB400B593B014AB53F8042B402102A8019302F0E0FE02A802F07CF802F086F813B05DF804EB04B0704710B5044601780648FFF7E5FF0420FFF723FF627816
:400300002146BDE81040042001F0D2B8DC38000007B50023ADF804308DF80600032301A88DF80530FFF7E2FF03B05DF804FB000010B5074C94F8643043B1002001F0DAFFEE
:40034000002002F06DFD002384F8643010BD00BF8881FF1F38B5104D837895F8672004469A4204D0FFF7E4FF002385F86A302368C5F865302279094B1A71A378002B14BF45
:400380000220012002F04CFDE07802F043FD2079BDE8384002F07ABD8881FF1FED81FF1F38B50D4C94F8645065B904F16500FFF7D1FF012001F09EFF4FF47A7002F0B0F968
:4003C00084F86A50E368E366012384F86430BDE8384002F0E3B900BF8881FF1FF8B5214C0546FFF7DDFF94F86A3003B15DB91E48FFF767FFFFF7EBFE0120002384F86A007C
:40040000236702F0A3F92A46216F1848FFF759FF144E0027236F9D4216D001F071FF00B13767236F9D4205DD0120FFF7B7FE336F013305E005DA0020FFF7B0FE336F013B0B
:40044000336702F0ABF9E5E7322002F069F92A2DCCBF0020012002F025FDBDE8F8400448FFF72FBF8881FF1FE9380000F03800000D3900002DE9F04F99B062B602F0F8F947
:400480009E49042002F01CFA9D4801F045FF9D4802F0E8FC9C4801F079FF02F0C9FB02F09BFA002002F0BCFC01F094FF0221002000F05CFF954C012001F0D4F8002384F890
:4004C0006730FFF76DFFFFF782FE84F87400FFF72FFF012384F86730FFF762FFFFF777FE84F87500FFF724FF894B94F87400894994F875202546002A14BF0A461A4600286F
:4005000008BF19468448FFF7DCFE0321084602F025F9264602F042F994F8643043B1EA6EEB689B1A41F28832934201D9FFF700FF00F054FF18B97948FFF7C3FE04E000F079
:4005400053FF0028F7D10BE000F048FF10B902F025F9F9E77248FFF7B4FE032001F06EF8032000F04DFF0128D4D16E48FFF7F2FE6D490320FFF738FE94F876106B48FFF7F9
:40058000A0FE94F87630023B142B00F2D683DFE813F01500D4031E00D4032400D4035000D4037600D403D900D403C101D4030803D4032C03D4033303D4034D0303238DF851
:4005C00020308DF821300F238DF822302AE394F87800FFF703FF564B21E340F2DC57FFF7DFFE00232375E068227D02F0FF012AB9EB681B1ABB42F7DD0B4611E083B100227E
:40060000174696F87810F068277594F814E0BEF1000F02D1EB681B1AF7E701329142F3DA07228DF8202004228DF82120ADF82230F8E20220FFF786FD4FF000080DF1200A54
:4006400002F0ACF84FF480790027C9EB0803DA1907F80A200137402FF9D10220FFF772FD3A465146022000F023FFB9F10109EBD108F10108B8F1400FE2D12E4B38E04FF076
:40068000010A4FF000080DF1200B02F087F84FF0000959460120FFF7A7FD08EB090300270493049B1BF807203B44DBB29A4209D08DE80C0041463B464A461F48FFF701FEE0
:4006C0004FF0000A0137402FEBD109F10109B9F5807FDED108F10108B8F1400FD5D151461648FFF7EEFDBAF1000F00F01B81144B1B8807A8ADF81C3095E200BF5501000004
:40070000F900000091000000C50000008881FF1F1F3900001B390000223900003A3900004D390000ED81FF1FFE81FF1F57390000CC380000CE380000663900008239000026
:40074000D0380000206FFFF749FE94F8780001F0F5FD94F8780001F0D9FD02F009FCB94BDFF8FC821A78002702F0FB021A701A7842F001021A701A7802F0FE021A701A7880
:4007800002F0FE021A7002F0F7FB0220FFF7DAFC012141F6FF734FF48042084602F046FB84F8B60001F068FF08F807000137402FF8D1DFF8B0A200270AF195091FFA89F816
:4007C0000137402F14BF3A4600221AF8010F2244062392F82420402101F082FF424646F248519AF8000001F08DFF08F14008402F1FFA88F8E4D196F8793053B196F87C30B0
:40080000336100233375237D002BFCD000233375336100234FF0FF32236062602372236894F8B600234493F8241001F0DDFE94F8B60001F09BFE012194F8B60001F06EFEAA
:400840002368002BFCD0002398467360D6F80CA0012701F0A3FFE368B4F87A20CAEB030393420DD367B1042195F8B60001F0C8FE94F8B60001F0D4FE0028F9D107463072CF
:40088000237AFBB96A682B689A4202D1002FE0D118E00220FFF756FC6968402209EB8111022000F005FE6A68674B01321340002BBEBF03F1FF3363F03F03013308F1010820
:4008C0006360C6E70220277AFFF73CFC00221146022000F0EDFD0220FFF734FCFFB2FFF7A3FC002001F012FD37B15848FFF7E9FC0220FFF70DFD06E0554B08A81B88ADF871
:400900002030FFF7F3FC227D4146237A5148FFF7D8FC15E25048FFF7D4FCD4F87A7017F03F0701D0032009E2286FFFF757FD95F8780001F003FD95F8780001F0E7FC012054
:4009400001F002FD02F014FB444BDFF814811A7842F004021A701A7842F001021A701A7802F0FE021A701A7802F0FE021A7002F003FB01214FF4804341F6FF72084601F0CB
:40098000E9FC85F8B60001F077FE08F807000137402FF8D1DFF8CC90002709F195031FFA83F804930137402F14BF3A46002219F8010F2244052392F82420402101F090FEB2
:4009C000414646F24B4299F8000001F09BFE08F14008402F1FFA88F8E4D100274FF0FF33376098467360BB463B46D6F87A9037725FEA99190CBF4FF0010A4FF0000A2168CD
:400A0000114A01310A40002ABCBF02F1FF3262F03F026068B8BF013282426FD02BB1227A002A7AD12A7D002A77D12068049A059302EB8010BAF1000F16D040223F2102F079
:400A4000F7FA1CE0986500403F0000808C390000D2380000A6390000B93900009B640040AC81FF1FAB81FF1F014601370120FFF7BBFBC7EB0903D3F1000A4AEB030A216876
:400A8000B34A01310A40002ABEBF02F1FF3262F03F02013222606268059B01322ED12A683F2A2BD14FF00008C5F8048001F080FC85F808806B6895F8B6002B4493F82410D9
:400AC00001F092FD95F8B60001F050FD012195F8B60001F023FD95F87E302B6185F81480237D002BFCD04FF00008012086F8148001F06AFC404601F027FC00E023B1237A54
:400B00005BB92B7D4BB90123626842453FF477AF0BF1010BD5F8048071E701F04FFC012001F012FC002001F04FFC042194F8B60001F066FD94F8B60001F072FD8046002873
:400B4000F8D196F8B60001F0FFFC337D327A0293012303920193CDF800A05B463A4649467C48FFF7AEFBC6F81080BAF1000F0BD0FFF75AFB002001F0C9FB237A63B1764854
:400B8000FFF79FFB0220D9E0B945F1D073490120FFF72AFB0137F7E77148FFF792FB714B3DE094F8780001F0C9FB206FFFF716FC6D48FFF786FB94F87930236100232375F8
:400BC000237D002BFCD0012001F0FEFB00233375237D002BFCD0002001F0F6FB002363483361FFF76EFB624B19E0002084F86A00FFF7F4FB5F4B12E094F8743023B195F870
:400C000075200AB985F8782094F875201AB113B9012385F878305848FFF79CFB574B1B88ADF8203008A8FFF761FB89E0FFF780FB02F07CF8002002F01FF82A2701F04AFFE9
:400C4000002001F0EDFE3A46002108A802F0F0F917238DF820308DF8217001F09FFD002001F048FB002002F0DBF8C82001F058FD0DF12200FFF7F0FA0DF13600FFF70DFB01
:400C800001F08CFD012002F0CBF8322001F048FD0DF12600FFF7E0FA0DF13A00FFF7FDFA012001F027FB4FF4967001F039FD01F075FD0DF12E00FFF7CFFA0DF14200FFF71B
:400CC000ECFA002001F016FB4FF4967001F028FD01F064FD022002F0A3F8322001F020FD0DEB0700FFF7B8FA0DF13E00FFF7D5FA012001F0FFFA4FF4967001F011FD01F040
:400D00004DFD0DF13200FFF7A7FA0DF14600FFF7C4FA002001F0EEFA4FF4967001F000FD01F03CFD002002F07BF8002384F86A3001F07EFF01F050FE74E70120FFF7E8FA91
:400D4000032000F07BFC0E48FFF7BBFAFFF7E2BB3F000080C3390000F33900004092FF1FFD390000D4380000053A0000133A0000D6380000D8380000FE81FF1FDA380000E3
:400D8000203A00002DE9F04172B6884B61221A70A3F5F06301221A801924854A9C7092E803008033062283F8002283E80300522203F580731A707F4B7F4A1B787F4EDBB2FE
:400DC000137040F618027E4B00251A8041F2512223F8022C33784FF4F07003F0010343EA450502F0BDF8013C05F003052ED0032DF0D1744B4FF480721A8007221A70724A20
:400E0000002548211570917002221D705D7103F8032C0422DA716D4A6D4C13786D4E43F00103137012F8013C062743F0030302F8013C2378012243F0800323705B4B1A70F9
:400E4000654A137843F02003137000E0FEE707FB056300219A881868013502F0E9F8072DF5D15E485E4E002550F8041F05F1105303F14A0221F0FF074B33C9B20B4452003E
:400E80005B0002329A4206D012F802EC12F801CC0EF807C0F5E7B0420D44E5D1514A002313609360136193614F4B504F1A68504BDFF888811A604F4B1A684F4B1A604F4A7B
:400EC000137843F002031370137C43F0020313742378A2F5863243F040032370413A137843F010031370464A464B07CA03C31A80454A2833106843F8250C127903F8212CA9
:400F0000424A07CA03C31A80414AE83B07CA03C31A80404A083307CA03C31A803E4A3F4BA2F5616203CBC2F8100EC2F8141E1378042043F008031370394B02F5AA521B78A7
:400F40003D78DBB298F80060EDB203F007010C321B091170F6B2537045F003033B7046F0030388F800302F4B48221A702E4A402313702E49937013729372082382F81F32BF
:400F800020220A7048710A72294A0A20137001F0DDFB284B88F8006044223D70264D1A7094E80F0007C52B80BDE8F08100480040E00A00480F010049A146004025420040FB
:400FC000224200400440004006400040A2430040A0430040253A0000E8460040FCFFFF479000004800760040E80A0048F846004020760040EC0A0048287600400350014021
:40100000A00A0048C0510040AC0A0048B40A0048C00A0048CC0A004832510040D80A0048CF0100491D51004001590040235B0040585B004076580040B0430040F94600407A
:4010400008B501F0C9FF03680C2B00D1FEE7FEE7084908B50B68084A1844821A802A01DC086005E001F0B8FF0C2303604FF0FF33184608BDCC80FF1F9093FF1F80B5114817
:40108000114B0025C0B1A3F1100192C922460439161BB74204D051F8046F42F8046BF7E7114653F8046C8C1AA64202D041F8045BF9E701381033E5E701F094FFFFF7DAF9D9
:4010C000FEE700BF01000000F43B0000124A134B10B51A60124A134C1368134843F4007313600023032B98BF54F823204FEA830188BF0E4A0133302B4250F3D10C4B1A7814
:401100000C4B1A700C4B084A1A60FFF73BFEBDE8104001F0EDB900BF0004FA050CED00E014ED00E0000000000080FF1F41100000BC760040C080FF1F08ED00E0F8B501F042
:4011400017FF4B4A01271378022643F001031370137C484C43F001031374474B02F5E3521F700B3203F8946C1378054603F07F031370002001F0EAFA2378404A03F0F903F2
:4011800023701378384603F0DF03137023783B43237001F0DBFA282001F0D8FA384B30461A7802F07F021A701A7802F0BF021A7023783343237001F0C9FA2378314A43F0C6
:4011C000040323700023137053702F4AFF2199540133092BFBD1284601F0CEFE0721172001F0FCFA2949172001F0EAFA0721182001F0F4FA2649182001F0E2FA0721152033
:4012000001F0ECFA2349152001F0DAFA0721052001F0E4FA2049052001F0D2FA0721062001F0DCFA1D49062001F0CAFA0721084601F0D4FA1A49072001F0C2FA07210820F8
:4012400001F0CCFA1749082001F0BAFA0021162001F0C4FA1449162001F0B2FA07210C2001F0BCFABDE8F84010490C2001F0A8BAA5430040944300409D6000401260004076
:40128000F851004084600040B592FF1F0B1B000045190000091B00003D1A0000691A0000991A0000D11A0000111B0000851B0000214B224A10B5187000231370204A40209B
:4012C0001370204A0F2413701F4A13701F4A13701F4A13701F4A13701F4B4FF400021A604FF080721A604FF400121A6020221A601860802018604FF480701860174804702E
:401300004FF480001860164B1A70933B19B91A7802F0FE0202E01A7842F001021A70114B03221A70802203F8202C012001F018FE0D4B04221A7010BDD092FF1FD692FF1F39
:40134000D492FF1FD592FF1FD192FF1FC092FF1FD392FF1F4893FF1F00E100E09E6000409C600040286000401260004070B5074C054623780E461BB9FFF7E0FE0123237031
:4013800031462846BDE87040FFF792BF8092FF1F0A4A002313700A4A13700A4A13700A4A13700A4A13700A4A13700A4A13700A4B03221A70802203F8202C7047D692FF1F4E
:4013C000D492FF1FD592FF1FD192FF1FC092FF1FD392FF1F4893FF1F28600040014B1878704700BFD592FF1F044B1A7802F0FF001AB118780022C0B21A707047D492FF1F52
:40140000024A0C2303FB002040787047DC92FF1F431E072B0CD8074A064B00010344805C5B7800F00F0043EA0020023880B2704700207047FC5F00401A4A38B50C2303FBA9
:4014400000231B79090C13F0800F00F1FF35044619BF8AB24FF480438BB24FF48042032D18D8DFE805F002070C110021084601F01BF80DE00021084600F0FAFF08E0002180
:40148000084600F0D9FF03E00021084600F0B8FF054B1855EDB2072D03D801F0EDF8034B185538BDDC92FF1FAC92FF1FB592FF1F431E072B2DE9F0470446894615465CD857
:4014C0002F4F0C2202FB0072D388DFF8B8A09BB2C3F500739D424FF00C0303FB007388BFD588DB7884BFC5F50075ADB2254A43EA15230601B354B244EBB28AF80130224BD4
:401500001A5C9846FF2A01D1FFF796FF0C2303FB047200215170B9F1000F28D03DB31B4F385D01F011F811232946FE2218F8040001F0D6F806F5C04278321FFA89F118F8D2
:40154000040001F0DFF8124D18F80410385D01F04BF80121385D00F0E1FF735D43F002037355735D03F0FD037355BDE8F08703FB04746379DBB28AF80230BDE8F08700BFE7
:40158000DC92FF1FFC5F0040B592FF1FAC92FF1F706000402DE9F047044615468846002940D0431E072B3FD8FFF732FFA84203D22046FFF72DFF05461D4E335DFF2B03D1DE
:4015C00041462046FFF738FFDFF868A027011AF8040000F0B9FF1223FE222946305D01F07FF807F5C0411FFA88F27831305D01F089F8DFF84490315D1AF8040000F0F4FFE9
:4016000001211AF8040000F089FF17F8093043F0020307F8093017F8093003F0FD0307F8093002E00D4600E000252846BDE8F087B592FF1FAC92FF1F70600040431E072BA7
:401640000AD8064A0C2303FB002300225A705A79034BD2B200011A54704700BFDC92FF1FFE5F0040431E072B9FBF024B000108221A547047FE5F004030B51A4A1A491B4D0A
:401680000878138803449BB21380194A00231488D8B2A4B27CB1082B0CD050680078C0B2E85450680133013050601088013880B21080ECE718460B780E4C082B0E4A00D003
:4016C00040B10E4D2B7883F080032B700F232370022301E0022323701370094B1870087030BD00BF4C93FF1F4893FF1F00600040C492FF1FC192FF1FD692FF1FD292FF1FE1
:401700004993FF1F074B02221A70074B80221A70064B0F221A70064A00231370054A012013707047D692FF1FD292FF1FC192FF1F4893FF1F4993FF1F30B5164B16491B78E1
:401740000A8803F00F03023BDBB21A4492B20A80124C134A0020118889B279B173B15568215C013BC9B229705168DBB20131516011880130013989B21180ECE7094A1370B3
:40178000094A137883F080031370084B0B221A7030BD00BF296000404C93FF1F00600040C492FF1F4993FF1FD292FF1FC192FF1F064A06231370064A01201370054B802273
:4017C0001A70054B00221A70704700BFD692FF1FC192FF1FD292FF1F4993FF1F054B9A683AB19A68044910709A680988518000229A607047C492FF1F4C93FF1F08B5124BAC
:401800001A78D2B21A701B78DBB21A0602D50F4A137008BD0220FFF7E1FF0D4B1B7803F06003202B05D0402B06D043B900F012FC04E001F0A5FB01E000F046FD10B9034B1C
:4018400003221A7008BD00BF28600040C192FF1F0060004008B5084A084B0120197813880B449BB21380064B00221A70FFF7B6FF044B03221A7008BD4C93FF1F4893FF1F1D
:40188000D692FF1FC192FF1F08B50C4B1B78DBB2042B07D0062B09D0022B0DD1BDE80840FFF7D8BFBDE80840FFF746BF0320FFF795FF034B03221A7008BD00BFD692FF1FCC
:4018C000C192FF1F08B5054B002201201A70FFF785FF034B03221A7008BD00BFD692FF1FC192FF1F08B50A4B1A7832B11A78094942F080020A7000221A70074B00220120D1
:401900001A70FFF76BFF054B03221A7008BD00BFC092FF1F08600040D692FF1FC192FF1F074B1B78DBB2042B05D0062B05D0022B05D1FFF7A1BEFFF7C5BFFFF7D3BF70479E
:40194000D692FF1F38B51D4C2378DBB2DD0634D518060AD503F00F03012B2ED1FFF74EFF174B1B78190609D538BD5A0602D5FFF7D7FF03E09D0620D5FFF786FF23781B066B
:401980001BD4104B1A78104B1B7813430F4A13701278934211D10A4A0849154613782078DBB2000605D41378DBB20B700B7803F00F0328788342F1D138BD38BD2860004067
:4019C000C192FF1FD292FF1F4993FF1F29600040054A00231380054A916819B191680B7092685380704700BF4C93FF1FC492FF1F0E4808B503889BB213B9FFF783FE13E0D1
:401A00000B4B02221A700B4B00221A70FFF7E0FF094AD1799379028843EA012392B2934238BF0380FFF728FE012008BDC492FF1FD692FF1FD292FF1F00600040084B012220
:401A40001A700F3B9B7C074B1A7B02F00302012A1EBFDA7B82F08002DA7301225A7370470B600040DC92FF1F094B02221A700F3B93F82230074B1A7E02F00302012A1EBF0F
:401A8000DA7E82F08002DA7601225A76704700BF0B600040DC92FF1F0B4B04221A700F3B93F83230094B93F8242002F00302012A1EBF93F8272082F0800283F827200122E0
:401AC00083F82520704700BF0B600040DC92FF1F0B4B08221A700F3B93F84230094B93F8302002F00302012A1EBF93F8332082F0800283F83320012283F83120704700BFF5
:401B00000B600040DC92FF1F7047FFF741BC0000F0B5184B184E19780C27C9B201234FF0000C31B3CA0720D5144A4FEA031E7244947850782040C5070DD507FB03652C799F
:401B4000240608D5147804F0FE0414706D790C4CEDB204F80E50840706D507FB036425792D0658BF84F801C090700133DBB24908D7E7F0BD9F600040DC92FF1F70600040D5
:401B8000FE5F004000F0ACBC70B50446184B88B003AA03F11006154618685968083303C5B3422A46F7D11B782B70FCB12223237001AD03232846637000F08AFE00222046DB
:401BC0001146AB5C08AC04EB131414F8144C03F00F03847008AC234413F8143C0132082AC1700371417100F10400EAD108B070BD4F3A00002DE9F0431C4D01222E460C2093
:401C00001F274FF0800E4FF0080C194B00FB02581401234418705F70164998F805902144B9F1000F07D098F8044024064CBF887081F802C001E081F802E000FB0261CC880F
:401C40000132E4B29C71CC88092AC4F30724DC71CC88E4B21C71C988C1F307215971D4D1054BFF221A70BDE8F08300BFDC92FF1F70600040FC5F00400A600040064B074A70
:401C80001B7802EBC30253681A7C824286BF03EBC003586900207047D092FF1FB03A00002DE9F84F424B1A78002A7ED01878414D0138C0B2FFF7E2FFA8463F4AC368147810
:401CC000007ADFF800C1E4B203EBC0000C2600274FF0010E834268D01A78A24263D11CF80420597891425ED19A7893F8039002F07F0206FB02FA05EB0A01CF7093F802B01E
:401D000009F0030981F804B093F803B005F80AB0B3F804A0A1F808A093F902A0BAF1000F0BDAB9F1010F0CBF4FF007094FF00D0981F8059081F801E009E0B9F1010F0CBF20
:401D40004FF005094FF0090981F805904F704FEA02191A4906FB0282494481F802E0B2F808A0CAF3072A81F800A0B2F808A05FFA8AFA81F801A0B2F806A011495FFA8AFAAB
:401D8000494481F806A0B2F80690C9F3072981F80790B2F806905FFA89F981F80490D288C2F307224A71083394E7BDE8F88F00BFD592FF1FDC92FF1FD192FF1FFC5F004052
:401DC00070600040C292FF1F08B5064B18780138C0B2FFF753FF20B143681B7900EBC300406908BDD592FF1F00212DE9F84F0B464E4E0C2707FB01F4013132190929335553
:401E00004FF000059370494CD3701381937253705371EFD118B1464B1D70464B1D70464B1A78002A7FD0187801250138C0B2FFF725FFA8464368DFF8F8E0DB790C2713F0B5
:401E4000400F3E4B4FF0000C1A7814BF42F0010202F0FE021A70027AD20007FB0541C36803EB02094B4531D093F802A00AF07F06AE4229D10E89B3F804B0B6B25E4538BF50
:401E8000A1F808B01E7893F801B01EF80660B3451AD181F804A0DE780E7093F902A0DE78BAF1000F06F0030607DA012E0CBF07260D264E7181F8018006E0012E0CBF052673
:401EC00009264E7181F801C00833CBE70135092DC3D1C1680A328B1C0A440C200833934209D013F8081C13F80A5C01F07F0100FB01418D72F2E7FFF767FF114B01211860E6
:401F000000230C2000FB0142D3801289013113449BB203F00102134409299BB2F2D1BDE8F84FFFF767BEBDE8F88F00BFDC92FF1FC292FF1F4A93FF1FD592FF1FD392FF1FCE
:401F4000D892FF1F114B1B7903F07F035A1E072A19D80F490C2202FB031291781B0141F0010191700021D170517841F002015170127912F0800F074A1A4414BF8D238923CF
:401F80009370FFF715BC0020704700BF00600040DC92FF1FFC5F004030B4194B1A7902F07F02531E072B27D8164B0C2404FB02339978154D01F0FE0199700021D970294600
:401FC0001201505D114400F07F0050555A7802F0FD025A701A795B78120605D5012B01D18C7006E00D2303E0012B0CBF082309238B7030BCFFF7DCBB002030BC704700BF9C
:4020000000600040DC92FF1FFC5F004010B50D4B0D4C21791878C9B20138C0B2FFF72EFE43681B798B4201D2012909D8074A0848535CDBB24354A3780120DBB2535410BD56
:40204000002010BDD592FF1F00600040C292FF1F4A93FF1F38B58A4A8A4C13780021DBB221801806517840F18D800A2900F20581DFE811F05D000301030103010301030167
:402080000B0003017E0003018200D3787C49012B09D17D4B1A787D4B03EBC2035B685B686360122310E0CB78022B12D18878FFF7E5FD002800F0E180436863606368DA7885
:4020C00063689B7843EA02232380BDE83840FFF78FBCCB78032B26D16D4B00228878D5B2854209D3664A91786A4AEE2908BF1346634A917881B106E0187801320028F1D025
:4021000018780344EAE764499278097C914203D16248FFF739FD614B1A78002A00F0AD801A78228018E0BDE8384000F029BF13F0030313D0022B40F0A0802380504B0C21C4
:402140001B7903F07F02564B01FB02339A78554BD2B21A7000225A706360B6E702222280514A11784F4AC9B2117053706260ACE7012323804D4BEFE70123238013794C4AC4
:402180001344E9E701390A2977D8DFE801F037764F76067676760A7620009378454ADBB25AE0937803F0FF0153B9404B1A7891425FD01970404B01201870FFF715FE58E082
:4021C000481EC0B2FFF75AFD0028EED155E0FFF71DFF002851D02A4A384913791279DBB2D2B20A70364A3249D25CCB5C9A4240D0314B01221A70FFF753FD3AE003F00303EE
:40220000012B2BD009D3022B37D11D4B9B78002B33D1BDE83840FFF7BFBE194B9B78012B2BD1214A137803F0FD0315E003F00303012B13D008D3022B1FD1114B9B78E3B9A4
:40224000BDE83840FFF77EBE0D4B9B78012B14D1154A137843F0020313700AE0084B1A795AB998781B791749DBB2CA5C22EA0002CA54BDE83840FFF79BBA002038BD00BFEC
:4022800000600040C492FF1FD092FF1FB03A0000143B00009C3A0000873B00006893FF1FDC92FF1F8192FF1FD392FF1FD592FF1FC292FF1FC092FF1FD492FF1FD192FF1FF4
:4022C0004A93FF1FD792FF1F074B1A78120609D55B78012B06D1054B054A5A6012781A80FFF786BB0020704700600040C492FF1F743A0000014B1870704700BF7A640040F7
:40230000014B1878704700BF66640040014B1870704700BF7E640040064A0123136002F688321268E0211064034A1170A2F540721360704780E100E000E400E0014B187033
:40234000704700BF79640040014B1870704700BF7D64004073B515461E460B4C05230022019200920A4601461846237000F064F932462946207800F01FF90221207800F0AB
:4023800009F9207802B070BDD080FF1F064A0423136002F688321268E0219064034A1170A2F202321360704780E100E002E400E0014B04221A60704700E100E0014B04228E
:4023C0001A60704780E100E0014B1870704700BF78650040704738B505460078012428B100F066FD285D0134E4B2F8E738BD08B50D2000F05DFDBDE808400A2000F058BDD8
:40240000F7B516461F460B4C00230325019300930A4601462846257000F00EF93A463146207800F0C9F80221207800F0B3F8207803B0F0BDE080FF1FF7B516461F460B4C05
:4024400000230225019300930A4601462846257000F0F2F83A463146207800F0ADF82946207800F097F8207803B0F0BDE180FF1FF7B516461F460B4C002301250193009322
:402480000A4601462846257000F0D6F83A463146207800F091F80221207800F07BF8207803B0F0BDE280FF1F73B515461E460B4C0023019300930A4601461846237000F026
:4024C000BBF832462946207800F076F80221207800F060F8207802B070BD00BFE380FF1F024B1878C0F38010704700BF8F450040074A7F23802113705170064A013BDBB2F7
:4025000002F80839002BF9D1034A1370704700BFE480FF1FF87B00400078004017280FD8084B0001C25C11B142F0200201E002F0DF02C254C25C42F00102C2540020704780
:40254000012070471070004017280BD8064B0001C25C02F0FE02C254C25C02F0DF02C25400207047012070471070004017280DD8074900010B4603441A7942F004021A7150
:40258000435C43F00103435400207047012070471070004017280BD8064A0001835C490003F0F10301F00E011943815400207047012070471070004041F6FF73994208BFD2
:4025C0004FF400519A4208BF4FF4005217289FBFC00000F1804000F5EC4081809ABFC280002001207047000017289FBF034B00011954002088BF0120704700BF197000402C
:4026000017289FBF054B00011A5C01F007019DBF1143195400200120704700BF1470004017289FBF034B0001185C00F0070088BFFF20704714700040172810B51AD8C000B7
:4026400001F07F0100F1804441EAC21204F5EC44D2B222709DF8082003F00F0343EA0213DBB263709DF80C30002003F00F03A370E07010BD012010BD10B500F079FC0A4A00
:402680005378182B0AD91478013B5370E30003F1804303F5F0431B78137000E0FF2400F06BFC204610BD00BFE480FF1F030610B5044611D400F05CFC084AE300117803F1FE
:4026C000804303F5F04319705378147001335370BDE8104000F050BC10BD00BFE480FF1F30B504060CD411F4704509D1C40004F1804404F5F0442180A270E370284630BDB0
:40270000012030BD03065FBFC00000F1804000F5F04081805ABFC280002001207047000038B50446084DB4F5004F05D9286800F017FCA4F50044F6E7034B58686043BDE875
:40274000384000F00DBC00BFEC80FF1F024B1B7A584300F005BC00BFEC80FF1F0E4B00F003001A78490102F0FC02104318701A7801F0600142F080021A701A7802F07F024E
:402780001A701A7802F09F020A431A701A7842F010021A70704700BF83430040014B01221A70704784430040044B00F00F021B6853F8220043F82210704700BF08ED00E008
:4027C000054A00F01F00126800F1100352F8230042F82310704700BF08ED00E000F01F0000F16040490100F56440C9B2017070470F4B10B50F4900240F205C609C60DC60F4
:402800001C615C61FFF7D0FF0B4A136843F0040313600A4B4FF47A72DB68B3FBF2F3084A1360084B4FF400421C60C3F8E82010BD8492FF1F9D28000010E000E0EC80FF1FC6
:4028400014E000E018E000E0024A136843F002031360704710E000E008B5FFF7F5FF034A136843F00103136008BD00BF10E000E010B5054CA3691BB9FFF7BAFF0123A36179
:40288000BDE81040FFF7E8BF8492FF1F024B1868C0F30040704700BF10E000E038B5FFF7F5FF012808D1054D002455F8243003B198470134052CF8D138BD00BF8892FF1FAE
:4028C000024B03EB80035868596070478492FF1F134B144A1B78DBB20360127843EA0223114A0360127843EA0243104A0360127843EA026303600E4B0E4A1B78DBB2436031
:40290000127843EA02230C4A4360127843EA02430A4A4360127843EA02634360704700BF0301004904010049EC46004002010049010100490001004905010049060100490D
:4029400010B500F015FB204A044613780A2043F002031370137C43F00203137412F80A3C43F0010302F80A3C937943F00103937102F5AB52137843F003031370134B18223F
:402980001A7013F8012C42F0400203F8012C13F8012C02F0FC0203F8012CCE2203F8062CA3F597530222183B1A70094A137843F008031370FFF7CAFE064B10222046BDE8DE
:4029C00010401A6000F0D8BAAB4300400E5900402F5B004080E200E008B500F0C9FA0F4A137803F0FE031370A2F5AA521D3A137803F0FD031370137C03F0FD03137412F8E1
:402A00000A3C03F0FE0302F80A3C937903F0FE039371BDE8084000F0AFBA00BF08590040044A137803F03F0343EA8010C0B21070704700BF08590040082804D00A280CBF9D
:402A40008223C22300E0422308380E4AC0B20428137098BF0C4B4FF0000298BF33F910100A4B88BF11461A8042F210734B4341F2883103F6C41393FBF1F305490B60054B33
:402A80001A8070470A590040603A00005293FF1F5493FF1F5893FF1F08B5102000F0A6F907210420FFF79AFE07490420FFF788FE064A0C20137843F006031370FFF7BCFFBA
:402AC000034B00221A8008BD912B0000095900405093FF1F10B5054C23781BB9FFF7DCFF01232370BDE81040FFF72ABFA092FF1F044B1A7802F0FB021A701A7842F0010256
:402B00001A7070470859004010B5084B1C7814F0010403D10028F9D0002404E02046FFF715FE024B1B78204610BD00BF09590040034A044B1B881088181A00B2704700BF1D
:402B40005893FF1FA25B00400E4A13881BB223B111880A2309B2594301E00B4B19680B4B1B88C01A42F2107300B203FB00F2022391FBF3F30028D8BF5B42134493FBF1F0C1
:402B800000B270475293FF1F5493FF1F5093FF1F7047000010B500F0EBF9214A044613780A2043F001031370137C43F00103137412F80A3C43F0020302F80A3C937943F0DB
:402BC0000203937102F5AA521832137843F003031370144B18221A7013F8012C42F0400203F8012C13F8012C02F0FC0203F8012CCE2203F8062CA3F597530222123B1A7067
:402C0000094A137843F008031370FFF79FFD074B08222046BDE810401A6000F0ADB900BFAB43004006590040275B004080E200E008B500F09DF90F4A137803F0FE0313708E
:402C4000A2F5AA52153A137803F0FE031370137C03F0FE03137412F80A3C03F0FD0302F80A3C937903F0FD039371BDE8084000F083B900BF00590040044A137803F03F0361
:402C800043EA8010C0B21070704700BF00590040082804D00A280CBF8223C22300E0422308380E4AC0B20428137098BF0C4B4FF0000298BF33F910100A4B88BF11461A80AE
:402CC00042F210734B4341F2883103F6C41393FBF1F305490B60054B1A807047025900406A3A00005E93FF1F6493FF1F5C93FF1F08B5102000F084F807210320FFF76EFD92
:402D000007490320FFF75CFD064A0C20137843F006031370FFF7BCFF034B00221A8008BDE92D0000015900406093FF1F10B5054C23781BB9FFF7DCFF01232370BDE81040C8
:402D4000FFF728BFA192FF1F044B1A7802F0FB021A701A7842F001021A7070470059004010B5084B1C7814F0010403D10028F9D0002404E02046FFF7E9FC024B1B78204621
:402D800010BD00BF01590040034A044B1B881088181A00B2704700BF5C93FF1FA05B00400E4A13881BB223B111880A2309B2594301E00B4B19680B4B1B88C01A42F2107381
:402DC00000B203FB00F2022391FBF3F30028D8BF5B42134493FBF1F000B270475E93FF1F6493FF1F6093FF1F70470000034A00F0F800137803431370704700BF02410040A1
:402E0000034A00F0F800137803431370704700BF06410040014B1870704700BF77640040014B1870704700BF7664004073B515461E460B4C04230022019200920A46014600
:402E400018462370FFF7F8FB324629462078FFF7B3FB02212078FFF79DFB207802B070BDFC80FF1F074A0223136002F688321268E0215064044A11706FF440710A4413608D
:402E8000704700BF80E100E001E400E0014B1870704700BF7F640040014B1870704700BF78640040014B1870704700BF7B650040FEB5494652465B460EB4074624490968F1
:402EC0008A46244A12682448022100F071F8030020480068C018204900F06AF8143883460121C9430C460125002600F041F8814651460B7823400B705846013000F030F81C
:402F00003800F04028400B78234003430B70584600F026F80136072EF2D9002001300138013001200B78234003430B705846043000F016F8484600F01FF800BF00BF00BF12
:402F40000EBC894692469B46FEBD00BFAFF30080D480FF1FF880FF1F00C20100000000000230800803D000BF01380046FCD17047EFF3108072B6704780F31088704700BF77
:402F8000094A137803F00303012B0AD0022B09D113790C2103F07F02044B01FB02339B7A00E013790020704700600040DC92FF1F002902D0B0FBF1F0704708B14FF0FF3097
:402FC00000F008B80029F8D00246B0FBF1F000FB11217047704700BF014B1868704700BF6081FF1F0E4B70B51E460E4C0025E41AA410A54204D056F8253098470135F8E75C
:4030000000F0DEFD084B094C1E46E41AA4100025A54204D056F8253098470135F8E770BDCC3B0000CC3B0000CC3B0000D43B000003460244934202D003F8011BFAE770475A
:4030400030B5141E05469BB0184604DA8B232B604FF0FF301DE04FF40273ADF80C300CBF234604F1FF33029305934FF6FF7300910491ADF80E3002461E9B6946284600F0D4
:4030800073F8431CBCBF8B232B6014B1009B00221A701BB030BD000007B5009313460A46014603480068FFF7CBFF03B05DF804FB6081FF1F2DE9F0478E6882469E420C46D9
:4030C000914698463ED88A8912F4906F3AD02568096902236F1A656905EB450595FBF3F57B1C43449D4238BF1D4653050FD5294600F04AFB064698B13A46216900F0D2FA24
:40310000A38923F4906343F08003A38113E02A4600F098FB064670B92169504600F0E8FA0C23CAF80030A3894FF0FF3043F04003A381BDE8F08726613E44266046466561E0
:40314000ED1BA560464528BF464649463246206800F0B3FAA36800209B1BA36023681E442660BDE8F08700002DE9F04F9DB003938B8980461C060D4616460DD50B695BB958
:40318000402100F001FB2860286118B90C23C8F80030CDE040236B610023099320238DF82930DFF89CB130238DF82A3037463C4614F8013B1BB9B7EB060910D003E0252BD0
:4031C000F9D02746F3E74B46324629464046FFF771FF013000F0A780099B4B4409933B78002B00F0A08000234FF0FF3204930793059206938DF853301A93012605222178C6
:403200004E4800F041FA671C049B38B14B4A3C46801A06FA00F018430490EFE7D90644BF20228DF853201A0744BF2B228DF8532022782A2A03D0079A00210A200BE0039AA2
:40324000111D12680391002A10DA524243F00200079204900BE027463B780134303B092B03D800FB02320121F5E701B107923B782E2B1ED17B782A2B0AD1039B02371A1DAA
:403280001B680392002BB8BF4FF0FF33059310E0002319460593781C0A2407463A780130303A092A03D804FB01210123F5E703B1059103223978224800F0E6F940B1402309
:4032C000CBEB000003FA00F0049B013718430490397806221B487E1C8DF8281000F0D4F988B1194B33B9039B073323F007030833039314E003AB00932A46144B04A940468F
:40330000AFF3008007E003AB00932A460F4B04A9404600F093F8B0F1FF3F824603D0099B5344099342E7AB895B0601D4099801E04FF0FF301DB0BDE8F08F00BF9B3B000071
:40334000A13B0000A53B000000000000B53000002DE9F04791461F460A698B6806469342B8BF1346C9F8003091F843200C46DDF8208012B10133C9F800302368990642BF15
:40338000D9F800300233C9F80030256815F0060510D104F1190A07E00123524639463046C04701301AD00135E368D9F800209B1A9D42F1DB94F843302268003318BF01230D
:4033C00092060FD5E118302081F843005A1C94F845102244023382F8431003E04FF0FF30BDE8F08704F1430239463046C0470130F4D02268D9F80050E36802F00602042AD7
:4034000008BF5D1B2269A3680CBF25EAE57500259342C4BF9B1AED184FF000091A344D4509D00123224639463046C0470130D5D009F10109F3E70020BDE8F0872DE9F0438A
:4034400017460A7E85B06E2A984606460C460C9B01F1430E00F0AE8011D8632A22D009D8002A00F0BB80582A40F0CA8081F84520834955E0642A1ED0692A1CD0C0E0732A65
:4034800000F0B08009D86F2A2ED0702A40F0B8800A6842F020020A603EE0752A24D0782A3AD0ADE01A6801F14205111D1960136884F84230A8E021681A6811F0800F02D098
:4034C000111D196008E011F0400F02F10401196002D0B2F9003000E01368002B3CDA2D225B4284F8432037E021681A6811F0800F02D0111D196007E011F0400F02F104010E
:40350000196001D0138800E01368227E5C496F2A14BF0A2208221BE078225A4984F845202268186812F0800F00F104051D6003D1550601D5038800E00368D00744BF42F032
:40354000200222601BB9226822F0200222601022002084F8430001E049490A226568002DA56008DB206820F0040020602BB9002D7DD175460CE0002B79D07546B3FBF2F020
:4035800002FB1033CB5C05F8013D03460028F5D1082A0BD12368DA0708D5236962689A42DEBF302305F8013C05F1FF35C5EB0E0323612EE008681A6810F0800F496903D0FC
:4035C000101D1860136808E010F0400F02F104001860136801D0198000E0196000232361754616E01A68111D1960156800216268284600F049F808B1401B6060636804E0BC
:4036000004F1420584F8422001232361002384F84330CDF800803B4603AA21463046FFF797FE013002D14FF0FF3026E023692A4639463046C0470130F5D023689B0710D563
:40364000002504F1190907E001234A4639463046C0470130E7D00135E368039A9B1A9D42F2DBE068039B9842B8BF184605E00B7804F1420584F842308AE705B0BDE8F083AB
:403680004F3A0000AC3B000010B5C9B202449042034605D01C7801308C42F8D1184610BD002010BD10B5431E0A44914204D011F8014B03F8014FF8E710BD884210B501EBCE
:4036C000020301D8421E0BE09842FBD28118D21AD34204D013F8014D01F8014DF8E710BD994204D011F8014B02F8014FF8E710BD38B50546002944D051F8043C0C1F002BF2
:40370000B8BFE41800F0D4F81E4A1368114613B96360146030E0A3420DD92268A018834201BF18685B681218226063600C6023E0A24203D813465A68002AF9D118681918DB
:40374000A1420BD12168014458188242196013D110685268014419605A600DE002D90C232B6009E021686018824201BF106852680918216062605C602846BDE8384000F0C4
:4037800098B838BDA892FF1F70B5CD1C25F0030508350C2D38BF0C25002D064601DBA94202D90C23336046E000F082F8234B1C681A462146A1B10B685B1B0ED40B2B03D94E
:4037C0000B60CC18CD501EE08C420BBF63684B681360636018BF0C4615E00C464968E9E7174C23681BB9304600F052F820602946304600F04DF8431C18D0C41C24F00304D4
:40380000A0420DD12560304600F053F804F10B00231D20F00700C31A0ED05A42E25070BD211A304600F034F80130EBD10C233360304600F03EF8002070BD00BFA892FF1F09
:40384000A492FF1FF8B5074615460E4621B91146BDE8F840FFF798BF1AB9FFF749FF2846F8BD00F027F885420ED929463846FFF78BFF044650B131462A46FFF713FF3146E1
:403880003846FFF735FF01E03046F8BD2046F8BD38B5064C0023054608462360FDF7D8FB431C02D1236803B12B6038BD8C93FF1F7047704751F8040C0028BEBF091851F8F0
:4038C000043CC0180438704700000000050209020B020D020F021102130215027265706C792030782530327800686F6D696E6700626567696E6E696E67207365656B2066CB
:40390000726F6D20256420746F2025640066696E6973686564207365656B00796573006E6F00647269766520303A20257320647269766520313A2025730057616974696E5F
:403940006720666F72205553422E2E2E0055534220726561647900636F6D6D616E6420307825303278006661696C2025642B25642B2564203D3D2025642C206E6F7420254E
:4039800064007061737365643D256400756E64657272756E206166746572202564207061636B65747300636F756E743D256420693D256420643D256400636D645F77726997
:4039C000746500703D25642063723D25642063773D256420663D256420773D256420696E6465783D256420756E64657272756E3D256400756E64657272756E21007375635E
:403A0000636573730073746172742065726173696E670073746F702065726173696E670069646C6500005100401000405100403000000001400010001401400008004001A3
:403A400040000A004C0140000200500140200030313233343536373839414243444546000001000000040000001000010000000400000010280000000001040001000000C2
:403A800000000000000157494E5553420000303030303100000000000000000012034D005300460054003100300030000100000001000000B83A000001000000873B0000A5
:403AC000000000000000000001000000D03A000001000000593B000004000000F23A0000000000000000000000000000F03A0000FF00000001024000FF00000082024000C7
:403B0000FF00000003034000FF00000084034000FF00020304030904160346006C007500780045006E00670069006E0065002A0343006F0077006C00610072006B00200034
:403B400054006500630068006E006F006C006F0067006900650073000009022E0001010080320904000004FF00000107050102400000070582024000000705030340000AE8
:403B80000705840340000A12010002FF0001080912006E0100020180014300232D302B2000686C4C0065666745464700303132333435363738396162636465660000000069
:403BC000F8B500BFF8BC08BC9E46704759000000CD100000F8B500BFF8BC08BC9E46704735000000F83B0000C880FF1FA00000002812000000000000000000009093FF1FA8
:403C0000FF000000675000400C00000007000000FFFFFFFF7F8000003F0000000000007D00FA0000400000000090D003FF0000000000000000000000000000000000000028
:403C400000000000000000000000000000000000993B0000000000000000000000000000000000000000000000000000000000000000000000000000000000000000000070
:403C8000000000000000000000000000000000000081FF1F000000000000000000000000000000000000000000000000000000000000000000000000000000000000000065
:403CC00000000000000000000000000000000000000000000000000000000000000000000000000000000000000000000000000000000000000000000000000000000000C4
:403D00000000000000000000000000000000000000000000000000000000000000000000000000000000000000000000000000000000000000000000000000000000000083
:403D40000000000000000000000000000000000000000000000000000000000000000000000000000000000000000000000000000000000000000000000000000000000043
:403D80000000000000000000000000000000000000000000000000000000000000000000000000000000000000000000000000000000000000000000000000000000000003
:020000040003F7
:0200000480007A
:400000000145004009520040015B0040016400400201014005030140090501403D0601404707014045080140510901405B0A0140540B01406B0C0140540D01404F0E014008
:40004000310F0140091501400D1701404718014053190140451A01404F1B014008400140104101400C4201400C430140024401400C450140074601400B4701400D48014099
:4000800012490140184C01400C4D014006500140045101407E020844094510801102180419026003611A7C4027212D0A8010E401821094109840B040E204822094109620D6
:4000C0009840A120A920E203E601EA04050214011B0129012B042D042E012F013001330135043702380239283E013F54580459045B045F01800C82028310840A86048710B5
:400100008A108B1C8C108F0390089120960297109801991C9B029E019F10A204A310A610A901AB04AD01AF08B11FB20EB401B610B720B880BE44BF40D608D804D90BDB042A
:40014000DC99DD90DF01014802800308080209280B020E1012201301154018021A241F0220C226402718288129202D402F083080312433013620384039083A013B203F082B
:4001800058445B205E806012624063086B016D406E106F0879028120830184808508860489088A408E8094109620984099049A01A120A220AA01B504C00FC22FC48CCA3D31
:4001C000CC2FCE4FD61ED80EDE01E002E201E62FEAC4EE040036020904240A120C070D0A103F110A15081713184019201B401D091F14210822092480254026402720282DB0
:400200002A122C402D602E80303831183207330134803506364037603E50580B59045B045C995F018310850187488B808C028F1C9001917C938297109B10A310A501A7246A
:40024000AB03AF10B001B31FB402B5F0BB20BE11D608D804D90BDB04DC90DD90DF0101400442062007040A800C020E081510178919101B011C421D64211022302310260424
:40028000278A288029242B022C222E8230023318350136203788380439223B803E404D204F105B4060026A806F0578027C02811483048420851086018A208B018C01900A7D
:4002C000915092409611988099019A029B109C029D44A00AA110A445A520A602A704AB10B484B704C0F1C258C4F0CADFCCF7CE1FD608D808DE81E240E480E620EAD0EE04F5
:4003000000420101021004060507070809700B800D010E6010041108130415401608178019801B201C121D801E241F10210F221023F024042501280429082B022C702E014C
:400340002F0F320F33FF367038083F04580459045B045C095F01800382048341840485018728880489808B018C018E028F419004934194029501971298049B4E9C05A00229
:40038000A402A802AB41AC02ADF1AF04B30FB407B5F0BB08BE10C002C7CEC830C9FFCAFFCBFFD004D601D804D90BDA04DB04DC90DD09DF01E2C0000201880420054107208D
:4003C0000840090A0D820E200F0410011240132415051609182019881A201E042108240825102710284029412A082B082C022E1031803220330535043602371038A039045E
:400400003A013C883D203E01452056066A806C406D856E226F09749076497C02824488849002915092409304942095049624980199019B249C069DC09E099F01A00AA182D5
:40044000A220A491A540A601A708A802C0FDC2FDC4FFCA3FCCEFCEFFD020DE80E2020003010102FC050806040710080C09800A100C010D020E020F04120813801480150819
:40048000160C1730180C19A01AF11B481E02210722022378240C253F2640280C29022A202B042CFF2DFF333F34FF35C0373F3B203E10580459045B045C905F0180308120EA
:4004C0008202830284C88523870488028B108D0F8E809022912392CC94C897409A489CC89F2FA080A12FA201A4C8A701A8D4A923AB08ACC8AD23AF0CB061B21FB360B51F30
:40050000B680B802B908BE44C013C702C810C9FFCAFFCBFFCD20CEF0D110D804D904DA04DB04DC99DD09DF01E108E240E340E480E640E740002A018004200541072009A038
:400540000AA00D020E220F061108123A1302140115801612171119071A811F10200822082324240825A02614271429012A082B092D022E442F0831443301340236143984D2
:400580003A013B203C023D883E1041044201510869806A406B026C0285088D208F129002915892109428950496A097049C069D619E029F21A008A102A222A491A5E8A60967
:4005C000A718AB80B004B648C0FFC2FFC4FFCAFFCCEBCEFFD00AE002E204EA81000102020404064008FF0C040EF9100312FC14041501161018801A041C041E20220224047C
:4006000026082A042E02330134FF3E103F045608580459045B045D905F018046818082388410852186208704880889208B018C028D018E0490089121930294C09521960194
:40064000970E98089B109C089F2FA10FA204A41AA52FA620A808A921AB08AE80AF40B03FB11FB280B380B440B560B920BE11BF04D804D904DB04DC99DF0100020120022254
:400680000428054109A00AA00D820F2410801180120813041402172519101C081E101F02210424102502262227042E0A2F0A31083404355036013C203D843F015B805C90BE
:4006C0006301680869406C016D108080C0FFC2FFC4FFCAF0CCF2CEF0D638D80888819C01A480AD04B004E204EA08EC01EE028B30950897209C059F20A480AB11AF02B04157
:40070000B101B401B708EE46007102040390047105C1060207280B900E0E0F9C10801390141015011661174418711A081B901C201E111F032120220123C0244026112B90C2
:400740002DFC2F02300F311F3270368037E03A023B803E404204470E481049FF4AFF4BFF4F83580B590B5A045B045C995D095F018101830E85088701890F8D048F01910F4C
:4007800095029701A50FA801B10FB601BE40D804D90BDC90DF010440050406800D100E5110081502162018021CC21D011E101F0A210122032580260129042C022E022F0836
:4007C00030023308358436023710380839223B803C883D203E2145804602470249804A0157045C015F546580660A67086E4078027C028B089008931494049502961397807E
:40080000980299049A809B129F40A00AA110A301A444A602A70EAA10B002B304C0B0C2F0C432CAB2CCF3CEFFD080D6F0D8F0DE81E220E620E8C0EA20EC20EE02020103401B
:40084000077009040B200F4011731201130815011B401C021F0C2303250427102B402F403003317C3302350156085804590B5B045C995D905F018210830384618501860497
:4008800087488B908E038F9C907C9202939095C196109724986199209A089BC09C209E50A210A390A440A630A790AA1CAB90ADFCAF02B21FB3E0B660B71FBB08D80BD90BB4
:4008C000DB04DC99DF0101020505060208020B010C020D100E11150216A0171019021E011F44200C211823402401272029062B0A2C022F6830023148333035053720380882
:4009000039223B803C093D203EA04608472049404B40598063016E4078027C02824089108A028B448D8090089102921094059520960197C8980299059B109E08A002A110C5
:40094000A30AA404AB40AF03B001B401C0B8C2F9C470CAFFCCEFCEFFD608D808DE81E6A0EC08EE821B011F08332836843B40C630CCF0CE103088350836403A043D408080D7
:4009800083209740A604A720AE80AF01CCF0CE60E220E6205340550482048408954097409D089E04A408A644D460E2C082028301891097C0A504A640AA04B108B540E280DA
:4009C000E620EE201440C40458105D088104851097019810AB01B050D401D601E804EA011B048540912097019D08A504C60809440F42912097019D08A544A701AB04B301A8
:400A0000C20FEA0126209120924093029740A202A904AE40AF40B640C820EA30EE4051105202548072407F018080912092409302A202AA20AF40D4E0DC80DE20E220EC80C5
:400A4000EE40070108040E400F011F1051105301570167088B01900291209701AF40B108B401C001C20DC601D405D604D801E604E80370018E4090029240AF14B004B301E1
:400A8000B701DC01E602E803EE0101010B010D010F0111011D0100FF01AB020211050000BF0000A09F001F000000000000000000100000004000000000000000C000000091
:400AC000FF0000B84700470000010000800000028200820000000000000707000700000027001801270018010004000000050000000000000000000000000000000000008C
:400B000000000000000000000000000000000000000000000000000000000000000000000000000000000000000000000000000000000000000000000000000000000000B5
:400B40000000000000000000000000000000000000000000000000000000000000000000000000000000000000000000000000000000000000000000000000000000000075
:400B80000000000000000000000000000000000000000000000000000000000000000000000000000000000000000000000000000000000000000000000000000000000035
:400BC00000000000000000000000000000000000000000000000000000000000000000000000000000000000000000000000000000000000000000000000000000000000F5
:0200000490006A
:0400000000000007F5
:0200000490105A
:04000000BC90ACAF55
:0200000490303A
:02000000467246
:0200000490402A
:4000000000000000000000000000000000000000000000000000000000000000000000000000000000000000000000000000000000000000000000000000000000000000C0
:400040000000000000000000000000000000000000000000000000000000000000000000000000000000000000000000000000000000000000000000000000000000000080
:400080000000000000000000000000000000000000000000000000000000000000000000000000000000000000000000000000000000000000000000000000000000000040
:4000C0000000000000000000000000000000000000000000000000000000000000000000000000000000000000000000000000000000000000000000000000000000000000
:0200000490501A
:0C00000000012E16106900002E3056DBA7
:00000001FF