:400000000080002011000000CD0F0000CD0F0000064A08B5136843F020031360044B1A6803F53F5302331A6000F0EEFFE8460040FA46004010B5054C237833B9044B13B181
:400040000448AFF300800123237010BD6881FF1F0000000058380000084B10B51BB108490848AFF300800848036803B910BD074B002BFBD0BDE81040184700BF00000000B1
:400080006C81FF1F58380000C880FF1F000000000A4A0B4B116801310B40002BBEBF03F1FF3363F03F030133136011685368994202BF024B01221A72704700BF8881FF1F2C
:4000C0003F0000800A4A0B4B516801310B40002BBEBF03F1FF3363F03F030133536051681368994202BF024B01221A72704700BF8881FF1F3F000080024B012200205A7293
:4001000002F028B98881FF1F10B5C4B2204601F03DF90128FAD110BD08B572B60F4B0F49DA680132DA601A690132C82A08BF00221A615A6918690132A72A08BF00224A610E
:400140005B69002B0CBF02230023002814BF184643F0010002F066FE62B608BD8881FF1F38B50446C5B2284602F096F8062002F0B3FA44F00200C0B202F08EF8062002F0FD
:40018000ABFA284602F088F8BDE83840062002F08DBA10B5642402F079F828B9FFF7E0FF013CF8D1204610BD012010BD70B5C4B2054620460E4601F0E9F8012805D02046DB
:4001C00001F002FA2846FFF79FFF204601F0E6F8314605460246204601F0A2F9204601F0D5F80028FAD1284670BD000038B5044D0024285D013402F01FFA402CF9D138BDDB
:40020000A081FF1F08B502F039FC002002F042FC02F054FC02F05EFC80B208BD10B50446012002F051F8642002F040FAFFF7EAFF2080002002F048F8642002F037FAFFF73D
:40024000E1FF608010BD08B502F044FD002002F04DFD02F05FFD02F069FD80B208BD10B50446FFF796FF322002F020FAFFF7EBFF20800120FFF774FF322002F017FAFFF7BB
:40028000E2FF608010BD0FB400B593B014AB53F8042B402102A8019302F0C6FE02A802F060F802F06AF813B05DF804EB04B0704710B5044601780648FFF7E5FF0420FFF7E3
:4002C00023FF62782146BDE81040042001F0B6B86C38000007B50023ADF804308DF80600032301A88DF80530FFF7E2FF03B05DF804FB000010B5074C94F8583043B1002095
:4003000001F0BEFF002002F051FD002384F8583010BD00BF8881FF1F38B5104D837895F85B2004469A4204D0FFF7E4FF002385F85E302368C5F859302279094B1A71A37821
:40034000002B14BF0220012002F030FDE07802F027FD2079BDE8384002F05EBD8881FF1FE181FF1F38B50D4C94F8585065B904F15900FFF7D1FF012001F082FF4FF47A70D9
:4003800002F094F984F85E50E3682366012384F85830BDE8384002F0C7B900BF8881FF1FF8B5214C0546FFF7DDFF94F85E3003B15DB91E48FFF767FFFFF7EBFE0120002323
:4003C00084F85E00636602F087F92A46616E1848FFF759FF144E0027636E9D4216D001F055FF00B17766636E9D4205DD0120FFF7B7FE736E013305E005DA0020FFF7B0FE0E
:40040000736E013B736602F08FF9E5E7322002F04DF92A2DCCBF0020012002F009FDBDE8F8400448FFF72FBF8881FF1F79380000803800009D3800002DE9F04F99B062B6B3
:4004400002F0DCF99949042002F000FA984801F029FF984802F0CCFC974801F05DFF02F0ADFB02F07FFA002002F0A0FC01F078FF0221002000F040FF904C012001F0B8F8D9
:40048000002384F85B30FFF76DFFFFF782FE84F86800FFF72FFF012384F85B30FFF762FFFFF777FE84F86900FFF724FF844B94F86800844994F869202546002A14BF0A46EA
:4004C0001A46002808BF19467F48FFF7DCFE0321084602F009F9264602F026F994F8583043B12A6EEB689B1A41F28832934201D9FFF700FF00F038FF18B97448FFF7C3FE30
:4005000004E000F037FF0028F7D10BE000F02CFF10B902F009F9F9E76D48FFF7B4FE032001F052F8032000F031FF0128D4D16948FFF7F2FE68490320FFF738FE94F86A10B5
:400540006648FFF7A0FE94F86A30023B142B00F2BA83DFE813F01500B8031E00B8032400B8034600B8036C00B803CF00B803B101B803F102B8031003B8031703B803310372
:4005800003238DF820308DF821300E238DF822300EE394F86C00FFF703FF514B05E3FFF7E1FE00236372E068627A02F0FF0132B9EB681B1AB3F57A7FF6DD0B4608E03BB10E
:4005C00000227272F168627A12B9EB685B1AFAE707228DF8202004228DF82120ADF82230E6E20220FFF790FD4FF000080DF1200A02F09AF84FF480790027C9EB0803DA1906
:4006000007F80A200137402FF9D10220FFF77CFD3A465146022000F011FFB9F10109EBD108F10108B8F1400FE2D12E4B38E04FF0010A4FF000080DF1200B02F075F84FF050
:40064000000959460120FFF7B1FD08EB090300270493049B1BF807203B44DBB2934209D08DE80C0041463B464A461F48FFF70BFE4FF0000A0137402FEBD109F10109B9F5E0
:40068000807FDED108F10108B8F1400FD5D151461648FFF7F8FDBAF1000F00F01581144B1B8807A8ADF81C3083E200BF19010000F900000091000000C50000008881FF1F76
:4006C000AF380000AB380000B2380000CA380000DD380000E181FF1FF281FF1FE73800005C3800005E380000F63800001239000060380000606EFFF753FE94F86C0001F0C6
:40070000E3FD94F86C0001F0C7FD02F0F9FBB64BDFF8F0821A78002702F0FB021A701A7842F001021A701A7802F0FE021A701A7802F0FE021A7002F0E7FB0220FFF7E4FC91
:40074000012141F6FF734FF48042084602F034FB84F8AA0001F056FF08F807000137402FF8D1DFF8A4A200270AF199091FFA89F80137402F14BF3A4600221AF8010F224438
:400780000623127E402101F071FF424646F249519AF8000001F07CFF08F14008402F1FFA88F8E5D196F86D3033B100237372637A002BFCD00023737200234FF0FF3223605E
:4007C00062602372236894F8AA002344197E01F0D1FE94F8AA0001F08FFE012194F8AA0001F062FE2368002BFCD0002398467360D6F80CA0012701F097FFE368B4F86E20C2
:40080000CAEB030393420DD367B1042195F8AA0001F0BCFE94F8AA0001F0C8FE0028F9D107463072237AFBB96A682B689A4202D1002FE0D118E00220FFF766FC6968402271
:4008400009EB8111022000F0F9FD6A68674B01321340002BBEBF03F1FF3363F03F03013308F101086360C6E70220277AFFF74CFC00221146022000F0E1FD0220FFF744FC15
:40088000FFB2FFF7B3FC002001F006FD37B15848FFF7F9FC0220FFF71DFD06E0554B08A81B88ADF82030FFF703FD627A4146237A5148FFF7E8FC09E25048FFF7E4FCD4F8CD
:4008C0006E7017F03F0701D00320FDE1686EFFF767FD95F86C0001F0F7FC95F86C0001F0DBFC012001F0F6FC02F00AFB444BDFF814811A7842F004021A701A7842F001021C
:400900001A701A7802F0FE021A701A7802F0FE021A7002F0F9FA01214FF4804341F6FF72084601F0DDFC85F8AA0001F06BFE08F807000137402FF8D1DFF8CC90002709F1F8
:4009400099031FFA83F804930137402F14BF3A46002219F8010F22440523127E402101F085FE414646F24E4299F8000001F090FE08F14008402F1FFA88F8E5D100274FF0BC
:40098000FF33376098467360BB463B46D6F86E9037725FEA99190CBF4FF0010A4FF0000A2168124A01310A40002ABCBF02F1FF3262F03F026068B8BF013282426CD02BB162
:4009C000227A002A77D16A7A002A74D12068049A059302EB8010BAF1000F17D040223F2102F0EEFA1DE000BF996500403F0000801C39000062380000363900004939000085
:400A00009E640040A081FF1F9F81FF1F014601370120FFF7CBFBC7EB0903D3F1000A4AEB030A2168AD4A01310A40002ABEBF02F1FF3262F03F02013222606268059B013221
:400A40002AD12A683F2A27D14FF00008C5F8048001F074FC85F808806B6895F8AA002B44197E01F087FD95F8AA0001F045FD012195F8AA0001F018FD85F80980637A002B3E
:400A8000FCD04FF00008012086F8098001F062FC404601F01FFC00E023B1237A5BB96B7A4BB90123626842453FF47AAF0BF1010BD5F8048074E701F047FC012001F00AFCFB
:400AC000002001F047FC042194F8AA0001F05EFD94F8AA0001F06AFD0028F9D196F8AA0001F0F8FC737A327A0293012303920193CDF800A05B463A4649467948FFF7C3FB59
:400B0000BAF1000F0BD0FFF771FB002001F0C4FB237A63B17348FFF7B6FB0220D4E0B945F1D071490120FFF741FB0137F7E76F48FFF7A9FB6E4B38E094F86C0001F0C4FB59
:400B4000606EFFF72DFC6B48FFF79DFB00236372637A002BFCD0012001F0FCFB00237372637A002BFCD0002001F0F4FB6248FFF78AFB624B19E0002084F85E00FFF710FCCF
:400B80005F4B12E094F8683023B195F869200AB985F86C2094F869201AB113B9012385F86C305848FFF7B8FB574B1B88ADF8203008A8FFF77DFB89E0FFF79CFB02F07CF8D9
:400BC000002002F01FF82A2701F04AFF002001F0EDFE3A46002108A802F0F2F917238DF820308DF8217001F09FFD002001F048FB002002F0DBF8C82001F058FD0DF12200DE
:400C0000FFF70CFB0DF13600FFF729FB01F08CFD012002F0CBF8322001F048FD0DF12600FFF7FCFA0DF13A00FFF719FB012001F027FB4FF4967001F039FD01F075FD0DF13A
:400C40002E00FFF7EBFA0DF14200FFF708FB002001F016FB4FF4967001F028FD01F064FD022002F0A3F8322001F020FD0DEB0700FFF7D4FA0DF13E00FFF7F1FA012001F05E
:400C8000FFFA4FF4967001F011FD01F04DFD0DF13200FFF7C3FA0DF14600FFF7E0FA002001F0EEFA4FF4967001F000FD01F03CFD002002F07BF8002384F85E3001F07EFF47
:400CC00001F050FE74E70120FFF704FB032000F07BFC0E48FFF7D7FAFFF7FEBB3F00008053390000833900003892FF1F8D3900006438000095390000A33900006638000055
:400D000068380000F281FF1F6A380000B03900002DE9F04172B6884B61221A70A3F5F06301221A801924854A9C7092E803008033062283F8002283E80300522203F5807326
:400D40001A707F4B7F4A1B787F4EDBB2137040F618027E4B00251A8041F2512223F8022C33784FF4F07003F0010343EA450502F0BFF8013C05F003052ED0032DF0D1744BD2
:400D80004FF480721A8007221A70724A002548211570917002221D705D7103F8032C0422DA716D4A6D4C13786D4E43F00103137012F8013C062743F0030302F8013C2378D8
:400DC000012243F0800323705B4B1A70654A137843F02003137000E0FEE707FB056300219A881868013502F0EBF8072DF5D15E485E4E002550F8041F05F1105303F14802D4
:400E000021F0FF074933C9B20B4452005B0002329A4206D012F802EC12F801CC0EF807C0F5E7B0420D44E5D1514A002313609360136193614F4B504F1A68504BDFF888818F
:400E40001A604F4B1A684F4B1A604F4A137843F002031370137C43F0020313742378A2F5863243F040032370413A137843F010031370464A464B07CA03C31A80454A28339D
:400E8000106843F8250C127903F8212C424A07CA03C31A80414AE83B07CA03C31A80404A083307CA03C31A803E4A3F4BA2F5616203CBC2F8100EC2F8141E1378042043F009
:400EC00008031370394B02F5AA521B783D78DBB298F80060EDB203F007010C321B091170F6B2537045F003033B7046F0030388F800302F4B48221A702E4A402313702E492B
:400F0000937013729372082382F81F3220220A7048710A72294A0A20137001F0DDFB284B88F8006044223D70264D1A7094E80F0007C52B80BDE8F08100480040AC0A004853
:400F40000F010049A146004025420040224200400440004006400040A2430040A0430040B5390000E8460040FCFFFF478C00004800760040B40A0048F846004020760040D3
:400F8000B80A004828760040035001406C0A0048C0510040780A0048800A00488C0A0048980A004832510040A40A0048CF0100491D51004001590040235B0040585B004077
:400FC00076580040B0430040F946004008B501F0CBFF03680C2B00D1FEE7FEE7084908B50B68084A1844821A802A01DC086005E001F0BAFF0C2303604FF0FF33184608BD0D
:40100000CC80FF1F8893FF1F80B51148114B0025C0B1A3F1100192C922460439161BB74204D051F8046F42F8046BF7E7114653F8046C8C1AA64202D041F8045BF9E7013884
:401040001033E5E701F096FFFFF7F6F9FEE700BF01000000843B0000124A134B10B51A60124A134C1368134843F4007313600023032B98BF54F823204FEA830188BF0E4A58
:401080000133302B4250F3D10C4B1A780C4B1A700C4B084A1A60FFF73BFEBDE8104001F0EDB900BF0004FA050CED00E014ED00E0000000000080FF1FCD0F0000BC7600403B
:4010C000C080FF1F08ED00E0F8B501F019FF4B4A01271378022643F001031370137C484C43F001031374474B02F5E3521F700B3203F8946C1378054603F07F031370002089
:4011000001F0EAFA2378404A03F0F90323701378384603F0DF03137023783B43237001F0DBFA282001F0D8FA384B30461A7802F07F021A701A7802F0BF021A7023783343ED
:40114000237001F0C9FA2378314A43F0040323700023137053702F4AFF2199540133092BFBD1284601F0D0FE0721172001F0FCFA2949172001F0EAFA0721182001F0F4FAF2
:401180002649182001F0E2FA0721152001F0ECFA2349152001F0DAFA0721052001F0E4FA2049052001F0D2FA0721062001F0DCFA1D49062001F0CAFA0721084601F0D4FA2F
:4011C0001A49072001F0C2FA0721082001F0CCFA1749082001F0BAFA0021162001F0C4FA1449162001F0B2FA07210C2001F0BCFABDE8F84010490C2001F0A8BAA543004076
:40120000944300409D60004012600040F851004084600040AD92FF1F971A0000D1180000951A0000C9190000F5190000251A00005D1A00009D1A0000111B0000214B224AF4
:4012400010B5187000231370204A40201370204A0F2413701F4A13701F4A13701F4A13701F4A13701F4B4FF400021A604FF080721A604FF400121A6020221A6018608020E7
:4012800018604FF480701860174804704FF480001860164B1A70933B19B91A7802F0FE0202E01A7842F001021A70114B03221A70802203F8202C012001F01AFE0D4B04221F
:4012C0001A7010BDC892FF1FCE92FF1FCC92FF1FCD92FF1FC992FF1FB892FF1FCB92FF1F4093FF1F00E100E09E6000409C600040286000401260004070B5074C0546237848
:401300000E461BB9FFF7E0FE0123237031462846BDE87040FFF792BF7892FF1F0A4A002313700A4A13700A4A13700A4A13700A4A13700A4A13700A4A13700A4B03221A7049
:40134000802203F8202C7047CE92FF1FCC92FF1FCD92FF1FC992FF1FB892FF1FCB92FF1F4093FF1F28600040014B1878704700BFCD92FF1F044B1A7802F0FF001AB1187845
:401380000022C0B21A707047CC92FF1F024A0C2303FB002040787047D492FF1F431E072B0CD8074A064B00010344805C5B7800F00F0043EA0020023880B2704700207047FA
:4013C000FC5F00401A4A38B50C2303FB00231B79090C13F0800F00F1FF35044619BF8AB24FF480438BB24FF48042032D18D8DFE805F002070C110021084601F01BF80DE049
:401400000021084600F0FAFF08E00021084600F0D9FF03E00021084600F0B8FF054B1855EDB2072D03D801F0EDF8034B185538BDD492FF1FA492FF1FAD92FF1F431E072B83
:401440002DE9F0470446894615465CD82F4F0C2202FB0072D388DFF8B8A09BB2C3F500739D424FF00C0303FB007388BFD588DB7884BFC5F50075ADB2254A43EA1523060119
:40148000B354B244EBB28AF80130224B1A5C9846FF2A01D1FFF796FF0C2303FB047200215170B9F1000F28D03DB31B4F385D01F011F811232946FE2218F8040001F0D6F8E3
:4014C00006F5C04278321FFA89F118F8040001F0DFF8124D18F80410385D01F04BF80121385D00F0E1FF735D43F002037355735D03F0FD037355BDE8F08703FB047463793A
:40150000DBB28AF80230BDE8F08700BFD492FF1FFC5F0040AD92FF1FA492FF1F706000402DE9F047044615468846002940D0431E072B3FD8FFF732FFA84203D22046FFF7CA
:401540002DFF05461D4E335DFF2B03D141462046FFF738FFDFF868A027011AF8040000F0B9FF1223FE222946305D01F07FF807F5C0411FFA88F27831305D01F089F8DFF854
:401580004490315D1AF8040000F0F4FF01211AF8040000F089FF17F8093043F0020307F8093017F8093003F0FD0307F8093002E00D4600E000252846BDE8F087AD92FF1FD4
:4015C000A492FF1F70600040431E072B0AD8064A0C2303FB002300225A705A79034BD2B200011A54704700BFD492FF1FFE5F0040431E072B9FBF024B000108221A5470474D
:40160000FE5F004030B51A4A1A491B4D0878138803449BB21380194A00231488D8B2A4B27CB1082B0CD050680078C0B2E85450680133013050601088013880B21080ECE768
:4016400018460B780E4C082B0E4A00D040B10E4D2B7883F080032B700F232370022301E0022323701370094B1870087030BD00BF4493FF1F4093FF1F00600040BC92FF1F5C
:40168000B992FF1FCE92FF1FCA92FF1F4193FF1F074B02221A70074B80221A70064B0F221A70064A00231370054A012013707047CE92FF1FCA92FF1FB992FF1F4093FF1F5B
:4016C0004193FF1F30B5164B16491B780A8803F00F03023BDBB21A4492B20A80124C134A0020118889B279B173B15568215C013BC9B229705168DBB20131516011880130B9
:40170000013989B21180ECE7094A1370094A137883F080031370084B0B221A7030BD00BF296000404493FF1F00600040BC92FF1F4193FF1FCA92FF1FB992FF1F064A0623D5
:401740001370064A01201370054B80221A70054B00221A70704700BFCE92FF1FB992FF1FCA92FF1F4193FF1F054B9A683AB19A68044910709A680988518000229A6070476E
:40178000BC92FF1F4493FF1F08B5124B1A78D2B21A701B78DBB21A0602D50F4A137008BD0220FFF7E1FF0D4B1B7803F06003202B05D0402B06D043B900F012FC04E001F0ED
:4017C000A7FB01E000F046FD10B9034B03221A7008BD00BF28600040B992FF1F0060004008B5084A084B0120197813880B449BB21380064B00221A70FFF7B6FF044B03221E
:401800001A7008BD4493FF1F4093FF1FCE92FF1FB992FF1F08B50C4B1B78DBB2042B07D0062B09D0022B0DD1BDE80840FFF7D8BFBDE80840FFF746BF0320FFF795FF034BE0
:4018400003221A7008BD00BFCE92FF1FB992FF1F08B5054B002201201A70FFF785FF034B03221A7008BD00BFCE92FF1FB992FF1F08B50A4B1A7832B11A78094942F0800273
:401880000A7000221A70074B002201201A70FFF76BFF054B03221A7008BD00BFB892FF1F08600040CE92FF1FB992FF1F074B1B78DBB2042B05D0062B05D0022B05D1FFF794
:4018C000A1BEFFF7C5BFFFF7D3BF7047CE92FF1F38B51D4C2378DBB2DD0634D518060AD503F00F03012B2ED1FFF74EFF174B1B78190609D538BD5A0602D5FFF7D7FF03E0AB
:401900009D0620D5FFF786FF23781B061BD4104B1A78104B1B7813430F4A13701278934211D10A4A0849154613782078DBB2000605D41378DBB20B700B7803F00F03287851
:401940008342F1D138BD38BD28600040B992FF1FCA92FF1F4193FF1F29600040054A00231380054A916819B191680B7092685380704700BF4493FF1FBC92FF1F0E4808B54E
:4019800003889BB213B9FFF783FE13E00B4B02221A700B4B00221A70FFF7E0FF094AD1799379028843EA012392B2934238BF0380FFF728FE012008BDBC92FF1FCE92FF1F3B
:4019C000CA92FF1F00600040084B01221A700F3B9B7C074B1A7B02F00302012A1EBFDA7B82F08002DA7301225A7370470B600040D492FF1F094B02221A700F3B93F82230F1
:401A0000074B1A7E02F00302012A1EBFDA7E82F08002DA7601225A76704700BF0B600040D492FF1F0B4B04221A700F3B93F83230094B93F8242002F00302012A1EBF93F89F
:401A4000272082F0800283F82720012283F82520704700BF0B600040D492FF1F0B4B08221A700F3B93F84230094B93F8302002F00302012A1EBF93F8332082F0800283F815
:401A80003320012283F83120704700BF0B600040D492FF1F7047FFF741BC0000F0B5184B184E19780C27C9B201234FF0000C31B3CA0720D5144A4FEA031E7244947850788D
:401AC0002040C5070DD507FB03652C79240608D5147804F0FE0414706D790C4CEDB204F80E50840706D507FB036425792D0658BF84F801C090700133DBB24908D7E7F0BD14
:401B00009F600040D492FF1F70600040FE5F004000F0ACBC70B50446184B88B003AA03F11006154618685968083303C5B3422A46F7D11B782B70FCB12223237001AD0323C9
:401B40002846637000F08AFE002220461146AB5C08AC04EB131414F8144C03F00F03847008AC234413F8143C0132082AC1700371417100F10400EAD108B070BDDF390000B8
:401B80002DE9F0431C4D01222E460C201F274FF0800E4FF0080C194B00FB02581401234418705F70164998F805902144B9F1000F07D098F8044024064CBF887081F802C009
:401BC00001E081F802E000FB0261CC880132E4B29C71CC88092AC4F30724DC71CC88E4B21C71C988C1F307215971D4D1054BFF221A70BDE8F08300BFD492FF1F70600040F2
:401C0000FC5F00400A600040064B074A1B7802EBC30253681A7C824286BF03EBC003586900207047C892FF1F403A00002DE9F84F424B1A78002A7ED01878414D0138C0B226
:401C4000FFF7E2FFA8463F4AC3681478007ADFF800C1E4B203EBC0000C2600274FF0010E834268D01A78A24263D11CF80420597891425ED19A7893F8039002F07F0206FB0C
:401C800002FA05EB0A01CF7093F802B009F0030981F804B093F803B005F80AB0B3F804A0A1F808A093F902A0BAF1000F0BDAB9F1010F0CBF4FF007094FF00D0981F80590F6
:401CC00081F801E009E0B9F1010F0CBF4FF005094FF0090981F805904F704FEA02191A4906FB0282494481F802E0B2F808A0CAF3072A81F800A0B2F808A05FFA8AFA81F88C
:401D000001A0B2F806A011495FFA8AFA494481F806A0B2F80690C9F3072981F80790B2F806905FFA89F981F80490D288C2F307224A71083394E7BDE8F88F00BFCD92FF1F5A
:401D4000D492FF1FC992FF1FFC5F004070600040BA92FF1F08B5064B18780138C0B2FFF753FF20B143681B7900EBC300406908BDCD92FF1F00212DE9F84F0B464E4E0C2779
:401D800007FB01F401313219092933554FF000059370494CD3701381937253705371EFD118B1464B1D70464B1D70464B1A78002A7FD0187801250138C0B2FFF725FFA846EC
:401DC0004368DFF8F8E0DB790C2713F0400F3E4B4FF0000C1A7814BF42F0010202F0FE021A70027AD20007FB0541C36803EB02094B4531D093F802A00AF07F06AE4229D1E5
:401E00000E89B3F804B0B6B25E4538BFA1F808B01E7893F801B01EF80660B3451AD181F804A0DE780E7093F902A0DE78BAF1000F06F0030607DA012E0CBF07260D264E7100
:401E400081F8018006E0012E0CBF052609264E7181F801C00833CBE70135092DC3D1C1680A328B1C0A440C200833934209D013F8081C13F80A5C01F07F0100FB01418D728C
:401E8000F2E7FFF767FF114B0121186000230C2000FB0142D3801289013113449BB203F00102134409299BB2F2D1BDE8F84FFFF767BEBDE8F88F00BFD492FF1FBA92FF1F37
:401EC0004293FF1FCD92FF1FCB92FF1FD092FF1F114B1B7903F07F035A1E072A19D80F490C2202FB031291781B0141F0010191700021D170517841F002015170127912F0DA
:401F0000800F074A1A4414BF8D2389239370FFF715BC0020704700BF00600040D492FF1FFC5F004030B4194B1A7902F07F02531E072B27D8164B0C2404FB02339978154DED
:401F400001F0FE0199700021D97029461201505D114400F07F0050555A7802F0FD025A701A795B78120605D5012B01D18C7006E00D2303E0012B0CBF082309238B7030BC59
:401F8000FFF7DCBB002030BC704700BF00600040D492FF1FFC5F004010B50D4B0D4C21791878C9B20138C0B2FFF72EFE43681B798B4201D2012909D8074A0848535CDBB2A4
:401FC0004354A3780120DBB2535410BD002010BDCD92FF1F00600040BA92FF1F4293FF1F38B58A4A8A4C13780021DBB221801806517840F18D800A2900F20581DFE811F09D
:402000005D00030103010301030103010B0003017E0003018200D3787C49012B09D17D4B1A787D4B03EBC2035B685B686360122310E0CB78022B12D18878FFF7E5FD002870
:4020400000F0E180436863606368DA7863689B7843EA02232380BDE83840FFF78FBCCB78032B26D16D4B00228878D5B2854209D3664A91786A4AEE2908BF1346634A91788D
:4020800081B106E0187801320028F1D018780344EAE764499278097C914203D16248FFF739FD614B1A78002A00F0AD801A78228018E0BDE8384000F02BBF13F0030313D067
:4020C000022B40F0A0802380504B0C211B7903F07F02564B01FB02339A78554BD2B21A7000225A706360B6E702222280514A11784F4AC9B2117053706260ACE701232380B4
:402100004D4BEFE70123238013794C4A1344E9E701390A2977D8DFE801F037764F76067676760A7620009378454ADBB25AE0937803F0FF0153B9404B1A7891425FD0197020
:40214000404B01201870FFF715FE58E0481EC0B2FFF75AFD0028EED155E0FFF71DFF002851D02A4A384913791279DBB2D2B20A70364A3249D25CCB5C9A4240D0314B0122DC
:402180001A70FFF753FD3AE003F00303012B2BD009D3022B37D11D4B9B78002B33D1BDE83840FFF7BFBE194B9B78012B2BD1214A137803F0FD0315E003F00303012B13D045
:4021C00008D3022B1FD1114B9B78E3B9BDE83840FFF77EBE0D4B9B78012B14D1154A137843F0020313700AE0084B1A795AB998781B791749DBB2CA5C22EA0002CA54BDE801
:402200003840FFF79BBA002038BD00BF00600040BC92FF1FC892FF1F403A0000A43A00002C3A0000173B00006093FF1FD492FF1F7992FF1FCB92FF1FCD92FF1FBA92FF1F53
:40224000B892FF1FCC92FF1FC992FF1F4293FF1FCF92FF1F074B1A78120609D55B78012B06D1054B054A5A6012781A80FFF786BB0020704700600040BC92FF1F043A00000A
:40228000014B1870704700BF7B650040014B1878704700BF6C640040014B1870704700BF78640040064A0123136002F688321268E0211064034A1170A2F540721360704723
:4022C00080E100E000E400E0014B1870704700BF7B640040014B1870704700BF7865004073B515461E460B4C05230022019200920A4601461846237000F064F932462946A0
:40230000207800F01FF90221207800F009F9207802B070BDD080FF1F064A0423136002F688321268E0219064034A1170A2F202321360704780E100E002E400E0014B042227
:402340001A60704700E100E0014B04221A60704780E100E0014B1870704700BF7A640040704738B505460078012428B100F068FD285D0134E4B2F8E738BD08B50D2000F067
:402380005FFDBDE808400A2000F05ABDF7B516461F460B4C00230325019300930A4601462846257000F00EF93A463146207800F0C9F80221207800F0B3F8207803B0F0BD4E
:4023C000E080FF1FF7B516461F460B4C00230225019300930A4601462846257000F0F2F83A463146207800F0ADF82946207800F097F8207803B0F0BDE180FF1FF7B516468D
:402400001F460B4C00230125019300930A4601462846257000F0D6F83A463146207800F091F80221207800F07BF8207803B0F0BDE280FF1F73B515461E460B4C0023019385
:4024400000930A4601461846237000F0BBF832462946207800F076F80221207800F060F8207802B070BD00BFE380FF1F024B1878C0F38010704700BF8F450040074A7F236A
:40248000802113705170064A013BDBB202F80839002BF9D1034A1370704700BFE480FF1FF87B00400078004017280FD8084B0001C25C11B142F0200201E002F0DF02C25443
:4024C000C25C42F00102C25400207047012070471070004017280BD8064B0001C25C02F0FE02C254C25C02F0DF02C25400207047012070471070004017280DD8074900017F
:402500000B4603441A7942F004021A71435C43F00103435400207047012070471070004017280BD8064A0001835C490003F0F10301F00E011943815400207047012070476F
:402540001070004041F6FF73994208BF4FF400519A4208BF4FF4005217289FBFC00000F1804000F5EC4081809ABFC280002001207047000017289FBF034B00011954002048
:4025800088BF0120704700BF1970004017289FBF054B00011A5C01F007019DBF1143195400200120704700BF1470004017289FBF034B0001185C00F0070088BFFF2070470B
:4025C00014700040172810B51AD8C00001F07F0100F1804441EAC21204F5EC44D2B222709DF8082003F00F0343EA0213DBB263709DF80C30002003F00F03A370E07010BD73
:40260000012010BD10B500F07BFC0A4A5378182B0AD91478013B5370E30003F1804303F5F0431B78137000E0FF2400F06DFC204610BD00BFE480FF1F030610B5044611D408
:4026400000F05EFC084AE300117803F1804303F5F04319705378147001335370BDE8104000F052BC10BD00BFE480FF1F30B504060CD411F4704509D1C40004F1804404F5C7
:40268000F0442180A270E370284630BD012030BD03065FBFC00000F1804000F5F04081805ABFC280002001207047000038B50446084DB4F5004F05D9286800F019FCA4F5D6
:4026C0000044F6E7034B58686043BDE8384000F00FBC00BFEC80FF1F024B1B7A584300F007BC00BFEC80FF1F0E4B00F003001A78490102F0FC02104318701A7801F0600197
:4027000042F080021A701A7802F07F021A701A7802F09F020A431A701A7842F010021A70704700BF83430040014B01221A70704784430040044B00F00F021B6853F82200FD
:4027400043F82210704700BF08ED00E0054A00F01F00126800F1100352F8230042F82310704700BF08ED00E000F01F0000F16040490100F56440C9B2017070470F4B10B55B
:402780000F4900240F205C609C60DC601C615C61FFF7D0FF0B4A136843F0040313600A4B4FF47A72DB68B3FBF2F3084A1360084B4FF400421C60C3F8E82010BD7C92FF1FCF
:4027C0002928000010E000E0EC80FF1F14E000E018E000E0024A136843F002031360704710E000E008B5FFF7F5FF034A136843F00103136008BD00BF10E000E010B5054C06
:40280000A3691BB9FFF7BAFF0123A361BDE81040FFF7E8BF7C92FF1F024B1868C0F30040704700BF10E000E038B5FFF7F5FF012808D1054D002455F8243003B19847013465
:40284000052CF8D138BD00BF8092FF1F024B03EB80035868596070477C92FF1F134B144A1B78DBB20360127843EA0223114A0360127843EA0243104A0360127843EA0263B2
:4028800003600E4B0E4A1B78DBB24360127843EA02230C4A4360127843EA02430A4A4360127843EA02634360704700BF0301004904010049EC4600400201004901010049A0
:4028C00000010049050100490601004910B500F017FB204A044613780A2043F002031370137C43F00203137412F80A3C43F0010302F80A3C937943F00103937102F5AB52B4
:40290000137843F003031370134B18221A7013F8012C42F0400203F8012C13F8012C02F0FC0203F8012CCE2203F8062CA3F597530222183B1A70094A137843F008031370CB
:40294000FFF7CAFE064B10222046BDE810401A6000F0DABAAB4300400E5900402F5B004080E200E008B500F0CBFA0F4A137803F0FE031370A2F5AA521D3A137803F0FD03A7
:402980001370137C03F0FD03137412F80A3C03F0FE0302F80A3C937903F0FE039371BDE8084000F0B1BA00BF08590040044A137803F03F0343EA8010C0B21070704700BF28
:4029C00008590040082804D00A280CBF8223C22300E0422308380E4AC0B20428137098BF0C4B4FF0000298BF33F910100A4B88BF11461A8042F210734B4341F2883103F664
:402A0000C41393FBF1F305490B60054B1A8070470A590040F03900004A93FF1F4C93FF1F5093FF1F08B5102000F0A6F907210420FFF79AFE07490420FFF788FE064A0C206C
:402A4000137843F006031370FFF7BCFF034B00221A8008BD1D2B0000095900404893FF1F10B5054C23781BB9FFF7DCFF01232370BDE81040FFF72ABF9892FF1F044B1A789F
:402A800002F0FB021A701A7842F001021A7070470859004010B5084B1C7814F0010403D10028F9D0002404E02046FFF715FE024B1B78204610BD00BF09590040034A044BF3
:402AC0001B881088181A00B2704700BF5093FF1FA25B00400E4A13881BB223B111880A2309B2594301E00B4B19680B4B1B88C01A42F2107300B203FB00F2022391FBF3F3D7
:402B00000028D8BF5B42134493FBF1F000B270474A93FF1F4C93FF1F4893FF1F7047000010B500F0EDF9214A044613780A2043F001031370137C43F00103137412F80A3C06
:402B400043F0020302F80A3C937943F00203937102F5AA521832137843F003031370144B18221A7013F8012C42F0400203F8012C13F8012C02F0FC0203F8012CCE2203F8DF
:402B8000062CA3F597530222123B1A70094A137843F008031370FFF79FFD074B08222046BDE810401A6000F0AFB900BFAB43004006590040275B004080E200E008B500F04F
:402BC0009FF90F4A137803F0FE031370A2F5AA52153A137803F0FE031370137C03F0FE03137412F80A3C03F0FD0302F80A3C937903F0FD039371BDE8084000F085B900BF94
:402C000000590040044A137803F03F0343EA8010C0B21070704700BF00590040082804D00A280CBF8223C22300E0422308380E4AC0B20428137098BF0C4B4FF0000298BF60
:402C400033F910100A4B88BF11461A8042F210734B4341F2883103F6C41393FBF1F305490B60054B1A80704702590040FA3900005693FF1F5C93FF1F5493FF1F08B51020DA
:402C800000F084F807210320FFF76EFD07490320FFF75CFD064A0C20137843F006031370FFF7BCFF034B00221A8008BD752D0000015900405893FF1F10B5054C23781BB92A
:402CC000FFF7DCFF01232370BDE81040FFF728BF9992FF1F044B1A7802F0FB021A701A7842F001021A7070470059004010B5084B1C7814F0010403D10028F9D0002404E0B4
:402D00002046FFF7E9FC024B1B78204610BD00BF01590040034A044B1B881088181A00B2704700BF5493FF1FA05B00400E4A13881BB223B111880A2309B2594301E00B4B8D
:402D400019680B4B1B88C01A42F2107300B203FB00F2022391FBF3F30028D8BF5B42134493FBF1F000B270475693FF1F5C93FF1F5893FF1F70470000034A00F0F8001378F0
:402D800003431370704700BF02410040034A00F0F800137803431370704700BF06410040014B1870704700BF7D640040014B1870704700BF7C64004073B515461E460B4CB8
:402DC00004230022019200920A46014618462370FFF7F8FB324629462078FFF7B3FB02212078FFF79DFB207802B070BDFC80FF1F074A0223136002F688321268E0215064AD
:402E0000044A11706FF440710A441360704700BF80E100E001E400E0014B1870704700BF75650040014B1870704700BF74650040014B1870704700BF7F640040000000003E
:402E4000FEB5494652465B460EB40746244909688A46244A12682448022100F071F8030020480068C018204900F06AF8143883460121C9430C460125002600F041F8814613
:402E800051460B7823400B705846013000F030F83800F04028400B78234003430B70584600F026F80136072EF2D9002001300138013001200B78234003430B705846043084
:402EC00000F016F8484600F01FF800BF00BF00BF0EBC894692469B46FEBD00BFAFF30080D480FF1FF880FF1F00C20100000000000230800803D000BF01380046FCD17047FA
:402F0000EFF3108072B6704780F31088704700BF094A137803F00303012B0AD0022B09D113790C2103F07F02044B01FB02339B7A00E013790020704700600040D492FF1FB2
:402F4000002902D0B0FBF1F0704708B14FF0FF3000F008B80029F8D00246B0FBF1F000FB11217047704700BF014B1868704700BF6081FF1F0E4B70B51E460E4C0025E41A7D
:402F8000A410A54204D056F8253098470135F8E700F0DEFD084B094C1E46E41AA4100025A54204D056F8253098470135F8E770BD5C3B00005C3B00005C3B0000643B00007A
:402FC00003460244934202D003F8011BFAE7704730B5141E05469BB0184604DA8B232B604FF0FF301DE04FF40273ADF80C300CBF234604F1FF33029305934FF6FF730091F6
:403000000491ADF80E3002461E9B6946284600F073F8431CBCBF8B232B6014B1009B00221A701BB030BD000007B5009313460A46014603480068FFF7CBFF03B05DF804FB0F
:403040006081FF1F2DE9F0478E6882469E420C46914698463ED88A8912F4906F3AD02568096902236F1A656905EB450595FBF3F57B1C43449D4238BF1D4653050FD52946F8
:4030800000F04AFB064698B13A46216900F0D2FAA38923F4906343F08003A38113E02A4600F098FB064670B92169504600F0E8FA0C23CAF80030A3894FF0FF3043F04003F2
:4030C000A381BDE8F08726613E44266046466561ED1BA560464528BF464649463246206800F0B3FAA36800209B1BA36023681E442660BDE8F08700002DE9F04F9DB00393CD
:403100008B8980461C060D4616460DD50B695BB9402100F001FB2860286118B90C23C8F80030CDE040236B610023099320238DF82930DFF89CB130238DF82A3037463C461B
:4031400014F8013B1BB9B7EB060910D003E0252BF9D02746F3E74B46324629464046FFF771FF013000F0A780099B4B4409933B78002B00F0A08000234FF0FF320493079332
:40318000059206938DF853301A930126052221784E4800F041FA671C049B38B14B4A3C46801A06FA00F018430490EFE7D90644BF20228DF853201A0744BF2B228DF853208C
:4031C00022782A2A03D0079A00210A200BE0039A111D12680391002A10DA524243F00200079204900BE027463B780134303B092B03D800FB02320121F5E701B107923B786F
:403200002E2B1ED17B782A2B0AD1039B02371A1D1B680392002BB8BF4FF0FF33059310E0002319460593781C0A2407463A780130303A092A03D804FB01210123F5E703B109
:40324000059103223978224800F0E6F940B14023CBEB000003FA00F0049B013718430490397806221B487E1C8DF8281000F0D4F988B1194B33B9039B073323F007030833E3
:40328000039314E003AB00932A46144B04A94046AFF3008007E003AB00932A460F4B04A9404600F093F8B0F1FF3F824603D0099B5344099342E7AB895B0601D4099801E019
:4032C0004FF0FF301DB0BDE8F08F00BF2B3B0000313B0000353B000000000000453000002DE9F04791461F460A698B6806469342B8BF1346C9F8003091F843200C46DDF815
:40330000208012B10133C9F800302368990642BFD9F800300233C9F80030256815F0060510D104F1190A07E00123524639463046C04701301AD00135E368D9F800209B1A3C
:403340009D42F1DB94F843302268003318BF012392060FD5E118302081F843005A1C94F845102244023382F8431003E04FF0FF30BDE8F08704F1430239463046C0470130D7
:40338000F4D02268D9F80050E36802F00602042A08BF5D1B2269A3680CBF25EAE57500259342C4BF9B1AED184FF000091A344D4509D00123224639463046C0470130D5D08C
:4033C00009F10109F3E70020BDE8F0872DE9F04317460A7E85B06E2A984606460C460C9B01F1430E00F0AE8011D8632A22D009D8002A00F0BB80582A40F0CA8081F84520BC
:40340000834955E0642A1ED0692A1CD0C0E0732A00F0B08009D86F2A2ED0702A40F0B8800A6842F020020A603EE0752A24D0782A3AD0ADE01A6801F14205111D19601368C2
:4034400084F84230A8E021681A6811F0800F02D0111D196008E011F0400F02F10401196002D0B2F9003000E01368002B3CDA2D225B4284F8432037E021681A6811F0800F53
:4034800002D0111D196007E011F0400F02F10401196001D0138800E01368227E5C496F2A14BF0A2208221BE078225A4984F845202268186812F0800F00F104051D6003D11E
:4034C000550601D5038800E00368D00744BF42F0200222601BB9226822F0200222601022002084F8430001E049490A226568002DA56008DB206820F0040020602BB9002D42
:403500007DD175460CE0002B79D07546B3FBF2F002FB1033CB5C05F8013D03460028F5D1082A0BD12368DA0708D5236962689A42DEBF302305F8013C05F1FF35C5EB0E0360
:4035400023612EE008681A6810F0800F496903D0101D1860136808E010F0400F02F104001860136801D0198000E0196000232361754616E01A68111D1960156800216268C6
:40358000284600F049F808B1401B6060636804E004F1420584F8422001232361002384F84330CDF800803B4603AA21463046FFF797FE013002D14FF0FF3026E023692A46C6
:4035C00039463046C0470130F5D023689B0710D5002504F1190907E001234A4639463046C0470130E7D00135E368039A9B1A9D42F2DBE068039B9842B8BF184605E00B7890
:4036000004F1420584F842308AE705B0BDE8F083DF3900003C3B000010B5C9B202449042034605D01C7801308C42F8D1184610BD002010BD10B5431E0A44914204D011F885
:40364000014B03F8014FF8E710BD884210B501EB020301D8421E0BE09842FBD28118D21AD34204D013F8014D01F8014DF8E710BD994204D011F8014B02F8014FF8E710BD08
:4036800038B50546002944D051F8043C0C1F002BB8BFE41800F0D4F81E4A1368114613B96360146030E0A3420DD92268A018834201BF18685B681218226063600C6023E087
:4036C000A24203D813465A68002AF9D118681918A1420BD12168014458188242196013D110685268014419605A600DE002D90C232B6009E021686018824201BF1068526861
:403700000918216062605C602846BDE8384000F098B838BDA092FF1F70B5CD1C25F0030508350C2D38BF0C25002D064601DBA94202D90C23336046E000F082F8234B1C6831
:403740001A462146A1B10B685B1B0ED40B2B03D90B60CC18CD501EE08C420BBF63684B681360636018BF0C4615E00C464968E9E7174C23681BB9304600F052F8206029464B
:40378000304600F04DF8431C18D0C41C24F00304A0420DD12560304600F053F804F10B00231D20F00700C31A0ED05A42E25070BD211A304600F034F80130EBD10C2333609D
:4037C000304600F03EF8002070BD00BFA092FF1F9C92FF1FF8B5074615460E4621B91146BDE8F840FFF798BF1AB9FFF749FF2846F8BD00F027F885420ED929463846FFF7AD
:403800008BFF044650B131462A46FFF713FF31463846FFF735FF01E03046F8BD2046F8BD38B5064C0023054608462360FDF7D6FB431C02D1236803B12B6038BD8493FF1F15
:403840007047704751F8040C0028BEBF091851F8043CC0180438704700000000050209020B020D020F021102130215027265706C792030782530327800686F6D696E670074
:40388000626567696E6E696E67207365656B2066726F6D20256420746F2025640066696E6973686564207365656B00796573006E6F00647269766520303A202573206472D4
:4038C00069766520313A2025730057616974696E6720666F72205553422E2E2E0055534220726561647900636F6D6D616E6420307825303278006661696C2025642B2564B5
:403900002B2564203D3D2025642C206E6F74202564007061737365643D256400756E64657272756E206166746572202564207061636B65747300636F756E743D2564206933
:403940003D256420643D256400636D645F777269746500703D25642063723D25642063773D256420663D256420773D256420696E6465783D256420756E64657272756E3D51
:40398000256400756E64657272756E2100737563636573730073746172742065726173696E670073746F702065726173696E670069646C65000051004010004051004030AB
:4039C0000000000140001000140140000800400140000A004C0140000200500140200030313233343536373839414243444546000001000000040000001000010000000492
:403A00000000001028000000000104000100000000000000000157494E5553420000303030303100000000000000000012034D00530046005400310030003000010000009D
:403A400001000000483A000001000000173B0000000000000000000001000000603A000001000000E93A000004000000823A0000000000000000000000000000803A000037
:403A8000FF00000001024000FF00000082024000FF00000003034000FF00000084034000FF00020304030904160346006C007500780045006E00670069006E0065002A03A3
:403AC00043006F0077006C00610072006B00200054006500630068006E006F006C006F0067006900650073000009022E0001010080320904000004FF0000010705010240A2
:403B00000000070582024000000705030340000A0705840340000A12010002FF0001080912006E0100020180014300232D302B2000686C4C00656667454647003031323359
:403B400034353637383961626364656600000000F8B500BFF8BC08BC9E4670475900000059100000F8B500BFF8BC08BC9E46704735000000883B0000C880FF1FA0000000EB
:403B80002012000000000000000000008893FF1FFF000000675000400C00000007000000FFFFFFFF7F8000003F0000000000007D00FA0000400000000090D003FF0000003E
:403BC0000000000000000000000000000000000000000000000000000000000000000000293B00000000000000000000000000000000000000000000000000000000000061
:403C000000000000000000000000000000000000000000000000000000000000000000000081FF1F00000000000000000000000000000000000000000000000000000000E5
:403C40000000000000000000000000000000000000000000000000000000000000000000000000000000000000000000000000000000000000000000000000000000000044
:403C80000000000000000000000000000000000000000000000000000000000000000000000000000000000000000000000000000000000000000000000000000000000004
:403CC00000000000000000000000000000000000000000000000000000000000000000000000000000000000000000000000000000000000000000000000000000000000C4
:403D00000000000000000000000000000000000000000000000000000000000000000000000000000000000000000000000000000000000000000000000000000000000083
:020000040003F7
:0200000480007A
:400000000145004009520040015B0040016400400603014005050140070701405F080140530901405A0A0140550B0140550C0140470D0140590E0140330F01403A140140FE
:400040003A150140061701404C18014054190140401A0140511B014009400140124101400C4201400C43014002440140064501400B4601400C4701400B4801401249014051
:40008000174C01400B4D014006500140045101407E02084109441082110218041901601361197C402721280A84019840B040E208E608EA0691049840A001AD04EE22882036
:4000C00091049840A001E202EA01EE04001001020220045A062008860A780C480D0410C0120114481A401C021E0420482448284829012E0430803101323F34403502370451
:4001000038083E113F5140254602480449FF4AFF4BFF4D204EF051105608580459045A045B045C095D995F0161086240634064806640674080088172821083808410851019
:40014000862189048AE48B088D088F0492149301941095109682990E9BF09D109E14A01FA140A240A380A580A720A910AA14AD02AE14AF0CB1FFB2F0B3FFB60FB90ABA0874
:40018000D80BD904DB04DC99DF0102200388055609460C060F2611201202130214401548172018201A021B881C801D241E102101232024022611280429062B012C083002BA
:4001C0003158396A3F8145204C01574058015A025C205D80652067016A806B036C086E407A8084208B018C108E01908091689314940895029690984099529B109D049E400A
:400200009F22A10AA202A311A442A510A664A78EAE80C0FEC2FDC4FBCA2FCC0FCE9FD020D210D630D830DE01E620EA01EC08EE040080020C0310050106040702080C090107
:400240000A100B040D800E02100111771202140C164018031AFC1B601D011E081F06214022022317240C26F12708280C29172A202B202CFF2D01318032FF330F35703E04DE
:400280003F01580459045B045C905F01821483108404861087038B108C048D408F9C900A9120941495C19708980A99C19A149B049E209F10A014A180A208A350A404A81432
:4002C000AB10AC18ADDCAE01AF02B1C0B238B31FB407B638B720B820BF40D804D908DB04DC99DF01002401C2040405420A560E5610121101120113201450150816011720DE
:4003000019081C281D181E041F4021042210234424C025042682271029992E802F8830023210334036643701380239A43C403D2A4680470264406640678269806F017F0103
:4003400084408B4090069165924293109448950A9680970299439B409C109D149E409F22A103A201A311A406A508A624A786AA10AE40B140B340B402B504C0BFC2FFC4FFC7
:40038000CABFCCFDCEFFDE10E002EC04EE20008001010218030604180640080709080AF80D020E080F0110FF11071418150716E0180119071A021E071F082018210422204D
:4003C0002301261028012A062C012E04310736FF370839803E403F40580459085B045C905F0181018202830A851086038720880889018C028D4090029402980199059D3028
:400400009E04A020A101A218A306A402A802A920AB10AC18AD05AE20B008B103B210B330B407B540B620B70CB820BE41BF10D804D904DB04DC99DF010008010203090556DE
:400440000701080209880A040C020D180F02105012831320154A1710180419811A441B191E0222922310254328402B062F803110324036643702380839803A013B203C4049
:400480003D125F8069806D106E807F018510900291659202932095089644974099429BD09D959E409F20A180A402A508A712AA08AD40C0FFC2FFC4FFCA8DCCFCCEBFD610D2
:4004C000DE10E208EA80014002C003020440054007080840093E0A200B400C010D400F20120F140F154016201710197E1A101C011D401E0E1F04200121802202237E240161
:400500002580260428012A082CEF2F0130603280361F37FF3A023F40400546C0470E481849FF4AFF4BFF50045601580459045A045B045C095D095F0162C0800181018202EE
:400540008404864088038AFC8C048EF990FF940496109A049C809E04A202A404A608A804AA20AE02B101B2FFBE04BF01D608D804D904DB04DD90DF010158024005550A61B4
:400580000B080C020D080E040F02100A110515481722194A1A021B011F042180278029012B123008311032103340382039443A023F014980520853105F4067016808696565
:4005C0006B506D807011720373028912C0FFC2FFC4FFCA0BCC0ECE8FD208D610D8100008031006080A020B020E010F011006110612011301140515051602170218071910F5
:400600001C041D0422082407250729082F1033103407350736083708388039083E403F445608580A590A5B045C995D905F01810482018D068F0195059702A401AB02AF0133
:40064000B507B601B880BE40BF10D804D904DB04DF01000301540320040109A00A5010301240150419201B801E0221282302262028102A602D50318033263704380139506E
:400680003E403F0258406180630269506E506F06790881408524878089188A408E01910498409A209F02A021A620AB02C01FC20FC42CCA3ECC4FCE9DD608D808DE02E020FD
:4006C000E298E402EE0282208E2091049840A021EE0A0020010202C00311051F069C078009010A900B1E0E030FE0111F1290134018C1191F1A281B201E9020FC210422025B
:400700002311240126442A902D082E902F1130E0350F361F37F03A023B80580B590B5B045C995F018390852087C08A018B038F90939C979099C19B249DFC9F02A001A39013
:40074000A901AB48AF90B201B3E0B51FBB08C206C50EC801C9FFCAFFCBFFCF83D804D90BDA04DB04DC99DD09DF0101200420054106100D420E0813021514160217021B0463
:400780001D412114220823082402255026402704280129102A012C012F4031023260330436203702388239E83A023B803DBA450348204B1059405A015B185C805E2061215A
:4007C000620863026C026F027A807E8088018A108E4090A092C29310940898819A019B129C209E40A102A210A340A422A554A6E4A706A880A9A0B601C0F2C2D0C4F8CA9DE7
:40080000CCAFCEFFD204D63FD80FDE81E640EA04EE0A023003100604070308100A410B1C0E040F101204131014101682171019011A081B081E0420C72228231029012A04C6
:400840002B042D1C2EC42F0230F4340F351F3A205608580B590B5B045C995D905F018103821086108A108E109103921098019A089D019E03A01CA202A401A604AA1CB30145
:40088000B61FB702D608D80BD90BDB04DC99DD90DF0101420210030804A0050909060A060D020E0911A012041302150416841702180819221A041B011E0120042120250423
:4008C000264429012A802B08311233043640370238A63A103F0149104A04588059015A025D8062C067016C027A807E8085048660870888828C018D0890A291409202940897
:400900009504960199809B069D309E40A152A524A6A4A701B180B420B740C0FFC2DFC47BCA0DCC97CE8FD618D818DE81E020E420E680EE021B011F083240330836843B4086
:40094000C630CCF0CE103384364838043D808608900496809740A108A604A804AD08AE80AF01CCF0CE60E210EA6052105580968097409A109F04A108A540A644A780B21020
:40098000D460854096809740A108A5C0A640A780AA04AB04E240EA80EE201440C4045D025F808601B040D605EA011B048780888096019D209F80A902B120C608E004EA04EB
:4009C00008080B010E010F4093089601970198809D20AB05AF04C20F2640824096809740A108A580AE40AF80C820E680EE505305550875027880830185028A408B048C808A
:400A0000A108A240A980AF40D4E0DC80DE20E630EEC0052008080C841F105208571058806708930898809D20A310A480A880AC08AF40B710C001C20DC601D407D801E80871
:400A400077808B80AF10B004B408B608DE04E404EA02EC02EE0101010D010F0111011B011D0100FF01AB020211050000BF0000A09F001F0000000000000000001000000096
:400A80004000000000000000C0000000FF0000B8470047000001000080000002820082000000000000070700070000002700180127001801000400000005000000000000CC
:400AC00000000000000000000000000000000000000000000000000000000000000000000000000000000000000000000000000000000000000000000000000000000000F6
:400B000000000000000000000000000000000000000000000000000000000000000000000000000000000000000000000000000000000000000000000000000000000000B5
:400B40000000000000000000000000000000000000000000000000000000000000000000000000000000000000000000000000000000000000000000000000000000000075
:400B80000000000000000000000000000000000000000000000000000000000000000000000000000000000000000000000000000000000000000000000000000000000035
:0200000490006A
:0400000000000007F5
:0200000490105A
:04000000BC90ACAF55
:0200000490303A
:02000000E573A6
:0200000490402A
:4000000000000000000000000000000000000000000000000000000000000000000000000000000000000000000000000000000000000000000000000000000000000000C0
:400040000000000000000000000000000000000000000000000000000000000000000000000000000000000000000000000000000000000000000000000000000000000080
:400080000000000000000000000000000000000000000000000000000000000000000000000000000000000000000000000000000000000000000000000000000000000040
:4000C0000000000000000000000000000000000000000000000000000000000000000000000000000000000000000000000000000000000000000000000000000000000000
:0200000490501A
:0C00000000012E16106900002E2FF5DC08
:00000001FF