:4000000000800020110000000110000001100000064A08B5136843F020031360044B1A6803F53F5302331A6001F008F8E8460040FA46004010B5054C237833B9044B13B103
:400040000448AFF300800123237010BD6881FF1F0000000068380000084B10B51BB108490848AFF300800848036803B910BD074B002BFBD0BDE81040184700BF00000000A1
:400080006C81FF1F68380000C880FF1F0000000072B6034A13680133136062B6704700BF8881FF1F0A4A0B4B516801310B40002BBEBF03F1FF3363F00F0301335360516830
:4000C0009368994202BF024B01221A73704700BF8881FF1F0F0000800A4A0B4B916801310B40002BBEBF03F1FF3363F00F030133936091685368994202BF024B01221A7379
:40010000704700BF8881FF1F0F000080024B012200205A7302F038B98881FF1F10B5C4B2204601F04DF90128FAD110BD10B50446094B9A7B987382421CBF0022DA7310F002
:40014000010F14BF0220012002F04AFE6008BDE8104002F03FBE00BF8881FF1F70B5C4B220460E4601F034F9314605460246204601F0F0F9204601F023F90128FAD028465C
:4001800070BD000038B50B4C257C55B9A07BFFF7CDFF012002F08EF84FF47A7002F0A0FAE5732368636101232374BDE8384002F0D5BA00BF8881FF1F38B50446C5B22846EE
:4001C00002F084F8062002F0A1FA44F00200C0B202F07CF8062002F099FA284602F076F8BDE83840062002F07BBA10B5642402F067F820B10120BDE81040FFF7DDBF0120B5
:40020000FFF7DAFF013CF2D1F4E7000038B5044D0024285D013402F029FA102CF9D138BDA081FF1F08B502F043FC002002F04CFC02F05EFC02F068FC80B208BD10B50446B9
:40024000012002F05BF8642002F04AFAFFF7EAFF2080002002F052F8642002F041FAFFF7E1FF608010BD08B502F04EFD002002F057FD02F069FD02F073FD80B208BD10B579
:400280000446FFF7B2FF322002F02AFAFFF7EBFF20800020FFF790FF322002F021FAFFF7E2FF608010BD0FB400B593B014AB53F8042B402102A8019302F0BEFE02A802F000
:4002C0006AF802F074F813B05DF804EB04B0704710B5044601780648FFF7E5FF0420FFF71DFF62782146BDE81040042001F0C0B87A38000007B50023ADF804308DF806002E
:40030000032301A88DF80530FFF7E2FF03B05DF804FB0000F8B51D4C0646FFF733FFE37B03B156B91A48FFF7BEFFFFF75EFF01200023E073A36202F0E9F93246A16A1548F3
:40034000FFF7B1FF114D0027A36A9E4216D001F0B7FF00B1AF62A36A9E4205DD0020FFF72BFFAB6A013305E005DA0120FFF724FFAB6A013BAB6202F0F1F9E5E7322002F076
:40038000AFF9BDE8F8400448FFF78DBF8881FF1F873800008E380000AB3800002DE9F04F9BB062B602F044FABE49042002F068FABD4801F091FFBD4802F034FDBC4801F091
:4003C000C5FF02F015FC02F0E7FA002002F008FD01F0E0FF0221002000F0A8FFB54D0321084602F09BF92E462C4602F0B7F92B7C73B16A692B689B1A41F28832934207D998
:40040000002001F057FF002002F0EAFC00232B7400F0C4FF18B9A848FFF745FF04E000F0C3FF0028F7D109E000F0B8FF0028FBD0A248FFF738FF032001F0E0F8032000F0CE
:40044000BFFF0128D1D1A07BFFF770FE9C490320FFF784FE94F82C109A48FFF724FF94F82C30023B122B00F2E183DFE813F01300DF031C00DF032200DF033A00DF035E003E
:40048000DF039501DF032003DF033F03DF034503DF03510303238DF828308DF8293008238DF82A3030E394F82E00FFF733FF864B27E3FFF767FE00236373637B002BFCD057
:4004C000002373733268637B002BFCD0336807218DF828109B1A04218DF82910ADF82A3012E30220FFF71AFE4FF000090DF1280A4FF480780027C8EB0903DA1907F80A2093
:400500000137402FF9D10220FFF708FE3A465146022000F0ADFFB8F10108EBD109F10109B9F1400FE4D1694BBCE294F82E0001F0E5FEA06AFFF7EEFE02F0EAFC644BDFF80D
:4005400094811A78002742F004021A701A7842F001021A701A7802F0FE021A701A7802F0FE021A7002F0D8FC0220FFF7D7FD41F6FF734FF480420121022002F037FC84F839
:400580006C0002F059F808F807000137102FF8D1DFF844A100270AF159081FFA88F90137102F14BF3A4600221AF8010F22440623127E402102F074F84A4646F248419AF89D
:4005C000000002F07FF809F14009102F1FFA89F9E5D100237373637B002BFCD00027142239460AA8777302F0F3FC40230D934FF0FF337760B36037737368DFF8E0903344E7
:40060000197E96F86C00CDF8309001F0CDFF96F86C0001F08BFF012196F86C0001F05EFF636813B96B7B002BFAD0002794F82FA0A76094F80CB0BBF1000F6AD102F08EF857
:400640006B7B43B1BAF1010A85F80DB003D160E02B7B002B5DD1A26863689A42F8D04FF0000BA3680AA808EB83135B440A93CBF140030B9300F0FAFA0B9B0137C3F1400302
:400680009B440D9B5FFA8BFB9BBB022000F098FE012825D0637B002B3BD12B7B002BF4D037E000BF910000000D010000A5000000D90000008881FF1FB9380000CC380000FF
:4006C000B481FF1FD63800006C3800006E38000098640040A081FF1F9F81FF1FF885FF1F4022B949022000F0C3FE4023CDF830900D93BBF13F0FB4D9A268B44B0132134026
:40070000002BBEBF03F1FF3363F00F030133A3608FE7042194F86C0001F052FF94F86C0001F05EFF0028F9D10AA800F0D3FA0220FFF7F4FCDDF83480B8F1400F06D0C8F1BB
:40074000400292B2A049022000F092FE0D9A32F0400203D11146022000F08AFE0220FFF7DDFCFFF753FD237B33B19948FFF79BFD0220FFF7BFFD06E0964B09A81B88ADF8DC
:400780002430FFF7A5FD627B3946237B9248CDF80080FFF788FD4CE29048FFF784FD276B17F03F0701D0032041E2012001F0ACFD95F82E0001F0A2FD02F0AAFB884BDFF8FF
:4007C00024821A7802F0FB021A701A7842F001021A701A7802F0FE021A701A7802F0FE021A7002F099FBA86AFFF794FD01214FF4804341F6FF72084601F08CFD85F86C003B
:4008000001F01AFF08F807000137102FF8D1DFF8D891002709F159031FFA83F807930137102F14BF3A46002219F8010F22440523127E402101F034FF414646F24B4299F8EF
:40084000000001F03FFF08F14008102F1FFA88F8E5D10027BB46B946BA46336B4FF0FF389B09142239460AA877600593C6F80880377302F0ADFB402301200D9300F0BEFE6B
:40088000CDF818806268514B01321340002BBCBF03F1FF3363F00F03A168B8BF01338B4200F0A480BAF1000F07D0237B002B40F0B0806B7B002B40F0AC800B9B002B34D12C
:4008C000B9F1000F0BD07F223F495A540133402BFAD10A910B9328E0BAF1000F06D1012000F06EFD01288046F6D107E0237B002B40F08F806B7B002BF1D08AE03249FFF783
:400900002DFC8146304B0B9040460A9300F076FEB9F13F0F07F1010706DD059BDB1BD3F1000949EB030900E0C1460B9BDBB16368079A0AA802EB83120D9BC3F140031344FD
:400940000C9300F0D6F90D9B6BB96A681F4B01321340002BBEBF03F1FF3363F00F030133636040230D93A36801333FD16B680F2B3CD14FF00008C5F8088001F0F9FC85F806
:400980000C80AB6895F86C002B44197E01F00CFE95F86C0001F0CAFD012195F86C0001F09DFD85F80D80637B002BFCD04FF00008012086F80D8001F0E7FC404601F0A4FC0A
:4009C000CDF8188015E000BFF885FF1F0F000080E538000070380000FF380000183900009B640040A081FF1F9F81FF1FBAF1000F05D0237B6BB96B7B5BB94FF0010AA36813
:400A0000069A93423FF43EAFAB680BF1010B069338E701F0B3FC012001F076FC002001F0B3FC042194F86C0001F0CAFD94F86C0001F0D6FD0028F9D196F86C0001F064FD9B
:400A4000737B327B0293012303920193CDF800905B463A4605997B48FFF725FCB9F1000F16D1059BBB420ADD012000F0A9FC01288046F6D17449FFF771FB3F2803DC0120F5
:400A800000F0D0FD04E0404600F0B8FD0137E8E7FFF7BCFB6D48FFF706FC237B0BB10220C5E06B4B1B8809A8ADF824302DE094F82E0001F023FCA06AFFF72CFC6548FFF743
:400AC000F2FB00236373637B002BFCD0012001F05BFC00237373637B002BFCD0002001F053FC5D48FFF7DFFB5C4B0AE00020E073FFF710FC5A4B04E094F82E00FFF716FBCF
:400B0000584B1B88ADF828300AA8FFF7E1FB90E0237C3BB1002001F0CDFB002002F060F900232B7402F0E2F8002002F085F82A2701F0B0FF002001F053FF3A4600210AA8EB
:400B400002F046FA15238DF828308DF8297001F005FE002001F0AEFB002002F041F9C82001F0BEFD0DEB0700FFF768FB0DF13E00FFF785FB01F0F2FD012002F031F9322009
:400B800001F0AEFD0DF12E00FFF758FB0DF14200FFF775FB012001F08DFB4FF4967001F09FFD01F0DBFD0DF13600FFF747FB0DF14A00FFF764FB002001F07CFB4FF496706B
:400BC00001F08EFD01F0CAFD022002F009F9322001F086FD0DF13200FFF730FB0DF14600FFF74DFB012001F065FB4FF4967001F077FD01F0B3FD0DF13A00FFF71FFB0DF10B
:400C00004E00FFF73CFB002001F054FB4FF4967001F066FD01F0A2FD002002F0E1F80023E37301F0E5FF01F0B7FE6DE70120FFF761FB032000F0E2FC0B48FFF734FBFFF7A7
:400C4000D4BB00BF22390000F885FF1F5239000072380000613900006F3900007438000076380000783800007C39000010B54268002A2ED0C368002B2BD00368048A591CA4
:400C800001601B78013A13F0800F817C42601DBF03F0010242EA84030231083114BF43F0020343EA0423817414BF03820382837C072BDCD9028A083B42FA03F38268511C74
:400CC00081601370C368013BC360837C083B8374CDE710BD07B5827C42B102AA002102F8011D026001224260FFF7C0FF03B05DF804FB30B543686BB3C2685AB3827C072AC3
:400D00000CD8046890F91050611C01602178013B41EA05210832018243608274827C018AA2F108042141CBB2090608D5C3F3801363F07F03023A03F08103827402E084748C
:400D4000002BD7D08268511C81601370C368013BC360CFE730BD00002DE9F04172B6844B61221A70A3F5F06301221A801924814A9C7092E803008033062283F8002283E852
:400D80000300522203F580731A707B4B7B4A1B787B4EDBB2137040F618027A4B00251A8041F2512223F8022C33784FF4F07003F0010343EA450502F0A3F8013C05F003050A
:400DC0002ED0032DF0D1704B4FF480721A8007221A706E4A002548211570917002221D705D7103F8032C0422DA71694A694C1378694E43F00103137012F8013C062743F0D6
:400E0000030302F8013C2378012243F080032370574B1A70614A137843F02003137000E0FEE707FB056300219A881868013502F0CFF8072DF5D15A485A4E002550F8041F7E
:400E400005F1105303F1540221F0FF075533C9B20B4452005B0002329A4206D012F802EC12F801CC0EF807C0F5E7B0420D44E5D14D4A002313609360136193614B4B4C4FA9
:400E80001A684C4BDFF874811A604B4B1A684B4B1A604B4A137843F002031370137C43F0020313742378A2F5863243F040032370413A137843F010031370424A424B07CAD6
:400EC00003C31A80414A2833106843F8250C127903F8212C3E4A07CA03C31A803D4AE83B07CA03C31A803C4A083307CA03C31A803A4A0420137843F008031370384B02F501
:400F0000AA521B783D78DBB298F80060EDB203F007010C321B091170F6B2537045F003033B7046F0030388F800302E4B48221A702D4A402313702D4993701372937208233E
:400F400082F81F3220220A7048710A72284A0A20137001F0DBFB274B88F8006044223D70254D1A7094E80F0007C52B80BDE8F081004800403C1000480F010049A1460040BA
:400F800025420040224200400440004006400040A2430040A043004081390000E8460040FCFFFF47A40000480076004044100048F84600402076004048100048287600401B
:400FC0000350014004100048C05100401010004818100048241000483010004822430040CF0100491D51004001590040235B0040585B004076580040B0430040F94600405D
:4010000008B501F0B9FF03680C2B00D1FEE7FEE7084908B50B68084A1844821A802A01DC086005E001F0A8FF0C2303604FF0FF33184608BDCC80FF1F4887FF1F80B51148CB
:40104000114B0025C0B1A3F1100192C922460439161BB74204D051F8046F42F8046BF7E7114653F8046C8C1AA64202D041F8045BF9E701381033E5E701F084FFFFF78EF975
:40108000FEE700BF01000000503B0000124A134B10B51A60124A134C1368134843F4007313600023032B98BF54F823204FEA830188BF0E4A0133302B4250F3D10C4B1A78F8
:4010C0000C4B1A700C4B084A1A60FFF745FEBDE8104001F0EDB900BF0004FA050CED00E014ED00E0000000000080FF1F01100000BC760040C080FF1F08ED00E0F8B501F0B9
:4011000007FF4B4A01271378022643F001031370137C484C43F001031374474B02F5E3521F700B3203F8946C1378054603F07F031370002001F0EAFA2378404A03F0F90342
:4011400023701378384603F0DF03137023783B43237001F0DBFA282001F0D8FA384B30461A7802F07F021A701A7802F0BF021A7023783343237001F0C9FA2378314A43F006
:40118000040323700023137053702F4AFF2199540133092BFBD1284601F0BEFE0721172001F0FCFA2949172001F0EAFA0721182001F0F4FA2649182001F0E2FA0721152083
:4011C00001F0ECFA2349152001F0DAFA0721052001F0E4FA2049052001F0D2FA0721062001F0DCFA1D49062001F0CAFA0721084601F0D4FA1A49072001F0C2FA0721082039
:4012000001F0CCFA1749082001F0BAFA0021162001F0C4FA1449162001F0B2FA07210C2001F0BCFABDE8F84010490C2001F0A8BAA5430040944300409D60004012600040B6
:40124000F8510040846000406D86FF1FCB1A000005190000C91A0000FD190000291A0000591A0000911A0000D11A0000451B0000214B224A10B5187000231370204A402073
:401280001370204A0F2413701F4A13701F4A13701F4A13701F4A13701F4B4FF400021A604FF080721A604FF400121A6020221A601860802018604FF480701860174804706E
:4012C0004FF480001860164B1A70933B19B91A7802F0FE0202E01A7842F001021A70114B03221A70802203F8202C012001F008FE0D4B04221A7010BD8886FF1F8E86FF1F32
:401300008C86FF1F8D86FF1F8986FF1F7886FF1F8B86FF1F0087FF1F00E100E09E6000409C600040286000401260004070B5074C054623780E461BB9FFF7E0FE0123237069
:4013400031462846BDE87040FFF792BF3886FF1F0A4A002313700A4A13700A4A13700A4A13700A4A13700A4A13700A4A13700A4B03221A70802203F8202C70478E86FF1F36
:401380008C86FF1F8D86FF1F8986FF1F7886FF1F8B86FF1F0087FF1F28600040014B1878704700BF8D86FF1F044B1A7802F0FF001AB118780022C0B21A7070478C86FF1F32
:4013C000024A0C2303FB0020407870479486FF1F431E072B0CD8074A064B00010344805C5B7800F00F0043EA0020023880B2704700207047FC5F00401A4A38B50C2303FB3E
:4014000000231B79090C13F0800F00F1FF35044619BF8AB24FF480438BB24FF48042032D18D8DFE805F002070C110021084601F01BF80DE00021084600F0FAFF08E00021C0
:40144000084600F0D9FF03E00021084600F0B8FF054B1855EDB2072D03D801F0EDF8034B185538BD9486FF1F6486FF1F6D86FF1F431E072B2DE9F0470446894615465CD893
:401480002F4F0C2202FB0072D388DFF8B8A09BB2C3F500739D424FF00C0303FB007388BFD588DB7884BFC5F50075ADB2254A43EA15230601B354B244EBB28AF80130224B14
:4014C0001A5C9846FF2A01D1FFF796FF0C2303FB047200215170B9F1000F28D03DB31B4F385D01F011F811232946FE2218F8040001F0D6F806F5C04278321FFA89F118F813
:40150000040001F0DFF8124D18F80410385D01F04BF80121385D00F0E1FF735D43F002037355735D03F0FD037355BDE8F08703FB04746379DBB28AF80230BDE8F08700BF27
:401540009486FF1FFC5F00406D86FF1F6486FF1F706000402DE9F047044615468846002940D0431E072B3FD8FFF732FFA84203D22046FFF72DFF05461D4E335DFF2B03D11A
:4015800041462046FFF738FFDFF868A027011AF8040000F0B9FF1223FE222946305D01F07FF807F5C0411FFA88F27831305D01F089F8DFF84490315D1AF8040000F0F4FF29
:4015C00001211AF8040000F089FF17F8093043F0020307F8093017F8093003F0FD0307F8093002E00D4600E000252846BDE8F0876D86FF1F6486FF1F70600040431E072B90
:401600000AD8064A0C2303FB002300225A705A79034BD2B200011A54704700BF9486FF1FFE5F0040431E072B9FBF024B000108221A547047FE5F004030B51A4A1A491B4D9E
:401640000878138803449BB21380194A00231488D8B2A4B27CB1082B0CD050680078C0B2E85450680133013050601088013880B21080ECE718460B780E4C082B0E4A00D043
:4016800040B10E4D2B7883F080032B700F232370022301E0022323701370094B1870087030BD00BF0487FF1F0087FF1F006000407C86FF1F7986FF1F8E86FF1F8A86FF1F19
:4016C0000187FF1F074B02221A70074B80221A70064B0F221A70064A00231370054A0120137070478E86FF1F8A86FF1F7986FF1F0087FF1F0187FF1F30B5164B16491B781A
:401700000A8803F00F03023BDBB21A4492B20A80124C134A0020118889B279B173B15568215C013BC9B229705168DBB20131516011880130013989B21180ECE7094A1370F3
:40174000094A137883F080031370084B0B221A7030BD00BF296000400487FF1F006000407C86FF1F0187FF1F8A86FF1F7986FF1F064A06231370064A01201370054B802257
:401780001A70054B00221A70704700BF8E86FF1F7986FF1F8A86FF1F0187FF1F054B9A683AB19A68044910709A680988518000229A6070477C86FF1F0487FF1F08B5124BE4
:4017C0001A78D2B21A701B78DBB21A0602D50F4A137008BD0220FFF7E1FF0D4B1B7803F06003202B05D0402B06D043B900F012FC04E001F095FB01E000F046FD10B9034B6D
:4018000003221A7008BD00BF286000407986FF1F0060004008B5084A084B0120197813880B449BB21380064B00221A70FFF7B6FF044B03221A7008BD0487FF1F0087FF1F59
:401840008E86FF1F7986FF1F08B50C4B1B78DBB2042B07D0062B09D0022B0DD1BDE80840FFF7D8BFBDE80840FFF746BF0320FFF795FF034B03221A7008BD00BF8E86FF1F08
:401880007986FF1F08B5054B002201201A70FFF785FF034B03221A7008BD00BF8E86FF1F7986FF1F08B50A4B1A7832B11A78094942F080020A7000221A70074B002201200D
:4018C0001A70FFF76BFF054B03221A7008BD00BF7886FF1F086000408E86FF1F7986FF1F074B1B78DBB2042B05D0062B05D0022B05D1FFF7A1BEFFF7C5BFFFF7D3BF7047DB
:401900008E86FF1F38B51D4C2378DBB2DD0634D518060AD503F00F03012B2ED1FFF74EFF174B1B78190609D538BD5A0602D5FFF7D7FF03E09D0620D5FFF786FF23781B06FF
:401940001BD4104B1A78104B1B7813430F4A13701278934211D10A4A0849154613782078DBB2000605D41378DBB20B700B7803F00F0328788342F1D138BD38BD28600040A7
:401980007986FF1F8A86FF1F0187FF1F29600040054A00231380054A916819B191680B7092685380704700BF0487FF1F7C86FF1F0E4808B503889BB213B9FFF783FE13E0B5
:4019C0000B4B02221A700B4B00221A70FFF7E0FF094AD1799379028843EA012392B2934238BF0380FFF728FE012008BD7C86FF1F8E86FF1F8A86FF1F00600040084B01225D
:401A00001A700F3B9B7C074B1A7B02F00302012A1EBFDA7B82F08002DA7301225A7370470B6000409486FF1F094B02221A700F3B93F82230074B1A7E02F00302012A1EBFA3
:401A4000DA7E82F08002DA7601225A76704700BF0B6000409486FF1F0B4B04221A700F3B93F83230094B93F8242002F00302012A1EBF93F8272082F0800283F82720012274
:401A800083F82520704700BF0B6000409486FF1F0B4B08221A700F3B93F84230094B93F8302002F00302012A1EBF93F8332082F0800283F83320012283F83120704700BF89
:401AC0000B6000409486FF1F7047FFF741BC0000F0B5184B184E19780C27C9B201234FF0000C31B3CA0720D5144A4FEA031E7244947850782040C5070DD507FB03652C7934
:401B0000240608D5147804F0FE0414706D790C4CEDB204F80E50840706D507FB036425792D0658BF84F801C090700133DBB24908D7E7F0BD9F6000409486FF1F7060004069
:401B4000FE5F004000F0ACBC70B50446184B88B003AA03F11006154618685968083303C5B3422A46F7D11B782B70FCB12223237001AD03232846637000F08AFE002220461B
:401B80001146AB5C08AC04EB131414F8144C03F00F03847008AC234413F8143C0132082AC1700371417100F10400EAD108B070BDAB3900002DE9F0431C4D01222E460C2078
:401BC0001F274FF0800E4FF0080C194B00FB02581401234418705F70164998F805902144B9F1000F07D098F8044024064CBF887081F802C001E081F802E000FB0261CC8850
:401C00000132E4B29C71CC88092AC4F30724DC71CC88E4B21C71C988C1F307215971D4D1054BFF221A70BDE8F08300BF9486FF1F70600040FC5F00400A600040064B074A04
:401C40001B7802EBC30253681A7C824286BF03EBC0035869002070478886FF1F0C3A00002DE9F84F424B1A78002A7ED01878414D0138C0B2FFF7E2FFA8463F4AC368147848
:401C8000007ADFF800C1E4B203EBC0000C2600274FF0010E834268D01A78A24263D11CF80420597891425ED19A7893F8039002F07F0206FB02FA05EB0A01CF7093F802B05E
:401CC00009F0030981F804B093F803B005F80AB0B3F804A0A1F808A093F902A0BAF1000F0BDAB9F1010F0CBF4FF007094FF00D0981F8059081F801E009E0B9F1010F0CBF61
:401D00004FF005094FF0090981F805904F704FEA02191A4906FB0282494481F802E0B2F808A0CAF3072A81F800A0B2F808A05FFA8AFA81F801A0B2F806A011495FFA8AFAEB
:401D4000494481F806A0B2F80690C9F3072981F80790B2F806905FFA89F981F80490D288C2F307224A71083394E7BDE8F88F00BF8D86FF1F9486FF1F8986FF1FFC5F00408E
:401D8000706000407A86FF1F08B5064B18780138C0B2FFF753FF20B143681B7900EBC300406908BD8D86FF1F00212DE9F84F0B464E4E0C2707FB01F401313219092933553B
:401DC0004FF000059370494CD3701381937253705371EFD118B1464B1D70464B1D70464B1A78002A7FD0187801250138C0B2FFF725FFA8464368DFF8F8E0DB790C2713F0F6
:401E0000400F3E4B4FF0000C1A7814BF42F0010202F0FE021A70027AD20007FB0541C36803EB02094B4531D093F802A00AF07F06AE4229D10E89B3F804B0B6B25E4538BF90
:401E4000A1F808B01E7893F801B01EF80660B3451AD181F804A0DE780E7093F902A0DE78BAF1000F06F0030607DA012E0CBF07260D264E7181F8018006E0012E0CBF0526B3
:401E800009264E7181F801C00833CBE70135092DC3D1C1680A328B1C0A440C200833934209D013F8081C13F80A5C01F07F0100FB01418D72F2E7FFF767FF114B0121186026
:401EC00000230C2000FB0142D3801289013113449BB203F00102134409299BB2F2D1BDE8F84FFFF767BEBDE8F88F00BF9486FF1F7A86FF1F0287FF1F8D86FF1F8B86FF1FB3
:401F00009086FF1F114B1B7903F07F035A1E072A19D80F490C2202FB031291781B0141F0010191700021D170517841F002015170127912F0800F074A1A4414BF8D23892363
:401F40009370FFF715BC0020704700BF006000409486FF1FFC5F004030B4194B1A7902F07F02531E072B27D8164B0C2404FB02339978154D01F0FE0199700021D970294694
:401F80001201505D114400F07F0050555A7802F0FD025A701A795B78120605D5012B01D18C7006E00D2303E0012B0CBF082309238B7030BCFFF7DCBB002030BC704700BFDC
:401FC000006000409486FF1FFC5F004010B50D4B0D4C21791878C9B20138C0B2FFF72EFE43681B798B4201D2012909D8074A0848535CDBB24354A3780120DBB2535410BDEB
:40200000002010BD8D86FF1F006000407A86FF1F0287FF1F38B58A4A8A4C13780021DBB221801806517840F18D800A2900F20581DFE811F05D0003010301030103010301A3
:402040000B0003017E0003018200D3787C49012B09D17D4B1A787D4B03EBC2035B685B686360122310E0CB78022B12D18878FFF7E5FD002800F0E180436863606368DA78C5
:4020800063689B7843EA02232380BDE83840FFF78FBCCB78032B26D16D4B00228878D5B2854209D3664A91786A4AEE2908BF1346634A917881B106E0187801320028F1D065
:4020C00018780344EAE764499278097C914203D16248FFF739FD614B1A78002A00F0AD801A78228018E0BDE8384000F019BF13F0030313D0022B40F0A0802380504B0C2115
:402100001B7903F07F02564B01FB02339A78554BD2B21A7000225A706360B6E702222280514A11784F4AC9B2117053706260ACE7012323804D4BEFE70123238013794C4A04
:402140001344E9E701390A2977D8DFE801F037764F76067676760A7620009378454ADBB25AE0937803F0FF0153B9404B1A7891425FD01970404B01201870FFF715FE58E0C2
:40218000481EC0B2FFF75AFD0028EED155E0FFF71DFF002851D02A4A384913791279DBB2D2B20A70364A3249D25CCB5C9A4240D0314B01221A70FFF753FD3AE003F003032E
:4021C000012B2BD009D3022B37D11D4B9B78002B33D1BDE83840FFF7BFBE194B9B78012B2BD1214A137803F0FD0315E003F00303012B13D008D3022B1FD1114B9B78E3B9E5
:40220000BDE83840FFF77EBE0D4B9B78012B14D1154A137843F0020313700AE0084B1A795AB998781B791749DBB2CA5C22EA0002CA54BDE83840FFF79BBA002038BD00BF2C
:40224000006000407C86FF1F8886FF1F0C3A0000703A0000F8390000E33A00002087FF1F9486FF1F3986FF1F8B86FF1F8D86FF1F7A86FF1F7886FF1F8C86FF1F8986FF1F63
:402280000287FF1F8F86FF1F074B1A78120609D55B78012B06D1054B054A5A6012781A80FFF786BB00207047006000407C86FF1FD0390000014B1870704700BF74650040DD
:4022C000014B1878704700BF64640040014B1870704700BF7B650040064A0123136002F688321268E0211064034A1170A2F540721360704780E100E000E400E0014B187078
:40230000704700BF70640040014B1870704700BF7864004073B515461E460B4C05230022019200920A4601461846237000F064F932462946207800F01FF90221207800F0F9
:4023400009F9207802B070BDD080FF1F064A0423136002F688321268E0219064034A1170A2F202321360704780E100E002E400E0014B04221A60704700E100E0014B0422CE
:402380001A60704780E100E0014B1870704700BF7A650040704738B505460078012428B100F056FD285D0134E4B2F8E738BD08B50D2000F04DFDBDE808400A2000F048BD46
:4023C000F7B516461F460B4C00230325019300930A4601462846257000F00EF93A463146207800F0C9F80221207800F0B3F8207803B0F0BDE080FF1FF7B516461F460B4C46
:4024000000230225019300930A4601462846257000F0F2F83A463146207800F0ADF82946207800F097F8207803B0F0BDE180FF1FF7B516461F460B4C002301250193009362
:402440000A4601462846257000F0D6F83A463146207800F091F80221207800F07BF8207803B0F0BDE280FF1F73B515461E460B4C0023019300930A4601461846237000F066
:40248000BBF832462946207800F076F80221207800F060F8207802B070BD00BFE380FF1F024B1878C0F38010704700BF8F450040074A7F23802113705170064A013BDBB237
:4024C00002F80839002BF9D1034A1370704700BFE480FF1FF87B00400078004017280FD8084B0001C25C11B142F0200201E002F0DF02C254C25C42F00102C25400207047C1
:40250000012070471070004017280BD8064B0001C25C02F0FE02C254C25C02F0DF02C25400207047012070471070004017280DD8074900010B4603441A7942F004021A7190
:40254000435C43F00103435400207047012070471070004017280BD8064A0001835C490003F0F10301F00E011943815400207047012070471070004041F6FF73994208BF12
:402580004FF400519A4208BF4FF4005217289FBFC00000F1804000F5EC4081809ABFC280002001207047000017289FBF034B00011954002088BF0120704700BF197000406C
:4025C00017289FBF054B00011A5C01F007019DBF1143195400200120704700BF1470004017289FBF034B0001185C00F0070088BFFF20704714700040172810B51AD8C000F8
:4026000001F07F0100F1804441EAC21204F5EC44D2B222709DF8082003F00F0343EA0213DBB263709DF80C30002003F00F03A370E07010BD012010BD10B500F069FC0A4A50
:402640005378182B0AD91478013B5370E30003F1804303F5F0431B78137000E0FF2400F05BFC204610BD00BFE480FF1F030610B5044611D400F04CFC084AE300117803F15E
:40268000804303F5F04319705378147001335370BDE8104000F040BC10BD00BFE480FF1F30B504060CD411F4704509D1C40004F1804404F5F0442180A270E370284630BD00
:4026C000012030BD03065FBFC00000F1804000F5F04081805ABFC280002001207047000038B50446084DB4F5004F05D9286800F007FCA4F50044F6E7034B58686043BDE8C6
:40270000384000F0FDBB00BFEC80FF1F024B1B7A584300F0F5BB00BFEC80FF1F0E4B00F003001A78490102F0FC02104318701A7801F0600142F080021A701A7802F07F02B0
:402740001A701A7802F09F020A431A701A7842F010021A70704700BF83430040014B01221A70704784430040044B00F00F021B6853F8220043F82210704700BF08ED00E048
:40278000054A00F01F00126800F1100352F8230042F82310704700BF08ED00E000F01F0000F16040490100F56440C9B2017070470F4B10B50F4900240F205C609C60DC6034
:4027C0001C615C61FFF7D0FF0B4A136843F0040313600A4B4FF47A72DB68B3FBF2F3084A1360084B4FF400421C60C3F8E82010BD3C86FF1F5D28000010E000E0EC80FF1F9B
:4028000014E000E018E000E0024A136843F002031360704710E000E008B5FFF7F5FF034A136843F00103136008BD00BF10E000E010B5054CA3691BB9FFF7BAFF0123A361B9
:40284000BDE81040FFF7E8BF3C86FF1F024B1868C0F30040704700BF10E000E038B5FFF7F5FF012808D1054D002455F8243003B198470134052CF8D138BD00BF4086FF1F96
:40288000024B03EB80035868596070473C86FF1F134B144A1B78DBB20360127843EA0223114A0360127843EA0243104A0360127843EA026303600E4B0E4A1B78DBB24360C5
:4028C000127843EA02230C4A4360127843EA02430A4A4360127843EA02634360704700BF0301004904010049EC46004002010049010100490001004905010049060100494E
:4029000010B500F005FB204A044613780A2043F002031370137C43F00203137412F80A3C43F0010302F80A3C937943F00103937102F5AB52137843F003031370134B18228F
:402940001A7013F8012C42F0400203F8012C13F8012C02F0FC0203F8012CCE2203F8062CA3F597530222183B1A70094A137843F008031370FFF7CAFE064B10222046BDE81E
:4029800010401A6000F0C8BAAB4300400E5900402F5B004080E200E008B500F0B9FA0F4A137803F0FE031370A2F5AA521D3A137803F0FD031370137C03F0FD03137412F841
:4029C0000A3C03F0FE0302F80A3C937903F0FE039371BDE8084000F09FBA00BF08590040044A137803F03F0343EA8010C0B21070704700BF08590040082804D00A280CBFEE
:402A00008223C22300E0422308380E4AC0B20428137098BF0C4B4FF0000298BF33F910100A4B88BF11461A8042F210734B4341F2883103F6C41393FBF1F305490B60054B73
:402A40001A8070470A590040BC3900000A87FF1F0C87FF1F1087FF1F08B5102000F0A6F907210420FFF79AFE07490420FFF788FE064A0C20137843F006031370FFF7BCFF9B
:402A8000034B00221A8008BD512B0000095900400887FF1F10B5054C23781BB9FFF7DCFF01232370BDE81040FFF72ABF5886FF1F044B1A7802F0FB021A701A7842F001027E
:402AC0001A7070470859004010B5084B1C7814F0010403D10028F9D0002404E02046FFF715FE024B1B78204610BD00BF09590040034A044B1B881088181A00B2704700BF5E
:402B00001087FF1FA25B00400E4A13881BB223B111880A2309B2594301E00B4B19680B4B1B88C01A42F2107300B203FB00F2022391FBF3F30028D8BF5B42134493FBF1F055
:402B400000B270470A87FF1F0C87FF1F0887FF1F7047000010B500F0DBF9214A044613780A2043F001031370137C43F00103137412F80A3C43F0020302F80A3C937943F027
:402B80000203937102F5AA521832137843F003031370144B18221A7013F8012C42F0400203F8012C13F8012C02F0FC0203F8012CCE2203F8062CA3F597530222123B1A70A7
:402BC000094A137843F008031370FFF79FFD074B08222046BDE810401A6000F09DB900BFAB43004006590040275B004080E200E008B500F08DF90F4A137803F0FE031370EF
:402C0000A2F5AA52153A137803F0FE031370137C03F0FE03137412F80A3C03F0FD0302F80A3C937903F0FD039371BDE8084000F073B900BF00590040044A137803F03F03B1
:402C400043EA8010C0B21070704700BF00590040082804D00A280CBF8223C22300E0422308380E4AC0B20428137098BF0C4B4FF0000298BF33F910100A4B88BF11461A80EE
:402C800042F210734B4341F2883103F6C41393FBF1F305490B60054B1A80704702590040C63900001687FF1F1C87FF1F1487FF1F08B5102000F084F807210320FFF76EFD73
:402CC00007490320FFF75CFD064A0C20137843F006031370FFF7BCFF034B00221A8008BDA92D0000015900401887FF1F10B5054C23781BB9FFF7DCFF01232370BDE810409D
:402D0000FFF728BF5986FF1F044B1A7802F0FB021A701A7842F001021A7070470059004010B5084B1C7814F0010403D10028F9D0002404E02046FFF7E9FC024B1B782046B5
:402D400010BD00BF01590040034A044B1B881088181A00B2704700BF1487FF1FA05B00400E4A13881BB223B111880A2309B2594301E00B4B19680B4B1B88C01A42F2107315
:402D800000B203FB00F2022391FBF3F30028D8BF5B42134493FBF1F000B270471687FF1F1C87FF1F1887FF1F70470000034A00F0F800137803431370704700BF02410040DD
:402DC000034A00F0F800137803431370704700BF06410040014B1870704700BF76650040014B1870704700BF7565004073B515461E460B4C04230022019200920A46014641
:402E000018462370FFF7F8FB324629462078FFF7B3FB02212078FFF79DFB207802B070BDFC80FF1F074A0223136002F688321268E0215064044A11706FF440710A441360CD
:402E4000704700BF80E100E001E400E000000000FEB5494652465B460EB40746244909688A46244A12682448022100F071F8030020480068C018204900F06AF81438834653
:402E80000121C9430C460125002600F041F8814651460B7823400B705846013000F030F83800F04028400B78234003430B70584600F026F80136072EF2D900200130013893
:402EC000013001200B78234003430B705846043000F016F8484600F01FF800BF00BF00BF0EBC894692469B46FEBD00BFAFF30080D480FF1FF880FF1F00C20100000000007E
:402F00000230800803D000BF01380046FCD17047EFF3108072B6704780F31088704700BF094A137803F00303012B0AD0022B09D113790C2103F07F02044B01FB02339B7ACA
:402F400000E0137900207047006000409486FF1F002902D0B0FBF1F0704708B14FF0FF3000F008B80029F8D00246B0FBF1F000FB11217047704700BF014B1868704700BFC0
:402F80006081FF1F0E4B70B51E460E4C0025E41AA410A54204D056F8253098470135F8E700F0BCFD084B094C1E46E41AA4100025A54204D056F8253098470135F8E770BDA2
:402FC000283B0000283B0000283B0000303B000003460244934202D003F8011BFAE7704730B5141E05469BB0184604DA8B232B604FF0FF301DE04FF40273ADF80C300CBF67
:40300000234604F1FF33029305934FF6FF7300910491ADF80E3002461E9B6946284600F073F8431CBCBF8B232B6014B1009B00221A701BB030BD000007B5009313460A46CB
:40304000014603480068FFF7CBFF03B05DF804FB6081FF1F2DE9F0478E6882469E420C46914698463ED88A8912F4906F3AD02568096902236F1A656905EB450595FBF3F539
:403080007B1C43449D4238BF1D4653050FD5294600F04AFB064698B13A46216900F0D2FAA38923F4906343F08003A38113E02A4600F098FB064670B92169504600F0E8FA21
:4030C0000C23CAF80030A3894FF0FF3043F04003A381BDE8F08726613E44266046466561ED1BA560464528BF464649463246206800F0B3FAA36800209B1BA36023681E4476
:403100002660BDE8F08700002DE9F04F9DB003938B8980461C060D4616460DD50B695BB9402100F001FB2860286118B90C23C8F80030CDE040236B610023099320238DF8EF
:403140002930DFF89CB130238DF82A3037463C4614F8013B1BB9B7EB060910D003E0252BF9D02746F3E74B46324629464046FFF771FF013000F0A780099B4B4409933B7883
:40318000002B00F0A08000234FF0FF3204930793059206938DF853301A930126052221784E4800F041FA671C049B38B14B4A3C46801A06FA00F018430490EFE7D90644BF30
:4031C00020228DF853201A0744BF2B228DF8532022782A2A03D0079A00210A200BE0039A111D12680391002A10DA524243F00200079204900BE027463B780134303B092BD2
:4032000003D800FB02320121F5E701B107923B782E2B1ED17B782A2B0AD1039B02371A1D1B680392002BB8BF4FF0FF33059310E0002319460593781C0A2407463A78013050
:40324000303A092A03D804FB01210123F5E703B1059103223978224800F0E6F940B14023CBEB000003FA00F0049B013718430490397806221B487E1C8DF8281000F0D4F94F
:4032800088B1194B33B9039B073323F007030833039314E003AB00932A46144B04A94046AFF3008007E003AB00932A460F4B04A9404600F093F8B0F1FF3F824603D0099BA8
:4032C0005344099342E7AB895B0601D4099801E04FF0FF301DB0BDE8F08F00BFF73A0000FD3A0000013B000000000000553000002DE9F04791461F460A698B68064693422F
:40330000B8BF1346C9F8003091F843200C46DDF8208012B10133C9F800302368990642BFD9F800300233C9F80030256815F0060510D104F1190A07E00123524639463046B1
:40334000C04701301AD00135E368D9F800209B1A9D42F1DB94F843302268003318BF012392060FD5E118302081F843005A1C94F845102244023382F8431003E04FF0FF3011
:40338000BDE8F08704F1430239463046C0470130F4D02268D9F80050E36802F00602042A08BF5D1B2269A3680CBF25EAE57500259342C4BF9B1AED184FF000091A344D4540
:4033C00009D00123224639463046C0470130D5D009F10109F3E70020BDE8F0872DE9F04317460A7E85B06E2A984606460C460C9B01F1430E00F0AE8011D8632A22D009D8B4
:40340000002A00F0BB80582A40F0CA8081F84520834955E0642A1ED0692A1CD0C0E0732A00F0B08009D86F2A2ED0702A40F0B8800A6842F020020A603EE0752A24D0782A07
:403440003AD0ADE01A6801F14205111D1960136884F84230A8E021681A6811F0800F02D0111D196008E011F0400F02F10401196002D0B2F9003000E01368002B3CDA2D220D
:403480005B4284F8432037E021681A6811F0800F02D0111D196007E011F0400F02F10401196001D0138800E01368227E5C496F2A14BF0A2208221BE078225A4984F84520D6
:4034C0002268186812F0800F00F104051D6003D1550601D5038800E00368D00744BF42F0200222601BB9226822F0200222601022002084F8430001E049490A226568002D71
:40350000A56008DB206820F0040020602BB9002D7DD175460CE0002B79D07546B3FBF2F002FB1033CB5C05F8013D03460028F5D1082A0BD12368DA0708D5236962689A4260
:40354000DEBF302305F8013C05F1FF35C5EB0E0323612EE008681A6810F0800F496903D0101D1860136808E010F0400F02F104001860136801D0198000E0196000232361F3
:40358000754616E01A68111D1960156800216268284600F049F808B1401B6060636804E004F1420584F8422001232361002384F84330CDF800803B4603AA21463046FFF78D
:4035C00097FE013002D14FF0FF3026E023692A4639463046C0470130F5D023689B0710D5002504F1190907E001234A4639463046C0470130E7D00135E368039A9B1A9D4251
:40360000F2DBE068039B9842B8BF184605E00B7804F1420584F842308AE705B0BDE8F083AB390000083B000010B5C9B202449042034605D01C7801308C42F8D1184610BD34
:40364000002010BD10B5431E0A44914204D011F8014B03F8014FF8E710BD884210B501EB020301D8421E0BE09842FBD28118D21AD34204D013F8014D01F8014DF8E710BDF1
:40368000994204D011F8014B02F8014FF8E710BD38B50546002944D051F8043C0C1F002BB8BFE41800F0D4F81E4A1368114613B96360146030E0A3420DD92268A01883426E
:4036C00001BF18685B681218226063600C6023E0A24203D813465A68002AF9D118681918A1420BD12168014458188242196013D110685268014419605A600DE002D90C23AB
:403700002B6009E021686018824201BF106852680918216062605C602846BDE8384000F098B838BD6086FF1F70B5CD1C25F0030508350C2D38BF0C25002D064601DBA94271
:4037400002D90C23336046E000F082F8234B1C681A462146A1B10B685B1B0ED40B2B03D90B60CC18CD501EE08C420BBF63684B681360636018BF0C4615E00C464968E9E78D
:40378000174C23681BB9304600F052F820602946304600F04DF8431C18D0C41C24F00304A0420DD12560304600F053F804F10B00231D20F00700C31A0ED05A42E25070BDB8
:4037C000211A304600F034F80130EBD10C233360304600F03EF8002070BD00BF6086FF1F5C86FF1FF8B5074615460E4621B91146BDE8F840FFF798BF1AB9FFF749FF28461E
:40380000F8BD00F027F885420ED929463846FFF78BFF044650B131462A46FFF713FF31463846FFF735FF01E03046F8BD2046F8BD38B5064C0023054608462360FDF7E8FBD4
:40384000431C02D1236803B12B6038BD4487FF1F7047704751F8040C0028BEBF091851F8043CC0180438704700000000050209020B020D020F02110213027265706C7920DA
:4038800030782530327800686F6D696E6700626567696E6E696E67207365656B2066726F6D20256420746F2025640066696E6973686564207365656B0057616974696E6758
:4038C00020666F72205553422E2E2E0055534220726561647900636F6D6D616E642030782530327800756E64657272756E206166746572202564207061636B65747300634C
:403900006F756E743D256420693D256420643D2564207A7A3D256400636D645F777269746500703D25642063723D25642063773D256420663D256420773D256420696E6415
:4039400065783D256420756E64657272756E3D25640077726974652066696E69736865640073746172742065726173696E670073746F702065726173696E670069646C6512
:403980000000510040100030510040400000000140001000140140000800400140000A004C0140000200500140200030313233343536373839414243444546000001000049
:4039C0000004000000100001000000040000001028000000000104000100000000000000000157494E5553420000303030303100000000000000000012034D0053004600AB
:403A000054003100300030000100000001000000143A000001000000E33A00000000000000000000010000002C3A000001000000B53A0000040000004E3A00000000000050
:403A400000000000000000004C3A0000FF00000001024000FF00000082024000FF00000003034000FF00000084034000FF00020304030904160346006C007500780045009B
:403A80006E00670069006E0065002A0343006F0077006C00610072006B00200054006500630068006E006F006C006F0067006900650073000009022E0001010080320904F7
:403AC000000004FF00000107050102400000070582024000000705030340000A0705840340000A12010002FF0001080912006E0100020180014300232D302B2000686C4C11
:403B000000656667454647003031323334353637383961626364656600000000F8B500BFF8BC08BC9E467047590000008D100000F8B500BFF8BC08BC9E46704735000000F6
:403B4000503B0000C880FF1FA0000000E0050000000000004887FF1FFF000000675000400C00000007000000FFFFFFFF7F8000003F0000000000007D00FA000040000000E8
:403B80000090D003FF0000000000000000000000000000000000000000000000000000000000000000000000F53A0000000000000000000000000000000000000000000074
:403BC000000000000000000000000000000000000000000000000000000000000000000000000000000000000081FF1F000000000000000000000000000000000000000026
:403C00000000000000000000000000000000000000000000000000000000000000000000000000000000000000000000000000000000000000000000000000000000000084
:403C40000000000000000000000000000000000000000000000000000000000000000000000000000000000000000000000000000000000000000000000000000000000044
:403C80000000000000000000000000000000000000000000000000000000000000000000000000000000000000000000000000000000000000000000000000000000000004
:403CC00000000000000000000000000000000000000000000000000000000000000000000000000000000000000000000000000000000000000000000000000000000000C4
:020000040003F7
:0200000480007A
:400000000145004006520040015B00400164004001650040420001403A0101404B02014051030140480401405A05014056060140680701404A08014068090140500A01403F
:400040005C0B0140510C0140420D0140040F0140481401405B150140491601406B1701404D18014062190140441A0140611B01400B4001400E4101400942014007430140B4
:400080000844014008450140094601400B4701400848014009490140154C01400D4D014008500140045101407E02084209061180600361197C402721270A3901060A0803A1
:4000C0000A1C0C0C0E0311011220140316101A401E0F20802605280F2C402D02310134C03502363F3A803F11580459045B045C095F0180088308860187208801893F8E1023
:400100008F109009913F9401973F98019A089B3F9E029F04A008A201A302A501A601AA04AB3FAC08AD3FB018B207B33FB418BA2ABF04D608D804D904DB04DC09DD90DF01F1
:400140000202032805500660080809020A040B010C010E2A100411081240134015081601172218081A061C041D011E281F142210238027202B012C802D082E802F043002A9
:40018000352136883C803D023E083F1059805A205E4065806802824086018788C0F7C2FFC4FFCAF8CCF1CEF0D61CD810E002E284E402E6100201030104010501070C08015F
:4001C0000A020B010D060E0110011106130114011507180119031A021B081C011F06200121062506260128012B022C012D012F06350F36033E403F10580459045F01820E2F
:40020000830184088620870188018B018D018E4090019301943E950198019B019E309F01A004A230A301A408A610A701A830AA02AB01AC30AF01B101B27EB401B601BAF007
:40024000BF01D804D904DC09DF010020014003A0048005120720084809100A400D850E080F101004110812021301140115111708180619081A081D4021022510284029802A
:400280002A042B042E852F04300431203241351036043742382039803A023B053C043D823E2064016680800181048341852087028B10900892029320950897519C0D9D7029
:4002C0009EE99F02A214A4C0A507A68BA721A908AE10B404B604C0FFC2FFC4FFCAFFCCFFCEFFE20FE404E612EC08EE0401020208031806020718091F0A3F0E100F201001BD
:400300001118143F1A3F1B071C3F1D4021042220230825042604271029182A3F2B012C3F303F3140353F3E013F01580459045B045C905F01807F810385038601885689037E
:400340008A218C068F039006927893049503960298079A089B029C069D03A011A103A226A604A701AA01AB03AC40AE06AF08B07FB70FBE01D804D904DC90DF010084028841
:40038000044005020724081009800A080BA00D080E891009122013021410168017501A401F01221023802540264028042B602D052F09300831403212330436543701396082
:4003C0003A063E843F114008411049104B105B805D015E01640166808180850487208B408C488D218E108F01900A9208932094A095D296C5974C9A029C4C9D909EED9F68CC
:40040000A104A214A340A4C0A5C1A68BA725A920AC80AD03B010B508B780C0FFC2FFC4FFCAF7CCFDCEFFD608E208E60BEA04EE080037030105080662081309080A480C37B6
:400440000F0F103711041430160C1708183719081C371D082037210F2611270229032A372B0C2D082E37320F3670370F3E443F40580459045F018101822084048610872020
:40048000897F8E188F7F9310941F973F98189A019B3F9D3F9E07A302A404A608A704A802AA18AB08AC18AD3FAF40B140B63FB73FBF41C046C702C810C9FFCAFFCBFFCD207F
:4004C000CEF0D110D804D904DA04DC09DD09DF01E108E240E340E480E640E740020103A0044205100720080809200A010C010D080E880F0111281202152517401A011C10E3
:400500001E0221412701288029242A802C082D022E042F02310A3280331035293680388039103A0A3D813E083F104101480451045E305F2061046310788079107A047B028C
:40054000818082448304840188408B048C808D138E488F58908A91049301946095419684974C99249A089C489DD29EE49F51A058A166A2D6A320A508A609A70DAA01AC50C9
:40058000AD03AE08AF2AB004B170B280B484B544B622C0FDC2F7C4F7CAFFCCFFCEFFD001D204E207E408E605EA4EEE0204100620080B09030A600C100E40107C1101161CCE
:4005C0001C621E01246126062A602E8032FC3301360337023E403F04420146E0480849FF4AFF4BFF4F83580459045A045B045C995D095F01800181018238840285018A03F3
:400600008B018D018E0290029301940A960597019B019C109F01A003A301A701A803AB01AC02AE04AF01B008B207B410B620B701BA08BE11BF40D804D904DB04DC09DF012B
:40064000005402400414060209010A220E200F4111401204130115A8184019011A221B101D801E202140228025042732280529552D202F0830A231083320370239683A04FA
:400680003B413C023D023E12458054105C085D815E2064806508670669406C016E40782079207C027E4080208115854089508C018D048F109014911E9290930394489540CC
:4006C000964097D8988899829AA89B459C659D019F20A128A201A30EA483A510A686A730AA08AC20AF0AB104B286B308B401B668B701C0EFC2BDC4EBCA0FCC8FCE2FD010A6
:40070000D6F0D8F0E2D0E408E660EAD0EC20EED000340208040405010630071409400B3D0D7F0E07103F14021531163817021C081D311E101F4E22402301243826012D019E
:400740002E282F28330F367F3772580459045C995F018249860488498B048E028F0290019101944895019610984899019A209C409E30A001A109A601AA01AC49AD01B240FD
:40078000B308B407B507B638B708BA20BF40C006C50CC70EC811C9FFCAFFCBFFD004D601D804D904DA04DB04DC99DD09DF01E2C00006018004A00504078009880B400E51ED
:4007C0000F04100212801308140215021620172019801E111F10218422042301240225202628270429412E402F40318032043402362A381439403DA04D204F0454085D20C4
:400800005E106C206D066E226F0A74107502766B774181018401854187108A408C088E018F8490B4911093029448954296449738988099049C659D409E699F2CA148A3047F
:40084000A4BBA580A637A730A802AF80B208B701C0FDC2FDC4FDCA99CCEACE3ED220E040E218E690E840EE80000101090240038005C9067F0A3F0BC90C3F0DFC0F021104C1
:40088000123F13E115C9162019CD1A101B301D091E08203F2109243F2508274329C92A022DCD2E042F103103323F33C03640373C3E443F45580459045F018150820283288C
:4008C00085088601874088048A038D108E018F229201960197199A019B119C019D089E049F10A201A304A403A519A604AA01AD10AE01B007B307B540B738B908BB80BE01F3
:40090000BF10D804D904DC90DF010052032006400725082109800B100C200D010E221096130816A919011D041F802014210822102301248025402608281029412D822E8082
:400940002F1431883210344036263701380839403B013E443F2262C08004810A862088108C089020911098809980A305A680AA80AD10AF01B410B580B704C0FFC2FFC4FF78
:40098000CAFBCCFECEFBE20AE690E840EC408480E002E284E6100003010E037006010702090F0A030B100D210F4E120813041403152E17411803190E1C031F01217F22045D
:4009C000240327012A022B0E2E032F08317F360F3F015608580459045B045C095D905F018305850589088B028C058D058E0A9105950599059D059E06A113A320A52CA7028E
:400A0000A80AA910AA05AD0FAF10B001B208B404B53FB602B8AABE55BF10D608D804D904DB04DD90DF0101060308070109120A010B200D40106011401320151018021A0145
:400A40001C021D081E041F0221022704280129022A082B082C202D022E802F2830883201332035253780380239413A803B283CA03D023E085B405E806302664069806D10FE
:400A80006F018009811083018401864489088A448F429104920A93299501984199279A889BA09E409F04A0D0A101A328A701A810AA01AD15AE80B040B208B510B620B702D9
:400AC000C08EC28FC44FCAFFCCFFCEFFD618D818E002E404E662E808EA06EE020001010C034005A9060109800A020D800E011008115614011703180119801D3D1E011FC034
:400B00002010218024102580280129802D302E04301032073410360837FF3A2A3E403F40580459045B045C095F0182208504860788048A108C408D029218941F950198185F
:400B400099019A019E40A002A218A404A608A701A880AC18B0C0B103B303B43FB504BF10D608D804D90BDB04DC99DD90DF010004018002080380049005020610080809208C
:400B80000A800B020C820E2810081108128215A01705180419101B021C421D081E241F2420082204234027012B102C042D052E40322434803502361439083A403D803E14A1
:400BC0003F01408042804A044B204C014E01580459085B4061406C0279027F03810182808340861087A088088B048C018D899092918C92D0930194609521960497489809BB
:400C000099269A089B209D409EC1A0D0A164A206A398A405A508A701A808AB02B108B203B404B550B620B790C0FFC2FFC4FFCAF2CCF6CEFAD608D808DE01E206E418E6056C
:400C4000EA0CEE0C010102080408050109010A0F0E020F02100F11011401180319011A0C1C081F012008210124082704280429012C082F013107360F39023E4056085804F2
:400C800059045B045C905D905F018240842088118B018C408E80940C9501966398409AA09C3B9E44A864AA1BB01CB202B301B4E0B601B701B802BA20BE41BF44C014C9FFA6
:400CC000CAFFCBFFD004D609D804D904DA04DB04DC09DD99DF01E080E240E440E56400120140021006220748088009080A280B010D200E420F2012041412150517211850B9
:400D00001A091F802002210422402480250126022D212F22320434103601374038203A103D023E68404042015B805D8061806240640168A26920715473108230858086028B
:400D4000870588418B018D038FC0900491D69240930194089520979C980299209AAC9B759C409D5C9E40A128A221A316A4A3A550A606A940AA20AC10B103B508B6A0B71048
:400D8000C0FFC2F7C4F2CAF0CCB2CEF4D009D618D818E0C0E218E410E661E810EAC0EC80EE580504070808040B070E140F20100211401502171818031D041F102034211803
:400DC0002518260127012B182C282D1F300C314032303403353F3F01580B59045B045C995F018002810284108502880889048A018C1C8D038E039002910296029703980393
:400E000099029A049C029F02A002A101A402A502A802A902AC02AD02B41FB503B704BE10BF50D804D904DB04DF010201030804800502071408200B800D010F2A104112202B
:400E4000151016821708182819011B081F202112230425102680288029902A042C802D042E202F02300231083240352036013744380439A03D013E584DC05E085F086002B1
:400E800061806440650168026D806E107802808082048310868088208B408D02908491D792C094289784988199329AAF9B549D019F08A188A221A317A550A604A720A8809D
:400EC000AD80AE02B104B380B404B508B601C0F3C2FAC4FDCAFFCCFBCEFEDE01E082E210E488E602E848EA90EC40EE801B011F08321033083682391089108E02C630CCF00E
:400F0000CE1032023380358036083B013E20860A8F019620AE80AF01CCF0CE60E25050085540858096209D809E20A780D460E21085409E20A408A540A780B610E240170283
:400F4000824084018B808C40C404E201E608602086059480964098019B02A780D802188084049480964598019B029C20A780C60808080A040C040E018420964598019B02A6
:400F80009C24A780C20F24018C01A408AE20AF80C820EA10EE1072207502850288088E20A408DC80DE20E61004100A400C040D801F80530454025B806401801084049640FF
:400FC00098019B02A780AC08C001C20DC601D405D6057102850287068D808F8097089B029F80A180AC02DC01E208E408010109010B010D010F0111011B011D0100FF01AB28
:4010000002021105BF0000A09F001F000000000000000000100000004000000000000000C0000000FF0000B847004700000100008000000080008000000000002700180163
:401040002700180100040000000500000000000000000000000000000000000000000000000000000000000000000000000000000000000000000000000000000000000027
:401080000000000000000000000000000000000000000000000000000000000000000000000000000000000000000000000000000000000000000000000000000000000030
:4010C00000000000000000000000000000000000000000000000000000000000000000000000000000000000000000000000000000000000000000000000000000000000F0
:4011000000000000000000000000000000000000000000000000000000000000000000000000000000000000000000000000000000000000000000000000000000000000AF
:40114000000000000000000000000000000000000000000000000000000000000000000000000000000000000000000000000000000000000000000000000000000000006F
:0200000490006A
:0400000000000007F5
:0200000490105A
:04000000BC90ACAF55
:0200000490303A
:020000005C970B
:0200000490402A
:4000000000000000000000000000000000000000000000000000000000000000000000000000000000000000000000000000000000000000000000000000000000000000C0
:400040000000000000000000000000000000000000000000000000000000000000000000000000000000000000000000000000000000000000000000000000000000000080
:400080000000000000000000000000000000000000000000000000000000000000000000000000000000000000000000000000000000000000000000000000000000000040
:4000C0000000000000000000000000000000000000000000000000000000000000000000000000000000000000000000000000000000000000000000000000000000000000
:0200000490501A
:0C00000000012E16106900002E316D006A
:00000001FF