:4000000000800020110000009510000095100000064A08B5136843F020031360044B1A6803F53F5302331A6001F052F8E8460040FA46004010B5054C237833B9044B13B191
:400040000448AFF300800123237010BD6881FF1F0000000010390000084B10B51BB108490848AFF300800848036803B910BD074B002BFBD0BDE81040184700BF00000000F8
:400080006C81FF1F10390000C880FF1F000000000A4A0B4B116801310B40002BBEBF03F1FF3363F00F030133136011685368994202BF024B01221A72704700BF8881FF1FA3
:4000C0000F0000800A4A0B4B516801310B40002BBEBF03F1FF3363F00F030133536051681368994202BF024B01221A72704700BF8881FF1F0F000080024B012200205A7223
:4001000002F08CB98881FF1F10B5C4B2204601F0A1F90128FAD110BD08B572B60F4B0F49DA680132DA601A690132C82A08BF00221A615A6918690132A72A08BF00224A6146
:400140005B69002B0CBF02230023002814BF184643F0010002F0CAFE62B608BD8881FF1F10B504460D4B8278997E91421CBF00225A7702689A610279094B1A718378002B34
:4001800014BF0220012002F075FEE07802F06CFE2079BDE8104002F0A3BE00BF8881FF1FA081FF1F70B5C4B220460E4601F05AF9314605460246204601F016FA204601F0A9
:4001C00049F90128FAD0284670BD000038B50B4CA57F5DB904F11800FFF7C2FF012002F0B3F84FF47A7002F0C5FA6577E36823620123A377BDE8384002F0FABA8881FF1F7D
:4002000038B50446C5B2284602F0AAF8062002F0C7FA44F00200C0B202F0A2F8062002F0BFFA284602F09CF8BDE83840062002F0A1BA10B5642402F08DF820B10120BDE851
:400240001040FFF7DDBF0120FFF7DAFF013CF2D1F4E7000038B5044D0024285D013402F04FFA102CF9D138BDAC81FF1F08B502F069FC002002F072FC02F084FC02F08EFCB2
:4002800080B208BD10B50446012002F081F8642002F070FAFFF7EAFF2080002002F078F8642002F067FAFFF7E1FF608010BD08B502F074FD002002F07DFD02F08FFD02F055
:4002C00099FD80B208BD10B50446FFF7B2FF322002F050FAFFF7EBFF20800020FFF790FF322002F047FAFFF7E2FF608010BD0FB400B593B014AB53F8042B402102A801936C
:4003000002F0EEFE02A802F090F802F09AF813B05DF804EB04B0704710B5044601780648FFF7E5FF0420FFF7EFFE62782146BDE81040042001F0E6B82239000007B50023EB
:40034000ADF804308DF80600032301A88DF80530FFF7E2FF03B05DF804FB0000F8B51D4C0646FFF733FF637F03B156B91A48FFF7BEFFFFF75EFF012000236077636302F048
:400380000FFA3246616B1548FFF7B1FF114D0027636B9E4216D001F0DDFF00B16F63636B9E4205DD0020FFF72BFF6B6B013305E005DA0120FFF724FF6B6B013B6B6302F0DA
:4003C00017FAE5E7322002F0D5F9BDE8F8400448FFF78DBF8881FF1F2F39000036390000533900002DE9F04F9BB062B602F06AFAB749042002F08EFAB64801F0B7FFB648CA
:4004000002F05AFDB54801F0EBFF02F03BFC02F00DFB002002F02EFD02F006F80221002000F0CEFFAE4D0321084602F0C1F92E462C46DFF8D49202F0DBF9AB7F73B12A6A67
:40044000EB689B1A41F28832934207D9002001F07BFF002002F00EFD0023AB7700F0E8FF18B9A048FFF743FF04E000F0E7FF0028F7D109E000F0DCFF0028FBD09A48FFF7F4
:4004800036FF032001F004F9032000F0E3FF0128D1D19648FFF764FE95490320FFF782FE94F838109348FFF722FF94F83830023B122B00F2FA83DFE813F01300F8031C00F2
:4004C000F8032200F8034400F8036800F803AF01F8033A03F8035903F8035F03F8036A0303238DF828308DF829300C238DF82A3049E394F83A00FFF731FF7F4B40E3FFF754
:4005000065FE00236372E068627A02F0FF0132B9EB681B1AB3F57A7FF6DD0B4608E03BB100227272F168627A12B9EB685B1AFAE707228DF8282004228DF82920ADF82A30A6
:4005400021E30220FFF7E0FD4FF0000A0DF1280B4FF480780027C8EB0A03DA1907F80B200137402FF9D10220FFF7CEFD3A465946022000F0C7FFB8F10108EBD10AF1010A0A
:40058000BAF1400FE4D15D4BCCE294F83A0001F0FFFE606BFFF7E2FE02F00EFD584BDFF86C811A78002702F0FB021A701A7842F001021A701A7802F0FE021A701A7802F068
:4005C000FE021A7002F0FCFC0220FFF79DFD41F6FF734FF480420121022002F051FC84F8780002F073F808F807000137102FF8D1DFF81CA100270AF15D039B461FFA83F881
:400600000137102F14BF3A4600221AF8010F2244062392F82420402102F08CF8424646F24A419AF8000002F097F808F14008102F1FFA88F8E4D196F83B3033B10023737267
:40064000637A002BFCD000237372142200210AA802F012FD2B4B4FF0FF320C9340230D930023236062602372236894F87800234493F8241001F0E2FF94F8780001F0A0FFF4
:40068000012194F8780001F073FF2368002BFCD0002398467360F2680492237A7BB902F0A7F8A98F04E0EB68049A9B1A8B4206D2626823689A422DD12B7A002BF3D0277A3F
:4006C000042194F87800FFB201F0C4FF66E000BF19010000F900000091000000C50000008881FF1F6139000074390000A081FF1FC081FF1F7E39000014390000163900009F
:400700009A6400400886FF1F94640040AC81FF1FAB81FF1F4FF0000A63680AA80BEB831353440A93CAF140030B9300F0DFFA0B9B08F10108C3F140039A440D9B5FFA8AFA15
:40074000E3B9C24F0220FFF7DFFCA7F1400EBEE80F000FC7BEE80F000FC7BEE80F000FC79EE80F0087E80F00A7F130014022022000F0C8FE703F40230C970D93BAF13F0FEE
:40078000CAD96268B24B01321340002BBEBF03F1FF3363F00F03013363607EE794F8780001F068FF0028F9D10AA800F0D3FA0220FFF7AAFC0D9B402B07D002204022A349E5
:4007C00000F0A0FE0220FFF79FFC0D9B022033F040021DBFC3F1400292B29C49114600F091FE0220FFF790FCFFF734FD37B19948FFF77DFD0220FFF7A1FD06E0964B09A886
:400800001B88ADF82430FFF787FD627A4146237A9248FFF76CFD4BE29148FFF768FDE76B17F03F0701D0032040E2012001F0B6FD95F83A0001F0ACFD02F0BEFB99F80030C1
:40084000DFF8208243F0040389F8003099F8003043F0010389F8003099F8003003F0FE0389F8003099F8003003F0FE0389F8003002F0A6FB686BFFF771FD01214FF48043AD
:4008800041F6FF72084601F08FFD85F8780001F01DFF08F807000137102FF8D1DFF8C8A100270AF15D031FFA83F806930137102F14BF3A4600221AF8010F2244052392F867
:4008C0002420402101F036FF414646F244429AF8000001F041FF08F14008102F1FFA88F8E4D10027BA46BB46F36B14229B0939464FF0FF380AA837600493C6F80480377237
:4009000002F0BAFB402301200D9300F0C1FE059701F06EFF22684E4B01321340002BBCBF03F1FF3363F00F036168B8BF01338B4200F09C80BBF1000F07D0237A002B40F092
:40094000A8806B7A002B40F0A4800B9B002B30D1BAF1000F0BD07F223C495A540133402BFAD10A910B9324E0BBF1000F05D1012000F070FD0128F7D107E0237A002B40F02A
:4009800088806B7A002BF2D083E030490790FFF709FC2E4B3F280A930B9007F10107079B06DD049ABA4203D0184600F071FE00E09A460B9BDBB12368069A0AA802EB8312D7
:4009C0000D9BC3F1400313440C9300F0D2F90D9B6BB92A681E4B01321340002BBEBF03F1FF3363F00F030133236040230D93636801333BD12B680F2B38D14FF00008C5F888
:400A0000048001F0FFFC85F808806B6895F878002B4493F8241001F011FE95F8780001F0CFFD012195F8780001F0A2FD85F80980637A002BFCD04FF00008012086F8098079
:400A400001F0ECFC404601F0A9FC12E04886FF1F0F0000808D39000018390000A7390000BA390000AC81FF1FAB81FF1FBBF1000F05D0237A6BB96B7A5BB94FF0010B636835
:400A800043453FF445AF059BD5F80480013305933EE701F0BDFC012001F080FC002001F0BDFC042194F8780001F0D4FD94F8780001F0E0FD0028F9D196F8780001F06EFD92
:400AC000737A327A0293012303920193CDF800A0059B3A4604997A48FFF709FCBAF1000F16D1049BBB420AD0012000F0B3FC01288046F6D17349FFF755FB3F2803DC0120A6
:400B000000F0DAFD04E0404600F0C2FD0137E8E7FFF7A0FB6C48FFF7EAFB237A0BB10220C4E06A4B1B8809A8ADF824302CE094F83A0001F02DFC606BFFF710FC6448FFF732
:400B4000D6FB00236372637A002BFCD0012001F065FC00237372637A002BFCD0002001F05DFC5C48FFF7C3FB5B4B09E000206077FFF7F4FB594B03E05948FFF7F1FA594BAF
:400B80001B88ADF828300AA8FFF7C6FB90E0A37F3BB1002001F0D8FB002002F06BF90023AB7702F0EDF8002002F090F82A2701F0BBFF002001F05EFF3A4600210AA802F0EF
:400BC0005BFA15238DF828308DF8297001F010FE002001F0B9FB002002F04CF9C82001F0C9FD0DEB0700FFF74DFB0DF13E00FFF76AFB01F0FDFD012002F03CF9322001F069
:400C0000B9FD0DF12E00FFF73DFB0DF14200FFF75AFB012001F098FB4FF4967001F0AAFD01F0E6FD0DF13600FFF72CFB0DF14A00FFF749FB002001F087FB4FF4967001F01F
:400C400099FD01F0D5FD022002F014F9322001F091FD0DF13200FFF715FB0DF14600FFF732FB012001F070FB4FF4967001F082FD01F0BEFD0DF13A00FFF704FB0DF14E0031
:400C8000FFF721FB002001F05FFB4FF4967001F071FD01F0ADFD002002F0ECF80023637701F0F0FF01F0C2FE6DE70120FFF746FB032000F0EDFC0C48FFF719FBFFF7BBBB7E
:400CC000C43900004886FF1FF43900001A390000033A0000113A00001C3900001E390000C081FF1F203900001E3A000010B54268002A2ED0C368002B2BD00368048A591CF1
:400D000001601B78013A13F0800F817C42601DBF03F0010242EA84030231083114BF43F0020343EA0423817414BF03820382837C072BDCD9028A083B42FA03F38268511CF3
:400D400081601370C368013BC360837C083B8374CDE710BD07B5827C42B102AA002102F8011D026001224260FFF7C0FF03B05DF804FB30B543686BB3C2685AB3827C072A42
:400D80000CD8046890F91050611C01602178013B41EA05210832018243608274827C018AA2F108042141CBB2090608D5C3F3801363F07F03023A03F08103827402E084740C
:400DC000002BD7D08268511C81601370C368013BC360CFE730BD00002DE9F04172B6884B61221A70A3F5F06301221A801924854A9C7092E803008033062283F8002283E8CA
:400E00000300522203F580731A707F4B7F4A1B787F4EDBB2137040F618027E4B00251A8041F2512223F8022C33784FF4F07003F0010343EA450502F0B7F8013C05F0030565
:400E40002ED0032DF0D1744B4FF480721A8007221A70724A002548211570917002221D705D7103F8032C0422DA716D4A6D4C13786D4E43F00103137012F8013C062743F041
:400E8000030302F8013C2378012243F0800323705B4B1A70654A137843F02003137000E0FEE707FB056300219A881868013502F0E3F8072DF5D15E485E4E002550F8041FDA
:400EC00005F1105303F1500221F0FF075133C9B20B4452005B0002329A4206D012F802EC12F801CC0EF807C0F5E7B0420D44E5D1514A002313609360136193614F4B504F25
:400F00001A68504BDFF888811A604F4B1A684F4B1A604F4A137843F002031370137C43F0020313742378A2F5863243F040032370413A137843F010031370464A464B07CA29
:400F400003C31A80454A2833106843F8250C127903F8212C424A07CA03C31A80414AE83B07CA03C31A80404A083307CA03C31A803E4A3F4BA2F5616203CBC2F8100EC2F812
:400F8000141E1378042043F008031370394B02F5AA521B783D78DBB298F80060EDB203F007010C321B091170F6B2537045F003033B7046F0030388F800302F4B48221A702B
:400FC0002E4A402313702E49937013729372082382F81F3220220A7048710A72294A0A20137001F0DDFB284B88F8006044223D70264D1A7094E80F0007C52B80BDE8F08144
:40100000004800406C0F00480F010049A146004025420040224200400440004006400040A2430040A0430040233A0000E8460040FCFFFF479C00004800760040740F0048D7
:40104000F846004020760040780F004828760040035001402C0F0048C0510040380F0048400F00484C0F0048580F004832510040640F0048CF0100491D51004001590040B0
:40108000235B0040585B004076580040B0430040F946004008B501F0C3FF03680C2B00D1FEE7FEE7084908B50B68084A1844821A802A01DC086005E001F0B2FF0C2303603F
:4010C0004FF0FF33184608BDCC80FF1F9887FF1F80B51148114B0025C0B1A3F1100192C922460439161BB74204D051F8046F42F8046BF7E7114653F8046C8C1AA64202D0DD
:4011000041F8045BF9E701381033E5E701F08EFFFFF768F9FEE700BF01000000F43B0000124A134B10B51A60124A134C1368134843F4007313600023032B98BF54F8232068
:401140004FEA830188BF0E4A0133302B4250F3D10C4B1A780C4B1A700C4B084A1A60FFF73BFEBDE8104001F0EDB900BF0004FA050CED00E014ED00E0000000000080FF1F6C
:4011800095100000BC760040C080FF1F08ED00E0F8B501F011FF4B4A01271378022643F001031370137C484C43F001031374474B02F5E3521F700B3203F8946C13780546D1
:4011C00003F07F031370002001F0EAFA2378404A03F0F90323701378384603F0DF03137023783B43237001F0DBFA282001F0D8FA384B30461A7802F07F021A701A7802F071
:40120000BF021A7023783343237001F0C9FA2378314A43F0040323700023137053702F4AFF2199540133092BFBD1284601F0C8FE0721172001F0FCFA2949172001F0EAFA1C
:401240000721182001F0F4FA2649182001F0E2FA0721152001F0ECFA2349152001F0DAFA0721052001F0E4FA2049052001F0D2FA0721062001F0DCFA1D49062001F0CAFA64
:401280000721084601F0D4FA1A49072001F0C2FA0721082001F0CCFA1749082001F0BAFA0021162001F0C4FA1449162001F0B2FA07210C2001F0BCFABDE8F84010490C20FB
:4012C00001F0A8BAA5430040944300409D60004012600040F851004084600040BD86FF1F5F1B0000991900005D1B0000911A0000BD1A0000ED1A0000251B0000651B000072
:40130000D91B0000214B224A10B5187000231370204A40201370204A0F2413701F4A13701F4A13701F4A13701F4A13701F4B4FF400021A604FF080721A604FF400121A602E
:4013400020221A601860802018604FF480701860174804704FF480001860164B1A70933B19B91A7802F0FE0202E01A7842F001021A70114B03221A70802203F8202C012011
:4013800001F012FE0D4B04221A7010BDD886FF1FDE86FF1FDC86FF1FDD86FF1FD986FF1FC886FF1FDB86FF1F5087FF1F00E100E09E6000409C600040286000401260004046
:4013C00070B5074C054623780E461BB9FFF7E0FE0123237031462846BDE87040FFF792BF8886FF1F0A4A002313700A4A13700A4A13700A4A13700A4A13700A4A13700A4AAE
:4014000013700A4B03221A70802203F8202C7047DE86FF1FDC86FF1FDD86FF1FD986FF1FC886FF1FDB86FF1F5087FF1F28600040014B1878704700BFDD86FF1F044B1A7829
:4014400002F0FF001AB118780022C0B21A707047DC86FF1F024A0C2303FB002040787047E486FF1F431E072B0CD8074A064B00010344805C5B7800F00F0043EA00200238A5
:4014800080B2704700207047FC5F00401A4A38B50C2303FB00231B79090C13F0800F00F1FF35044619BF8AB24FF480438BB24FF48042032D18D8DFE805F002070C11002107
:4014C000084601F01BF80DE00021084600F0FAFF08E00021084600F0D9FF03E00021084600F0B8FF054B1855EDB2072D03D801F0EDF8034B185538BDE486FF1FB486FF1F6C
:40150000BD86FF1F431E072B2DE9F0470446894615465CD82F4F0C2202FB0072D388DFF8B8A09BB2C3F500739D424FF00C0303FB007388BFD588DB7884BFC5F50075ADB23F
:40154000254A43EA15230601B354B244EBB28AF80130224B1A5C9846FF2A01D1FFF796FF0C2303FB047200215170B9F1000F28D03DB31B4F385D01F011F811232946FE221A
:4015800018F8040001F0D6F806F5C04278321FFA89F118F8040001F0DFF8124D18F80410385D01F04BF80121385D00F0E1FF735D43F002037355735D03F0FD037355BDE86F
:4015C000F08703FB04746379DBB28AF80230BDE8F08700BFE486FF1FFC5F0040BD86FF1FB486FF1F706000402DE9F047044615468846002940D0431E072B3FD8FFF732FF50
:40160000A84203D22046FFF72DFF05461D4E335DFF2B03D141462046FFF738FFDFF868A027011AF8040000F0B9FF1223FE222946305D01F07FF807F5C0411FFA88F278314E
:40164000305D01F089F8DFF84490315D1AF8040000F0F4FF01211AF8040000F089FF17F8093043F0020307F8093017F8093003F0FD0307F8093002E00D4600E000252846B6
:40168000BDE8F087BD86FF1FB486FF1F70600040431E072B0AD8064A0C2303FB002300225A705A79034BD2B200011A54704700BFE486FF1FFE5F0040431E072B9FBF024B57
:4016C000000108221A547047FE5F004030B51A4A1A491B4D0878138803449BB21380194A00231488D8B2A4B27CB1082B0CD050680078C0B2E8545068013301305060108826
:40170000013880B21080ECE718460B780E4C082B0E4A00D040B10E4D2B7883F080032B700F232370022301E0022323701370094B1870087030BD00BF5487FF1F5087FF1FD1
:4017400000600040CC86FF1FC986FF1FDE86FF1FDA86FF1F5187FF1F074B02221A70074B80221A70064B0F221A70064A00231370054A012013707047DE86FF1FDA86FF1FCC
:40178000C986FF1F5087FF1F5187FF1F30B5164B16491B780A8803F00F03023BDBB21A4492B20A80124C134A0020118889B279B173B15568215C013BC9B229705168DBB23F
:4017C0000131516011880130013989B21180ECE7094A1370094A137883F080031370084B0B221A7030BD00BF296000405487FF1F00600040CC86FF1F5187FF1FDA86FF1F3A
:40180000C986FF1F064A06231370064A01201370054B80221A70054B00221A70704700BFDE86FF1FC986FF1FDA86FF1F5187FF1F054B9A683AB19A68044910709A6809885B
:40184000518000229A607047CC86FF1F5487FF1F08B5124B1A78D2B21A701B78DBB21A0602D50F4A137008BD0220FFF7E1FF0D4B1B7803F06003202B05D0402B06D043B953
:4018800000F012FC04E001F09FFB01E000F046FD10B9034B03221A7008BD00BF28600040C986FF1F0060004008B5084A084B0120197813880B449BB21380064B00221A70AD
:4018C000FFF7B6FF044B03221A7008BD5487FF1F5087FF1FDE86FF1FC986FF1F08B50C4B1B78DBB2042B07D0062B09D0022B0DD1BDE80840FFF7D8BFBDE80840FFF746BFEC
:401900000320FFF795FF034B03221A7008BD00BFDE86FF1FC986FF1F08B5054B002201201A70FFF785FF034B03221A7008BD00BFDE86FF1FC986FF1F08B50A4B1A7832B13F
:401940001A78094942F080020A7000221A70074B002201201A70FFF76BFF054B03221A7008BD00BFC886FF1F08600040DE86FF1FC986FF1F074B1B78DBB2042B05D0062BFD
:4019800005D0022B05D1FFF7A1BEFFF7C5BFFFF7D3BF7047DE86FF1F38B51D4C2378DBB2DD0634D518060AD503F00F03012B2ED1FFF74EFF174B1B78190609D538BD5A069E
:4019C00002D5FFF7D7FF03E09D0620D5FFF786FF23781B061BD4104B1A78104B1B7813430F4A13701278934211D10A4A0849154613782078DBB2000605D41378DBB20B7033
:401A00000B7803F00F0328788342F1D138BD38BD28600040C986FF1FDA86FF1F5187FF1F29600040054A00231380054A916819B191680B7092685380704700BF5487FF1FD4
:401A4000CC86FF1F0E4808B503889BB213B9FFF783FE13E00B4B02221A700B4B00221A70FFF7E0FF094AD1799379028843EA012392B2934238BF0380FFF728FE012008BDE1
:401A8000CC86FF1FDE86FF1FDA86FF1F00600040084B01221A700F3B9B7C074B1A7B02F00302012A1EBFDA7B82F08002DA7301225A7370470B600040E486FF1F094B0222E7
:401AC0001A700F3B93F82230074B1A7E02F00302012A1EBFDA7E82F08002DA7601225A76704700BF0B600040E486FF1F0B4B04221A700F3B93F83230094B93F8242002F0C2
:401B00000302012A1EBF93F8272082F0800283F82720012283F82520704700BF0B600040E486FF1F0B4B08221A700F3B93F84230094B93F8302002F00302012A1EBF93F87A
:401B4000332082F0800283F83320012283F83120704700BF0B600040E486FF1F7047FFF741BC0000F0B5184B184E19780C27C9B201234FF0000C31B3CA0720D5144A4FEAB1
:401B8000031E7244947850782040C5070DD507FB03652C79240608D5147804F0FE0414706D790C4CEDB204F80E50840706D507FB036425792D0658BF84F801C090700133F1
:401BC000DBB24908D7E7F0BD9F600040E486FF1F70600040FE5F004000F0ACBC70B50446184B88B003AA03F11006154618685968083303C5B3422A46F7D11B782B70FCB168
:401C00002223237001AD03232846637000F08AFE002220461146AB5C08AC04EB131414F8144C03F00F03847008AC234413F8143C0132082AC1700371417100F10400EAD148
:401C400008B070BD4D3A00002DE9F0431C4D01222E460C201F274FF0800E4FF0080C194B00FB02581401234418705F70164998F805902144B9F1000F07D098F8044024061A
:401C80004CBF887081F802C001E081F802E000FB0261CC880132E4B29C71CC88092AC4F30724DC71CC88E4B21C71C988C1F307215971D4D1054BFF221A70BDE8F08300BF87
:401CC000E486FF1F70600040FC5F00400A600040064B074A1B7802EBC30253681A7C824286BF03EBC003586900207047D886FF1FB03A00002DE9F84F424B1A78002A7ED023
:401D00001878414D0138C0B2FFF7E2FFA8463F4AC3681478007ADFF800C1E4B203EBC0000C2600274FF0010E834268D01A78A24263D11CF80420597891425ED19A7893F889
:401D4000039002F07F0206FB02FA05EB0A01CF7093F802B009F0030981F804B093F803B005F80AB0B3F804A0A1F808A093F902A0BAF1000F0BDAB9F1010F0CBF4FF0070991
:401D80004FF00D0981F8059081F801E009E0B9F1010F0CBF4FF005094FF0090981F805904F704FEA02191A4906FB0282494481F802E0B2F808A0CAF3072A81F800A0B2F866
:401DC00008A05FFA8AFA81F801A0B2F806A011495FFA8AFA494481F806A0B2F80690C9F3072981F80790B2F806905FFA89F981F80490D288C2F307224A71083394E7BDE85F
:401E0000F88F00BFDD86FF1FE486FF1FD986FF1FFC5F004070600040CA86FF1F08B5064B18780138C0B2FFF753FF20B143681B7900EBC300406908BDDD86FF1F00212DE948
:401E4000F84F0B464E4E0C2707FB01F401313219092933554FF000059370494CD3701381937253705371EFD118B1464B1D70464B1D70464B1A78002A7FD01878012501383E
:401E8000C0B2FFF725FFA8464368DFF8F8E0DB790C2713F0400F3E4B4FF0000C1A7814BF42F0010202F0FE021A70027AD20007FB0541C36803EB02094B4531D093F802A013
:401EC0000AF07F06AE4229D10E89B3F804B0B6B25E4538BFA1F808B01E7893F801B01EF80660B3451AD181F804A0DE780E7093F902A0DE78BAF1000F06F0030607DA012EC1
:401F00000CBF07260D264E7181F8018006E0012E0CBF052609264E7181F801C00833CBE70135092DC3D1C1680A328B1C0A440C200833934209D013F8081C13F80A5C01F09D
:401F40007F0100FB01418D72F2E7FFF767FF114B0121186000230C2000FB0142D3801289013113449BB203F00102134409299BB2F2D1BDE8F84FFFF767BEBDE8F88F00BFA8
:401F8000E486FF1FCA86FF1F5287FF1FDD86FF1FDB86FF1FE086FF1F114B1B7903F07F035A1E072A19D80F490C2202FB031291781B0141F0010191700021D170517841F064
:401FC00002015170127912F0800F074A1A4414BF8D2389239370FFF715BC0020704700BF00600040E486FF1FFC5F004030B4194B1A7902F07F02531E072B27D8164B0C247F
:4020000004FB02339978154D01F0FE0199700021D97029461201505D114400F07F0050555A7802F0FD025A701A795B78120605D5012B01D18C7006E00D2303E0012B0CBF2F
:40204000082309238B7030BCFFF7DCBB002030BC704700BF00600040E486FF1FFC5F004010B50D4B0D4C21791878C9B20138C0B2FFF72EFE43681B798B4201D2012909D87E
:40208000074A0848535CDBB24354A3780120DBB2535410BD002010BDDD86FF1F00600040CA86FF1F5287FF1F38B58A4A8A4C13780021DBB221801806517840F18D800A2933
:4020C00000F20581DFE811F05D00030103010301030103010B0003017E0003018200D3787C49012B09D17D4B1A787D4B03EBC2035B685B686360122310E0CB78022B12D170
:402100008878FFF7E5FD002800F0E180436863606368DA7863689B7843EA02232380BDE83840FFF78FBCCB78032B26D16D4B00228878D5B2854209D3664A91786A4AEE29A2
:4021400008BF1346634A917881B106E0187801320028F1D018780344EAE764499278097C914203D16248FFF739FD614B1A78002A00F0AD801A78228018E0BDE8384000F0A6
:4021800023BF13F0030313D0022B40F0A0802380504B0C211B7903F07F02564B01FB02339A78554BD2B21A7000225A706360B6E702222280514A11784F4AC9B21170537041
:4021C0006260ACE7012323804D4BEFE70123238013794C4A1344E9E701390A2977D8DFE801F037764F76067676760A7620009378454ADBB25AE0937803F0FF0153B9404B61
:402200001A7891425FD01970404B01201870FFF715FE58E0481EC0B2FFF75AFD0028EED155E0FFF71DFF002851D02A4A384913791279DBB2D2B20A70364A3249D25CCB5C89
:402240009A4240D0314B01221A70FFF753FD3AE003F00303012B2BD009D3022B37D11D4B9B78002B33D1BDE83840FFF7BFBE194B9B78012B2BD1214A137803F0FD0315E001
:4022800003F00303012B13D008D3022B1FD1114B9B78E3B9BDE83840FFF77EBE0D4B9B78012B14D1154A137843F0020313700AE0084B1A795AB998781B791749DBB2CA5C09
:4022C00022EA0002CA54BDE83840FFF79BBA002038BD00BF00600040CC86FF1FD886FF1FB03A0000143B00009C3A0000873B00007087FF1FE486FF1F8986FF1FDB86FF1FD0
:40230000DD86FF1FCA86FF1FC886FF1FDC86FF1FD986FF1F5287FF1FDF86FF1F074B1A78120609D55B78012B06D1054B054A5A6012781A80FFF786BB0020704700600040F0
:40234000CC86FF1F743A0000014B1870704700BF72640040014B1878704700BF67640040014B1870704700BF73640040064A0123136002F688321268E0211064034A1170CB
:40238000A2F540721360704780E100E000E400E0014B1870704700BF7A640040014B1870704700BF7465004073B515461E460B4C05230022019200920A46014618462370A5
:4023C00000F064F932462946207800F01FF90221207800F009F9207802B070BDD080FF1F064A0423136002F688321268E0219064034A1170A2F202321360704780E100E06B
:4024000002E400E0014B04221A60704700E100E0014B04221A60704780E100E0014B1870704700BF77640040704738B505460078012428B100F060FD285D0134E4B2F8E748
:4024400038BD08B50D2000F057FDBDE808400A2000F052BDF7B516461F460B4C00230325019300930A4601462846257000F00EF93A463146207800F0C9F80221207800F071
:40248000B3F8207803B0F0BDE080FF1FF7B516461F460B4C00230225019300930A4601462846257000F0F2F83A463146207800F0ADF82946207800F097F8207803B0F0BDB0
:4024C000E180FF1FF7B516461F460B4C00230125019300930A4601462846257000F0D6F83A463146207800F091F80221207800F07BF8207803B0F0BDE280FF1F73B51546B0
:402500001E460B4C0023019300930A4601461846237000F0BBF832462946207800F076F80221207800F060F8207802B070BD00BFE380FF1F024B1878C0F38010704700BF3E
:402540008F450040074A7F23802113705170064A013BDBB202F80839002BF9D1034A1370704700BFE480FF1FF87B00400078004017280FD8084B0001C25C11B142F0200245
:4025800001E002F0DF02C254C25C42F00102C25400207047012070471070004017280BD8064B0001C25C02F0FE02C254C25C02F0DF02C25400207047012070471070004069
:4025C00017280DD8074900010B4603441A7942F004021A71435C43F00103435400207047012070471070004017280BD8064A0001835C490003F0F10301F00E0119438154E9
:4026000000207047012070471070004041F6FF73994208BF4FF400519A4208BF4FF4005217289FBFC00000F1804000F5EC4081809ABFC280002001207047000017289FBFB4
:40264000034B00011954002088BF0120704700BF1970004017289FBF054B00011A5C01F007019DBF1143195400200120704700BF1470004017289FBF034B0001185C00F092
:40268000070088BFFF20704714700040172810B51AD8C00001F07F0100F1804441EAC21204F5EC44D2B222709DF8082003F00F0343EA0213DBB263709DF80C30002003F0D0
:4026C0000F03A370E07010BD012010BD10B500F073FC0A4A5378182B0AD91478013B5370E30003F1804303F5F0431B78137000E0FF2400F065FC204610BD00BFE480FF1F13
:40270000030610B5044611D400F056FC084AE300117803F1804303F5F04319705378147001335370BDE8104000F04ABC10BD00BFE480FF1F30B504060CD411F4704509D18F
:40274000C40004F1804404F5F0442180A270E370284630BD012030BD03065FBFC00000F1804000F5F04081805ABFC280002001207047000038B50446084DB4F5004F05D9CD
:40278000286800F011FCA4F50044F6E7034B58686043BDE8384000F007BC00BFEC80FF1F024B1B7A584300F0FFBB00BFEC80FF1F0E4B00F003001A78490102F0FC0210432D
:4027C00018701A7801F0600142F080021A701A7802F07F021A701A7802F09F020A431A701A7842F010021A70704700BF83430040014B01221A70704784430040044B00F0D2
:402800000F021B6853F8220043F82210704700BF08ED00E0054A00F01F00126800F1100352F8230042F82310704700BF08ED00E000F01F0000F16040490100F56440C9B2E0
:40284000017070470F4B10B50F4900240F205C609C60DC601C615C61FFF7D0FF0B4A136843F0040313600A4B4FF47A72DB68B3FBF2F3084A1360084B4FF400421C60C3F8C8
:40288000E82010BD8C86FF1FF128000010E000E0EC80FF1F14E000E018E000E0024A136843F002031360704710E000E008B5FFF7F5FF034A136843F00103136008BD00BF5E
:4028C00010E000E010B5054CA3691BB9FFF7BAFF0123A361BDE81040FFF7E8BF8C86FF1F024B1868C0F30040704700BF10E000E038B5FFF7F5FF012808D1054D002455F8D7
:40290000243003B198470134052CF8D138BD00BF9086FF1F024B03EB80035868596070478C86FF1F134B144A1B78DBB20360127843EA0223114A0360127843EA0243104A4C
:402940000360127843EA026303600E4B0E4A1B78DBB24360127843EA02230C4A4360127843EA02430A4A4360127843EA02634360704700BF0301004904010049EC460040F7
:40298000020100490101004900010049050100490601004910B500F00FFB204A044613780A2043F002031370137C43F00203137412F80A3C43F0010302F80A3C937943F060
:4029C0000103937102F5AB52137843F003031370134B18221A7013F8012C42F0400203F8012C13F8012C02F0FC0203F8012CCE2203F8062CA3F597530222183B1A70094A5B
:402A0000137843F008031370FFF7CAFE064B10222046BDE810401A6000F0D2BAAB4300400E5900402F5B004080E200E008B500F0C3FA0F4A137803F0FE031370A2F5AA527F
:402A40001D3A137803F0FD031370137C03F0FD03137412F80A3C03F0FE0302F80A3C937903F0FE039371BDE8084000F0A9BA00BF08590040044A137803F03F0343EA801002
:402A8000C0B21070704700BF08590040082804D00A280CBF8223C22300E0422308380E4AC0B20428137098BF0C4B4FF0000298BF33F910100A4B88BF11461A8042F21073AE
:402AC0004B4341F2883103F6C41393FBF1F305490B60054B1A8070470A5900405E3A00005A87FF1F5C87FF1F6087FF1F08B5102000F0A6F907210420FFF79AFE07490420B6
:402B0000FFF788FE064A0C20137843F006031370FFF7BCFF034B00221A8008BDE52B0000095900405887FF1F10B5054C23781BB9FFF7DCFF01232370BDE81040FFF72ABF43
:402B4000A886FF1F044B1A7802F0FB021A701A7842F001021A7070470859004010B5084B1C7814F0010403D10028F9D0002404E02046FFF715FE024B1B78204610BD00BF43
:402B800009590040034A044B1B881088181A00B2704700BF6087FF1FA25B00400E4A13881BB223B111880A2309B2594301E00B4B19680B4B1B88C01A42F2107300B203FB5D
:402BC00000F2022391FBF3F30028D8BF5B42134493FBF1F000B270475A87FF1F5C87FF1F5887FF1F7047000010B500F0E5F9214A044613780A2043F001031370137C43F094
:402C00000103137412F80A3C43F0020302F80A3C937943F00203937102F5AA521832137843F003031370144B18221A7013F8012C42F0400203F8012C13F8012C02F0FC0256
:402C400003F8012CCE2203F8062CA3F597530222123B1A70094A137843F008031370FFF79FFD074B08222046BDE810401A6000F0A7B900BFAB43004006590040275B004072
:402C800080E200E008B500F097F90F4A137803F0FE031370A2F5AA52153A137803F0FE031370137C03F0FE03137412F80A3C03F0FD0302F80A3C937903F0FD039371BDE821
:402CC000084000F07DB900BF00590040044A137803F03F0343EA8010C0B21070704700BF00590040082804D00A280CBF8223C22300E0422308380E4AC0B20428137098BF62
:402D00000C4B4FF0000298BF33F910100A4B88BF11461A8042F210734B4341F2883103F6C41393FBF1F305490B60054B1A80704702590040683A00006687FF1F6C87FF1FA5
:402D40006487FF1F08B5102000F084F807210320FFF76EFD07490320FFF75CFD064A0C20137843F006031370FFF7BCFF034B00221A8008BD3D2E0000015900406887FF1F2B
:402D800010B5054C23781BB9FFF7DCFF01232370BDE81040FFF728BFA986FF1F044B1A7802F0FB021A701A7842F001021A7070470059004010B5084B1C7814F0010403D163
:402DC0000028F9D0002404E02046FFF7E9FC024B1B78204610BD00BF01590040034A044B1B881088181A00B2704700BF6487FF1FA05B00400E4A13881BB223B111880A235E
:402E000009B2594301E00B4B19680B4B1B88C01A42F2107300B203FB00F2022391FBF3F30028D8BF5B42134493FBF1F000B270476687FF1F6C87FF1F6887FF1F7047000055
:402E4000034A00F0F800137803431370704700BF02410040034A00F0F800137803431370704700BF06410040014B1870704700BF7F640040014B1870704700BF756400407A
:402E800073B515461E460B4C04230022019200920A46014618462370FFF7F8FB324629462078FFF7B3FB02212078FFF79DFB207802B070BDFC80FF1F074A0223136002F697
:402EC00088321268E0215064044A11706FF440710A441360704700BF80E100E001E400E0014B1870704700BF7C640040014B1870704700BF78640040FEB5494652465B467E
:402F00000EB40746244909688A46244A12682448022100F071F8030020480068C018204900F06AF8143883460121C9430C460125002600F041F8814651460B7823400B70D5
:402F40005846013000F030F83800F04028400B78234003430B70584600F026F80136072EF2D9002001300138013001200B78234003430B705846043000F016F8484600F03F
:402F80001FF800BF00BF00BF0EBC894692469B46FEBD00BFAFF30080D480FF1FF880FF1F00C20100000000000230800803D000BF01380046FCD17047EFF3108072B6704764
:402FC00080F31088704700BF094A137803F00303012B0AD0022B09D113790C2103F07F02044B01FB02339B7A00E013790020704700600040E486FF1F002902D0B0FBF1F0B8
:40300000704708B14FF0FF3000F008B80029F8D00246B0FBF1F000FB11217047704700BF014B1868704700BF6081FF1F0E4B70B51E460E4C0025E41AA410A54204D056F886
:40304000253098470135F8E700F0BAFD084B094C1E46E41AA4100025A54204D056F8253098470135F8E770BDCC3B0000CC3B0000CC3B0000D43B000003460244934202D0A4
:4030800003F8011BFAE7704730B5141E05469BB0184604DA8B232B604FF0FF301DE04FF40273ADF80C300CBF234604F1FF33029305934FF6FF7300910491ADF80E300246AB
:4030C0001E9B6946284600F073F8431CBCBF8B232B6014B1009B00221A701BB030BD000007B5009313460A46014603480068FFF7CBFF03B05DF804FB6081FF1F2DE9F047C3
:403100008E6882469E420C46914698463ED88A8912F4906F3AD02568096902236F1A656905EB450595FBF3F57B1C43449D4238BF1D4653050FD5294600F04AFB064698B1B9
:403140003A46216900F0D2FAA38923F4906343F08003A38113E02A4600F098FB064670B92169504600F0E8FA0C23CAF80030A3894FF0FF3043F04003A381BDE8F087266134
:403180003E44266046466561ED1BA560464528BF464649463246206800F0B3FAA36800209B1BA36023681E442660BDE8F08700002DE9F04F9DB003938B8980461C060D4684
:4031C00016460DD50B695BB9402100F001FB2860286118B90C23C8F80030CDE040236B610023099320238DF82930DFF89CB130238DF82A3037463C4614F8013B1BB9B7EBEC
:40320000060910D003E0252BF9D02746F3E74B46324629464046FFF771FF013000F0A780099B4B4409933B78002B00F0A08000234FF0FF3204930793059206938DF85330F7
:403240001A930126052221784E4800F041FA671C049B38B14B4A3C46801A06FA00F018430490EFE7D90644BF20228DF853201A0744BF2B228DF8532022782A2A03D0079AA1
:4032800000210A200BE0039A111D12680391002A10DA524243F00200079204900BE027463B780134303B092B03D800FB02320121F5E701B107923B782E2B1ED17B782A2B80
:4032C0000AD1039B02371A1D1B680392002BB8BF4FF0FF33059310E0002319460593781C0A2407463A780130303A092A03D804FB01210123F5E703B1059103223978224803
:4033000000F0E6F940B14023CBEB000003FA00F0049B013718430490397806221B487E1C8DF8281000F0D4F988B1194B33B9039B073323F007030833039314E003AB00932D
:403340002A46144B04A94046AFF3008007E003AB00932A460F4B04A9404600F093F8B0F1FF3F824603D0099B5344099342E7AB895B0601D4099801E04FF0FF301DB0BDE843
:40338000F08F00BF9B3B0000A13B0000A53B000000000000FD3000002DE9F04791461F460A698B6806469342B8BF1346C9F8003091F843200C46DDF8208012B10133C9F8D4
:4033C00000302368990642BFD9F800300233C9F80030256815F0060510D104F1190A07E00123524639463046C04701301AD00135E368D9F800209B1A9D42F1DB94F843302A
:403400002268003318BF012392060FD5E118302081F843005A1C94F845102244023382F8431003E04FF0FF30BDE8F08704F1430239463046C0470130F4D02268D9F8005051
:40344000E36802F00602042A08BF5D1B2269A3680CBF25EAE57500259342C4BF9B1AED184FF000091A344D4509D00123224639463046C0470130D5D009F10109F3E700203C
:40348000BDE8F0872DE9F04317460A7E85B06E2A984606460C460C9B01F1430E00F0AE8011D8632A22D009D8002A00F0BB80582A40F0CA8081F84520834955E0642A1ED07C
:4034C000692A1CD0C0E0732A00F0B08009D86F2A2ED0702A40F0B8800A6842F020020A603EE0752A24D0782A3AD0ADE01A6801F14205111D1960136884F84230A8E0216880
:403500001A6811F0800F02D0111D196008E011F0400F02F10401196002D0B2F9003000E01368002B3CDA2D225B4284F8432037E021681A6811F0800F02D0111D196007E031
:4035400011F0400F02F10401196001D0138800E01368227E5C496F2A14BF0A2208221BE078225A4984F845202268186812F0800F00F104051D6003D1550601D5038800E021
:403580000368D00744BF42F0200222601BB9226822F0200222601022002084F8430001E049490A226568002DA56008DB206820F0040020602BB9002D7DD175460CE0002BFD
:4035C00079D07546B3FBF2F002FB1033CB5C05F8013D03460028F5D1082A0BD12368DA0708D5236962689A42DEBF302305F8013C05F1FF35C5EB0E0323612EE008681A683C
:4036000010F0800F496903D0101D1860136808E010F0400F02F104001860136801D0198000E0196000232361754616E01A68111D1960156800216268284600F049F808B131
:40364000401B6060636804E004F1420584F8422001232361002384F84330CDF800803B4603AA21463046FFF797FE013002D14FF0FF3026E023692A4639463046C047013030
:40368000F5D023689B0710D5002504F1190907E001234A4639463046C0470130E7D00135E368039A9B1A9D42F2DBE068039B9842B8BF184605E00B7804F1420584F84230D2
:4036C0008AE705B0BDE8F0834D3A0000AC3B000010B5C9B202449042034605D01C7801308C42F8D1184610BD002010BD10B5431E0A44914204D011F8014B03F8014FF8E79A
:4037000010BD884210B501EB020301D8421E0BE09842FBD28118D21AD34204D013F8014D01F8014DF8E710BD994204D011F8014B02F8014FF8E710BD38B50546002944D048
:4037400051F8043C0C1F002BB8BFE41800F0D4F81E4A1368114613B96360146030E0A3420DD92268A018834201BF18685B681218226063600C6023E0A24203D813465A6861
:40378000002AF9D118681918A1420BD12168014458188242196013D110685268014419605A600DE002D90C232B6009E021686018824201BF106852680918216062605C605A
:4037C0002846BDE8384000F098B838BDB086FF1F70B5CD1C25F0030508350C2D38BF0C25002D064601DBA94202D90C23336046E000F082F8234B1C681A462146A1B10B6801
:403800005B1B0ED40B2B03D90B60CC18CD501EE08C420BBF63684B681360636018BF0C4615E00C464968E9E7174C23681BB9304600F052F820602946304600F04DF8431C0C
:4038400018D0C41C24F00304A0420DD12560304600F053F804F10B00231D20F00700C31A0ED05A42E25070BD211A304600F034F80130EBD10C233360304600F03EF800202A
:4038800070BD00BFB086FF1FAC86FF1FF8B5074615460E4621B91146BDE8F840FFF798BF1AB9FFF749FF2846F8BD00F027F885420ED929463846FFF78BFF044650B1314654
:4038C0002A46FFF713FF31463846FFF735FF01E03046F8BD2046F8BD38B5064C0023054608462360FDF7DEFB431C02D1236803B12B6038BD9487FF1F7047704751F8040CCE
:403900000028BEBF091851F8043CC0180438704700000000050209020B020D020F02110213027265706C792030782530327800686F6D696E6700626567696E6E696E6720C0
:403940007365656B2066726F6D20256420746F2025640066696E6973686564207365656B0057616974696E6720666F72205553422E2E2E0055534220726561647900636FA5
:403980006D6D616E642030782530327800756E64657272756E206166746572202564207061636B65747300636F756E743D256420693D256420643D256400636D645F7772D6
:4039C00069746500703D25642063723D25642063773D256420663D256420773D256420696E6465783D256420756E64657272756E3D25640077726974652066696E69736808
:403A000065640073746172742065726173696E670073746F702065726173696E670069646C6500005100401000405100403000000001400010001401400008004001400048
:403A40000A004C0140000200500140200030313233343536373839414243444546000001000000040000001000010000000400000010000028000000000104000100000002
:403A800000000000000157494E5553420000303030303100000000000000000012034D005300460054003100300030000100000001000000B83A000001000000873B0000A5
:403AC000000000000000000001000000D03A000001000000593B000004000000F23A0000000000000000000000000000F03A0000FF00000001024000FF00000082024000C7
:403B0000FF00000003034000FF00000084034000FF00020304030904160346006C007500780045006E00670069006E0065002A0343006F0077006C00610072006B00200034
:403B400054006500630068006E006F006C006F0067006900650073000009022E0001010080320904000004FF00000107050102400000070582024000000705030340000AE8
:403B80000705840340000A12010002FF0001080912006E0100020180014300232D302B2000686C4C0065666745464700303132333435363738396162636465660000000069
:403BC000F8B500BFF8BC08BC9E4670475900000021110000F8B500BFF8BC08BC9E46704735000000F83B0000C880FF1FA00000003006000000000000000000009887FF1F5B
:403C0000FF000000675000400C00000007000000FFFFFFFF7F8000003F0000000000007D00FA0000400000000090D003FF0000000000000000000000000000000000000028
:403C400000000000000000000000000000000000993B0000000000000000000000000000000000000000000000000000000000000000000000000000000000000000000070
:403C8000000000000000000000000000000000000081FF1F000000000000000000000000000000000000000000000000000000000000000000000000000000000000000065
:403CC00000000000000000000000000000000000000000000000000000000000000000000000000000000000000000000000000000000000000000000000000000000000C4
:403D00000000000000000000000000000000000000000000000000000000000000000000000000000000000000000000000000000000000000000000000000000000000083
:403D40000000000000000000000000000000000000000000000000000000000000000000000000000000000000000000000000000000000000000000000000000000000043
:403D80000000000000000000000000000000000000000000000000000000000000000000000000000000000000000000000000000000000000000000000000000000000003
:020000040003F7
:0200000480007A
:400000000145004007520040015B004001650040430201403B03014043040140590501404C0601404F0701404B080140640901404B0A0140610B0140500C01404D0D01404C
:40004000500E0140360F01404714014047150140491601404D1701404C1801405A1901405A1A0140491B0140094001400D41014011420140104301400444014008450140D2
:40008000054601400E4701400B4801400F490140194C0140064D014008500140045101407E020841090411021902600A61067C4027212B0A0001027E047E06010A7F0E08D1
:4000C0001002130314811A041CFF2210264029022A202B012CFF2D012F02327F33023480350139283E143F14580459045B045F01810885088604890E8A018D08900193017D
:4001000094019508980A99089A049E029F02A008A108A410A508A820A904AC0CAE02AF08B20FB30FB410B620BE50BF04D608D80BD904DB04DC09DD90DF01000803080480F1
:400140000515082109400A100D440F441008110412411501179419081A121B201E2821082608270829142A822D102F02300232803314370139613B04584060026240680801
:400180006A406F017A408221842086408788880291049840B040B104C0F6C2FFC4FFCA3FCC8FCE0FD608D808DE01E008E204E60A000A0204040109C60A040B210D8412021A
:4001C00013211410170819071A101C201F07200821A52342244027102A012B422C0C2E02300E320F33E03430351F3640371F39A03E414002450C47E0482149FF4AFF4BFF82
:4002000050045609580459045A045B045C995D995F0162C0800189018B029401AD02AF01B001B302B701B988BA03BF44D804D904DB04DC09DF0101280380050208010A2832
:400240000B010E240F081004125119801A081B091D011F0120262150222023102504264029202B902C042F0A3011310832803A603D1041204B08520258805B2061406210EC
:40028000630164106710680869476B1C6D106F0270D07104729673448202870989418B088C408E10948095F99744980299089A619D159E829F94A108A210A380A406A54046
:4002C000A680A70AAA44AC01AE09AF20B508C01EC22FC40FCA17CC0FCE2CD004D60CD80CE204E402EA02EC0E000401010378040305010608070609200B480D081004132024
:400300001607178019051B021C021D011F78212023502510280429012D7931F8320C330334023504360137F83E103F10580459045C995F0180118108841188448B088C203F
:400340008D048E0290079208941195109708981199109B029C339D199E449F02A011A411A711A878AA02AE11B07FB104B318B503BB08BE01BF01D804D904DB04DC90DF0115
:4003800001450208079009800A900B040C020E2210801358152019011C041D101E26221A240225252680279028202C022F943258340236103784380239A03C023D883E2094
:4003C000598069808020840485208710880189448D808E2A902091659210934E9508980299809AA09B089C819D329F80A099A220A384A406A560A680A710A904AB20AE4443
:40040000B204B340B404B610C03FC2BFC44FCAF2CCFECEFDD608E62EE802EA01EE04000401010201040D050109010A010D010E0E1208130114081501180819011C081D01BD
:400440001F02200F210124082701280129012A022C082D012F02340F37033E103F405608580459045B045D905F018001820883058404850F86288A088B0F8C0F8F01922031
:4004800093019610970198289A029B099E079F0EA001A301A420A703AB01AD0FAE40B01FB309B503B660B705BA80BF54D804D904DC09DF0100200110021003420540062834
:4004C0000780088009100A200B800C240D010E200F0110101180128014081585172019801B011E0821842210254029242B822C402D202E012F12300132883310358036011F
:400500003714380839203A123B603C223D083F4049804B805E40640267026F0978807B01830187088A088B018E01908891869351952096899704981599049A249B549C42CA
:400540009D809E029F03A031A115A289A382A508A709AC20AD20B020B101B624B701C0FFC2FFC4FDCAFFCCFFCEFFD610D810E020E450E628E8A8EA01EC50EE0400040201D9
:400580000401050207010A010B020C010D081001110113021401150218011A041C011E0220012304240128012C012E02300331063404350837013B023E113F50420247E085
:4005C000482049FF4AFF4BFF4F83580459045A045B045C905D095F018510880D89148B088D188F04901093049401951E9B019F02A605A80AAB08AD01AE10B101B20CB31EB3
:40060000B403B610BE40BF01D80BD90BDB04DC99DF0100100101020203100510080109100A020B100EA0104212081304142A1501170219011A041DD01E201FE42120228115
:4006400024C025012601276029012D802F0830803281330434903604372139603B083D903E084204520159025AA861086220638269406C036F027C0282018480880C890460
:400680008D408F2090189110922093509442952096019784980199069A089B149C029D409E029F62A011A154A26EA340A482A581A680AF20B604C04FC23FC4EFCA31CCF3ED
:4006C000CE7ED004D60FD80FDE80E0A0E240E490E840EC0E007F0605070609190A050B020D110E050F401110120713281502162517591A451D111E6A227F23112463261045
:40070000278029082A052D512E052F24304132033307341C35C0362137383B883E55580459045B045C905F018179820683048403874688038B018C048E018F0190039403BC
:400740009541971298039B389C039D099F40A203A380A403A803A922AB41AC03AD09B003B107B204B307B5F8BB0ABE05D804D904DC90DF01006002C0031004220540071066
:4007800008010A010B140C810F141002112813021606170618101A801FA5210422102350242825142648270528082A402B802C022F683210334434083680370138223908C6
:4007C0003B803C403D28400841106D906F0283028402851087088A29946295209680971E980199069A049B109D409E629F04A011A222A340A402A591A688B240B748C0FFEB
:40080000C2FFC4FFCAFDCCDECE7FE028EAA00001031004E0070208480A020B020E070F0410E013021401160817021A081B021E101F0821012420270228042A482B022C0FD8
:400840002E802F02301F351F36E0388039203F10580459045C095F0180198101824483088669876089088A198B228C198F08920E961997809A199B079D019E19A019A4191D
:40088000A524A622A708A822AA19AB10AD0FAE19AF40B007B270B3E0B408B51FB607BA8ABB08BE10D804D904DB04DC99DF010008028003060462050408080A800B060D8089
:4008C0000E400F141006130814041520164A170419021B421C221D0D1E48200825042620271029442A202B402C022E082F0431013288331036A438423B143D2A3E405801B1
:400900005901610862046E8089088A028C48C0FFC2FFC4F7CA7FCC7FCEFF000B0102060907010A020B020C020D030F0410021101130414021502180119011A0C1B021C02A8
:400940001D032008210222012409250226022A082B012C032D022E04300F31073E013F01580459045B045F01801F8108861F87108A048B028D1F8E208F2090019120931F95
:4009800095089602981F99049C1F9F01A108A208A508A610A908AA1FAF08B23FB73FBA08D804D904DC99DF0100140180028804A40780084409020B080C800D100E100F40E7
:4009C000108A12201505160818801D041F0420802701284029842A0A2B042C802D042E90300432A0330135103789381439823C803D113F08680269806A80840285049024A5
:400A0000913792109340958896809708980499909A829B889F01A088A102A2A8A304A402B108B621C0FFC2FFC47FCAFFCCFFCEFFE008E804EE020001010102020404050114
:400A4000060108080B020E0E0F011101120813021408150118081B011C081D011F022101220124082501280D29012C0F2D033503360F3E403F10580459045F018085827059
:400A8000844D87048A4D8B028C059078928093019449970198059C049D069E02A00DA107A420A60DA84DAC09AE12B003B107B307B404B6F8BA80BB0ABE11D608D804D9041C
:400AC000DB04DC99DD90DF0101080208038104240580078009080B8A0C800E140F40100612A015B1170819821B901F40210B2310270429012C822D042E14300231083280A3
:400B0000351036813708380439203C203D013F485B406002834084068D098E02902491259210934295089680971099119A809B889D029F04A098A101A2A8A304A402A710C8
:400B4000A804AB80B204B480C0FFC2FFC4FFCAF1CCFBCEF6D608D808E208E402E601E805EE0B0001020E0302070109070A800C010E080F01104012201301162017011A10D7
:400B80001B011C011E441F04206F23012460260F270728212B012C022E012F0130E0310732E0361F3F01580459045B045C095F01810882018310864687208A018B0E8C79D4
:400BC0008D028E048F10900991019240951097049A389B109D029E80A009A422A641A841AA12AD1FAE01B33EB4F8B501B607B701BA80D804D904DC99DF01010802080382A0
:400C000004010510070109810A080C400E280F80112012A01340140815011621180219801A091C011D411E101F4120102118222023032502284029012B022DA02E042F8002
:400C40003102328033143401350436803710389039083B013D2A3F40411042075E805F2065206704864087408C028F019088919E9350952196C99704980999049A2D9B1492
:400C80009D609E029F02A020A195A29CA3C2A508AB60B380C0DFC2FBC4FFCAF8CCFFCEFFD630E010E240E601EA10EC20EE0B012202010341040205410601071208020A0110
:400CC0000B010C070D09100211791201130414021601170118071B061D091E071F40220623012605274128022A012B802C022E012F383407350737F83B203E10580459041F
:400D00005C905F01801F8424861988048C088D018E0192049401961E98049C04A001A210A404A804AC01AD02AE22B220B302B41FB701BE14BF44C034C602C804C9FFCAFF56
:400D4000CBFFCD20CEF0D110D608D804D904DA04DB04DD99DF01E108E240E340E480E640E740002002080392066509100A200B410C200D410E101011111A140215041608AA
:400D8000170119201D18225023042722281029602B802D803298330238883B113F8045084702574059405A805C806580850186408F40908891969210935195019680970460
:400DC00098839A2D9B119D109F20A030A115A280A382AA40B010B201B301B481B508C0FFC2FFC4FFCA1FCC0FCE1FD0C0D610D810EC20EE021B011F083140330836843B40B7
:400E0000C630CCF0CE1032043380364037023B013F8097409D40A604AE80AF01CCF0CE605080541083418540960897419D409F02A012A644A7C0A802AC10D460E2A0E610A3
:400E4000EA308410860489109202960897409F02A002A640A780A880AA04AE01E650EA20EE6014407002C404DC01530163028402A402B040D401D602EA011B04A308AB01E7
:400E8000AF09C60808080B080E020F4087048F8092019480A308A840AB04AE01C20FE40825209120920297409810A002AB02AE40AF80C820EED05110581070027E019120B5
:400EC00092029810A002A920AF40D4A0DC80DE20E820EE40048008020D800F201F10508057085B805E018002920194809B80A308A710AA01AC08AF40B710C001C20DC60164
:400F0000D407D601EA088C80A480AF10B580E402EA08010109010B010D010F0111011B011D0100FF01AB020211050000BF0000A09F001F000000000000000000100000009D
:400F40004000000000000000C0000000FF0000B847004700000100008000000282008200000000000003030003000000270018012700180100040000000500000000000013
:400F80000000000000000000000000000000000000000000000000000000000000000000000000000000000000000000000000000000000000000000000000000000000031
:400FC00000000000000000000000000000000000000000000000000000000000000000000000000000000000000000000000000000000000000000000000000000000000F1
:4010000000000000000000000000000000000000000000000000000000000000000000000000000000000000000000000000000000000000000000000000000000000000B0
:401040000000000000000000000000000000000000000000000000000000000000000000000000000000000000000000000000000000000000000000000000000000000070
:0200000490006A
:0400000000000007F5
:0200000490105A
:04000000BC90ACAF55
:0200000490303A
:0200000049B302
:0200000490402A
:4000000000000000000000000000000000000000000000000000000000000000000000000000000000000000000000000000000000000000000000000000000000000000C0
:400040000000000000000000000000000000000000000000000000000000000000000000000000000000000000000000000000000000000000000000000000000000000080
:400080000000000000000000000000000000000000000000000000000000000000000000000000000000000000000000000000000000000000000000000000000000000040
:4000C0000000000000000000000000000000000000000000000000000000000000000000000000000000000000000000000000000000000000000000000000000000000000
:0200000490501A
:0C00000000012E16106900002E315A1C61
:00000001FF