:4000000000800020110000006510000065100000064A08B5136843F020031360044B1A6803F53F5302331A6001F03AF8E8460040FA46004010B5054C237833B9044B13B109
:400040000448AFF300800123237010BD6881FF1F00000000E0380000084B10B51BB108490848AFF300800848036803B910BD074B002BFBD0BDE81040184700BF0000000029
:400080006C81FF1FE0380000C880FF1F000000000A4A0B4B116801310B40002BBEBF03F1FF3363F00F030133136011685368994202BF024B01221A72704700BF8881FF1FD4
:4000C0000F0000800A4A0B4B516801310B40002BBEBF03F1FF3363F00F030133536051681368994202BF024B01221A72704700BF8881FF1F0F000080024B012200205A7223
:4001000002F074B98881FF1F10B5C4B2204601F089F90128FAD110BD08B572B60F4B0F49DA680132DA601A690132C82A08BF00221A615A6918690132A72A08BF00224A6176
:400140005B69002B0CBF02230023002814BF184643F0010002F0B2FE62B608BD8881FF1F10B504460D4B8278997E91421CBF00225A7702689A610279094B1A718378002B4C
:4001800014BF0220012002F05DFEE07802F054FE2079BDE8104002F08BBE00BF8881FF1FA081FF1F70B5C4B220460E4601F042F9314605460246204601F0FEF9204601F022
:4001C00031F90128FAD0284670BD000038B50B4CA57F5DB904F11800FFF7C2FF012002F09BF84FF47A7002F0ADFA6577E36823620123A377BDE8384002F0E2BA8881FF1FDD
:4002000038B50446C5B2284602F092F8062002F0AFFA44F00200C0B202F08AF8062002F0A7FA284602F084F8BDE83840062002F089BA10B5642402F075F820B10120BDE8F9
:400240001040FFF7DDBF0120FFF7DAFF013CF2D1F4E7000038B5044D0024285D013402F037FA102CF9D138BDAC81FF1F08B502F051FC002002F05AFC02F06CFC02F076FC2A
:4002800080B208BD10B50446012002F069F8642002F058FAFFF7EAFF2080002002F060F8642002F04FFAFFF7E1FF608010BD08B502F05CFD002002F065FD02F077FD02F0FD
:4002C00081FD80B208BD10B50446FFF7B2FF322002F038FAFFF7EBFF20800020FFF790FF322002F02FFAFFF7E2FF608010BD0FB400B593B014AB53F8042B402102A80193B4
:4003000002F0D6FE02A802F078F802F082F813B05DF804EB04B0704710B5044601780648FFF7E5FF0420FFF7EFFE62782146BDE81040042001F0CEB8F238000007B500237C
:40034000ADF804308DF80600032301A88DF80530FFF7E2FF03B05DF804FB0000F8B51D4C0646FFF733FF637F03B156B91A48FFF7BEFFFFF75EFF012000236077636302F048
:40038000F7F93246616B1548FFF7B1FF114D0027636B9E4216D001F0C5FF00B16F63636B9E4205DD0020FFF72BFF6B6B013305E005DA0120FFF724FF6B6B013B6B6302F00B
:4003C000FFF9E5E7322002F0BDF9BDE8F8400448FFF78DBF8881FF1FFF38000006390000233900002DE9F04F9BB062B602F052FABF49042002F076FABE4801F09FFFBE48BC
:4004000002F042FDBD4801F0D3FF02F023FC02F0F5FA002002F016FD01F0EEFF0221002000F0B6FFB64D0321084602F0A9F92E462C4602F0C5F9AB7F73B12A6AEB689B1A5D
:4004400041F28832934207D9002001F065FF002002F0F8FC0023AB7700F0D2FF18B9A948FFF745FF04E000F0D1FF0028F7D109E000F0C6FF0028FBD0A348FFF738FF0320FD
:4004800001F0EEF8032000F0CDFF0128D1D19F48FFF766FE9E490320FFF784FE94F838109C48FFF724FF94F83830023B122B00F2E483DFE813F01300E2031C00E20322007B
:4004C000E2033A00E2035E00E2039701E2032403E2034303E2034903E203540303238DF828308DF829300A238DF82A3033E394F83A00FFF733FF884B2AE3FFF767FE00232A
:400500006372637A002BFCD000237372F268637A002BFCD0F36807218DF828109B1A04218DF82910ADF82A3015E30220FFF7ECFD4FF000090DF1280A4FF480780027C8EB7F
:400540000903DA1907F80A200137402FF9D10220FFF7DAFD3A465146022000F0BBFFB8F10108EBD109F10109B9F1400FE4D16B4BC0E294F83A0001F0F3FE606BFFF7EEFE43
:4005800002F002FD664BDFF89C811A78002742F004021A701A7842F001021A701A7802F0FE021A701A7802F0FE021A7002F0F0FC0220FFF7A9FD41F6FF734FF48042012151
:4005C000022002F045FC84F8780002F067F808F807000137102FF8D1DFF84CA100270AF15D081FFA88F90137102F14BF3A4600221AF8010F2244062392F82420402102F077
:4006000081F84A4646F24F419AF8000002F08CF809F14009102F1FFA89F9E4D100237372637A002BFCD00027142239460AA8777202F00AFD40230D934FF0FF3337607360E5
:4006400037723368DFF8E490334493F8241096F87800CDF8309001F0D9FF96F8780001F097FF012196F8780001F06AFF236813B96B7A002BFAD0002794F83BA0676094F840
:4006800008B0BBF1000F6CD102F09AF86B7A43B1BAF1010A85F809B003D162E02B7A002B5FD1626823689A42F8D04FF0000B63680AA808EB83135B440A93CBF140030B9309
:4006C00000F0FCFA0B9B0137C3F140039B440D9B5FFA8BFB002B34D1022000F0A3FE012826D0637A002B3CD12B7A002BF4D038E019010000F900000091000000C5000000AD
:400700008881FF1F3139000044390000A081FF1FC081FF1F4E390000E4380000E63800009F640040AC81FF1FAB81FF1F0886FF1F4022B949022000F0CDFE4023CDF830909F
:400740000D93BBF13F0FB2D96268B44B01321340002BBEBF03F1FF3363F00F03013363608DE7042194F8780001F05CFF94F8780001F068FF0028F9D10AA800F0D3FA022013
:40078000FFF7C2FC337A63B90D9A402A06D0C2F1400292B2A049022000F09CFE0220FFF7B3FC0D9A32F0400203D11146022000F091FEFFF74FFD237A33B19948FFF797FD3B
:4007C0000220FFF7BBFD06E0964B09A81B88ADF82430FFF7A1FD627A3946237A9248FFF786FD4DE29148FFF782FDE76B17F03F0701D0032042E2012001F0B8FD95F83A0074
:4008000001F0AEFD02F0C0FB894BDFF828821A7802F0FB021A701A7842F001021A701A7802F0FE021A701A7802F0FE021A7002F0AFFB686BFFF792FD01214FF4804341F64F
:40084000FF72084601F098FD85F8780001F026FF08F807000137102FF8D1DFF8DC91002709F15D031FFA83F807930137102F14BF3A46002219F8010F2244052392F8242085
:40088000402101F03FFF414646F2445299F8000001F04AFF08F14008102F1FFA88F8E4D10027BB46B946BA46F36B4FF0FF389B09142239460AA837600593C6F8048037729A
:4008C00002F0C2FB402301200D9300F0C9FECDF818802268514B01321340002BBCBF03F1FF3363F00F036168B8BF01338B4200F0A580BAF1000F07D0237A002B40F0B18024
:400900006B7A002B40F0AD800B9B002B34D1B9F1000F0BD07F2240495A540133402BFAD10A910B9328E0BAF1000F06D1012000F079FD01288046F6D107E0237A002B40F0B0
:4009400090806B7A002BF1D08BE03349FFF72AFC8146314B0B9040460A9300F081FEB9F13F0F07F1010706DD059BDB1BD3F1000949EB030900E0C1460B9BDBB12368079A60
:400980000AA802EB83120D9BC3F1400313440C9300F0D7F90D9B6BB92A68204B01321340002BBEBF03F1FF3363F00F030133236040230D936368013340D12B680F2B3DD187
:4009C0004FF00008C5F8048001F004FD85F808806B6895F878002B4493F8241001F016FE95F8780001F0D4FD012195F8780001F0A7FD85F80980637A002BFCD04FF00008C9
:400A0000012086F8098001F0F1FC404601F0AEFCCDF8188015E000BF0886FF1F0F0000805D390000E8380000773900008A39000094650040AC81FF1FAB81FF1FBAF1000F92
:400A400005D0237A6BB96B7A5BB94FF0010A6368069A93423FF43DAF6B680BF1010B069337E701F0BDFC012001F080FC002001F0BDFC042194F8780001F0D4FD94F87800BB
:400A800001F0E0FD0028F9D196F8780001F06EFD737A327A0293012303920193CDF800905B463A4605997A48FFF721FCB9F1000F16D1059BBB420ADD012000F0B3FC0128A3
:400AC0008046F6D17349FFF76DFB3F2803DC012000F0DAFD04E0404600F0C2FD0137E8E7FFF7B8FB6C48FFF702FC237A0BB10220C4E06A4B1B8809A8ADF824302CE094F8F7
:400B00003A0001F02DFC606BFFF728FC6448FFF7EEFB00236372637A002BFCD0012001F065FC00237372637A002BFCD0002001F05DFC5C48FFF7DBFB5B4B09E00020607776
:400B4000FFF70CFC594B03E05948FFF709FB594B1B88ADF828300AA8FFF7DEFB90E0A37F3BB1002001F0D8FB002002F06BF90023AB7702F0EDF8002002F090F82A2701F0C0
:400B8000BBFF002001F05EFF3A4600210AA802F05BFA15238DF828308DF8297001F010FE002001F0B9FB002002F04CF9C82001F0C9FD0DEB0700FFF765FB0DF13E00FFF7FF
:400BC00082FB01F0FDFD012002F03CF9322001F0B9FD0DF12E00FFF755FB0DF14200FFF772FB012001F098FB4FF4967001F0AAFD01F0E6FD0DF13600FFF744FB0DF14A002C
:400C0000FFF761FB002001F087FB4FF4967001F099FD01F0D5FD022002F014F9322001F091FD0DF13200FFF72DFB0DF14600FFF74AFB012001F070FB4FF4967001F082FD47
:400C400001F0BEFD0DF13A00FFF71CFB0DF14E00FFF739FB002001F05FFB4FF4967001F071FD01F0ADFD002002F0ECF80023637701F0F0FF01F0C2FE6DE70120FFF75EFB17
:400C8000032000F0EDFC0C48FFF731FBFFF7D1BB943900000886FF1FC4390000EA380000D3390000E1390000EC380000EE380000C081FF1FF0380000EE39000010B542681B
:400CC000002A2ED0C368002B2BD00368048A591C01601B78013A13F0800F817C42601DBF03F0010242EA84030231083114BF43F0020343EA0423817414BF03820382837C8C
:400D0000072BDCD9028A083B42FA03F38268511C81601370C368013BC360837C083B8374CDE710BD07B5827C42B102AA002102F8011D026001224260FFF7C0FF03B05DF856
:400D400004FB30B543686BB3C2685AB3827C072A0CD8046890F91050611C01602178013B41EA05210832018243608274827C018AA2F108042141CBB2090608D5C3F3801391
:400D800063F07F03023A03F08103827402E08474002BD7D08268511C81601370C368013BC360CFE730BD00002DE9F04172B6884B61221A70A3F5F06301221A801924854A1E
:400DC0009C7092E803008033062283F8002283E80300522203F580731A707F4B7F4A1B787F4EDBB2137040F618027E4B00251A8041F2512223F8022C33784FF4F07003F090
:400E0000010343EA450502F0B7F8013C05F003052ED0032DF0D1744B4FF480721A8007221A70724A002548211570917002221D705D7103F8032C0422DA716D4A6D4C137847
:400E40006D4E43F00103137012F8013C062743F0030302F8013C2378012243F0800323705B4B1A70654A137843F02003137000E0FEE707FB056300219A881868013502F0B5
:400E8000E3F8072DF5D15E485E4E002550F8041F05F1105303F1560221F0FF075733C9B20B4452005B0002329A4206D012F802EC12F801CC0EF807C0F5E7B0420D44E5D167
:400EC000514A002313609360136193614F4B504F1A68504BDFF888811A604F4B1A684F4B1A604F4A137843F002031370137C43F0020313742378A2F5863243F04003237066
:400F0000413A137843F010031370464A464B07CA03C31A80454A2833106843F8250C127903F8212C424A07CA03C31A80414AE83B07CA03C31A80404A083307CA03C31A805D
:400F40003E4A3F4BA2F5616203CBC2F8100EC2F8141E1378042043F008031370394B02F5AA521B783D78DBB298F80060EDB203F007010C321B091170F6B2537045F00303A4
:400F80003B7046F0030388F800302F4B48221A702E4A402313702E49937013729372082382F81F3220220A7048710A72294A0A20137001F0DDFB284B88F8006044223D7094
:400FC000264D1A7094E80F0007C52B80BDE8F08100480040F01000480F010049A146004025420040224200400440004006400040A2430040A0430040F3390000E846004055
:40100000FCFFFF47A800004800760040F8100048F846004020760040FC1000482876004003500140B0100048C0510040BC100048C4100048D0100048DC10004832510040B7
:40104000E8100048CF0100491D51004001590040235B0040585B004076580040B0430040F946004008B501F0C3FF03680C2B00D1FEE7FEE7084908B50B68084A1844821AE6
:40108000802A01DC086005E001F0B2FF0C2303604FF0FF33184608BDCC80FF1F5887FF1F80B51148114B0025C0B1A3F1100192C922460439161BB74204D051F8046F42F814
:4010C000046BF7E7114653F8046C8C1AA64202D041F8045BF9E701381033E5E701F08EFFFFF780F9FEE700BF01000000C43B0000124A134B10B51A60124A134C1368134856
:4011000043F4007313600023032B98BF54F823204FEA830188BF0E4A0133302B4250F3D10C4B1A780C4B1A700C4B084A1A60FFF73BFEBDE8104001F0EDB900BF0004FA05B0
:401140000CED00E014ED00E0000000000080FF1F65100000BC760040C080FF1F08ED00E0F8B501F011FF4B4A01271378022643F001031370137C484C43F001031374474BB2
:4011800002F5E3521F700B3203F8946C1378054603F07F031370002001F0EAFA2378404A03F0F90323701378384603F0DF03137023783B43237001F0DBFA282001F0D8FAF4
:4011C000384B30461A7802F07F021A701A7802F0BF021A7023783343237001F0C9FA2378314A43F0040323700023137053702F4AFF2199540133092BFBD1284601F0C8FE15
:401200000721172001F0FCFA2949172001F0EAFA0721182001F0F4FA2649182001F0E2FA0721152001F0ECFA2349152001F0DAFA0721052001F0E4FA2049052001F0D2FA36
:401240000721062001F0DCFA1D49062001F0CAFA0721084601F0D4FA1A49072001F0C2FA0721082001F0CCFA1749082001F0BAFA0021162001F0C4FA1449162001F0B2FA42
:4012800007210C2001F0BCFABDE8F84010490C2001F0A8BAA5430040944300409D60004012600040F8510040846000407D86FF1F2F1B0000691900002D1B0000611A0000F3
:4012C0008D1A0000BD1A0000F51A0000351B0000A91B0000214B224A10B5187000231370204A40201370204A0F2413701F4A13701F4A13701F4A13701F4A13701F4B4FF4B8
:4013000000021A604FF080721A604FF400121A6020221A601860802018604FF480701860174804704FF480001860164B1A70933B19B91A7802F0FE0202E01A7842F00102FA
:401340001A70114B03221A70802203F8202C012001F012FE0D4B04221A7010BD9886FF1F9E86FF1F9C86FF1F9D86FF1F9986FF1F8886FF1F9B86FF1F1087FF1F00E100E0DB
:401380009E6000409C600040286000401260004070B5074C054623780E461BB9FFF7E0FE0123237031462846BDE87040FFF792BF4886FF1F0A4A002313700A4A13700A4A96
:4013C00013700A4A13700A4A13700A4A13700A4A13700A4B03221A70802203F8202C70479E86FF1F9C86FF1F9D86FF1F9986FF1F8886FF1F9B86FF1F1087FF1F2860004082
:40140000014B1878704700BF9D86FF1F044B1A7802F0FF001AB118780022C0B21A7070479C86FF1F024A0C2303FB002040787047A486FF1F431E072B0CD8074A064B00016D
:401440000344805C5B7800F00F0043EA0020023880B2704700207047FC5F00401A4A38B50C2303FB00231B79090C13F0800F00F1FF35044619BF8AB24FF480438BB24FF4B0
:401480008042032D18D8DFE805F002070C110021084601F01BF80DE00021084600F0FAFF08E00021084600F0D9FF03E00021084600F0B8FF054B1855EDB2072D03D801F03C
:4014C000EDF8034B185538BDA486FF1F7486FF1F7D86FF1F431E072B2DE9F0470446894615465CD82F4F0C2202FB0072D388DFF8B8A09BB2C3F500739D424FF00C0303FB06
:40150000007388BFD588DB7884BFC5F50075ADB2254A43EA15230601B354B244EBB28AF80130224B1A5C9846FF2A01D1FFF796FF0C2303FB047200215170B9F1000F28D0CB
:401540003DB31B4F385D01F011F811232946FE2218F8040001F0D6F806F5C04278321FFA89F118F8040001F0DFF8124D18F80410385D01F04BF80121385D00F0E1FF735D33
:4015800043F002037355735D03F0FD037355BDE8F08703FB04746379DBB28AF80230BDE8F08700BFA486FF1FFC5F00407D86FF1F7486FF1F706000402DE9F04704461546F8
:4015C0008846002940D0431E072B3FD8FFF732FFA84203D22046FFF72DFF05461D4E335DFF2B03D141462046FFF738FFDFF868A027011AF8040000F0B9FF1223FE222946E5
:40160000305D01F07FF807F5C0411FFA88F27831305D01F089F8DFF84490315D1AF8040000F0F4FF01211AF8040000F089FF17F8093043F0020307F8093017F8093003F0A8
:40164000FD0307F8093002E00D4600E000252846BDE8F0877D86FF1F7486FF1F70600040431E072B0AD8064A0C2303FB002300225A705A79034BD2B200011A54704700BF9A
:40168000A486FF1FFE5F0040431E072B9FBF024B000108221A547047FE5F004030B51A4A1A491B4D0878138803449BB21380194A00231488D8B2A4B27CB1082B0CD05068CE
:4016C0000078C0B2E85450680133013050601088013880B21080ECE718460B780E4C082B0E4A00D040B10E4D2B7883F080032B700F232370022301E0022323701370094B21
:401700001870087030BD00BF1487FF1F1087FF1F006000408C86FF1F8986FF1F9E86FF1F9A86FF1F1187FF1F074B02221A70074B80221A70064B0F221A70064A00231370DC
:40174000054A0120137070479E86FF1F9A86FF1F8986FF1F1087FF1F1187FF1F30B5164B16491B780A8803F00F03023BDBB21A4492B20A80124C134A0020118889B279B109
:4017800073B15568215C013BC9B229705168DBB20131516011880130013989B21180ECE7094A1370094A137883F080031370084B0B221A7030BD00BF296000401487FF1F4A
:4017C000006000408C86FF1F1187FF1F9A86FF1F8986FF1F064A06231370064A01201370054B80221A70054B00221A70704700BF9E86FF1F8986FF1F9A86FF1F1187FF1FB7
:40180000054B9A683AB19A68044910709A680988518000229A6070478C86FF1F1487FF1F08B5124B1A78D2B21A701B78DBB21A0602D50F4A137008BD0220FFF7E1FF0D4BBA
:401840001B7803F06003202B05D0402B06D043B900F012FC04E001F09FFB01E000F046FD10B9034B03221A7008BD00BF286000408986FF1F0060004008B5084A084B01203F
:40188000197813880B449BB21380064B00221A70FFF7B6FF044B03221A7008BD1487FF1F1087FF1F9E86FF1F8986FF1F08B50C4B1B78DBB2042B07D0062B09D0022B0DD136
:4018C000BDE80840FFF7D8BFBDE80840FFF746BF0320FFF795FF034B03221A7008BD00BF9E86FF1F8986FF1F08B5054B002201201A70FFF785FF034B03221A7008BD00BF14
:401900009E86FF1F8986FF1F08B50A4B1A7832B11A78094942F080020A7000221A70074B002201201A70FFF76BFF054B03221A7008BD00BF8886FF1F086000409E86FF1FDB
:401940008986FF1F074B1B78DBB2042B05D0062B05D0022B05D1FFF7A1BEFFF7C5BFFFF7D3BF70479E86FF1F38B51D4C2378DBB2DD0634D518060AD503F00F03012B2ED1D4
:40198000FFF74EFF174B1B78190609D538BD5A0602D5FFF7D7FF03E09D0620D5FFF786FF23781B061BD4104B1A78104B1B7813430F4A13701278934211D10A4A084915460B
:4019C00013782078DBB2000605D41378DBB20B700B7803F00F0328788342F1D138BD38BD286000408986FF1F9A86FF1F1187FF1F29600040054A00231380054A916819B163
:401A000091680B7092685380704700BF1487FF1F8C86FF1F0E4808B503889BB213B9FFF783FE13E00B4B02221A700B4B00221A70FFF7E0FF094AD1799379028843EA012386
:401A400092B2934238BF0380FFF728FE012008BD8C86FF1F9E86FF1F9A86FF1F00600040084B01221A700F3B9B7C074B1A7B02F00302012A1EBFDA7B82F08002DA73012281
:401A80005A7370470B600040A486FF1F094B02221A700F3B93F82230074B1A7E02F00302012A1EBFDA7E82F08002DA7601225A76704700BF0B600040A486FF1F0B4B042229
:401AC0001A700F3B93F83230094B93F8242002F00302012A1EBF93F8272082F0800283F82720012283F82520704700BF0B600040A486FF1F0B4B08221A700F3B93F84230DE
:401B0000094B93F8302002F00302012A1EBF93F8332082F0800283F83320012283F83120704700BF0B600040A486FF1F7047FFF741BC0000F0B5184B184E19780C27C9B228
:401B400001234FF0000C31B3CA0720D5144A4FEA031E7244947850782040C5070DD507FB03652C79240608D5147804F0FE0414706D790C4CEDB204F80E50840706D507FB41
:401B8000036425792D0658BF84F801C090700133DBB24908D7E7F0BD9F600040A486FF1F70600040FE5F004000F0ACBC70B50446184B88B003AA03F1100615461868596833
:401BC000083303C5B3422A46F7D11B782B70FCB12223237001AD03232846637000F08AFE002220461146AB5C08AC04EB131414F8144C03F00F03847008AC234413F8143CEA
:401C00000132082AC1700371417100F10400EAD108B070BD1D3A00002DE9F0431C4D01222E460C201F274FF0800E4FF0080C194B00FB02581401234418705F70164998F8A6
:401C400005902144B9F1000F07D098F8044024064CBF887081F802C001E081F802E000FB0261CC880132E4B29C71CC88092AC4F30724DC71CC88E4B21C71C988C1F3072180
:401C80005971D4D1054BFF221A70BDE8F08300BFA486FF1F70600040FC5F00400A600040064B074A1B7802EBC30253681A7C824286BF03EBC0035869002070479886FF1F80
:401CC000803A00002DE9F84F424B1A78002A7ED01878414D0138C0B2FFF7E2FFA8463F4AC3681478007ADFF800C1E4B203EBC0000C2600274FF0010E834268D01A78A242F8
:401D000063D11CF80420597891425ED19A7893F8039002F07F0206FB02FA05EB0A01CF7093F802B009F0030981F804B093F803B005F80AB0B3F804A0A1F808A093F902A068
:401D4000BAF1000F0BDAB9F1010F0CBF4FF007094FF00D0981F8059081F801E009E0B9F1010F0CBF4FF005094FF0090981F805904F704FEA02191A4906FB0282494481F818
:401D800002E0B2F808A0CAF3072A81F800A0B2F808A05FFA8AFA81F801A0B2F806A011495FFA8AFA494481F806A0B2F80690C9F3072981F80790B2F806905FFA89F981F89C
:401DC0000490D288C2F307224A71083394E7BDE8F88F00BF9D86FF1FA486FF1F9986FF1FFC5F0040706000408A86FF1F08B5064B18780138C0B2FFF753FF20B143681B797B
:401E000000EBC300406908BD9D86FF1F00212DE9F84F0B464E4E0C2707FB01F401313219092933554FF000059370494CD3701381937253705371EFD118B1464B1D70464B02
:401E40001D70464B1A78002A7FD0187801250138C0B2FFF725FFA8464368DFF8F8E0DB790C2713F0400F3E4B4FF0000C1A7814BF42F0010202F0FE021A70027AD20007FB63
:401E80000541C36803EB02094B4531D093F802A00AF07F06AE4229D10E89B3F804B0B6B25E4538BFA1F808B01E7893F801B01EF80660B3451AD181F804A0DE780E7093F99A
:401EC00002A0DE78BAF1000F06F0030607DA012E0CBF07260D264E7181F8018006E0012E0CBF052609264E7181F801C00833CBE70135092DC3D1C1680A328B1C0A440C2097
:401F00000833934209D013F8081C13F80A5C01F07F0100FB01418D72F2E7FFF767FF114B0121186000230C2000FB0142D3801289013113449BB203F00102134409299BB223
:401F4000F2D1BDE8F84FFFF767BEBDE8F88F00BFA486FF1F8A86FF1F1287FF1F9D86FF1F9B86FF1FA086FF1F114B1B7903F07F035A1E072A19D80F490C2202FB031291781B
:401F80001B0141F0010191700021D170517841F002015170127912F0800F074A1A4414BF8D2389239370FFF715BC0020704700BF00600040A486FF1FFC5F004030B4194B8C
:401FC0001A7902F07F02531E072B27D8164B0C2404FB02339978154D01F0FE0199700021D97029461201505D114400F07F0050555A7802F0FD025A701A795B78120605D521
:40200000012B01D18C7006E00D2303E0012B0CBF082309238B7030BCFFF7DCBB002030BC704700BF00600040A486FF1FFC5F004010B50D4B0D4C21791878C9B20138C0B220
:40204000FFF72EFE43681B798B4201D2012909D8074A0848535CDBB24354A3780120DBB2535410BD002010BD9D86FF1F006000408A86FF1F1287FF1F38B58A4A8A4C1378CE
:402080000021DBB221801806517840F18D800A2900F20581DFE811F05D00030103010301030103010B0003017E0003018200D3787C49012B09D17D4B1A787D4B03EBC203CA
:4020C0005B685B686360122310E0CB78022B12D18878FFF7E5FD002800F0E180436863606368DA7863689B7843EA02232380BDE83840FFF78FBCCB78032B26D16D4B0022D0
:402100008878D5B2854209D3664A91786A4AEE2908BF1346634A917881B106E0187801320028F1D018780344EAE764499278097C914203D16248FFF739FD614B1A78002A8E
:4021400000F0AD801A78228018E0BDE8384000F023BF13F0030313D0022B40F0A0802380504B0C211B7903F07F02564B01FB02339A78554BD2B21A7000225A706360B6E76D
:4021800002222280514A11784F4AC9B2117053706260ACE7012323804D4BEFE70123238013794C4A1344E9E701390A2977D8DFE801F037764F76067676760A76200093784A
:4021C000454ADBB25AE0937803F0FF0153B9404B1A7891425FD01970404B01201870FFF715FE58E0481EC0B2FFF75AFD0028EED155E0FFF71DFF002851D02A4A3849137945
:402200001279DBB2D2B20A70364A3249D25CCB5C9A4240D0314B01221A70FFF753FD3AE003F00303012B2BD009D3022B37D11D4B9B78002B33D1BDE83840FFF7BFBE194BF4
:402240009B78012B2BD1214A137803F0FD0315E003F00303012B13D008D3022B1FD1114B9B78E3B9BDE83840FFF77EBE0D4B9B78012B14D1154A137843F0020313700AE0E0
:40228000084B1A795AB998781B791749DBB2CA5C22EA0002CA54BDE83840FFF79BBA002038BD00BF006000408C86FF1F9886FF1F803A0000E43A00006C3A0000573B0000EA
:4022C0003087FF1FA486FF1F4986FF1F9B86FF1F9D86FF1F8A86FF1F8886FF1F9C86FF1F9986FF1F1287FF1F9F86FF1F074B1A78120609D55B78012B06D1054B054A5A607A
:4023000012781A80FFF786BB00207047006000408C86FF1F443A0000014B1870704700BF77650040014B1878704700BF68650040014B1870704700BF7A650040064A01237B
:40234000136002F688321268E0211064034A1170A2F540721360704780E100E000E400E0014B1870704700BF79650040014B1870704700BF7565004073B515461E460B4CF9
:4023800005230022019200920A4601461846237000F064F932462946207800F01FF90221207800F009F9207802B070BDD080FF1F064A0423136002F688321268E0219064B5
:4023C000034A1170A2F202321360704780E100E002E400E0014B04221A60704700E100E0014B04221A60704780E100E0014B1870704700BF7B650040704738B505460078FD
:40240000012428B100F060FD285D0134E4B2F8E738BD08B50D2000F057FDBDE808400A2000F052BDF7B516461F460B4C00230325019300930A4601462846257000F00EF922
:402440003A463146207800F0C9F80221207800F0B3F8207803B0F0BDE080FF1FF7B516461F460B4C00230225019300930A4601462846257000F0F2F83A463146207800F028
:40248000ADF82946207800F097F8207803B0F0BDE180FF1FF7B516461F460B4C00230125019300930A4601462846257000F0D6F83A463146207800F091F80221207800F03B
:4024C0007BF8207803B0F0BDE280FF1F73B515461E460B4C0023019300930A4601461846237000F0BBF832462946207800F076F80221207800F060F8207802B070BD00BF28
:40250000E380FF1F024B1878C0F38010704700BF8F450040074A7F23802113705170064A013BDBB202F80839002BF9D1034A1370704700BFE480FF1FF87B0040007800401C
:4025400017280FD8084B0001C25C11B142F0200201E002F0DF02C254C25C42F00102C25400207047012070471070004017280BD8064B0001C25C02F0FE02C254C25C02F061
:40258000DF02C25400207047012070471070004017280DD8074900010B4603441A7942F004021A71435C43F00103435400207047012070471070004017280BD8064A000103
:4025C000835C490003F0F10301F00E011943815400207047012070471070004041F6FF73994208BF4FF400519A4208BF4FF4005217289FBFC00000F1804000F5EC408180E5
:402600009ABFC280002001207047000017289FBF034B00011954002088BF0120704700BF1970004017289FBF054B00011A5C01F007019DBF1143195400200120704700BFB6
:402640001470004017289FBF034B0001185C00F0070088BFFF20704714700040172810B51AD8C00001F07F0100F1804441EAC21204F5EC44D2B222709DF8082003F00F0382
:4026800043EA0213DBB263709DF80C30002003F00F03A370E07010BD012010BD10B500F073FC0A4A5378182B0AD91478013B5370E30003F1804303F5F0431B78137000E0B5
:4026C000FF2400F065FC204610BD00BFE480FF1F030610B5044611D400F056FC084AE300117803F1804303F5F04319705378147001335370BDE8104000F04ABC10BD00BFCD
:40270000E480FF1F30B504060CD411F4704509D1C40004F1804404F5F0442180A270E370284630BD012030BD03065FBFC00000F1804000F5F04081805ABFC2800020012041
:402740007047000038B50446084DB4F5004F05D9286800F011FCA4F50044F6E7034B58686043BDE8384000F007BC00BFEC80FF1F024B1B7A584300F0FFBB00BFEC80FF1FBF
:402780000E4B00F003001A78490102F0FC02104318701A7801F0600142F080021A701A7802F07F021A701A7802F09F020A431A701A7842F010021A70704700BF834300409D
:4027C000014B01221A70704784430040044B00F00F021B6853F8220043F82210704700BF08ED00E0054A00F01F00126800F1100352F8230042F82310704700BF08ED00E029
:4028000000F01F0000F16040490100F56440C9B2017070470F4B10B50F4900240F205C609C60DC601C615C61FFF7D0FF0B4A136843F0040313600A4B4FF47A72DB68B3FBC3
:40284000F2F3084A1360084B4FF400421C60C3F8E82010BD4C86FF1FC128000010E000E0EC80FF1F14E000E018E000E0024A136843F002031360704710E000E008B5FFF73F
:40288000F5FF034A136843F00103136008BD00BF10E000E010B5054CA3691BB9FFF7BAFF0123A361BDE81040FFF7E8BF4C86FF1F024B1868C0F30040704700BF10E000E009
:4028C00038B5FFF7F5FF012808D1054D002455F8243003B198470134052CF8D138BD00BF5086FF1F024B03EB80035868596070474C86FF1F134B144A1B78DBB203601278D7
:4029000043EA0223114A0360127843EA0243104A0360127843EA026303600E4B0E4A1B78DBB24360127843EA02230C4A4360127843EA02430A4A4360127843EA0263436054
:40294000704700BF0301004904010049EC460040020100490101004900010049050100490601004910B500F00FFB204A044613780A2043F002031370137C43F00203137423
:4029800012F80A3C43F0010302F80A3C937943F00103937102F5AB52137843F003031370134B18221A7013F8012C42F0400203F8012C13F8012C02F0FC0203F8012CCE2298
:4029C00003F8062CA3F597530222183B1A70094A137843F008031370FFF7CAFE064B10222046BDE810401A6000F0D2BAAB4300400E5900402F5B004080E200E008B500F068
:402A0000C3FA0F4A137803F0FE031370A2F5AA521D3A137803F0FD031370137C03F0FD03137412F80A3C03F0FE0302F80A3C937903F0FE039371BDE8084000F0A9BA00BF03
:402A400008590040044A137803F03F0343EA8010C0B21070704700BF08590040082804D00A280CBF8223C22300E0422308380E4AC0B20428137098BF0C4B4FF0000298BF12
:402A800033F910100A4B88BF11461A8042F210734B4341F2883103F6C41393FBF1F305490B60054B1A8070470A5900402E3A00001A87FF1F1C87FF1F2087FF1F08B5102033
:402AC00000F0A6F907210420FFF79AFE07490420FFF788FE064A0C20137843F006031370FFF7BCFF034B00221A8008BDB52B0000095900401887FF1F10B5054C23781BB973
:402B0000FFF7DCFF01232370BDE81040FFF72ABF6886FF1F044B1A7802F0FB021A701A7842F001021A7070470859004010B5084B1C7814F0010403D10028F9D0002404E0A8
:402B40002046FFF715FE024B1B78204610BD00BF09590040034A044B1B881088181A00B2704700BF2087FF1FA25B00400E4A13881BB223B111880A2309B2594301E00B4B57
:402B800019680B4B1B88C01A42F2107300B203FB00F2022391FBF3F30028D8BF5B42134493FBF1F000B270471A87FF1F1C87FF1F1887FF1F7047000010B500F0E5F9214A54
:402BC000044613780A2043F001031370137C43F00103137412F80A3C43F0020302F80A3C937943F00203937102F5AA521832137843F003031370144B18221A7013F8012CE0
:402C000042F0400203F8012C13F8012C02F0FC0203F8012CCE2203F8062CA3F597530222123B1A70094A137843F008031370FFF79FFD074B08222046BDE810401A6000F09C
:402C4000A7B900BFAB43004006590040275B004080E200E008B500F097F90F4A137803F0FE031370A2F5AA52153A137803F0FE031370137C03F0FE03137412F80A3C03F09B
:402C8000FD0302F80A3C937903F0FD039371BDE8084000F07DB900BF00590040044A137803F03F0343EA8010C0B21070704700BF00590040082804D00A280CBF8223C2230F
:402CC00000E0422308380E4AC0B20428137098BF0C4B4FF0000298BF33F910100A4B88BF11461A8042F210734B4341F2883103F6C41393FBF1F305490B60054B1A807047EA
:402D000002590040383A00002687FF1F2C87FF1F2487FF1F08B5102000F084F807210320FFF76EFD07490320FFF75CFD064A0C20137843F006031370FFF7BCFF034B002273
:402D40001A8008BD0D2E0000015900402887FF1F10B5054C23781BB9FFF7DCFF01232370BDE81040FFF728BF6986FF1F044B1A7802F0FB021A701A7842F001021A70704704
:402D80000059004010B5084B1C7814F0010403D10028F9D0002404E02046FFF7E9FC024B1B78204610BD00BF01590040034A044B1B881088181A00B2704700BF2487FF1F51
:402DC000A05B00400E4A13881BB223B111880A2309B2594301E00B4B19680B4B1B88C01A42F2107300B203FB00F2022391FBF3F30028D8BF5B42134493FBF1F000B27047E1
:402E00002687FF1F2C87FF1F2887FF1F70470000034A00F0F800137803431370704700BF02410040034A00F0F800137803431370704700BF06410040014B1870704700BF20
:402E400079640040014B1870704700BF7665004073B515461E460B4C04230022019200920A46014618462370FFF7F8FB324629462078FFF7B3FB02212078FFF79DFB2078AF
:402E800002B070BDFC80FF1F074A0223136002F688321268E0215064044A11706FF440710A441360704700BF80E100E001E400E0014B1870704700BF72640040014B18707B
:402EC000704700BF70640040FEB5494652465B460EB40746244909688A46244A12682448022100F071F8030020480068C018204900F06AF8143883460121C9430C4601251F
:402F0000002600F041F8814651460B7823400B705846013000F030F83800F04028400B78234003430B70584600F026F80136072EF2D9002001300138013001200B78234080
:402F400003430B705846043000F016F8484600F01FF800BF00BF00BF0EBC894692469B46FEBD00BFAFF30080D480FF1FF880FF1F00C20100000000000230800803D000BFE9
:402F800001380046FCD17047EFF3108072B6704780F31088704700BF094A137803F00303012B0AD0022B09D113790C2103F07F02044B01FB02339B7A00E013790020704753
:402FC00000600040A486FF1F002902D0B0FBF1F0704708B14FF0FF3000F008B80029F8D00246B0FBF1F000FB11217047704700BF014B1868704700BF6081FF1F0E4B70B5F6
:403000001E460E4C0025E41AA410A54204D056F8253098470135F8E700F0BAFD084B094C1E46E41AA4100025A54204D056F8253098470135F8E770BD9C3B00009C3B0000F2
:403040009C3B0000A43B000003460244934202D003F8011BFAE7704730B5141E05469BB0184604DA8B232B604FF0FF301DE04FF40273ADF80C300CBF234604F1FF3302939F
:4030800005934FF6FF7300910491ADF80E3002461E9B6946284600F073F8431CBCBF8B232B6014B1009B00221A701BB030BD000007B5009313460A46014603480068FFF780
:4030C000CBFF03B05DF804FB6081FF1F2DE9F0478E6882469E420C46914698463ED88A8912F4906F3AD02568096902236F1A656905EB450595FBF3F57B1C43449D4238BFB5
:403100001D4653050FD5294600F04AFB064698B13A46216900F0D2FAA38923F4906343F08003A38113E02A4600F098FB064670B92169504600F0E8FA0C23CAF80030A38947
:403140004FF0FF3043F04003A381BDE8F08726613E44266046466561ED1BA560464528BF464649463246206800F0B3FAA36800209B1BA36023681E442660BDE8F0870000A0
:403180002DE9F04F9DB003938B8980461C060D4616460DD50B695BB9402100F001FB2860286118B90C23C8F80030CDE040236B610023099320238DF82930DFF89CB1302341
:4031C0008DF82A3037463C4614F8013B1BB9B7EB060910D003E0252BF9D02746F3E74B46324629464046FFF771FF013000F0A780099B4B4409933B78002B00F0A080002375
:403200004FF0FF3204930793059206938DF853301A930126052221784E4800F041FA671C049B38B14B4A3C46801A06FA00F018430490EFE7D90644BF20228DF853201A07B2
:4032400044BF2B228DF8532022782A2A03D0079A00210A200BE0039A111D12680391002A10DA524243F00200079204900BE027463B780134303B092B03D800FB0232012180
:40328000F5E701B107923B782E2B1ED17B782A2B0AD1039B02371A1D1B680392002BB8BF4FF0FF33059310E0002319460593781C0A2407463A780130303A092A03D804FB85
:4032C00001210123F5E703B1059103223978224800F0E6F940B14023CBEB000003FA00F0049B013718430490397806221B487E1C8DF8281000F0D4F988B1194B33B9039B1F
:40330000073323F007030833039314E003AB00932A46144B04A94046AFF3008007E003AB00932A460F4B04A9404600F093F8B0F1FF3F824603D0099B5344099342E7AB89BE
:403340005B0601D4099801E04FF0FF301DB0BDE8F08F00BF6B3B0000713B0000753B000000000000CD3000002DE9F04791461F460A698B6806469342B8BF1346C9F80030A7
:4033800091F843200C46DDF8208012B10133C9F800302368990642BFD9F800300233C9F80030256815F0060510D104F1190A07E00123524639463046C04701301AD001359A
:4033C000E368D9F800209B1A9D42F1DB94F843302268003318BF012392060FD5E118302081F843005A1C94F845102244023382F8431003E04FF0FF30BDE8F08704F1430293
:4034000039463046C0470130F4D02268D9F80050E36802F00602042A08BF5D1B2269A3680CBF25EAE57500259342C4BF9B1AED184FF000091A344D4509D001232246394631
:403440003046C0470130D5D009F10109F3E70020BDE8F0872DE9F04317460A7E85B06E2A984606460C460C9B01F1430E00F0AE8011D8632A22D009D8002A00F0BB80582A40
:4034800040F0CA8081F84520834955E0642A1ED0692A1CD0C0E0732A00F0B08009D86F2A2ED0702A40F0B8800A6842F020020A603EE0752A24D0782A3AD0ADE01A6801F153
:4034C0004205111D1960136884F84230A8E021681A6811F0800F02D0111D196008E011F0400F02F10401196002D0B2F9003000E01368002B3CDA2D225B4284F8432037E005
:4035000021681A6811F0800F02D0111D196007E011F0400F02F10401196001D0138800E01368227E5C496F2A14BF0A2208221BE078225A4984F845202268186812F0800F4D
:4035400000F104051D6003D1550601D5038800E00368D00744BF42F0200222601BB9226822F0200222601022002084F8430001E049490A226568002DA56008DB206820F00B
:40358000040020602BB9002D7DD175460CE0002B79D07546B3FBF2F002FB1033CB5C05F8013D03460028F5D1082A0BD12368DA0708D5236962689A42DEBF302305F8013C36
:4035C00005F1FF35C5EB0E0323612EE008681A6810F0800F496903D0101D1860136808E010F0400F02F104001860136801D0198000E0196000232361754616E01A68111D3C
:403600001960156800216268284600F049F808B1401B6060636804E004F1420584F8422001232361002384F84330CDF800803B4603AA21463046FFF797FE013002D14FF095
:40364000FF3026E023692A4639463046C0470130F5D023689B0710D5002504F1190907E001234A4639463046C0470130E7D00135E368039A9B1A9D42F2DBE068039B98421B
:40368000B8BF184605E00B7804F1420584F842308AE705B0BDE8F0831D3A00007C3B000010B5C9B202449042034605D01C7801308C42F8D1184610BD002010BD10B5431E47
:4036C0000A44914204D011F8014B03F8014FF8E710BD884210B501EB020301D8421E0BE09842FBD28118D21AD34204D013F8014D01F8014DF8E710BD994204D011F8014B80
:4037000002F8014FF8E710BD38B50546002944D051F8043C0C1F002BB8BFE41800F0D4F81E4A1368114613B96360146030E0A3420DD92268A018834201BF18685B681218C4
:40374000226063600C6023E0A24203D813465A68002AF9D118681918A1420BD12168014458188242196013D110685268014419605A600DE002D90C232B6009E021686018E2
:40378000824201BF106852680918216062605C602846BDE8384000F098B838BD7086FF1F70B5CD1C25F0030508350C2D38BF0C25002D064601DBA94202D90C23336046E093
:4037C00000F082F8234B1C681A462146A1B10B685B1B0ED40B2B03D90B60CC18CD501EE08C420BBF63684B681360636018BF0C4615E00C464968E9E7174C23681BB9304698
:4038000000F052F820602946304600F04DF8431C18D0C41C24F00304A0420DD12560304600F053F804F10B00231D20F00700C31A0ED05A42E25070BD211A304600F034F8A2
:403840000130EBD10C233360304600F03EF8002070BD00BF7086FF1F6C86FF1FF8B5074615460E4621B91146BDE8F840FFF798BF1AB9FFF749FF2846F8BD00F027F88542BF
:403880000ED929463846FFF78BFF044650B131462A46FFF713FF31463846FFF735FF01E03046F8BD2046F8BD38B5064C0023054608462360FDF7DEFB431C02D1236803B178
:4038C0002B6038BD5487FF1F7047704751F8040C0028BEBF091851F8043CC0180438704700000000050209020B020D020F02110213027265706C79203078253032780068AC
:403900006F6D696E6700626567696E6E696E67207365656B2066726F6D20256420746F2025640066696E6973686564207365656B0057616974696E6720666F722055534275
:403940002E2E2E0055534220726561647900636F6D6D616E642030782530327800756E64657272756E206166746572202564207061636B65747300636F756E743D25642090
:40398000693D256420643D256400636D645F777269746500703D25642063723D25642063773D256420663D256420773D256420696E6465783D256420756E64657272756EE5
:4039C0003D25640077726974652066696E69736865640073746172742065726173696E670073746F702065726173696E670069646C65000051004010004051004030000026
:403A0000000140001000140140000800400140000A004C01400002005001402000303132333435363738394142434445460000010000000400000010000100000004000051
:403A40000010000028000000000104000100000000000000000157494E5553420000303030303100000000000000000012034D00530046005400310030003000010000005D
:403A800001000000883A000001000000573B0000000000000000000001000000A03A000001000000293B000004000000C23A0000000000000000000000000000C03A000076
:403AC000FF00000001024000FF00000082024000FF00000003034000FF00000084034000FF00020304030904160346006C007500780045006E00670069006E0065002A0363
:403B000043006F0077006C00610072006B00200054006500630068006E006F006C006F0067006900650073000009022E0001010080320904000004FF000001070501024061
:403B40000000070582024000000705030340000A0705840340000A12010002FF0001080912006E0100020180014300232D302B2000686C4C00656667454647003031323319
:403B800034353637383961626364656600000000F8B500BFF8BC08BC9E46704759000000F1100000F8B500BFF8BC08BC9E46704735000000C83B0000C880FF1FA0000000D3
:403BC000F005000000000000000000005887FF1FFF000000675000400C00000007000000FFFFFFFF7F8000003F0000000000007D00FA0000400000000090D003FF00000077
:403C00000000000000000000000000000000000000000000000000000000000000000000693B000000000000000000000000000000000000000000000000000000000000E0
:403C400000000000000000000000000000000000000000000000000000000000000000000081FF1F00000000000000000000000000000000000000000000000000000000A5
:403C80000000000000000000000000000000000000000000000000000000000000000000000000000000000000000000000000000000000000000000000000000000000004
:403CC00000000000000000000000000000000000000000000000000000000000000000000000000000000000000000000000000000000000000000000000000000000000C4
:403D00000000000000000000000000000000000000000000000000000000000000000000000000000000000000000000000000000000000000000000000000000000000083
:403D40000000000000000000000000000000000000000000000000000000000000000000000000000000000000000000000000000000000000000000000000000000000043
:020000040003F7
:0200000480007A
:400000000145004008520040015B00400164004001650040450001403A01014048020140530301404504014057050140500601404E070140460801405B0901404C0A014076
:400040005F0B0140570C0140550D0140460E01403C0F0140441401405B1501404716014054170140541801405C190140461A0140601B01400E4001400E410140094201406E
:400080000C430140054401400445014007460140114701400A48014010490140174C0140084D014008500140045101407E02080209441080180219016013611A7C40272152
:4000C0003C01290A0207030507400804090F0A100F0A141815031601171019401A201C041D0C1E081F032018232024022618270F281F29032B1C2D802E18303F33C0353FA3
:400100003B20580459045B045C995F0180208108840188108C0190109302950A96019704980C9A029B019C08A101A202A40AA604AA10AB04AD0CAE04AF02B430B50FB60F0E
:40014000D608D80BD904DB04DC99DD90DF01012204080550064009940B010D020E240F021098120217A519021D701F80210422282320261028102A422B182E902F803088C8
:4001800031103610370538A039083B013F025E406640680269206A106B017F40821083808502864289808B01C0FAC2F7C4FFCABFCCEECE8FD610D810DE80E009E206E408D2
:4001C000E60401080401050C07020A0112021401150A17041A011B011C01210F26012A042B042C012F0232073407350F3A285804590B5B045C995F0180068318860287203B
:4002000088068A018B078C068D048F08911F920694079540980699029B189C039D189E08A140A201A401A504A60CA710A918AA01AB01AC01AD40AE06B00FB140B33FB54083
:40024000BB33BE01D608D804D904DB04DC90DD90DF0100100110028103200414080D09400B090C040F851101120A13081548172019011C041E081F0820A0231824082520DD
:4002800029092B062C022D082E102F9030A031063610370439803A063B103E043F02598063026F057F4080408202868487018F0C9120921094889644978099809D209E80F6
:4002C0009F04A002A210A380A488A590A711A810A906AE02B120B220B308B608C06FC2FFC4EFCABFCC6FCECFD608D808DE80E002E201E606EA05EE0802020408050A0705B7
:40030000080309020A0C0E010F02120814081502170419011A0F1B081C08200824082703280429012B022C0F2D03320F350737083B203E043F40580459045C905F018210A4
:400340008308862087208A3F8B028D018E089001913F9602973F9A049B109C3F9F04A03FA33FA53FA63FAA3FAB3FAC3FAD3FB23FB33FBE04BF04D608D804D904DB04DD9016
:40038000DF01000801100291055106100A040B590E030F541181120813041551170819081D04200621C02720281429802B102C402D402E082F08300831203540360937109D
:4003C000380439803B203C083D013F5049104A085F80668082408380848488018A048D908E049120932095D99640978C99229B0D9C099D049E059F20A042A120A204A309CE
:40040000A408A5D2A68AA772A820A902AC80AF01B050B120B310B704C0FFC2FFC4FFCAFECCF6CEFED610D810E24DEA09EC08EE0401010407050109010A070C060D010E01E6
:400440000F02120113011407150119011A021C041F01200721012405250126022A082B012D012F02300F3303340F3A223F04580459045C095F0182C984098540880989C0D4
:400480008A808C098D048F0890FC920293079408951F964398C999029B189CCD9D189E10A0C9A318A4C9A720A8CDA904AA30AB10AC04AD18AEE1AF01B0C0B13FB23CB34013
:4004C000B403B580BE15BF04D804D904DC90DF0100810328051407010A650B020C020D100E200F02115812821440172418201B121D101F11200421042209272029A22A04C0
:400500002D112E082F013098320135043752381439803C083E403F117C087F108002838086108A1A8E0891A09204955996039755981099A29A849B059C499D419E099F10E7
:40054000A0CBA204A309A404A540A68AA762AB10AC08AD0AAF40B201C0EFC2FFC47FCAFFCCFFCEFEE60AEA0FEC08EE01000701080501060809010A420C070D011101121082
:400580001501162118C61A211B011C071F0420A522422302248425012B012C072D0130E03108321F34E0370739803E013F015608580459045B045C995D905F0180028218D2
:4005C000830586078A208D08901892019504961898049A109C1F9D02A004A208A418B104B23FB301B502B708BF51D608D804D904DB04DC99DD90DF01010803440502060402
:400600000712081009400A400B100D080E020F84128013081420168219081A101E201F25208621032207244027032D802E042F483244340835603702380139803D183F41BF
:4006400048044A0858405C80600362406701698080048502872088018A018B018C808E018F84901A912C92409334948095419633978A983199419A849B0C9C029E519F4169
:40068000A148A280A454A624A780AB40AD40AE40AF01B302C0FEC2FFC4BCCAF0CCFACEF9D618D818E004E4C0E622E820EA05000201030402050308020B080D030E0210020D
:4006C000130314021503180819031A011C101F03201C22032302240326042701280229032C022F04310F330F350F361F3E40580459045C905F0180F282048301840A860528
:40070000870188138AE08B018D018ED390139101922095019A129B019F01A001A208A301A412A680A701A812AA40AB01AF01B0F0B207B408B501BA08BE10BF10D804D904F6
:40074000DB04DC09DF0100800120021003A004820504070808010A210B080E44104411401220132014101518164019401C401D051E44201021102202232024082704288493
:400780002B212C822E2430403211330835113748382039023B883DA63F10444047016C016D806F02840485018708880889108AA28B088D018F059020910C932494C0957116
:4007C0009636970898A199309AA49B089C4A9D019E019F46A082A119A414A540A624A702A840AB80AC20AF08B005B340B440C0FFC25FC47FCAFFCCFFCEFFE080E245E67024
:40080000EA60ECA000040203060108010A040C030E0411011202130E150E16011701190C1A011D031E011F08220126012A012E0134073508370739803E103F50402149FFC2
:400840004AFF4BFF50045601580459045A045B045D095F0160806240644065648101820183088406853187C2887F8D0A8E018F0592049406972298569A219C409D809E0606
:400880009F33A011A133A226A340A407A608A806AA78AB10ADF2AE02AF04B108B27FB308B5F0B707BB80BE04BF05D804D904DC90DF010028010102010448074808010A2285
:4008C0000B080C880E040F4010401140122013101504160A170118201F10200421442206234825A0280829012B0232043340350136103748380639A03B103D023E0245A070
:400900006C066D266F817488751076288110820287048C808D208E8090029488951C961497409A049C0E9D019E0A9F4FA108A210A488A540A604A801A921AF20B080B101A6
:40094000B340B620C0FFC2FFC4FFCA0DCCFACE0BD030E010E410E602E820ECC00002023803070504071009040A400B080D020E070F181034111F12081404163017201838E7
:400980001A011C3F1F18211822282301240826102918367F373F580459045C995F0180058102820A8601880B8A048B018C0C8E03920196019A019E01A103A201A601AA0119
:4009C000AE01B202B401B60CB703BE50C201C60EC804C9FFCAFFCBFFCF83D804D90BDA04DB04DC99DD09DF0101800344048805110708080809600A020B400C880D010E0490
:400A00001040130814401504160A170119801D801E201F202301240329112F40308032013304388039183B013E21458057405D805E185F026484650867017C0282048340AD
:400A40008408850886018908C0FBC2FFC4FCCA85CC0BCEAFD010D6F0D8F0DE80E420E684013F0208063F07020A3F0B100C3F0D01103F13081602173F1A101B201D3F1E3FE1
:400A8000203F233F253F26042A202B3F2C012F04323F373F3E043F404003450E47C0482149FF4AFF4BFF50045601580459045A045B045D095F0162C082028A048E0190010F
:400AC00095019601970298019C01AA01AC01AD02AF01B102B407B501B922BA20BF11D804D904DB04DC09DF010101020A032004200542084009080A880D840E48100813455F
:400B00001510160118201D101E081F2021402488284829442C0231803259370439203A093B404010411043104A2051016203681C69016A2A6B126D806E406F027001714CBB
:400B40007208735580418302840485408A818B068D198E208F10901091189408958396409755984899029B049D419E089F12A002A180A20AA414A540A680A722A914AA01A0
:400B8000B109B340B404B604C0DFC2FFC4CFCA1FCC4FCE0FD002E214E40FEA05EE020102050209020E030F06100211021201150117041902200421022401250226022B0300
:400BC0002D033104320434023503360138A03E543F11580459045B045F018037814883208430860C87018A628B018C378F04901391019248954896119710983799019C374E
:400C00009D409F30A037A349A637A702A837A949AD49AE37B00FB340B507B670B738BB20BE41D804D904DB04DC90DF010080028003280701080809800A640B020C0210600B
:400C4000112012021680170419021B401D181F802010211022542404274028412A102B102D112E082F023254330236083712398A3B103C083F51640167026B016C026F040C
:400C80008110881089108C04911892049302941095019660975598409A909D419E099F52A060A20EA318A404A544A680A7E0A821A904AC41AD10B001B110B310B410C08F69
:400CC000C21FC43FCAFFCCEFCEFFE080E210E404EA03EE290008030106020A080C080F021101120F1403160C18081C0F1F0120012408270428082C04300F310739023E0196
:400D0000580459045B045C905F0182028303848F850386108A088B088D108E0192049304940E9503982E9AC19B019C7F9D03A021A103A2CEA601A702A80EA903AA70AE0E87
:400D4000AF03B10FB27FB30FB480B510BE14BF10C026C602C804C9FFCAFFCBFFCD20CEF0D110D804D904DA04DB04DC90DD09DF01E108E240E340E480E640E7400010022159
:400D8000038005AE08010A210B080D020E271090124A130314081502162518241F022008210A22082480274028202A422B042F1030203184330235013740382039823B08AE
:400DC0003D803F024004480451405C406A807A087B04886089018A108D518F10905A912E93289480955196A497C0980199019A019B0A9C489DA09E109F40A040A1C0A2329F
:400E0000A301A410A504A60DA74CA902AB02AD02AE12B180B220B301B710C0FFC2FFC4FFCA4FCC9FCE9FD004D204D610E080E4A4E8A0EC40013D03C0050C074009800D80F7
:400E400011801580180219801C021F0321302580280129A92D563202340135FF3A083E103F105608580459045B045C095D905F01803E8113832085058640883089058C0426
:400E80008D108E30900191059408952C9620970299059A0E9C089D089E109F02A10FA310A630A705A830A905AA02AD05B001B47EB73FBE01BF40D804D904DB04DC09DF0169
:400EC000048A070809600C020D040E080F0210081504171019181A201B041E081F0121202540282029802A012B042C802D202E802F20302131883410350A374039603B09B6
:400F00003C803E2758805E805F20600268086A406C0278027A4082408368841085128740881089A88A058B408C808D448EA48F80908A912C93099550962597C298219A019D
:400F40009B389C109D1A9E26A0E0A188A301A410A504A604A788A908AA08AB01B1A0B320B420B740C0F0C2F3C462CAFFCCFFCEFFD638D808E060E280E4F0E860ECE4EE029E
:400F80001B011F0831103308350836803B4081088340C630CCF0CE10E220E6203010320137143A083F80860197409D10A340AE80AF01CCF0CE60E640518057208D109740C9
:400FC0009C109D109E089F14D46082408320841097409C109E08A580A720AB14E220E660EAA0150880408904C404E6015D0284809440D60118408140824094409C809D02DB
:40100000C60808800B200F818201871089028C109580964097019C809D02A740AB41C20FE001E20826808A808D80924097409A109E08A580B210C82056105A4079807F02B2
:40104000814083028E0892409A109E08AF40D4C0DC80DE20E2A0EE40041008020D400E401F10538056805820620181028E808F809410958096409A01C001C20DC601D4077D
:40108000D802E002E40875028C0298029902A820AF10DE04E208010109010B010D010F0111011B011D0100FF01AB020211050000BF0000A09F001F00000000000000000097
:4010C000100000004000000000000000C0000000FF0000B8470047000001000080000000800080000000000000030300030000002700180127001801000400000005000088
:4011000000000000000000000000000000000000000000000000000000000000000000000000000000000000000000000000000000000000000000000000000000000000AF
:40114000000000000000000000000000000000000000000000000000000000000000000000000000000000000000000000000000000000000000000000000000000000006F
:40118000000000000000000000000000000000000000000000000000000000000000000000000000000000000000000000000000000000000000000000000000000000002F
:4011C00000000000000000000000000000000000000000000000000000000000000000000000000000000000000000000000000000000000000000000000000000000000EF
:0200000490006A
:0400000000000007F5
:0200000490105A
:04000000BC90ACAF55
:0200000490303A
:02000000BE0A36
:0200000490402A
:4000000000000000000000000000000000000000000000000000000000000000000000000000000000000000000000000000000000000000000000000000000000000000C0
:400040000000000000000000000000000000000000000000000000000000000000000000000000000000000000000000000000000000000000000000000000000000000080
:400080000000000000000000000000000000000000000000000000000000000000000000000000000000000000000000000000000000000000000000000000000000000040
:4000C0000000000000000000000000000000000000000000000000000000000000000000000000000000000000000000000000000000000000000000000000000000000000
:0200000490501A
:0C00000000012E16106900002E31CE7396
:00000001FF